:100000000C947B190C94A3190C94A3190C94A319A8
:100010000C94A3190C94A3190C94A3190C94A31970
:100020000C94A3190C94A3190C94D01F0C943F208A
:100030000C94A3190C94A3190C94A3190C94A31950
:100040000C94A3190C94A3190C94A3190C94A31940
:100050000C94A3190C94A3190C94A3190C94712259
:100060000C94A3190C94A3190C94A3190C94A31920
:100070000C94A3190C94A3190C94A3190C94A31910
:100080000C94A3190C94A3190C94A3190C94A31900
:100090000C94A3190C94A3190C94A3190C94A319F0
:1000A0000C94A3190C94A3190C94A319000000003C
:1000B000003E5B4F5B3E3E6B4F6B3E1C3E7C3E1CEE
:1000C000183C7E3C181C577D571C1C5E7F5E1C0034
:1000D000183C1800FFE7C3E7FF0018241800FFE7EB
:1000E000DBE7FF30483A060E2629792926407F05AE
:1000F0000507407F05253F5A3CE73C5A7F3E1C1CC4
:1001000008081C1C3E7F14227F22145F5F005F5F83
:1001100006097F017F006689956A6060606060946F
:10012000A2FFA29408047E040810207E2010080874
:100130002A1C08081C2A08081E101010100C1E0C7F
:100140001E0C30383E3830060E3E0E060000000011
:100150000000005F00000007000700147F147F14F8
:10016000242A7F2A1223130864623649562050003D
:1001700008070300001C2241000041221C002A1C29
:100180007F1C2A08083E0808008070300008080814
:100190000808000060600020100804023E51494534
:1001A0003E00427F400072494949462141494D3352
:1001B0001814127F1027454545393C4A49493141B9
:1001C000211109073649494936464949291E000087
:1001D00014000000403400000008142241141414DC
:1001E0001414004122140802015909063E415D59C8
:1001F0004E7C1211127C7F494949363E41414122D1
:100200007F4141413E7F494949417F090909013EFA
:10021000414151737F0808087F00417F4100204021
:10022000413F017F081422417F404040407F021C33
:10023000027F7F0408107F3E4141413E7F0909094A
:10024000063E4151215E7F09192946264949493216
:1002500003017F01033F4040403F1F2040201F3FDC
:100260004038403F63140814630304780403615961
:10027000494D43007F4141410204081020004141A3
:10028000417F04020102044040404040000307084F
:100290000020545478407F2844443838444444284B
:1002A000384444287F385454541800087E090218F2
:1002B000A4A49C787F0804047800447D400020407A
:1002C000403D007F1028440000417F40007C0478BE
:1002D00004787C080404783844444438FC18242406
:1002E0001818242418FC7C08040408485454542486
:1002F00004043F44243C4040207C1C2040201C3C03
:100300004030403C44281028444C9090907C4464F9
:10031000544C44000836410000007700000041368C
:10032000080002010204023C2623263C1EA1A16112
:10033000123A4040207A3854545559215555794144
:100340002154547841215554784020545579400C1B
:100350001E527212395555555939545454593955FC
:100360005454580000457C410002457D420001453F
:100370007C40F0292429F0F0282528F07C545545AC
:10038000002054547C547C0A097F4932494949323F
:100390003248484832324A4848303A4141217A3A54
:1003A00042402078009DA0A07D39444444393D401E
:1003B00040403D3C24FF2424487E4943662B2FFCCB
:1003C0002F2BFF0929F620C0887E09032054547979
:1003D000410000447D413048484A32384040227A4A
:1003E000007A0A0A727D0D19317D2629292F2826C7
:1003F0002929292630484D402038080808080808CF
:100400000808382F10C8ACBA2F102834FA00007B27
:10041000000008142A142222142A1408950022002D
:1004200095AA005500AAAA55AA55AA000000FF00E7
:10043000101010FF00141414FF001010FF00FF1024
:1004400010F010F0141414FC001414F700FF000056
:10045000FF00FF1414F404FC141417101F10101FD5
:10046000101F1414141F00101010F0000000001FC3
:10047000101010101F10101010F010000000FF10CE
:100480001010101010101010FF10000000FF1400CA
:1004900000FF00FF00001F10170000FC04F41414FC
:1004A0001710171414F404F40000FF00F7141414C8
:1004B00014141414F700F7141414171410101F1048
:1004C0001F141414F4141010F010F000001F101F6B
:1004D0000000001F14000000FC140000F010F010D9
:1004E00010FF10FF141414FF141010101F00000050
:1004F00000F010FFFFFFFFFFF0F0F0F0F0FFFFFF54
:100500000000000000FFFF0F0F0F0F0F38444438AA
:10051000447C2A2A3E147E02020606027E027E02E5
:1005200063554941633844443C04407E201E200604
:10053000027E020299A5E7A5991C2A492A1C4C7241
:1005400001724C304A4D4D303048784830BC625AC8
:10055000463D3E494949007E0101017E2A2A2A2A58
:100560002A44445F444440514A444040444A514034
:100570000000FF0103E080FF000008086B6B0836F5
:1005800012362436060F090F060000181800000066
:100590001010003040FF0101001F01011E00191D55
:1005A0001712003C3C3C3C0000000000F0F89C8E20
:1005B0008783878E9CF8F00000FEFF03030303038C
:1005C000070EFCF80000FEFF0303030303070EFC05
:1005D000F80000FFFF00000000000000FFFF000027
:1005E000FEFF8383838383C7EE7C380000F8FC0E14
:1005F00007030303070EFCF800003F7FE0C0808084
:10060000C0E07F3FFFFF01010101010101FFFF0089
:1006100000FFFF0C0C0C0C1C3E77E3C100007FFFB9
:10062000C0C0C0C0C0E0703F1F00001F3F70E0C0EE
:10063000C0C0E0703F1F00007FFFC1C1C1C1C1E366
:10064000773E1C00001F3F70E0C0C0C0E0703F1F3D
:10065000000000000001FFFF01000000D5F08D1434
:10066000A1C881CFD9F1AF20001010FF070301010D
:100670000101010101010101010101FF0000000070
:100680000000000000000000000000FEFEFEFEFE74
:10069000FEFEFEFEFEFEFEFEFCF800FFFFFFFFFF7B
:1006A000FFFFFFFFFFFFFFFFFFFF0000FFFFFFFF58
:1006B000FFFFFFFFFFFFFFFFFFFFFF001F3F7F7FE9
:1006C0007F7F7F7F7F7F7F7F7F7F7FFFFFFFFFFFBA
:1006D000FFFFFFFFFFFFFFFFFFFF007F7F7F7F7FA9
:1006E0007F7F7F7F7F7F7F7F3F1F001010FF07FB93
:1006F000FDFDFDFDFDFDFDFDFDFDFDFDFDFF00FF23
:10070000FFFFFFFFFFFFFFFFFFFFFFFFFFFDFDFDFF
:10071000FDFDFDFDFDFDFDFDFDFDFB07FFFFFFFFF9
:10072000FFFFFFFFFFFFFFFFFFFFFF00FFFF00FFD7
:10073000FFFFFFFFFFFFFFFFFFFFFFFFFFFFE0DF08
:10074000BFBFBFBFBFBFBFBFBFBFBFBFBFFFFFFFF9
:10075000FFFFFFFFFFFFFFFFFFFFFF00FFBFBFBF68
:10076000BFBFBFBFBFBFBFBFBFBFDFE0FF1010FF36
:10077000FFDFEFDFFFFFFFF7FFFFFFFFFFBFFFFF21
:10078000DFFFFFFFFFFFFFFBFDFDBBFFFFFFFFFFE5
:10079000FFFFBFDFBFDFEFFFFFFF7FBF7FFFFFFF79
:1007A000FFFFF7EBF7FFFFFFFFFFFFFEFFFFFFFF7E
:1007B000FFF7EBF7FFFFFFF9F3F9BF5FBFEFF7BFFD
:1007C000DFFCF9E7F3F9FFEFF7FFFFD7EBFFFF3FA0
:1007D0005FAF53AD5DAEFEFE5EAEFEFDFBF70FF00C
:1007E000E1E2C5CA858B978AC5E3E5EBE5F2F8013E
:1007F00000000203000201020002010003020100E6
:1008000002020301030102010100010201010200D1
:1008100001000002010300020103020003030202BF
:1008200002010000030100020101020003020200B4
:100830000302030203000301000002000303030399
:10084000000003030203030301030200010200018D
:10085000010100030000000003000201020100008A
:100860000102030203030202020003010102020269
:100870000002010001020300020003010001010265
:100880000200010301010302000002010201030052
:100890000102010103010201030002000101000342
:1008A0000001000200000001020101020301000139
:1008B0000101010002030201000000020102010225
:1008C000030201020200010100030002000303030E
:1008D0000102010101030101000103010002000303
:1008E00003030201030200020003010200000103EE
:1008F00001020003030102000102030303010003DC
:1009000003020000010303020202030100030001CD
:1009100000010103010200020301030003000100C2
:1009200000010303010101020101010100030302AF
:10093000010101020101020101010301010103039F
:100940000100000000020103000002020303000096
:10095000010302030201020101010303010001037B
:100960000100020202010100010303000103000370
:100970000201030101030100030303000301030259
:100980000000020001010100030003020201030054
:10099000020102000201020103020303020200033A
:1009A0000103000001010003000301010301000233
:1009B0000102010100010100000200030003020125
:1009C000010102000303000100020202020302000F
:1009D00000030103000000030103000303030003FD
:1009E00001020200010003000201000300020202F2
:1009F00003010303000200020303020003030102D8
:100A000003020101030102010201020200010101CE
:100A100003010001010101010301020301030301BC
:100A200001030303020003000201030300000102AB
:100A300003000201030203000102010201000100A0
:100A40000300020202030301030002010303030285
:100A50000202020200010303030302010003020079
:100A6000000203020303030200010201000101016D
:100A70000102020200010003000302000100000362
:100A80000300000202000102020200010001000353
:100A9000000002000101030000000000000300014B
:100AA000030201030103020102000003000002022D
:100AB000020201020201000102010203010103031B
:100AC0000200020003030100000102000002030112
:100AD00002010201010000000302020003020103FF
:100AE00000000101030003030001000202020301F0
:100AF00002010303020302010100010301020100DC
:100B000000020301020302000101030201010200CD
:100B100000000201000302000100000003010302C3
:100B200000030101010202010302020103020100AC
:100B3000020301030002010201010101000103019E
:100B40000001030000010100020001030100020294
:100B50000001000001000300000300000301020186
:100B60000001000100000002020301000303030270
:100B7000030303020200000003010100000200025F
:100B8000020003020300000103020001030302024A
:100B90000100010001000002030303030200000240
:100BA0000202020300000101020303030201010229
:100BB0000300010200020102020001010101030120
:100BC000030100010303000102000303030301000A
:100BD00002000301020302000200000003020002FF
:100BE00000010201020300030200010101020103EE
:100BF00000020200010203010001030301020301DC
:100C000002010300020100020201030202020000CD
:100C100003010101010000030102010100010203BF
:100C200001000101030100030202020001020103AD
:100C300000010300010101000200010000000301A6
:100C40000301030202020301030103030202020182
:100C5000030201000300010000000301030103027D
:100C6000010100010203000003030202030300016B
:100C7000030100020300000201020300000101035E
:100C8000020300010201030001030201000102014D
:100C90000203030101020001020103010302000239
:100CA0000000030301020003030102010201030328
:100CB0000303030103020301000303010001030115
:100CC0000203020303000002000301030301010207
:100CD0000001000101000100020101000200010306
:100CE00003000301000001030302010300030102EA
:100CF00001030301030201000202030103010003D7
:100D000000030202020001010002010200030101CE
:100D100000000100010002000201010302010301C1
:100D200002030302020200000202030302010103A4
:100D30000002030302020201000003020201000399
:100D40000001000302000000030101000203010290
:100D50000302010001000101030002000103000180
:100D60000300020203030102000000020303020168
:100D70000100000001010303020203000100010160
:100D8000010203010102030002030000020102004C
:100D90000000030102030301020300020302000238
:100DA000010303010102000101030100030100022C
:100DB000010202030300020100010002010300031B
:100DC000000103000202000102020300030002030B
:100DD00001030002020203030302030002020302F2
:100DE00001020300020301010103010302000102E9
:100DF00001030200010200010100010002000000E5
:100E000001010103010301000102020202020103C8
:100E100000030000010103030300030302000300B9
:100E200001010300010200020003010201000200AF
:100E30000100030302020001020102030101030198
:100E40000301000002000001000002030100030290
:100E50000300010102020203020202000303020175
:100E60000103010203020201020100000202020367
:100E70000201030101020303030102000300020156
:100E8000000201000303030002010201000002024C
:100E9000020103030200030003000001030001003C
:100EA000000302000102000300000203010001022E
:100EB0000200030300020101000303030301020116
:100EC0000101000002010100000100010200020115
:100ED00002020200020001030301010300020000FC
:100EE00001000303030202030302000000020101E8
:100EF00000000100030201000200010203020303DB
:100F000002000200030202030200020202030103C4
:100F100001000201000000010202000301010000C3
:100F200002010301000100030001000101000101B1
:100F3000020303030003010200020001020100009A
:100F40000300000302010202020201000203000387
:100F5000030203010200030201020100030000007A
:100F60000202010002020001030300030301020266
:100F7000020100000001030002030101010302025B
:100F80000000010000010203030302020202030049
:100F90000202030101000103000101020201030139
:100FA0000201030002010003000201010100000030
:100FB0000000000002010101000000000202000127
:100FC0000200020202010303030302000203000005
:100FD00001020300030202030102000103020103F4
:100FE00002030201010003010303020102020001E6
:100FF00000010001000303010303030101000000DD
:1010000003000300000102000301000203000302C9
:1010100000020103030100020303020300020002B5
:1010200001010301000003010201030001000003AC
:101030000003020202030303020300020001020094
:101040000200030302000002000102000003030289
:10105000030102010202020102030202030303036D
:101060000002020301030002000003010003010368
:101070000203010302000200030300000100020357
:101080000102030303020202020002020001010046
:10109000010102020200000002030003010300023A
:1010A000020302030203030202030003020100021F
:1010B0000201020100000303020301020102020215
:1010C0000001030301020302020202030302010101
:1010D00001000001020301030300030101020003F8
:1010E00001030001010300030202020300000103E7
:1010F00000020300020300000303020000010202D9
:1011000003010202000100010203000003010201C9
:1011100000020303030300000000010003000102BA
:1011200003000002000003000001020203020300AA
:101130000100030101000303010202000102010397
:101140000003000100030001030000000100010092
:101150000200000202030003030203020001030075
:101160000303010300000002010303020000010168
:10117000020002030100020100020100020003025A
:101180000102000003030103000102030202030243
:101190000000010303030103010100020003010138
:1011A0000203010200020101020201030200000029
:1011B000000200020200000102030200030100031A
:1011C000000101000100000000020002030301020F
:1011D00002010202030301010103000201020300F4
:1011E00003010202000002030002000103000002EA
:1011F00000000303020200020303010200020102D5
:1012000002010202030101020302000001000101C8
:1012100000010202000001020000020301030002BB
:1012200001030201010203030102000101030201A3
:101230000300010301010100010202010203020295
:10124000000202000003030001010300000200038A
:101250000301000201030201010200020102030175
:10126000020000030201010202020001020001006B
:101270000203030101010102020300010200000058
:101280000302030300010101000002010303020045
:101290000200020101010201020100000302010239
:1012A0000102000100000000000001010002010332
:1012B0000003000201020103030001020002000317
:1012C000020100010000020200010203020000020C
:1012D00002000101010200010203020301030002F6
:1012E00003000302020202030001020001020301E3
:1012F00001010302000001030001010103000201DA
:1013000003030001000303010102010102030203C0
:1013100001020200010202010001010201030303B4
:1013200002010101010001000003030102020001AA
:101330000103000303000203010200020002030292
:10134000010001030000020101000102020200028B
:101350000100020002020303030103000101030272
:10136000010003010300000302030303020203015F
:101370000200000001030000020303010203030155
:101380000000010202020103020102010202020145
:101390000101030100030201020003020302030230
:1013A000000001030000020003000303000003012A
:1013B000010101000003020200000000020102021C
:1013C0000002020300020002000102000300020109
:1013D00001010102010201010000030203030000F8
:1013E00002010003020101030101020100030102E5
:1013F00003000302020202020303010303000100CF
:1014000002010300030003010300020102000102C4
:1014100000020103010300030203020102000303AF
:1014200003020300020003000101010202000202A4
:101430000201010001020202000000020101020299
:101440000003000002030302030301020200000084
:101450000003030100030002010203010102000175
:101460000300000102000000020203020002020267
:10147000010003030201030102010203030301034C
:101480000301010302020303000100020000010343
:101490000001010000000200020102020103030238
:1014A000010302030202010300030103010303001D
:1014B0000102020200030303010301030000030110
:1014C000000203000100010000000101000103030C
:1014D00000000102010001010100000100030003FE
:1014E00000020001030100020102010200030300E7
:1014F00001030203010300010100000100000201D9
:1015000003020302010200020203010100020101C1
:1015100001020302020103010101000001010003B5
:1015200003020001000203010201010103020000A5
:101530000101020103020203030000010200020292
:101540000203000002010202030101010300000284
:10155000000001020101000000020101000202007E
:101560000003000301020000000103030001030067
:101570000101000203030101020301010002000353
:101580000002000301030001020203030300020141
:10159000020301020302030100030001030001032F
:1015A000020203030102010203010303000101001F
:1015B0000000010001030203010000020003030117
:1015C0000303020000030003010000030301010301
:1015D00000000001010300010303020302010001F6
:1015E00000020003030101020000030002020100E7
:1015F00000000300030202030301020103030003CE
:1016000000000301020200020000000101000301CA
:1016100002020301030003010200000100030002B3
:1016200002000003030102010300000103000201A4
:101630000302000301010200020202000101010293
:101640000303000000010200000300020301010384
:101650000001030201030000020000010300000179
:10166000020300010200000101000001030100006B
:101670000201030202030100010000030202020052
:101680000301000302010301000002000200010047
:10169000030203000202030001020101020201022F
:1016A0000100000002000302000201030201030323
:1016B000030103030102020003010302030100030B
:1016C0000100010201000302010002030303030001
:1016D00001020302010102000303020101010100F2
:1016E00002010001000300030201020200000000E9
:1016F00003020000030302010200030000000300D4
:1017000001010300010301000200030303000001C3
:1017100002010100020300020302020102010303AD
:1017200002010200030300010101010200000300A5
:101730000203030203010000000302000000020292
:101740000102000001010003000201000203020186
:101750000100030000000102030001000303030174
:101760000103000100010303000101020000010365
:101770000000030002010302020202010103000350
:101780000302020102010000000202000100020047
:10179000010000000001000001030000030202023A
:1017A0000101020200010100000003020102020027
:1017B000020101020301010201030200010303010E
:1017C00002030303000202010003010301000302FC
:1017D00002020103030002000301000101020200F2
:1017E00001030200020003010000000200010100E9
:1017F00000000302000002020203000200010103D4
:1018000001010200030200030000020002030203C0
:1018100003000003030103000200010001030301B0
:10182000030202010101010302020203000100029E
:10183000020201000000020203020303020103018D
:101840000200030301000202000101020300010182
:10185000000202030203030103000200010101026E
:10186000010001020002020103020102030101035F
:101870000200000103000003030301010002010153
:10188000020201020202030302010103000001023D
:10189000000203030201030202030100010203012B
:1018A0000201000000030002010302020303020020
:1018B0000200030100030202010100000200030311
:1018C00000020301030102020301030202030303F6
:1018D00003020102000102000103010102010202F0
:1018E00001020301010102000301030200000200E2
:1018F00002020303000003020201020300030303C8
:1019000002030300020103010301020203030203B5
:1019100000000102020301030103000302020303AA
:1019200000000200000100020201000303010001A7
:10193000010201020300010202000200030301018F
:101940000303030203000301020203020103030273
:10195000020200020100020102010203030202016D
:101960000301020203030102030000030101030259
:101970000103000203020000020300000003000252
:10198000010203020000000302030100030201013F
:101990000200030101000303030302010302020129
:1019A0000301030202000000020103020101000220
:1019B0000000020101000302010001020001030313
:1019C00001030203020203000303010000030001FC
:1019D00001000203010100010303030301030000EE
:1019E00003030302010203030300000301000001DB
:1019F00000000301000203030101030202000100D1
:101A000002020302020001000102010101030001C0
:101A100002010103000003020202010300010002AF
:101A200000030100000101030103000003030101A1
:101A3000020000030103010102030202030301008B
:101A40000001000102000303020102020200010181
:101A50000002000101020001010000000202020375
:101A6000020102020002010001020203030202005D
:101A70000103020102000102020301000002000151
:101A8000030102030202010200010003000102003F
:101A90000103000303010203000002020100000031
:101AA0000103000101030303010100020002000120
:101AB0000100030100000301000201000202020311
:101AC00000030202000302010302000103020000FE
:101AD00001020103020003020202010001000301EE
:101AE00002030103000103030201010001030003DB
:101AF00003020001010302030003010101000301CD
:101B000003030301010000000200020303020103BA
:101B100001030303030002000003000103010303A8
:101B2000030000000203030102010303010002009D
:101B3000000201010102000202030300020102038C
:101B4000010002030303010003010201010103007C
:101B5000020003010001020202020000000202036F
:101B6000020102010303010300000103010000025E
:101B70000300010002010302010003000102000052
:101B8000020203010201000102000000020103033E
:101B9000030103010203030001020101000300002D
:101BA000010302020100010202010301010101021D
:101BB000010301000100000000000000000001021C
:101BC0000103000203020002030000010000010201
:101BD00002030203030000030000000201000200F0
:101BE00003000201030303020203010300030300D5
:101BF00000010301030202000300030001020201CD
:101C000001000200030201000201030001010000C3
:101C100003010302030001020101000202020001AC
:101C2000030103010001030200010000010201029F
:101C3000020100010301010003020102000201018F
:101C40000100000201020302030201010303030079
:101C5000010101030001010003010002030303006D
:101C6000030300020000030203010000010301005E
:101C7000010100000303020002000302020303014A
:101C8000000000010302010201020200010203033D
:101C9000000002020201010202000101030002022F
:101CA0000300020303000303020200020303000017
:101CB0000001000300000203010201000101000015
:101CC00002020201020302010002010103030300F8
:101CD00003030002010303020000000202020303E7
:101CE00003010202000302020202030303030100D4
:101CF00000010202010203020103000203020203C7
:101D000000000000010201000100000303020302C1
:101D100003020100020302030200020101020003A8
:101D2000010201030100000201020000020203009F
:101D30000303020302020300010203020102000284
:101D40000202010000030002030303020103000179
:101D50000003030301010003010202020102010169
:101D6000000303020301000003000002030002035A
:101D70000102000000000001030102030000000353
:101D8000000000030002030302020002000301003E
:101D9000030301020100020002000000020203022C
:101DA0000200030101030301010203010201000219
:101DB000030102020202010302000300010200010A
:101DC0000001000000030301000000030002010203
:101DD00002000201030103030202020103030201E4
:101DE00001030003030101020300000203000103D9
:101DF00000020101020202020300010101000200CF
:101E000000000002000200030201000203000203BE
:101E100001030000020103030103010000010003AC
:101E20000201010201020302020301000103010198
:101E30000100030301000001010100020200010092
:101E4000000201030300030003000102020101007C
:101E50000203030101000103020103000102000368
:101E6000010301030203030002030203020103034F
:101E7000000203000100030001010102030303004B
:101E8000030002000200020102020200010301013C
:101E90000000000300010100030002020100010034
:101EA000000101010201010102030001030201001E
:101EB000020001010100000203020300000303020B
:101EC00002030101030103000102010302000203F6
:101ED00003020102020001010103000100030101EC
:101EE00000000002020101020102010100020303DD
:101EF00003020102020300020300020003000203C6
:101F000000030300020300010301010203000001BA
:101F100001030302020302020102010101030302A1
:101F20000003020000020303010303020101000396
:101F30000100020200010003020100020303030189
:101F40000101000102020103020102030101030277
:101F50000303000202000302020003030203000065
:101F60000100020303010102020003000103000259
:101F7000010001000203030003020302010100004B
:101F80000102010302030301000000010202030138
:101F9000030001000201020002030303010100002B
:101FA000030202030200010000000202000001001F
:101FB000010102000303030101030000010200000C
:101FC00003020201010003010100010302000102FA
:101FD00003000001030101000303000000010201EE
:101FE00002020302030000010100020103010302D7
:101FF00000000303010103010003000302030203C5
:1020000000010101000201000303000100000302BE
:1020100000030300030200000302000103000302A7
:10202000010302020200020001000001010201009E
:102030000100020300000301010303010003020188
:102040000200010303010300020301020100030176
:102050000303030102030303010101010301000261
:102060000103000203030201020201000103030253
:102070000000010003030101030203020202010048
:10208000020001010100010003030302010001013C
:10209000000003000202000101030003010202012B
:1020A000000003010100010100010001030201021F
:1020B0000201030301010003030003000201000009
:1020C00002030102030102010103030000010300F6
:1020D00003010202010000000101000201020203EB
:1020E00000030001020003020103010300030101D8
:1020F00000000100030002030302010100010003CC
:1021000003000102000202030103010303030301B0
:1021100001010200010202020003010003000002AB
:102120000202030203020202030002000000010196
:102130000001010303030200020000020100030189
:102140000002020301030102020300030101030074
:10215000030100030000000100030102020001026C
:102160000003020003000200000300030202020257
:102170000303020001020300030301030002010143
:10218000030002010000000101020301010303003A
:102190000303020102000103000001020301010028
:1021A000020201010202030103020302030103030D
:1021B0000101010201030201030002010101000308
:1021C00002030201020003020201000203030000F5
:1021D00002000000030103020001000103010303E8
:1021E00002030003030002030103020202030303CC
:1021F00002010003010200010203030003030203C2
:1022000001020003010003010203010202000100B8
:1022100000000000000303000203020202000200AB
:102220000302030200000103010202020300030192
:102230000201020300020003030101000203010284
:102240000202000103000103030001000300010179
:10225000030203020301030103010103010003025E
:102260000303030202030003010001020002020350
:102270000301020300010103020101030203010043
:102280000100030201010200020301010003000238
:102290000301030103030001000201010303010123
:1022A0000102030302030301020002010000010313
:1022B0000202020301030203010000010302010103
:1022C00000000301020100010103010202030303F4
:1022D00000030002020100030203030301000102E4
:1022E00002030101030001020003030200030202D2
:1022F00000030200010202010200030303020101C4
:1023000002020303010202000003000202000002B5
:1023100002030300020201010001010202010203A3
:102320000300010202020200000103030303020092
:102330000203030100030202000101010000030285
:102340000100020103030003020000010301030373
:102350000003010200030202020000030302030261
:102360000202000302010202000001000101030257
:102370000003010103010302030003010001000344
:102380000301000000030301010100030002030335
:102390000201030101030002010202030000000028
:1023A0000002000000030203030300030300010016
:1023B000020000000000030303000000010301000D
:1023C00000010001030001010003030101020003F9
:1023D00001010300020003020002010203020200E5
:1023E00002020300030101020000030303020202D0
:1023F00000030301000000010100000001010202CE
:1024000001000100000302000002020303020100B8
:1024100000000103030201020302000000010303A4
:102420000003010101010300020102030100030195
:10243000030200030000030002010303030201037F
:10244000010103010200020001010003000002007B
:102450000303010301020002000202020302000260
:10246000020100000203020102030203000303034E
:102470000300030203000203000001000103020144
:10248000000002020001020202010002000000003E
:102490000003030101000201020201010302010223
:1024A0000102010302030100000002010002000317
:1024B0000102010101030001020303010303000102
:1024C00000000103030002030202000000000202F8
:1024D00000030200000000010200030001000000F0
:1024E00002010200020102010003010000010301D8
:1024F00002030301000202020003030001020101C2
:1025000002030303030003030201010300000002AE
:1025100002000300000100020303030000010200A7
:102520000202020201030003030101030102000091
:102530000100010102020202020303010200000184
:102540000302030101020301000000020100010275
:10255000030300030201030302000100030300015F
:102560000100020000020203020003030103020053
:102570000301030301010303030101030302010239
:10258000010300010200030003010303030203012E
:102590000202000101000000010303000201020227
:1025A000020001000101000200020100000003011D
:1025B00003030203000003030301030103030003F9
:1025C00003030002000303020202000101030203ED
:1025D00000010202010003030300020303010303DD
:1025E00001010302030200010102020000020103D3
:1025F00000030202000103000301000302030003C1
:1026000001030103000001020303010202000202B0
:1026100001010301020203020101010200010001A4
:10262000030100030002030102030103020203018C
:102630000001030200030303010001010102000283
:102640000103010300010003030101000101000176
:102650000200010201020300020201000200000365
:102660000102010301000102010000030302020351
:10267000020202000102000201010303020301033E
:10268000030002030002030003020001000303032E
:102690000001000003010200020300020300000227
:1026A0000101030300010100030102020001010313
:1026B0000303030201000000000100010201010206
:1026C00000000002000103000102030003000300F8
:1026D00003030301030102000203000300000002E0
:1026E00000020102010003020103020203010003D0
:1026F00002000302020000000200000100030300C8
:1027000002020200010300010301010301020103AF
:1027100000030101010302030200000301000000A5
:10272000000201020103020203020003030301018C
:102730000000020103030000020203020100000086
:102740000003000301000203020001000003030074
:102750000203030201010101010103000200010063
:10276000030302020203020003010002000203014C
:102770000003020102020200030201000200020241
:10278000020300000102030201010301020101032F
:10279000030203030100000200020302020203021B
:1027A000010201030302020200010203000201030D
:1027B0000303000201020100010003000103000104
:1027C00003030003020302030103020300030201E7
:1027D00002030102030301020001000003030200DF
:1027E00003000201020200020103010103030002CF
:1027F00001000303010201010000020300010201C4
:1028000001000202030303010300000100020303AD
:1028100000030003000301000000000101020003A7
:10282000020201030103030003020100030003008D
:102830000102000300020003020301000300030180
:102840000302030100010303010200000200000172
:102850000302010203000302030000030000000062
:102860000103000202000302030301000002020050
:10287000030003020102030203000101020300023C
:102880000200020102010103010301000002000134
:102890000201000103010303020000030100020220
:1028A0000002010000020300020003030301020012
:1028B00003030002030303000203020001010302F9
:1028C00001000203000103020100000102010001F6
:1028D00002020200010000010203010101030303DF
:1028E00002000203020202000101030200000000D4
:1028F00003030200030101020201020001030200BE
:1029000002030103010000000203030101030202AC
:1029100000020101000101020202030102000102A2
:102920000303000103000302000200000100020291
:10293000030200030102000203030001030301017B
:10294000030101030102000302020302020001016C
:10295000030003020102010203000003010100025F
:102960000101020003020201010302030000010150
:10297000000103000303000300030102010203033B
:10298000000000010200000100000001010201033B
:10299000030103010300020002000303020301001C
:1029A0000102030303000303000201020103030207
:1029B00002020201020203020102000103020103FA
:1029C00000000103020201000201030202000001F3
:1029D00002000100000302020003000201000200E5
:1029E00000010003000101000301030201000100D6
:1029F00003030200010203000000030201010103BE
:102A000000020302020301030200020100020101AD
:102A1000000001020103030302030000020202029C
:102A20000200020003030001010300010201010191
:102A30000103010202020301020202020203030275
:102A40000202000302030201030101030103010169
:102A50000000020203020101030101010003000062
:102A6000000103000200030203030101030100024D
:102A70000003000100030201010202000002000144
:102A80000003010301020202020201030003030228
:102A9000020200010301020100030301020203011B
:102AA000020303020300000002000202010203010C
:102AB0000201010201000001020302020001020200
:102AC00003030301030303000302000202010301E5
:102AD00002010001030300020002020002000202E0
:102AE00002020100000102020002020301030100D0
:102AF00003020201020101010103010303010300BA
:102B000003000302030003020000030303000101AA
:102B1000010202010303020003000200010201009E
:102B20000002010102020002010002010200010094
:102B3000010101010103010101010003030003037D
:102B40000003010002000300000201000002000176
:102B5000000302020101010300000201010202035D
:102B60000000020300000103020302000101030050
:102B70000000000302000000010103000100000248
:102B8000030100010302010002000303010101012E
:102B9000020301020202000100020302030300001B
:102BA000020300000102010301020100000003030F
:102BB00001010202030102030303010203020302F3
:102BC00001010000030302010102000202030202EC
:102BD00002000301020003000301030100030000DF
:102BE00000000003000102030200000003020201D2
:102BF00000000200030302030103010002000300BE
:102C000002000302030300030303010000010101AA
:102C100000000203010000030102000001020002A3
:102C20000103010100020202000000000000010295
:102C3000020201000002030302030100010101007E
:102C40000202030303000300020301030203020064
:102C5000020100020301030103020100000200035C
:102C60000203000000000303030102030203000249
:102C7000000102000302020301030202030100013A
:102C8000020300010302020300010100020202012B
:102C90000200010102010200010000020300030220
:102CA000020103000102000201000302010302010C
:102CB00002000003030201030003000101000102FE
:102CC00003000001020302000001010202000203EE
:102CD00000020102030102010100020301020301DB
:102CE00003030201020201020003020102000200CA
:102CF00003000302010301020202000003000102BB
:102D000000010200000103020100030001000203B0
:102D100000020200000200010301000202030000A1
:102D20000100010000020000000302020301010093
:102D30000302020303010203010303000000030274
:102D40000000000000010200000002000203010375
:102D50000002020000010100000001030203000163
:102D60000203020003020102020303020203020241
:102D70000100010100000103010000030300000045
:102D8000010003000203030200000301000301032A
:102D90000301020300010100000102000101010220
:102DA000030200000201020301010202030002000B
:102DB00000000203010100030103010102000003FE
:102DC00003010103000201010300010001030303E9
:102DD00000000100030003010201000203010102DF
:102DE00000000202030002030303030102030203C3
:102DF00001030202000101020100030100020300BD
:102E000003000001000100000201030102020303AC
:102E10000102030101020103000102010301020397
:102E2000010201030201030200000202010201018A
:102E3000000102030300020002000000030301027C
:102E4000010200010102030001010300020101026D
:102E5000020000030003010203000103030001015B
:102E60000303030102000200030301010202020343
:102E7000010200030001030100000201020203013C
:102E80000001010100030301000002000001000332
:102E9000010202020103020101000101020002021B
:102EA0000300010002030103030300010302010206
:102EB00003000300020003030201000101000201FC
:102EC00002010002010300030100020303020102E8
:102ED00001010302030300030302000103000300D6
:102EE00000020000000301020302000302030001CC
:102EF00001030100030201000100010203020110AD
:102F000010000000C088D44A8A8A4AD408C0000051
:102F100000000000180D434A0B0B4A430D18000037
:102F2000000000008010A894141494A810800000E1
:102F300000000000011B1714071754470309000085
:102F400000000000C098AC36B6B636AC18C0000021
:102F500000000000180D434A0B0B4A430D180000F7
:102F6000000000008010A894141494A810800000A1
:102F70000000000009034744070714171B01000065
:102F8000000000F0F8FCFEFFFFFFFFFEFCF8F00081
:102F9000000000183D7FFFFFFFFFFFFF7F3D18008F
:102FA000000000E0F0F8FCFEFEFEFEFCF8F0E000A1
:102FB000000000011F7F7F7F7FFFFFFFFF1F1900C1
:102FC000000000F0F8FCFEFFFFFFFFFEFCF8F00041
:102FD000000000183D7FFFFFFFFFFFFF7F3D18004F
:102FE000000000E0F0F8FCFEFEFEFEF8F8F0E00065
:102FF000000000191FFFFFFFFF7F7F7F7F1F010081
:10300000001010000000C0983C7E5E5E7E3C98C0C0
:10301000000000000000180C414A0A0A4A410C183E
:10302000000000000000803078FCBCBCFC783080E0
:1030300000000000000001391204141464620D093C
:10304000000000000000C0983C7E5E5E7E3C98C0A0
:10305000000000000000180C414A0A0A4A410C18FE
:10306000000000000000803078FCBCBCFC783080A0
:103070000000000000000909626414140412390100
:103080000000000000C0F8FCFEFFFFFFFFFEFEFE98
:103090000E00000000000101F9FFFFFFFFF3010037
:1030A0000000000000C0F8FCFEFFFFFFFEFCFCFE7D
:1030B0002600000000000161FBFFFFFFFFFF7331EE
:1030C0000000000000C0F8FCFEFFFFFFFFFEFCFC5C
:1030D0002C00000000000101FBFFFFFFFFF30100D7
:1030E0000000000000C0F8FCFEFFFFFFFEFCFCFC3F
:1030F0006C000000000001FBFFFFFFFFFFFF7331CA
:1031000000000010100000000018DCDE96EAEA94CF
:10311000E404000000000000000000405959410193
:1031200000000000000000000018DCDE16D6D428E5
:10313000C80400000000000000006049030B5B535E
:1031400021000000000000000018DCDE96D6EA88AE
:10315000E80800000000000000000040595941014B
:1031600000000000000000000018DCDE16D6D428A5
:10317000C808000000000000000058590B034B4332
:10318000210000000000000EFEFEFEFFFFFFFFFE1C
:10319000FCF8C000000000000001F3FFFFFFFFF992
:1031A0000101000000000026FEFCFCFEFFFFFFFE08
:1031B000FCF8C000000000003173FFFFFFFFFFFBC1
:1031C000610100000000002CFCFCFEFFFFFFFFFE81
:1031D000FCF8C000000000000001F3FFFFFFFFFB50
:1031E000010100000000006CFCFCFCFEFFFFFFFE84
:1031F000FCF8C000000000003173FFFFFFFFFFFF7D
:10320000FB01000000101000000004E494EAEA96BC
:10321000DEDC1800000000000000000001415959E8
:103220004000000000000000000004C828D4D616AA
:10323000DEDC18000000000000000021535B0B03DF
:103240004960000000000000000008E888EAD69607
:10325000DEDC1800000000000000000001415959A8
:103260004000000000000000000008C828D4D61666
:10327000DEDC18000000000000000021434B030BBF
:1032800059580000000000080B000202020000096B
:1032900004000001020200000524001001052401C1
:1032A000010104240206052406000107058103101C
:1032B000004009040100020A000000070502024064
:1032C0000000070583024000000403090412010006
:1032D00002EF020140412336800001010203014157
:1032E000726475696E6F204C4C430041424C313121
:1032F00030360000EE2211241FBECFEFDAE0DEBF31
:10330000CDBF11E0A0E0B1E0EEE8F9E502C0059024
:103310000D92A633B107D9F725E0A6E3B1E001C0CD
:103320001D92A93FB207E1F719E1CBE7D9E104C04B
:103330002197FE010E94BF2CCA37D107C9F70E940E
:103340004B230C94C52C0C940000EDE6F1E0A0E0BA
:10335000B8E000800EBC8111012C1197A0FDFDCFBB
:103360000192B9F70DB40895E1E0F0E00E94C919A7
:10337000319728F068517C4F8F4F9F4FF9CFAB01A9
:10338000FC010E94C919641775078E079F07C8F3CF
:103390000895A3E5B1E02FB7F8947D918D919C91AC
:1033A00066B52FBFA89B05C06F3F18F47F5F8F4F96
:1033B0009F4F22E0660F771F881F991F2A95D1F72C
:1033C0000895FC0180916C01882311F13FB7F894B6
:1033D00082E08093E9002091F200822F90E018169D
:1033E000190614F481E090E0882339F0289844E627
:1033F00040936B014091F1004083222339F02091EA
:10340000F200211103C02BE62093E8003FBF08958E
:103410008FEF9FEF08952FB7F89483E08093E90032
:103420009091E800892F807295FF04C09091F2007E
:1034300080E4891B2FBF08958091630181110DC025
:1034400082E080935F0184E08093600110926201CA
:103450001092610181E0809363018FE591E008950E
:103460008F929F92AF92BF92CF92DF92EF92FF9294
:103470000F931F93CF93DF936C017B018A0180919F
:103480000C01882309F458C080916C01882309F449
:1034900053C080915E0180FF05C08091E000826092
:1034A0008093E000E801B12C8AEFA82E93E0892EEA
:1034B0002AE3922E209711F4BB20B9F10E940B1A37
:1034C000811106C0AA94AA20B9F10E94B419F2CFC2
:1034D0008C171D0611F00CF08C2F9FB7F89480927A
:1034E000E9002091E80025FD02C09FBFE3CF282F0F
:1034F00030E0C21BD30BF701815020F04191409383
:10350000F100FACFE20EF31EBB2021F09092E8000A
:10351000B12CEBCF8091E80085FDE7CF9092E800D9
:10352000BB24B394209709F3F3CF5D9884E680938E
:103530005D01101611063CF081E090E0F6019383E6
:10354000828310E000E0C801DF91CF911F910F91BD
:10355000FF90EF90DF90CF90BF90AF909F908F90B3
:103560000895CF93DF931F92CDB7DEB76983DC0157
:10357000ED91FC910280F381E02D41E050E0BE012D
:103580006F5F7F4F09950F90DF91CF91089583E092
:103590008093E9008091F200882319F08AE38093F8
:1035A000E80008950E940B1A90E00895CF93DF93EE
:1035B0001F92CDB7DEB7FC018485958597FD08C0C5
:1035C0002FEF3FEF358724870F90DF91CF9108953C
:1035D000CE0101960E94E119019719F4898190E0CA
:1035E000F3CF8FEF9FEFF0CF0F931F93CF93DF9326
:1035F0001F92CDB7DEB78C01FC018485958597FFBE
:103600000BC0CE0101960E94E119019771F48981E6
:1036100090E0F80195878487F801848595850F905F
:10362000DF91CF911F910F9108958FEF9FEFF1CF11
:10363000FC018485958597FD0BC09FB7F89482E0C7
:103640008093E9008091F2009FBF90E00196089579
:103650009FB7F89482E08093E9008091F2009FBFC9
:1036600090E008954091590150915A0120915701DD
:103670003091580142175307B4F49091E8009570C7
:10368000E1F39091E80092FD19C08093F1008091E0
:10369000590190915A0101968F739927892B19F43A
:1036A0008EEF8093E8008091590190915A01019624
:1036B00090935A018093590181E0089580E0089524
:1036C000DF92EF92FF920F931F93CF93DF93D82E49
:1036D0008A01EB017B01E40EF51ECE15DF0559F0E2
:1036E000D7FE12C0FE0184910E94321B21968111E7
:1036F000F4CF0FEF1FEFC801DF91CF911F910F9112
:10370000FF90EF90DF9008958881EECF0F931F9385
:10371000CF93DF931F92CDB7DEB782E0898342E477
:1037200050E067E872E380E80E94601B0E941C1A68
:10373000DC0112960D911C910115110589F0D8013B
:10374000ED91FC910280F381E02DBE016F5F7F4F10
:10375000C801099597FD04C0F80100851185ECCFDB
:1037600089810F90DF91CF911F910F910895615042
:1037700030F02091F100FC0120830196F8CF2898C9
:1037800084E680936B010895AF92BF92CF92DF924F
:10379000EF92FF920F931F93CF93DF936C017B0106
:1037A0008B01040F151FEB015E01AE18BF08C01797
:1037B000D10759F06991D601ED91FC910190F0810A
:1037C000E02DC6010995892B79F7C501DF91CF91CD
:1037D0001F910F91FF90EF90DF90CF90BF90AF902F
:1037E00008954F925F926F927F928F929F92AF92C5
:1037F000BF92CF92DF92EF92FF920F931F93CF93DE
:10380000DF934C015901FC2DC02FD0E0CE01880D73
:10381000991D181619060CF06CC020E88216910448
:103820000CF067C09B012E0D311D121613060CF013
:1038300060C0603471050CF05CC04115510509F49D
:1038400058C0E62FE770FE2EDB0177FD179633E0B8
:10385000B595A7953A95E1F73A2F77FF04C0FF2079
:1038600011F03FEF3A0F662777276819790997FC1F
:1038700002C070E060E0803891050CF44BC090E825
:103880009819961BA32F032E000CBB0B1A2F109513
:103890003F3F0CF010E021E08E2D877009F420E00E
:1038A000E694E694E694E20EAE0DB11D19971CF075
:1038B00028E0E22EE31AE11A310F20E83203D001AA
:1038C0001124A80DB91DA60FB71F019F600D711D12
:1038D0001124460F571F0F2D0F2C000C110BF33026
:1038E00009F41CC1C8F4F13009F4D0C0F23009F475
:1038F0007CC0DF91CF911F910F91FF90EF90DF90EF
:10390000CF90BF90AF909F908F907F906F905F907F
:103910004F900895902FB5CFFA3FB1F1232F2E0D80
:10392000FB3F39F7321729F3BD0163597E4FD12C84
:10393000C12CC91608F0A4C0FA01EC0DFD1DE491DC
:10394000F0E04F01002E02C0880C991C0A94E2F7A7
:1039500037FD06C0FB018081E82CE0948E21808336
:10396000FF2061F0373054F45B01F0E8AF0EB11C7A
:10397000E92CE094F50180818E218083FFEFCF1A3E
:10398000DF0A6F5F7F4FD5CF232F2E0D321709F43B
:10399000B0CFBD0163597E4FD12CC12CC91608F0A0
:1039A00069C0FA01EC0DFD1DE491F0E04F01002E1D
:1039B00002C0880C991C0A94E2F737FD04C0FB0191
:1039C000808188298083FF2051F0373044F45B01E7
:1039D000F0E8AF0EB11CF501808189298083FFEFEB
:1039E000CF1ADF0A6F5F7F4FD9CF6FEF70E00F2CD8
:1039F00002C0660F771F0A94E2F760957095772EE4
:103A0000232F2E0D321709F474CFFD01E359FE4F19
:103A10006F01B12CA12CA91638F5FA01EA0DFB1D96
:103A2000E491F0E02F01002E02C0440C551C0A94D2
:103A3000E2F737FD05C0F601808186238429808363
:103A4000FF2059F037304CF44601F0E88F0E911CFE
:103A5000F4018081872185298083FFEFAF1ABF0A97
:103A60008FEFC81AD80AD7CF3F5F4C0F5D1FA05801
:103A7000BF4FC8CF3F5F4C0F5D1FA058BF4F86CFD1
:103A80003F5F4C0F5D1FA058BF4F4CCF6A0D7B1D91
:103A9000232F2E0D321709F42CCFFD01E359FE4FD1
:103AA0006F01B12CA12CA91688F5FB01EA0DFB1DB5
:103AB0008490912C002E02C0880C991C0A94E2F785
:103AC00080949094FA01EA0DFB1D6490712C002EF5
:103AD00002C0660C771C0A94E2F737FD05C0F601B8
:103AE0008081882186298083FF2049F037303CF48B
:103AF000F601E058FF4F8081892187298083FFEFFD
:103B0000AF1ABF0A8FEFC81AD80ACDCF3F5F4C0F4C
:103B10005D1F6C0F7D1FA058BF4FBCCFC92ED12C8D
:103B2000FA01E60FF71FA359BE4F00E810E00C1989
:103B30001D09CC19DD09BE01660F771F41E050E079
:103B40006A010F2C01C0CC0C0A94EAF7592F2E2DD4
:103B5000792ECF93DF93ED01EF96EF962296859025
:103B6000A590FF2059F08C9C4001AC9C500137304F
:103B70002CF4E880B094EB20E928E99233233AF062
:103B8000EC90A094EA20E828ED920C94C81D1196C0
:103B90005A9529F72A9551F0572D33951124E60FA0
:103BA000F11DA00FB11DC00FD11DD9CFDF91CF9155
:103BB00011249FCE2D9A0895BC0190E080E0AB01C6
:103BC000FC010E94C91941505109E109F10928F08D
:103BD00068517C4F8F4F9F4FF6CFAB01FC010E9485
:103BE000C919641775078E079F07C8F308958FB129
:103BF0008095807F669B88601C9B84600895AF924F
:103C0000BF92CF92DF92EF92FF920F931F93CF93C9
:103C1000DF936D3079F0C0914401D09145016A3055
:103C2000B1F410924301109242012896D0934501BD
:103C3000C093440181E090E0DF91CF911F910F91FB
:103C4000FF90EF90DF90CF90BF90AF90089540919C
:103C500042015091430185E0689FF0011124E45531
:103C6000FF4F9A01C12C80E1E82EA5E070E0CA1652
:103C700021F0CF0101967491FC0110E000E0B72F14
:103C8000B170DB2E20383105D0F4CE01800F911FAA
:103C900080349105A0F461E081FD64E080FD660F51
:103CA00082FD6295887FE89ED0011124A20FF62E36
:103CB000A359BE4F8C91DD20A9F0862B8C9376956D
:103CC0000F5F1F4F08301105D1F6C3942F5F3F4F90
:103CD00086E0C812CACF4A5F5F4F509343014093BA
:103CE0004201A8CFF0948F21E9CFCF93C82F0E9433
:103CF000F71D982F9C2381E09C1380E0CF910895BD
:103D000080E00C94A5194F925F926F927F928F92F0
:103D10009F92AF92BF92CF92DF92EF92FF92CF939A
:103D2000DF9300D000D0CDB7DEB74B015C01290195
:103D30003A0120E030E040E851E40E94A22A20E06D
:103D400030E040E85FE30E94A12A20E030E040E854
:103D50005DE30E943E2C0E94132B6B0120E030E0BB
:103D600040E851E4C301B2010E94A22A20E030E001
:103D700040E85FE30E94A12A20E030E040E85DE3F4
:103D80000E943E2C0E94132B69837A838B839C8331
:103D900020E030E040E85DE3C301B2010E943E2C28
:103DA0000E94132B24E6269F3001279F700C1124BC
:103DB00020E030E040E85DE3C501B4010E943E2C04
:103DC0000E94132B9301260F371F2151384FF90101
:103DD0004491433009F45DC0F301EC0DFD1DE15148
:103DE000F84FE491E33009F454C0A4E6E981FA8184
:103DF000AE9FA001AF9F500D1124FA01E60FF71FEF
:103E0000E151F84FE491E33009F443C0FA01EC0DBD
:103E1000FD1DE151F84FE49151E0E33009F050E02D
:103E2000F9012491233001F1F301EC0DFD1DE15165
:103E3000F84FE491E330C1F044E6E981FA814E9F06
:103E400090014F9F300D1124F901E60FF71FE1514A
:103E5000F84FE491E33041F0F901EC0DFD1DE15123
:103E6000F84FE491E33009F451E0852F0F900F9063
:103E70000F900F90DF91CF91FF90EF90DF90CF9058
:103E8000BF90AF909F908F907F906F905F904F907A
:103E9000089551E0C5CF089590E080E008958F9295
:103EA0009F92AF92BF92EF92FF920F931F93CF9387
:103EB000DF93CDB7DEB7A1970FB6F894DEBF0FBE84
:103EC000CDBF7C01FA01CB0119A2223008F42AE00F
:103ED0008E010F5D1F4F822E912CB12CA12CBF01A2
:103EE000A50194010E947F2AF901CA016A304CF5AC
:103EF000605DD8016E938D01232B242B252B79F740
:103F000090E080E0109761F0FD0101900020E9F75A
:103F10003197AF014A1B5B0BBD01C7010E94C41B57
:103F2000A1960FB6F894DEBF0FBECDBFDF91CF9143
:103F30001F910F91FF90EF90BF90AF909F908F9047
:103F40000895695CD6CFCF92DF92EF92FF920F93E4
:103F50001F93CF93DF93EC016A017B016DE20E9416
:103F6000FF1D8C0144275527BA014C195D096E09C4
:103F70007F092AE0CE010E944F1F800F911FDF9121
:103F8000CF911F910F91FF90EF90DF90CF90089508
:103F900042E050E062E371E00C94C41B0C94692A87
:103FA0001F920F920FB60F9211248F939F938091BF
:103FB000E1009091E100937F9093E10083FF0FC0B7
:103FC0001092E90091E09093EB001092EC0092E3E4
:103FD0009093ED0010926C0198E09093F00082FFB6
:103FE00022C093E09093E9009091F200992319F098
:103FF0009AE39093E80090915D01992341F09091AC
:104000005D01915090935D01911101C05D9A909175
:104010006B01992341F090916B01915090936B014A
:10402000911101C0289A84FF18C08091E2008E7E11
:1040300081608093E2008091E1008F7E8093E100B7
:1040400080915E018E7E806180935E019F918F9151
:104050000F900FBE0F901F90189580FFF7CF8091A3
:10406000E2008E7E80618093E2008091E1008E7E8E
:104070008093E10080915E018E7E8160E5CF1F928A
:104080000F920FB60F921124CF92DF92EF92FF9210
:104090000F931F932F933F934F935F936F937F9350
:1040A0008F939F93AF93BF93EF93FF93CF93DF9340
:1040B000CDB7DEB76C97DEBFCDBF1092E90080911F
:1040C000E80083FF25C068E0CE0145960E94B71B3B
:1040D00082EF8093E8008D8987FF39C09091E800D6
:1040E00090FFFCCF982F907609F034C19E894F89BC
:1040F000588D2F89F88C911131C0803861F58091ED
:104100005C018093F1001092F1008EEF8093E80043
:104110006C960FB6F894DEBF0FBECDBFDF91CF9186
:10412000FF91EF91BF91AF919F918F917F916F918F
:104130005F914F913F912F911F910F91FF90EF90C1
:10414000DF90CF900F900FBE0F901F9018959EEFAD
:104150009093E800C7CF1092F100D5CF913059F479
:104160008111D3CF4130510581F680915C018D7F63
:1041700080935C01CACF933049F48111C6CF41309E
:10418000510519F680915C018260F2CF953041F4BF
:104190008091E80080FFFCCF20682093E300B5CF3A
:1041A000963009F0A9C00B8D1C8D22E01092E90019
:1041B00010925A0110925901F2122EC01092580119
:1041C000109257010E94861B1F8299E09983FA8200
:1041D00091E09E8390EA98879AEF99872091590100
:1041E00030915A01275F3F4F3C832B838D83109280
:1041F000E90010925A01109259011093580100934E
:10420000570149E050E0BE016F5F7F4F80E00E94A0
:10421000601B0E94861B79CF1093580100935701B1
:104220000E941C1ADC0112960D911C9101151105BA
:1042300009F451C1D801ED91FC910480F581E02D84
:10424000BE016B5E7F4FC8010995009709F03EC122
:10425000F80100851185EACFF3E0FF120EC08F89C7
:10426000882309F440C0823061F440E867E08BEEB7
:1042700092E30E94BB22811148CF81E28093EB0040
:1042800047CF813029F440E86BE08FED92E3F1CF26
:10429000833099F70E941C1ADC011296ED90FC9075
:1042A0008E010F5F1F4F6801E114F10479F0D7010F
:1042B000ED91FC910680F781E02DB801C7010995C9
:1042C000080F111DF701E084F184EECFD8011C9294
:1042D000F60101900020E9F73197BF016C197D09C3
:1042E00040E0C601C6CF69EC72E3FB01449150E0A7
:1042F00080E80E94601B09CF973009F4BECF983048
:1043000021F481E08093F10000CF993009F0FDCED7
:10431000837009F0B2CFEEE0F1E081E031E096E3A6
:104320002191222371F08093E9003093EB00DF01AB
:1043300011972C912093EC009093ED008F5F8730C4
:1043400079F78EE78093EA001092EA008F898093D4
:104350006C01DBCE8B8D9C8D1092E90010925A017E
:10436000109259019093580180935701898D8111C2
:1043700092C08E899D89913A49F4813209F07DCFAE
:1043800047E050E065E071E080E0B3CF913209F0A2
:1043900074CF833269F48F89988DB0E0A0E0809368
:1043A000010190930201A0930301B0930401ADCEEB
:1043B000803269F48091E80082FFFCCF67E085E0FD
:1043C00091E00E94B71B8BEF8093E8009ECE823273
:1043D00009F09BCE8F8980930C01EEEFFFE785916A
:1043E00094918B3F9C4D51F1E0E0F8E08091050104
:1043F00090910601A0910701B0910801803B944083
:10440000A105B105F1F480910C0180FD1AC0EE3FC9
:104410008AE0F80789F587E797E7918380838091A1
:10442000600080935B0188E19BE00FB6F894A8954B
:10443000809360000FBE9093600067CEEEEFFAE0CD
:10444000D5CF808191818737974709F05ECEA895B7
:104450008091600088618093600080915B0180930F
:104460006000EE3F2AE0F20789F08091FE0A909109
:10447000FF0A9183808349CE808191818737980795
:1044800051F29093FF0A8093FE0AC5CF1092FF0A63
:104490001092FE0A3ACE0E941C1ADC0112960D916F
:1044A0001C910115110509F4E8CED801ED91FC919C
:1044B0000190F081E02DBE016B5E7F4FC801099530
:1044C000811123CEF80100851185EBCF181619064E
:1044D0000CF41BCED2CEF1E0FF12BECE6DEC72E337
:1044E00004CF0F920FB68F939F93EF93FF9380911A
:1044F0004E018D5F8D3708F08D5780934E01EFE4AC
:10450000F1E080818E4F808391819F4F91838281E2
:104510008F4F828383818F4F8383E3E5F1E0808136
:104520008F5F808381818F4F818382818F4F8283D0
:1045300083818F4F83838FB18F6066991C9B8827FF
:104540008F3681F480914D01981B963068F0E0E041
:10455000F8E087E78083818388E180936000F093AF
:104560006000FFCF90934D01FF91EF919F918F914C
:104570000FBE0F901895EF92FF920F931F93CF935A
:10458000DF93F82E192FE62E042F81E0860F880F77
:104590000E94321B83E00E94321BCF2DD12FEC0EE4
:1045A000FD2EF11CCE15DF05B9F007FF13C0FE018B
:1045B00084910E94321B182F80E00E94321B8123BD
:1045C00021968111EFCFDF91CF911F910F91FF9035
:1045D000EF9008958881EDCF81E0F5CFEDE6F5E02D
:1045E0001382128288EE93E0A0E0B0E0848395838A
:1045F000A683B78388E191E0918380838FEF9FEF5B
:1046000095878487EDEBF5E0138212828AE291E0D0
:1046100091838083E1EFF5E013821282918380839E
:10462000E5EDF5E080E090E0A0E8B2E480839183DE
:10463000A283B38380E090E0A0E8B1E48483958313
:10464000A683B78310861186128613861486158674
:104650001686178681E090E0918B808B128A138EEC
:10466000E1ECF5E01482158216821782108611861D
:10467000128613861486158616861786108A118A66
:10468000128A138A88E090E09183808384E090E02E
:10469000938382830895CDB7DEB76497DEBFCDBF25
:1046A000789483E084BD83E085BD81E080936E00D3
:1046B000E1E8F0E083E08083E0E881E08083E1E905
:1046C00083E08083E0E981E08083E1EC87E0808320
:1046D000E3EC81E08083E0EC82E08083E2EC81E047
:1046E0008083EAE787E080838068808310926C0192
:1046F00010925C0110925E018091D70081608093DE
:10470000D70080EA8093D80089B5806189BD89B5DA
:10471000826089BD09B400FEFDCF0E94B41980916A
:10472000D8008F7C80618093D8008091E000807FEA
:104730008093E0008091E1008E7E8093E1008DE027
:104740008093E200559A209A81EC80937C0085B199
:10475000806F85B984B1877E84B984B1876E84B94E
:104760005E9A5F988AB1806D8AB9769A6E9881B3A5
:10477000806F81BB899880B38D7080BB80E58CBDD4
:1047800081E08DBD85E090E00E94DC1D5F9A85E0B0
:1047900090E00E94DC1D5E985C98ECE5F6E0849168
:1047A0008EBD00000DB407FEFDCF319626E0E93640
:1047B000F207A9F75C9A81E8809364008091650014
:1047C0008160809365000E94801E80E80E94751EB3
:1047D000882381F05C9885EA8EBD00000DB407FE49
:1047E000FDCF5C9A2E982F982D9881E083BF8895F5
:1047F00013BEFCCF84E00E94751E882309F448C0D4
:104800002D9884E80E94751E8823E1F00E94DA1D2D
:1048100088EC90E00E94DC1D2F9882E090E00E94DE
:10482000692A8F3F29F06FEF82E090E00E94712AA1
:1048300084EF91E00E94DC1D2F9A84E80E94751E8F
:104840008111FBCF84E10E94751E8823E1F00E9454
:10485000DA1D88EC90E00E94DC1D2E9882E090E04A
:104860000E94692A882329F060E082E090E00E949B
:10487000712A84EF91E00E94DC1D2E9A84E10E944F
:10488000751E8111FBCF88EC90E00E94DC1DB2CF39
:104890000E94DA1D82E090E00E94CE1F882309F476
:1048A00054C03E9A3F9A81E090E00E94CE1F382F7C
:1048B0003470932E81FF12C031112E98E1EF4E2EED
:1048C00055245A9408E010E080E40E94751E882365
:1048D00009F43EC02E9A2F9A0E94DA1D82E390E0DE
:1048E0000E94DC1D0E94F71D8111F8CF80E18093AA
:1048F00000012FB7F89480914F0190915001A09141
:104900005101B09152012FBF8093490190934A0108
:10491000A0934B01B0934C018FB7F89440914F0195
:104920005091500160915101709152018FBF80915F
:104930004001882309F4D3C01092400180E090E048
:10494000892B51F30E940000E7CF3E983F98ABCFF0
:10495000992031F044E04416510411F42E9A2F9816
:1049600081E00E94A519920157FE04C02227332737
:104970002419350927703327C20157FC079673E0C5
:10498000959587957A95E1F757FE05C00197D8016F
:10499000A21BB30B9D01AC015695542F442757958C
:1049A000479543595E4FB0E0A0E03801621A730AA0
:1049B0008E3FEFEF9E0709F43BC06A01F4E9CF0E8A
:1049C000D11C7A0170E060E0FD01E455FA4F5F010F
:1049D0008F3F980779F0F501E60FF71FE491F0E0BB
:1049E0001F01022E01C0220C0A94EAF7F701848805
:1049F0002828248A2115310581F0F501E60FF71FDB
:104A0000E491F0E01F01062C02C0359427940A942B
:104A1000E2F7F6018080282820826F5F7F4FFFEF4A
:104A2000CF1ADF0AEFEFEE1AFE0A6835710581F63C
:104A30000196A85ABF4F40585F4FA03BB10509F0FF
:104A4000B7CF0E94801E8FE090E00E94DC1DFFEF38
:104A50004F1A5F0A29E14216510409F035CF992017
:104A600011F02F9A2D9880E991E00E94DC1D0E94A0
:104A7000DA1D81E090E00E94CE1F80FF2FCF8AE0F8
:104A800090E00E94CE1F9FEF980F9E3F08F026CF28
:104A900022E330E0309343012093420128E330E0E9
:104AA00030934501209344014BE050E05A83498301
:104AB000682F81EF95E00E94FF1D89819A810E94F5
:104AC000CE1FA981BA811196BA83A983519781F724
:104AD0000E94801E88EE93E00E94DC1DFFCE809134
:104AE0004101B42FB81B8B2F90910001B91748F4E6
:104AF0008F5F891708F022CF81E083BF889513BEAE
:104B00001DCFE1E0E09340014093410180914601D7
:104B100090914701019690934701809346012FB7EA
:104B2000F89480914F0190915001A0915101B09162
:104B300052012FBF4091490150914A0160914B01B0
:104B400070914C016C017D01C41AD50AE60AF70A7E
:104B50008093490190934A01A0934B01B0934C017B
:104B60000E94F71D0E94F71D809348011092DD05F9
:104B70001092DE051092DF051092E0051092E1051B
:104B80001092E2051092E3051092E40580E20E9483
:104B9000751E882309F4B8C06091E5057091E6059B
:104BA000719561957109072E000C880B990B0E9475
:104BB0004B2B6093DD057093DE058093DF059093AA
:104BC000E005F1E0F093E70585E092E39093ED05D1
:104BD0008093EC0585E891E39093EF058093EE05D3
:104BE00080E80E94751E882309F4B2C06091E50533
:104BF0007091E605719561957109072E000C880B7F
:104C0000990B0E944B2B6093E1057093E205809312
:104C1000E3059093E40583E08093E70581E090E36A
:104C20009093ED058093EC0581E89FE29093EF056A
:104C30008093EE058090D5059090D605A090D7057D
:104C4000B090D80520E030E0A901C501B4010E9470
:104C50000E2B87FF9AC01092D5051092D6051092A0
:104C6000D7051092D8058090D9059090DA05A090CC
:104C7000DB05B090DC0520E030E0A901C501B401FE
:104C80000E940E2B87FF99C01092D9051092DA0569
:104C90001092DB051092DC058091E705882309F46A
:104CA000A4C08091E705833009F0D3C02091D905D5
:104CB0003091DA054091DB055091DC056091E1050A
:104CC0007091E2058091E3059091E4050E94A22A8B
:104CD0004B015C012091DD053091DE054091DF053F
:104CE0005091E0056091D5057091D6058091D7056A
:104CF0009091D8050E94A22AA50194010E94831ECA
:104D0000882309F49EC0A5C080E40E94751E8823F4
:104D100009F466CF6091E5057091E605072E000C59
:104D2000880B990B0E944B2B6093DD057093DE0579
:104D30008093DF059093E00582E08093E70583E0B0
:104D400091E39093ED058093EC0583E890E344CFE5
:104D500080E10E94751E882309F46CCF6091E505FF
:104D60007091E605072E000C880B990B0E944B2BC7
:104D70006093E1057093E2058093E3059093E40569
:104D80001092E7058FEF9EE24BCF20E030E046EC3B
:104D900054E4C501B4010E94392C18160CF063CFFD
:104DA00080E090E0A6ECB4E48093D5059093D6051E
:104DB000A093D705B093D80556CF20E030E046EC5D
:104DC00054E4C501B4010E94392C18160CF064CFCC
:104DD00080E090E0A6ECB4E48093D9059093DA05E6
:104DE000A093DB05B093DC0557CF2091D905309116
:104DF000DA054091DB055091DC056091E105709189
:104E0000E2058091E3059091E4050E94A22A4B01FE
:104E10005C012091DD053091DE054091DF05509168
:104E2000E0056091D5057091D6058091D7059091E8
:104E3000D8050E94A22AA50194010E94831E811117
:104E400030CF1092DD051092DE051092DF05109232
:104E5000E005C092F505D092F605E092F705F092D4
:104E6000F805C092E805D092E905E092EA05F092D3
:104E7000EB058090DD059090DE05A090DF05B090F9
:104E8000E005C090E105D090E205E090E305F090E8
:104E9000E4052091E7052983213009F4F6C108F4DF
:104EA000DBC1223009F403C2233009F419C2809116
:104EB0004601909147016FE070E00E94AB2C892B76
:104EC000E9F420E030E0A901C501B4010E940E2BF5
:104ED000811109C020E030E0A901C701B6010E949C
:104EE0000E2B882329F08091F0058F5F8093F005C9
:104EF0008091F005843010F01092F0052091D505D6
:104F00003091D6054091D7055091D805C501B4011F
:104F10000E94A22A4B015C014090D9055090DA050D
:104F20006090DB057090DC05A3019201C701B6011A
:104F30000E94A22A6B017C01A3019201C501B40168
:104F40000E94831E89836091D5057091D60580915A
:104F5000D7059091D805A70196010E94831E49812B
:104F6000411108C08092D5059092D605A092D70530
:104F7000B092D805811108C0C092D905D092DA0547
:104F8000E092DB05F092DC058090D5059090D60587
:104F9000A090D705B090D805C090D905D090DA057B
:104FA000E090DB05F090DC058092C5059092C60587
:104FB000A092C705B092C805C092C905D092CA0593
:104FC000E092CB05F092CC050091C1051091C2058D
:104FD0008091C3059091C4059C838B8334E6232E76
:104FE000312CB101601B710B072E000C880B990B43
:104FF0000E944B2B2B013C0120E030E040E85DE3B8
:10500000C501B4010E943E2C4B015C01B801012E88
:10501000000C880B990B0E944B2B20E030E040E005
:105020005FE30E943E2C9B01AC01C501B4010E94CC
:10503000A12A20E030E040E05FE30E94A22AA30121
:1050400092010E94A52B9B01AC0160E070E0CB01B6
:105050000E94862B2B013C014092CD055092CE053B
:105060006092CF057092D005B101AB81BC816A1B03
:105070007B0B072E000C880B990B0E944B2B4B01CE
:105080005C0120E030E040E85DE3C701B6010E942A
:105090003E2C6B017C01EB81FC81BF01FF0F880B73
:1050A000990B0E944B2B20E030E040E05FE30E9430
:1050B0003E2C9B01AC01C701B6010E94A12A20E051
:1050C00030E040E05FE30E94A22AA50194010E9423
:1050D000A52B9B01AC0160E070E0CB010E94862B08
:1050E0004B015C018092D1059092D205A092D3052C
:1050F000B092D40580E0EDE6F1E081118FEF00245D
:1051000081938193819381930394D1F71092450108
:10511000109244011092430110924201C501B40162
:105120000E94132B6B017A8369832B813C81260FAC
:10513000371F3C832B83C301B2010E94132B698B61
:105140007A8BA801460F571F5E834D8384E68C9DA2
:10515000D0018D9DB00D1124BC8BAB8BEB81FC81FC
:1051600029813A81E217F3070CF4D9C029883A88DB
:105170004B895C894151584F5C874B87C901092E87
:10518000000CAA0BBB0B8D879E87AF87B88BAD81B8
:10519000BE81A215B3050CF4B5C0EB85FC85E20D0C
:1051A000F31D14916D857E858F8598890E944B2B08
:1051B000A50194010E94A12A20E030E040E851E4DA
:1051C0000E943E2C0E94132B6F83788789879A87D1
:1051D000B101032C000C880B990B0E944B2BA301EF
:1051E00092010E94A12A20E030E040E851E40E94B0
:1051F0003E2C0E94132BCB01EDE6F7E00491EEE686
:10520000F7E0E4904FE657E01123D1F021E030E0E1
:105210004E2D477011F430E020E04E2D4695469516
:105220004695420F532F511D049F9001059F300D4D
:105230001124129FA001139F500D11244159584F62
:1052400022E0C22E30E020E06F8178850E94F11BC1
:10525000FFEF2F1A3F0A9BCF20E030E0A901C701E2
:10526000B6010E940E2B811122CE81E89FE290931D
:10527000EF058093EE058FEF9EE29093ED0580930E
:10528000EC0582E08093F00512CE20E030E0A90129
:10529000C501B4010E940E2B811109CE85E891E36E
:1052A0009093EF058093EE0585E092E3E6CF20E052
:1052B00030E0A901C501B4010E940E2B8111F7CD88
:1052C00083E890E39093EF058093EE0583E091E30C
:1052D0009093ED058093EC0539813093F005E7CD8F
:1052E00020E030E0A901C701B6010E940E2B811118
:1052F000DECD81E89FE29093EF058093EE0581E09B
:1053000090E3BBCF29813A812F5F3F4F3A832983B6
:105310004B895C894C595F4F5C8B4B8B1FCF409006
:10532000D1055090D2056090D3057090D405C090FF
:10533000CD05D090CE05E090CF05F090D00520911E
:10534000D9053091DA054091DB055091DC0560917B
:10535000D5057091D6058091D7059091D8050E940A
:10536000831E482F50E070E060E02AE08DEB95E06E
:105370000E944F1F8DEB95E00E94C81F8091EC05A5
:105380009091ED059A838983009709F46AC0409152
:10539000F005A090EE05B090EF05FC010491319668
:1053A00014919C012E5F3F4F3A832983442311F1CE
:1053B00081E090E0212F277011F490E080E0212F10
:1053C000269526952695820F911D089F9001099F8D
:1053D000300D1124429FC001439F900D1124A11450
:1053E000B10411F0A80EB91E49815A81480F591F06
:1053F0005A83498320E030E040E851E4C301B20120
:105400000E943E2C9B01AC016091D9057091DA0598
:105410008091DB059091DC050E94A12A0E94132B4C
:105420002B0120E030E040E851E4C701B6010E94C2
:105430003E2C9B01AC016091D5057091D605809101
:10544000D7059091D8050E94A12A0E94132BCB0169
:10545000CC24C394E12E950149815A81B2010E9466
:10546000F11BEBEEF6E00491ECEEF6E0E4908E2D0D
:10547000877021E030E011F430E020E08E2D869539
:1054800086958695820F932F911D089FA001099FF5
:10549000500D11249A012759394F4351594FCC24AB
:1054A000C39460E170E080E190E00E94F11BE1EEC6
:1054B000FBE0449150E070E060E02AE081EF95E08D
:1054C0000E944F1F81EF95E00E94C81F0E94801E1E
:1054D00035CAF999FECF92BD81BDF89A992780B55A
:1054E0000895262FF999FECF1FBA92BD81BD20BD28
:1054F0000FB6F894FA9AF99A0FBE01960895A1E2B0
:105500001A2EAA1BBB1BFD010DC0AA1FBB1FEE1F3D
:10551000FF1FA217B307E407F50720F0A21BB30B88
:10552000E40BF50B661F771F881F991F1A9469F704
:1055300060957095809590959B01AC01BD01CF0160
:1055400008955058BB27AA270E94B92A0C94FF2B14
:105550000E94F12B38F00E94F82B20F039F49F3F85
:1055600019F426F40C94EE2B0EF4E095E7FB0C9462
:10557000E82BE92F0E94102C58F3BA176207730723
:105580008407950720F079F4A6F50C94322C0EF4DC
:10559000E0950B2EBA2FA02D0B01B90190010C0143
:1055A000CA01A0011124FF27591B99F0593F50F45B
:1055B000503E68F11A16F040A22F232F342F4427B3
:1055C000585FF3CF469537952795A795F0405395AB
:1055D000C9F77EF41F16BA0B620B730B840BBAF07B
:1055E0009150A1F0FF0FBB1F661F771F881FC2F7E6
:1055F0000EC0BA0F621F731F841F48F487957795FA
:105600006795B795F7959E3F08F0B0CF9395880FB3
:1056100008F09927EE0F9795879508950E94C42B5F
:1056200008F481E008950E941A2B6894B1110C943B
:10563000332C08950E94182C88F09F5798F0B92FAA
:105640009927B751B0F0E1F0660F771F881F991FB7
:105650001AF0BA95C9F714C0B13091F00E94322CFB
:10566000B1E008950C94322C672F782F8827B85F0B
:1056700039F0B93FCCF3869577956795B395D9F70F
:105680003EF490958095709561957F4F8F4F9F4F19
:105690000895E89409C097FB3EF490958095709525
:1056A00061957F4F8F4F9F4F9923A9F0F92F96E96E
:1056B000BB279395F695879577956795B795F111E3
:1056C000F8CFFAF4BB0F11F460FF1BC06F5F7F4F80
:1056D0008F4F9F4F16C0882311F096E911C0772392
:1056E00021F09EE8872F762F05C0662371F096E89B
:1056F000862F70E060E02AF09A95660F771F881F6A
:10570000DAF7880F9695879597F90895990FBB0B4F
:10571000550FAA0BE0E8FEEF16161706E807F90783
:1057200070F012161306E407F50760F0BA173CF0A4
:1057300049F46217730784079507A7951BF4B9010D
:10574000CA01BA2FB69597950895990FBB0B550FBF
:10575000AA0BE0E8FEEF16161706E807F90770F047
:1057600012161306E407F50760F0BA1754F031F487
:105770002617370748075907A7951BF4B901CA012F
:10578000BA2FB69597950895990F0008550FAA0B53
:10579000E0E8FEEF16161706E807F907C0F0121644
:1057A0001306E407F50798F0621B730B840B950B47
:1057B00039F40A2661F0232B242B252B21F408959C
:1057C0000A2609F4A140A6958FEF811D811D089539
:1057D00097F99F6780E870E060E008959FEF80ECA4
:1057E000089500240A941616170618060906089547
:1057F00000240A9412161306140605060895092EAD
:105800000394000C11F4882352F0BB0F40F4BF2B1B
:1058100011F460FF04C06F5F7F4F8F4F9F4F08955B
:1058200057FD9058440F551F59F05F3F71F0479551
:10583000880F97FB991F61F09F3F79F08795089536
:10584000121613061406551FF2CF4695F1DF08C055
:10585000161617061806991FF1CF86957105610572
:1058600008940895E894BB2766277727CB0197F91A
:1058700008950E94C42B08F48FEF08950E94512CC4
:105880000C94FF2B0E94F12B38F00E94F82B20F093
:10589000952311F00C94E82B0C94EE2B11240C940E
:1058A000332C0E94102C70F3959FC1F3950F50E09C
:1058B000551F629FF001729FBB27F00DB11D639FC2
:1058C000AA27F00DB11DAA1F649F6627B00DA11D68
:1058D000661F829F2227B00DA11D621F739FB00D0E
:1058E000A11D621F839FA00D611D221F749F33277E
:1058F000A00D611D231F849F600D211D822F762F17
:105900006A2F11249F5750409AF0F1F088234AF0F3
:10591000EE0FFF1FBB1F661F771F881F915050405F
:10592000A9F79E3F510580F00C94E82B0C94332C82
:105930005F3FE4F3983ED4F3869577956795B795E6
:10594000F795E7959F5FC1F7FE2B880F911D969500
:10595000879597F90895AA1BBB1B51E107C0AA1FA1
:10596000BB1FA617B70710F0A61BB70B881F991F00
:105970005A95A9F780959095BC01CD010895EE0F39
:0E598000FF1F0590F491E02D0994F894FFCFDD
:10598E0010FFFFFFFF00E100000000000000C180DB
:10599E008100000000000000B11A301AD21AC71A96
:1059AE00181BD61AF41A00000000FF1DC41B4C1F52
:0659BE004B1F0D0A000062
:00000001FF
