:100000000C949D180C94C5180C94C5180C94C51824
:100010000C94C5180C94C5180C94C5180C94C518EC
:100020000C94C5180C94C5180C94A3210C9412229E
:100030000C94C5180C94C5180C94C5180C94C518CC
:100040000C94C5180C94C5180C94C5180C94C518BC
:100050000C94C5180C94C5180C94C5180C94442421
:100060000C94C5180C94C5180C94C5180C94C5189C
:100070000C94C5180C94C5180C94C5180C94C5188C
:100080000C94C5180C94C5180C94C5180C94C5187C
:100090000C94C5180C94C5180C94C5180C94C5186C
:1000A0000C94C5180C94C5180C94C51800000000D9
:1000B000003E5B4F5B3E3E6B4F6B3E1C3E7C3E1CEE
:1000C000183C7E3C181C577D571C1C5E7F5E1C0034
:1000D000183C1800FFE7C3E7FF0018241800FFE7EB
:1000E000DBE7FF30483A060E2629792926407F05AE
:1000F0000507407F05253F5A3CE73C5A7F3E1C1CC4
:1001000008081C1C3E7F14227F22145F5F005F5F83
:1001100006097F017F006689956A6060606060946F
:10012000A2FFA29408047E040810207E2010080874
:100130002A1C08081C2A08081E101010100C1E0C7F
:100140001E0C30383E3830060E3E0E060000000011
:100150000000005F00000007000700147F147F14F8
:10016000242A7F2A1223130864623649562050003D
:1001700008070300001C2241000041221C002A1C29
:100180007F1C2A08083E0808008070300008080814
:100190000808000060600020100804023E51494534
:1001A0003E00427F400072494949462141494D3352
:1001B0001814127F1027454545393C4A49493141B9
:1001C000211109073649494936464949291E000087
:1001D00014000000403400000008142241141414DC
:1001E0001414004122140802015909063E415D59C8
:1001F0004E7C1211127C7F494949363E41414122D1
:100200007F4141413E7F494949417F090909013EFA
:10021000414151737F0808087F00417F4100204021
:10022000413F017F081422417F404040407F021C33
:10023000027F7F0408107F3E4141413E7F0909094A
:10024000063E4151215E7F09192946264949493216
:1002500003017F01033F4040403F1F2040201F3FDC
:100260004038403F63140814630304780403615961
:10027000494D43007F4141410204081020004141A3
:10028000417F04020102044040404040000307084F
:100290000020545478407F2844443838444444284B
:1002A000384444287F385454541800087E090218F2
:1002B000A4A49C787F0804047800447D400020407A
:1002C000403D007F1028440000417F40007C0478BE
:1002D00004787C080404783844444438FC18242406
:1002E0001818242418FC7C08040408485454542486
:1002F00004043F44243C4040207C1C2040201C3C03
:100300004030403C44281028444C9090907C4464F9
:10031000544C44000836410000007700000041368C
:10032000080002010204023C2623263C1EA1A16112
:10033000123A4040207A3854545559215555794144
:100340002154547841215554784020545579400C1B
:100350001E527212395555555939545454593955FC
:100360005454580000457C410002457D420001453F
:100370007C40F0292429F0F0282528F07C545545AC
:10038000002054547C547C0A097F4932494949323F
:100390003248484832324A4848303A4141217A3A54
:1003A00042402078009DA0A07D39444444393D401E
:1003B00040403D3C24FF2424487E4943662B2FFCCB
:1003C0002F2BFF0929F620C0887E09032054547979
:1003D000410000447D413048484A32384040227A4A
:1003E000007A0A0A727D0D19317D2629292F2826C7
:1003F0002929292630484D402038080808080808CF
:100400000808382F10C8ACBA2F102834FA00007B27
:10041000000008142A142222142A1408950022002D
:1004200095AA005500AAAA55AA55AA000000FF00E7
:10043000101010FF00141414FF001010FF00FF1024
:1004400010F010F0141414FC001414F700FF000056
:10045000FF00FF1414F404FC141417101F10101FD5
:10046000101F1414141F00101010F0000000001FC3
:10047000101010101F10101010F010000000FF10CE
:100480001010101010101010FF10000000FF1400CA
:1004900000FF00FF00001F10170000FC04F41414FC
:1004A0001710171414F404F40000FF00F7141414C8
:1004B00014141414F700F7141414171410101F1048
:1004C0001F141414F4141010F010F000001F101F6B
:1004D0000000001F14000000FC140000F010F010D9
:1004E00010FF10FF141414FF141010101F00000050
:1004F00000F010FFFFFFFFFFF0F0F0F0F0FFFFFF54
:100500000000000000FFFF0F0F0F0F0F38444438AA
:10051000447C2A2A3E147E02020606027E027E02E5
:1005200063554941633844443C04407E201E200604
:10053000027E020299A5E7A5991C2A492A1C4C7241
:1005400001724C304A4D4D303048784830BC625AC8
:10055000463D3E494949007E0101017E2A2A2A2A58
:100560002A44445F444440514A444040444A514034
:100570000000FF0103E080FF000008086B6B0836F5
:1005800012362436060F090F060000181800000066
:100590001010003040FF0101001F01011E00191D55
:1005A0001712003C3C3C3C0000000000F0F89C8E20
:1005B0008783878E9CF8F00000FEFF03030303038C
:1005C000070EFCF80000FEFF0303030303070EFC05
:1005D000F80000FFFF00000000000000FFFF000027
:1005E000FEFF8383838383C7EE7C380000F8FC0E14
:1005F00007030303070EFCF800003F7FE0C0808084
:10060000C0E07F3FFFFF01010101010101FFFF0089
:1006100000FFFF0C0C0C0C1C3E77E3C100007FFFB9
:10062000C0C0C0C0C0E0703F1F00001F3F70E0C0EE
:10063000C0C0E0703F1F00007FFFC1C1C1C1C1E366
:10064000773E1C00001F3F70E0C0C0C0E0703F1F3D
:10065000000000000001FFFF01000000D5F08D1434
:10066000A1C881CFD9F1AF20000808000000007FA9
:100670007F3E3E1C1C080800000000381CFF0101E2
:10068000010101010101010101010101010101015A
:10069000010101010101010101010101010101014A
:1006A000010101010101010101010101010101013A
:1006B00001010101FFFF0000000000000000000038
:1006C000000000000000000000000000000000002A
:1006D000000000000000000000000000000000001A
:1006E000000000000000000000000000FFFF00000C
:1006F00000000000000000000000000000000000FA
:1007000000000000000000000000000000000000E9
:1007100000000000000000000000000000000000D9
:1007200000000000FF0F080808080808080808086B
:100730000808080808080808080808080808080839
:100740000808080808080808080808080808080829
:100750000808080808080808080808080F202000EA
:10076000000000DCF2E1E1C181020204080804801B
:1007700060F8F4FAE868D8707030000000000000FB
:1007800080F87F1F3FFFFFFFFFFFFEFE1EAF16E456
:10079000F275F3FB6573DAC9800000000000000EFB
:1007A00001F80C06070601071F3F07FFFC3A34DB80
:1007B000D7F7120F1F332A170707030000000000A6
:1007C000000000000000000000000020331F0000B7
:1007D000010303060C3800000000000000000000C8
:1007E00000C0E038C4FCECE87CFC3C7C1EBE4EDC67
:1007F0003800060577EB8F0A040060B0B070E000A7
:100800000F7FFB9E73EDEDDE80E100801F2010B8AE
:100810007CFE0EF3FDFFFFFFFEFE7FFBF0E181009B
:10082000008080C1772E0D5DFDBBB7777637FADD8E
:100830003EFF702F1F3F7F7FFFF38C7FFFFF7F0006
:100840000609420040202070793D0F072340485799
:100850004E4060603030181C8E4DE3FF7CF100008C
:10086000000985CF42212111110E00008040B8C03F
:10087000E0E0C0A040C0800004081030E0C00000EC
:100880007CFFE3C0C0E0F0F8FCF2CCBFBFB87777E4
:10089000776B9BFDFDDC1D8D18D4EC1E0F0700004F
:1008A000000103073FF1CFB761C3E3EFFFFFF9F7A3
:1008B000EFDFB2AA66FDF3CFFF4F31E0C6040000C0
:1008C000060F0700303003074D8A1A95157565E548
:1008D000C31B270F1C306060E0C0000C4F060000F7
:1008E000C0F0FCFEFEFFFFFFFF1FE3FD9EEE3EDEBD
:1008F0007EBCFCF890E09050B000C04000000000CA
:1009000081FFF8671FBF7F7F7FFEF1EF9F7FFEFFB4
:10091000FEEF5FDFBF7FFFE7FFFE0000000000008B
:100920001F7FC1003FFF01708F00C6FE3EC0FF3F2A
:100930000F30FFFFC38080C7E33118884810E00004
:100940000000314F000807001C23494020030F1C02
:1009500030206041414129241800000102020100B9
:10096000000000C0F00CC261100804020000000189
:1009700001010102020418608002020418E0000074
:1009800000F8FF7FBFA761A0A0B0B8F8F86C94F89A
:10099000ACFC5CFCE8F8F078FFF060201807000081
:1009A0000E7FFAE5DAB7BF7F7F7FBFBFDFFEF97743
:1009B00036050703030303060F03010000000000D0
:1009C0000000000001834FF14343830305291020F9
:1009D0006000200000000000000000000000000097
:1009E00000E0789CEEFEFEFEFEFCFCFCF8F870E0F9
:1009F000C08804080408048820902090201020005B
:100A00000F7FF0FFFFCFF79F6FAFAFDFBF7FFFFC20
:100A1000E33F9EA800C0E1F0F9B879B0E1C0001052
:100A200088D0C993070F8FDFDDFADA7ABADB5D5F12
:100A3000DFBF72ACDFFFFFDFEAA0A0448201001538
:100A40003F7F3C785E793E3F7F7F3C7F172F577F0B
:100A50007E394F300F336973656B7F3F380F00006D
:100A6000000000000000000000C0E0D028ECFC8E78
:100A70000E1E3E6A9EFABA741C08F00000000000C8
:100A80000000B870E0C00070FE85FFFFF8E0C18391
:100A90000306060603030302BEC70300000000802E
:100AA0004060EF40BCBEDDDA36F6CEAE6DEBC73F40
:100AB000C1CFFDFDF1FF85FFFFF0C89CA27D0007BF
:100AC00007133C1F2E313D1E1F204FEFF6F9FBFC94
:100AD000FDFA768ECEDEDD536D1A1A1616160C0050
:100AE00000000080E0703038188C0C0E8E8E8682EC
:100AF000A62606060E0E1E141C38306080000080EC
:100B0000F8DC1F0300000C1E0280DCE07F071F7F63
:100B1000CF9FBCFAF8FEBE9E48FC700204BFFC1FCB
:100B200070834080000000E0FEFF0701000000002D
:100B30000001030301010381401F000400030100C1
:100B40000001070E383850717D5B6F6E6C5C1C18AD
:100B500018080C0408040200000000000000000057
:100B600000F0FCFEFECF37F7EEDEBE7CFCF8F0E0D6
:100B7000C0000080708C621985C2C2E0E0E0C00055
:100B80000001070F0F1E1D9AD5EB6B3776F5F3F7B3
:100B90007F9FEC33C8FDDECFD75BAD56281F070023
:100BA00000000080808040474F8E9C5858390F8746
:100BB000423D7E6763713F0D0101000000000000AF
:100BC000020101E01804020101C0300C02710E01A3
:100BD0000000000000000000000000000000000015
:100BE0000083C7FEFC38000000000080C04080F099
:100BF000088498E0C0C0C0C0C02020A060000000F1
:100C000000071F3FDCF8F0F0C0BC76ADB1CA9F3FD3
:100C1000FFBFD7F7F56878BA68F576B9C00000006D
:100C200000000087FFFFFF3F7FFFF8F7F5F6C7B929
:100C3000AEB5BD437B4BBB3B051E131E0D00000034
:100C400000701E0703011E27030000010101071F9A
:100C50007FC380000101010B0E00000000000000B6
:100C6000000000082000008280E038FC7E3E7E1EEE
:100C7000FE7EBCFCF0E0E0E4C0C08000004000006C
:100C800080C0E1B8FC2E9F1F3F8FE3F8FEFCF09E72
:100C900064F8FBC1E7E3C7BF03CF1F06008000165F
:100CA000FB87E1F89970FFFFFC27F8FFFFFFFFCFFC
:100CB00037EEF71FFFFEFDFFFE0F80808440207C93
:100CC0007F7F7F5F0700213E3ECEF1FFFFFFFF8F5A
:100CD0002060C1C3E6756D2B4B68080404420041D7
:100CE000838EF6F8FC7C7CBCB8D8D8DCE6C1C0E0CA
:100CF0007098040000000080C0F01C00000000009C
:100D000000C0F3FDFF7FBFDFDF6F6F77F7F7FFFFF7
:100D1000FAFBFBFAF8FAF7372FC000808080400416
:100D20000405EF737F7F3FBFBF3C18FA188FCFE7F2
:100D3000F7F7F3F33337F7E54CBF0F780100000006
:100D4000503C3E0639DE6F1F3F1F4040163F3F7F3D
:100D50007E7C3D3B7F7F7FFCDEABE06307061019A6
:100D6000C53B06021B1719482C9418545454B4243C
:100D70006DC912C0E0C000C0781C38E0000000005F
:100D80000000C070180C0C06A692DBDBDBD6C6C6D2
:100D90008CD8870001070701004020D83F1CE000E5
:100DA000000087F8F000FC860626460DF30FFFFFD3
:100DB000FF83FC87A3927C0030303021E06001008B
:100DC000303E3763616120B59353333767A7A52F52
:100DD0004F4D47030102203010083C0778400000C7
:100DE0000000060F35B5EBDBF77DFA0EF29CE6FA54
:100DF000FFFF9F6F6F9FFEFE7C3CF8000000000C21
:100E00000F8FCE48E0EF6BF776BDDFFCF7DAAFDF90
:100E1000BFBFDFEFFFF3F163201C01C0E0E0808083
:100E2000C0C3C6CB8D0E33FCFFFFFF875BE1FEE244
:100E3000C08006CE6CB0D8DCEC2901818101012094
:100E40002020202020A020A08183838786858B07F7
:100E50009FBFB7070D1A3A377668298181818100D3
:100E6000000038444040C0808000000000000000C6
:100E700000F806F9FDFAF20CFAF7CE3CF8C00000D3
:100E800000C0E0B0F0503030391F0E00000080800C
:100E9000FF80BFC7FB7DFEFFEF779B7D8DFD0600CA
:100EA0000F3F7E3DDCEC6CECDCBEE6E6FFF3F33F8F
:100EB000DFEFEC7CBFCFFEFDFD739F0E0300003023
:100EC000083C4E1723010203010001014123F01FDA
:100ED0007F911020000307030000010305010200B9
:100EE00000000E1E9FBFA36B637E7EFCFC78766FB6
:100EF00053333EC0E070B8BEDBD9B9B4D2A2020011
:100F000000001E232B231FCFF7FBFDFEFE33FDFF4A
:100F1000FFFF78E75F3CBB635E362F6F6E2E0DFCE4
:100F2000021925221C00FEFFBFBFDFDFEFEEE9E75D
:100F3000CF3FFEC1800F3FFCC080000000000003D7
:100F40000E3830606060713F1F0FCFE7FBDFAFB737
:100F5000A926A187FFFEF00043477F7C0000000028
:100F6000000040E0F0A8FC7CF8F6F6F37171381C44
:100F70000C06010000007CE0801020E0C080000032
:100F8000000003041B3BBD79B1C0D828F4F4F4C4BD
:100F9000DCECECC8106000073F7EF870F779DE00EB
:100FA00000C010985C4C03673A1A263F3F3F3FBF92
:100FB0007FBF9FCFD7189A21C302010303030120EB
:100FC00018010600102000031C40800000000000F3
:100FD000210E00000001611B020418C00000000087
:100FE00000F0E818B0E040B8DEDBE2EC30D4FF718E
:100FF000F6F8F0E2E6EACAB6FC98583CEE8602182B
:10100000CCF1F5FAFBFAF7EFDFB76F807F43ADEE77
:1010100037E3C7010E3F438731C10103030300FEDD
:10102000FFFFFFF7371717170F1F3C63CFE7331882
:10103000EDF63A1B038680C0C0800000000000036C
:101040000F1F3F3F7E7870F0E0E0E0C0C1C0C0CC31
:10105000CFC54643612130100804000000000000A5
:10106000202042C286048CD8F060D0D8B07660C010
:101070004000C1E6F8F0D0E0F1FEF0C0A01800009A
:101080001010202061C3FF7FE79E79E79F7FF3CE9A
:10109000BFFFFFEF030407070C1A79FFC30000002E
:1010A000100808044420270E7DFBDFDF6F0F0301CB
:1010B0001F31000003041800000000011F1C103C39
:1010C0007EE6D6DCC0E161737C3F1E0E03000000AB
:1010D0000000000000000000000000000000000010
:1010E0000000000001414286848C1428C888081042
:1010F0001020C1820EFCF8F0C000004080000040CB
:1011000060A1E1F1EAFADADEBE7DFF3FCEFFFFFE2D
:10111000FCFCF89F3EFDFBE73F1E0000011EE0FCCB
:10112000FEFFFBE71F3F7F7F7FC0CF80BF03534D94
:10113000808001030307070F0C000000807807037D
:101140000F1F3F3F7F7C78F0F0E0E0E1E3C7C0C0D5
:10115000C0C3CFE06060603030180C0601000000B2
:101160000000000002060E0E1A1212242444444805
:101170008891234EBC7800081C080000428742007A
:1011800000000000E01008080888D0E0F0F038D82F
:101190006CFEFFDEBF393B1E7E1C0080611801C063
:1011A00020100834D867D8A04081070F1F3F3E7930
:1011B00077380F11E20F1C3060180601040E04018D
:1011C0000608102040418385874A2D150A02040431
:1011D00004040402010000000000000000000040C0
:1011E00018F174C082047C983220A412D088D1AE49
:1011F000C6AC48A8D4478C10503CF0000000000456
:101200001081F6F8FC79FFFCFEFFCABF7FFFF7CF25
:101210007F1F0F0F77FFFF95F41B141010101000A5
:10122000A0FFCF3F3F7E7DFBC737F70B0007070FBF
:1012300018F3022438008707070070506800000781
:101240000F0F1FB8700000000F38310101E7A6D062
:10125000010100000705765068000018141A00000C
:10126000C0F0F838ECFCFE3ECEF733DBE9E8D08086
:10127000ACF9FEDC3ABC7880000000000000007E83
:10128000CB3FFFE11FBF7FF08D7BF7AE6DADEA492D
:10129000B279BC7BE7C6CEC3EEE0C0000000000020
:1012A000038C814346C1E7DEB5BEFB9D1B2D337C1D
:1012B0000F7BF70BFEDDEE3D5BB7FB977CF080000C
:1012C000070506738D723D1E03060E0D1B367C004E
:1012D000000001000003070C000103070C1001F0DF
:1012E00008003CFE7E9EEEF4F478B0A0DC801EFB8D
:1012F000DBD6B8C000000000070C38F0F0380F61F2
:101300009688101122272F899EDFDFEFEFEF96607E
:10131000BBBB75FD7EAC52DEDCE8F03F0F00000089
:10132000000001C179BE5F3BDD6FAEDBE5D6AC638B
:101330009F3F3F1B263936174B5D8E000000008013
:1013400040300C028160190E01422313130906007C
:1013500000070C102000408000000003061020F859
:101360000414024A02E2FAFEF6FAFBBB3F7BFF06D8
:101370001E7CF830E08000C0F0380C04020202014C
:101380000E304081000D7BEAF7F7F7F7F8C001F661
:1013900008060001010100071F3CF0E0C00000004A
:1013A000C0E0E0F071B2D4E167EFDF3FFFFFFFFE86
:1013B000FCD874CC3CBC78F8B0C000C77DFFFC0FF3
:1013C0001F1E3F310E3F7F7F7FFEFED9F7EFEBDF21
:1013D0005F5F184F706F3F3C1F07080F0707000043
:1013E0000080C000000010A07AC4ECF87DBF5A1F36
:1013F0001BF63CFE701800040CF830C0800000F8AA
:101400000FE758A040C28EB5844C6F7FFCFBF4E818
:101410009069DB2BD0D0B0D8E679BAC6F986F8034C
:101420000C3F620D1B26440A1E3323430203CFFFE9
:10143000FFFEF10FFC00100C07110C0300211F0030
:101440003C4242819DA222414D525294AEAFAFAF79
:10145000AFA78857524D4122A29D8142423C0000D5
:1014600000000080E0781E0700000000000000007F
:10147000008082446877F03E10000000000000C841
:10148000D0B83E6701C0201008844424221291493C
:10149000A9D80CE41EE0011EE000000000000000DE
:1014A000010100003FC000F807806098661906013E
:1014B000F00FF00F80F1184C860606864C1CF000E9
:1014C0000000202020119297944B4C2F1C181C1BBD
:1014D000141310001F7160CCC8CCC864301E037C8C
:1014E0007C7C7C7C7C7C7C0101012D2E0101010136
:1014F000410101010101010101010101010101019C
:101500000101010101010101010101010101010AC2
:101510000101010101010118160101010101017C14
:101520007C7C7C7C7C7C7C010101016201010101ED
:101530000101016201410101010101620101010199
:10154000010101700171710101010101010101013C
:101550000101010101010101020304010101011E58
:101560002120241F211F211E242525241D211D216A
:101570001E241F2424242424242424242425252434
:1015800024242424242424241E54555555555555CB
:101590005500005555555555562124242062005EAE
:1015A0005F6000000000005E5F600000641D242496
:1015B0001D62006C6D6E00000000006C6D6E1415F5
:1015C000641F242420622C7A7B7D000000002C7A8A
:1015D0007B7D2223641D24241E6200000000000085
:1015E0000000000000000000641D242421620000AF
:1015F000000000000000000000000000642024241F
:101600001262000000000000005E5F5F5F5F60002C
:10161000641E24242062003B3B3B2C00006C6D6D5B
:101620006D6D6E00641D24241F62002A2B2A2B007E
:1016300000616F3939395300641E24242162002A65
:101640002B2A2B00007A7C7B7C7C7D00641E24246A
:101650001E6200000000000000000000000000000A
:10166000642024241270717171710000003B3B3BB7
:10167000303B3B00641D24241F201F575859620033
:101680000013131313131300642024241F20216557
:10169000476762000013131313131300641F2424FD
:1016A0001E201E6546677071717171717171717163
:1016B000721F2424242424654767242424242424FA
:1016C00024242424242424010101240101010124CF
:1016D0002626240101010101012401010101242424
:1016E00024242424262624242424242424240101FC
:1016F000010124010101010126260101010101135B
:101700001324010101012401010101082626010120
:101710000101011313240101010124010101010848
:1017200026262626262626262624010101012438DF
:1017300038393A083838393A26262626262401012F
:101740000101081313130108252525252525252525
:1017500025080101010108010101010825252525B0
:1017600025252525250801010101080101010108A0
:1017700025252525252525252508010101010838D0
:10178000393A3A082525252525252525250801014D
:101790000101080101131313010101262626262643
:1017A00026080101010108010101010101010126D1
:1017B0002626262626080101010108010101010152
:1017C000010101262625252525080101010108081A
:1017D000083838393A080808082525252508010160
:1017E00001012401010101131313132626252525C8
:1017F0002524010101012401010101131313132602
:10180000262525252524010101012401012626265E
:1018100026262626260101010124010101012401B9
:10182000012626262626262626010101012401015D
:10183000010124010126260101010101010101012B
:10184000012401010101243905393A0538393A39B1
:1018500038393A393A2401010101240101262626AA
:1018600026262626262626262624010101012401D5
:101870000126262626262626262626262624010179
:101880000101240101010101010101252525252670
:101890002624010101012408080808080808082571
:1018A000252525393A2401010101240101010113F3
:1018B00013131325252525262624010101012401C2
:1018C00001010113131313252525252626240101C3
:1018D00001012426262626262626262626262626F4
:1018E00026240101010124393A2626262C38393ACA
:1018F000383938393A24010101010801012525252B
:1019000025262601012525252508010101010801BB
:101910000125252525262601012525252508010146
:101920000101082525252513132626252525251300
:101930001308010101010825252525131326262555
:10194000252525131308010101010824242424243A
:10195000242525242424242424080101010108012C
:1019600001010101242525240101010101080101D2
:1019700001010801010101012425252401010101C2
:1019800001080101010108010101010124252524AB
:10199000010101010108011E2120241F211F211E18
:1019A000242525241D211D211E241F242424242414
:1019B00024242424242525242424242424242424E5
:1019C0001E545555555555555501015555555555A7
:1019D000562124242062015E5F6001010101015E45
:1019E0005F600101641D24241D62016C6D6E0101A4
:1019F0000101016C6D6E1415641F242420622C7A81
:101A00007B7D010101012C7A7B7D2223641D24242E
:101A10001E62010101010101010101010101010138
:101A2000641D242421620101010101010101010160
:101A3000010101016420242412620101010101015C
:101A4000015E5F5F5F5F6001641E24242062013BD2
:101A50003B3B2C01016C6D6D6D6D6E01641D24248A
:101A60001F62012A2B2A2B0101616F393939530179
:101A7000641E24242162012A2B2A2B01017A7C7BFB
:101A80007C7C7D01641E24241E6201010101010190
:101A9000010101010101010164202424127071710E
:101AA00071710101013B3B3B303B3B01641D242430
:101AB0001F201F57585962010113131313131301E9
:101AC000642024241F20216547676201011313133A
:101AD00013131301641F24241E201E6546677071B2
:101AE0007171717171717171721F242424242465C4
:101AF0004767242424242424242424242424241054
:101B000010FFFFFFFFFFFFFFFFFFFFFFFFFFFFFFD4
:101B1000FFFFFFFFFFFFFFFFFFFFFFFFFFFFFFFFD5
:101B2000FF000000000000000000000000000000B6
:101B300000000000000000000000000000000000A5
:101B4000000000223333333333333333333333330F
:101B500033000022333333333333333333333333CC
:101B60003333333333333333333333333333333345
:101B70003333333333333333333333333333333335
:101B80003333333333333333333333333333332236
:101B90000033333333333333333333333333332259
:101BA00000000022333333333333333333333322C0
:101BB00000000022333333333333333333333322B0
:101BC000008F8F8F8741231383C1E0E0F0F0F9F895
:101BD000F8030381B87CFEFCFDFBF7F7E7CF9F9F7E
:101BE0001FF8F9FBF3F7E6ECC99B133333674FCFCC
:101BF0008F1F1F1F0F0787C7E3E1F0FE7C388000AF
:101C00002100000080403078787C3C3C1C1890E03B
:101C10000000003F43076614080808081261001F0F
:101C200000810007000E008300810007000E008382
:101C300000810007000E008300810007000E008372
:101C400000007A7A1ADABABABABABABADA1A7A7A68
:101C50000000BBDDDDDCDDDDDDDDDDDDDCDCDDB9B7
:101C6000000000C010E8F0F4F4F4F4F8FAFAF8F424
:101C7000F40018C33CFFFFFFFF01FCFEFEFEFEEE7A
:101C80001EF4F4F8FAFAF8F4F4F4F4F8FAFAF8F4C2
:101C9000F41E1E1E1E1E1E1E1E1E1E1E1E1E1E1E8E
:101CA0001EF4F4F8FAFAF8F4F4F4F4F0E8D00000D2
:101CB000001EEEFEFEFEFEFC010F1FFFFF3CC318E0
:101CC000000000000000000000387000381CC060F8
:101CD0000000001C38001C0E000000000000000086
:101CE00000000000000000000000000000000000F4
:101CF00000000000000000000000070E001C0E00A5
:101D000000000000000000000000000000000000D3
:101D10000000000E1C000E07000000000000000084
:101D20000000000000387000381C000000000000B7
:101D300000000000000000000000000000000000A3
:101D40000000000000000000000000000000000093
:101D500000000000070E001C0E0000000000000044
:101D6000000000081408000000000000000000004F
:101D70000000000000000000000200001128100018
:101D8000000000000000000080C0E0E0F0F0F8F883
:101D9000F8000080B87CFEFCFDFBF7F7E7CF9F9FC3
:101DA0001FF8F8F8F0F0E0E0C0800000000000004C
:101DB000001F1F1F0F0787C7E3E1F0FE7C3880007C
:101DC0000000FEFEFE060606068606E606FE060283
:101DD00000007F1F0F04040606060607040F1060AC
:101DE00000070E1C1C1C0E0707070E1C1C1C0E07F0
:101DF0000703070E14140E070303070E14140E072F
:101E00000300DDFFFFFFFFFFFFFFFFFFFFFFFFDD21
:101E100000006367272727272727272727276763A8
:101E2000000018C33CFFFFFFFF00FFFFFFFFFFFFA5
:101E3000000018C33CFFFFFFFF00FFFFFFFFFFFF95
:101E400000000040C0D0A000F8E8005030000000C2
:101E50000000000C0A0C0C06617F0201030706005B
:101E60000000FFFFFFFFFFFF000000FFFF3CC31863
:101E70000000FFFFFFFFFFFF000000FFFF3CC31853
:101E80000020080402000100802008040200010074
:101E900080200804020001008020080402000100E4
:101EA0008000000000000000000000000000400072
:101EB0000000000000000000000000000000000022
:101EC000000000000000000000000000000400000E
:101ED0000000000000000000000000000000000002
:101EE00000000000000000000000001000000000E2
:101EF00000000000000000000000000002000000E0
:101F0000000000008000000000040020000000002D
:101F100000000000000000000000000000000000C1
:101F20000000000008000000400000000000000069
:101F3000000000000002000000000000000000009F
:101F400000000F1F3F3F7EFCF9FBF373F3E7CFCF99
:101F50008F000000000000080C0C0804183913431F
:101F6000E38F8F8F87C12373F3F1F070787C3F1F6D
:101F70000043030301000000080C080000000000FB
:101F8000000000C0E0F0F8FC7C3C44840810A0C0D5
:101F90000000001F20417F82828282827F41201FB9
:101FA00000FFFFFFFFFFFFFFFFC78FFFC7E33F9F5C
:101FB000FFFFFFE3C7FFE3F1FFFFFFFFFFFFFFFFAF
:101FC000FFFFDDFFFBBFFDEF7DFFFFB7FDBFF7FFAD
:101FD000FFFFDEFFFDBFEFFBFFEFFFFBBFF7FFDD06
:101FE000FF0018C33CFFFFFFFF800F1F1F1F1F1EB6
:101FF0001E002042C48B97172F2F2F1F5F5F1F2FAC
:102000002F1E1E1E1E1E1E1E1E1E1E1E1E1E1E1EDF
:102010001E2F2F1F5F5F1F2F2F2F2F1F5F5F1F2F61
:102020002F1E1E1F1F1F1F0F0080C0FFFF3CC31865
:10203000002F2F1F5F5F1F2F2F2F17978BC442205A
:1020400000000C1C3232321C0C000000381CC06036
:1020500000000E1C00381C00001818242424181836
:10206000000018182424241818000000381CC06030
:1020700000000E1C00381C00000C1C3232321C0CFC
:102080000000000078F8F8F0F8F8F8F8F8E8000038
:10209000000000000B2B2B0B0B010B2B2B0B00005C
:1020A0000000FEFEFEFCFEFEFEFEFEFEF8FEFEFE54
:1020B000FE000B6B634B0B010B0B0B0B030B0B0BA2
:1020C0000BFEFEFEFEFCFEFEFEFEFEFEF8FEFEFE2B
:1020D000000B0B0B030B0B010B0B0B0B636B4B0B75
:1020E0000000B6BEFEFEFEFEFEFEFEFEFEFEFCFE96
:1020F000FE000BCBCB0BCBCB0BC1CB0BCBCB0BCB92
:10210000CB00FEFEFEFCFEFEFEFEFEFEF8FEFEFE28
:1021100000000B6B634B0B010B0B0B0B636B4B0B3F
:1021200000FEFEFEFEFEFEFEFEFEFEFEFCFEBEB657
:1021300000CBCB0BCBCB0BCBC10BCBCB0BCBCB0B84
:1021400000FFFFFF070707070787878787878787BE
:1021500087FFFFFF000000007F000000F00808C8B4
:10216000480787878787878787078787878787873E
:1021700087484848484048484848484848404848B0
:102180004807878787878787870707C7E707FFFF8E
:10219000FF48C808E8F000FCFEFF00FFFF00FFFF5B
:1021A000FF002042C48B97172F2F2F1F5F5F1F2F19
:1021B0002F002042C48B97172F2F2F1F5F5F1F2FD9
:1021C0002F2F2F1F5F5F1F2F2F2F2F1F5F5F1F2F9F
:1021D0002F2F2F1F5F5F1F2F2F2F2F1F5F5F1F2F8F
:1021E0002F2F2F1F5F5F1F2F2F2F17978BC442207A
:1021F000002F2F1F5F5F1F2F2F2F17978BC4422099
:102200000005050511110505110505051111050547
:1022100011000000000000000000000000000000AD
:10222000001105050511110505110505051111051B
:102230000500000000000000000000000000000099
:1022400000051105050511110505110505051111FB
:102250000500000000000000000000000000000079
:102260000000EEDBD515DBEE0000EEDBD515DBEE76
:1022700000003F7F7F157F3F00003F7F7F157F3F3E
:102280000000EEDBD515DBEE0000000000000000D2
:1022900000003F7F7F157F3F00000000000000002E
:1022A00000000000000000000000EE1BD5D5DBEEB2
:1022B000000000000000000000003F757F1F7F3F0E
:1022C00000002C6E7E6E7E6E7E6E6E423C665A669E
:1022D0003C000000000000000000000000000000C2
:1022E000003C665A663C426E6E7E6E7E6E7E6E2C42
:1022F00000000000000000000000000000000000DE
:1023000000FFFFFF000000007F000000F70000FF5B
:1023100000FFFFFF000000007F000000F70000FF4B
:10232000000000E0E0E000F8F8F800FEFEFEFE002D
:102330000000007F1F1F001F0707000701017F002B
:102340000000FF00EFEF00FEFEFE00FFFF00FFFFBA
:10235000FF00FF00EFEF00FEFEFE00FFFF00FFFFAB
:10236000FF002042C48B97172F2F2F1F5F5F1F2F57
:102370002F000004091317272F2F2F1F5F5F1F2F18
:102380002F2F0F07C3D3D9D9D9D9D9D9D3C3070F81
:102390002F13000036363636363024262022000031
:1023A000132F2F1F5F5F1F2F2F2F17978BC44220D4
:1023B000002F2F1F5F5F1F2F2F2F271713090400D8
:1023C0000020220202000000202022020200000061
:1023D0002020220202000000202022020200000031
:1023E0002020000202020020202000020202002021
:1023F0002020000202020020202000020202002011
:102400002000000002022220200000000202222000
:1024100020000000020222202000000002022220F0
:102420002000FCFEFEA8FEFC0000FCFEFEA8FEFC58
:10243000000077DBABA8DB77000077DBABA8DB77AE
:102440000000FCFEFEA8FEFC0000000000000000F2
:10245000000077DBABA8DB77000000000000000085
:1024600000000000000000000000FCAEFEF8FEFCD2
:102470000000000000000000000077D8ABABDB7765
:10248000000000000000000000000000000000004C
:1024900000002C6E7E7A7E7A7E7A7A423C665A669C
:1024A0003C000000000000000000000000000000F0
:1024B000003C665A663C427A7A7E7A7E7A7E6E2C40
:1024C00000FFFFFF00000000FF0080C0CFD0D8DB7E
:1024D0001AFFFFFFE0E0E8ECECEDEDEDEDEDEDEDEA
:1024E000ECDADADAC2DADADA1ADADADAC2DADADA2A
:1024F0001AEDEDEDEDEDEDEDECEDEDEDEDEDEDEDE0
:10250000ECDADBD8D7CFC0BE7EFE00FFFF00FFFFB6
:10251000FFEDEDEDEDEDEDEDEDECECEBE7E0FFFFCC
:10252000FF180502030041404140414001020304FD
:102530001900E0ECEDEDEDEDEDEDEDEDEDEDECE0A8
:10254000001805022330313031303130313223046C
:1025500019000022333333333333333333333322ED
:102560000005111105050511050511114555550009
:10257000000000000000000000000000D3DBDB00D2
:1025800000F0F8FC1E0F0707070707070707070FEC
:10259000007F7F7F000000000001000000000000BD
:1025A0000007070707070707070707070707070FBA
:1025B000000000000000000000000000000000001B
:1025C00000070707070707070707070F1EFCF8F0B4
:1025D000000000000000000200000000007F7F7F7C
:1025E00000C0F0781CCE66570B0B0B0B0B0B8B0B44
:1025F00013FFE3001F6080000000070E00070300C8
:1026000000130B0B0B0B0B0B13130B0B0B0B0B0B0D
:1026100013000000000000000000000000000000A7
:1026200000130B0B0B0B0B0B0B0B5766CE1C78F030
:10263000C00000000000000000000080600F00E308
:10264000FFF0F8FC9E0F07070F07030F870F070F18
:10265000007F7F7F22000000070E00071328100074
:10266000000F070F070F07030F070F03070F070FD1
:10267000000000000C000600000000004000000008
:10268000000F03070F070F070F07830F070F070F31
:1026900000000000020502000000010083000000AD
:1026A000000FE7CF0387CF070F03070F1EFCF8F0DB
:1026B0000000000100031128100000000A7F7F7F46
:1026C00000C060A01070B8087CB4FE0602020202CE
:1026D00002FF77BB0077BB0077BBFF000000000064
:1026E00000020202020202020202020202020202CC
:1026F00002000000000000000000000000000000D8
:1027000000020202020206FA040408081010202047
:10271000C0000000000000FF0000000000000000FA
:10272000FF0000555545111105051105050511114D
:10273000050000DBDBD3000000000000000000000B
:1027400000FFFFFF0000000000000000000000008C
:10275000007F7F7F000000000000000000000000FC
:102760000000E0F018ACE622E242A2E46810E000CB
:10277000000000000102046868080804020100006B
:1027800000000000000000000000000000FFFFFF4C
:10279000000000000000000000000000007FFF7F3C
:1027A00000FF87003CC201000000000000000000A4
:1027B00000FFC1001F60800000000000000000005A
:1027C0000008F80C66640C8C8683868C64660C7832
:1027D000880916605FBF80A4A4A4A4A4BFDF20372B
:1027E000080000000000000000000001C23C00875B
:1027F000FF0000000000000000000080601F00C11A
:10280000FFFFFFFF14000000001800300000000070
:10281000007F7F7F12000000000010000000020017
:102820000000000000000000C0E0F0E0D8BCBC7A6E
:1028300072000000C09C7EFFFEFDFBF3F1F3E7EFAA
:10284000EF7A3C3C9880C0F0E040000000000000BF
:1028500000CFCFC7E3E071F9F8FC7E3E0CC000006A
:1028600000000000008000000800000084FFFFFF5F
:10287000000000000001000300000000227F7F7FB5
:1028800000FF77BB0077BB00F7FBFFE0C0C040C094
:10289000C03F777B7C6F0F6F636D0C6D616D0C6D4E
:1028A00061C040C0C0C040C0C0C040C0C0C040C087
:1028B000C06D0C6D616D0C6D616D0C6D616D0C6D9D
:1028C00061C040C0C0C060FFC080000000000000C8
:1028D000FF6D0C6D616D0C6D616D0D6E6468106047
:1028E0003F05110505051111050511050505111116
:1028F000050000000008080A02020808080000009D
:1029000000FFFFFF000000000000000010000000BA
:10291000000F1F3F7E7C7C1C1C1C1C1C1C1C1C7C78
:1029200000000000000000000000000000000000A7
:10293000001C1C1C1C1C1C1C1C1C1C1C1C1C1C7C93
:1029400000000000000000004000000000FFFFFF4A
:10295000001C1C1C1C1C1C1C1C1C1C1C1E0F07030C
:1029600000FF87003CC221000000000000000000C2
:1029700000030F1E306142E4C4C2C990909090C819
:10298000C400000000000000000000000000000083
:1029900000C4C8909090C8C89090C8C8D09090C803
:1029A000C400001C38001C0E00000021C23C00873F
:1029B000FFC4C890909090C9C6C4E44261301E0F15
:1029C00003FFFFFF14000080000000100000000063
:1029D000007F7F7F2900000100030000000000004D
:1029E00000000000030F1F3E3D3978F9F3F7EFEFC9
:1029F000EF0000000000000000003EA0A1A1A3AB7A
:102A0000ABCFC7C7E3E1F00818383C1E0F03000046
:102A100000A3A3A3A1A1A0380000000000000000B3
:102A200000000018003000000000800014FFFFFFCD
:102A3000000000001028100000000000247F7F7FAD
:102A4000000000B6B6B400FC2424FC2424FC002AB8
:102A5000AA00606D6160636363636363636363685B
:102A60006AAA0222FA00FCFC00FCFC00F8F2020256
:102A7000AA6A0008320232320232300230320008D2
:102A80006AAAAAA8AA8AAAAAAAAAA2AAAA28AAAA92
:102A9000AA6A6A6A6A6A6A686A6A6A6A6A6A6A6A58
:102AA00062AA2A00FC2424FC2424FC00B4B6B6004C
:102AB000006A6863636363636363636360616D603B
:102AC00000FFFFFFFFFFFFFFFFFFFFFFFFFFFFFF15
:102AD000FFFFFFFFFFFFFFFFFFFFFFFFFFFFFFFF06
:102AE000FFFFFFFFFFFFFFFFFFFFFFFFFFFFFFFFF6
:102AF000FFFFFFFFFFFFFFFFFFFFFFFFFFFFFFFFE6
:102B0000FFFFFFFFFFFFFFFFFFFFFFFFFFFFFFFFD5
:102B1000FFFFFFFFFFFFFFFFFFFFFFFFFFFFFFFFC5
:102B2000FFFFFFFFFFFFFFFFFFFFFFFFFFFFFFFFB5
:102B3000FFFFFFFFFFFFFFFFFFFFFFFFFFFFFFFFA5
:102B4000FFFFFFFFFFFFFFFFFFFFFFFFFFFFFFFF95
:102B5000FFFFFFFFFFFFFFFFFFFFFFFFFFFFFFFF85
:102B6000FFFFFFFFFFFFFFFFFFFFFFFFFFFFFFFF75
:102B7000FFFFFFFFFFFFFFFFFFFFFFFFFFFFFFFF65
:102B8000FFFFFFFF500000002000040A04000000C7
:102B9000000F1F3F7E7C7C1C1E1C1F1C1E1C1E1C4D
:102BA0000000000002000018000C000000400000BF
:102BB000001C1C1E1C1F1C1E1C1C1C1C1E1C1C7C08
:102BC00000002050200000800000180030000000AD
:102BD000001C1C1C1E1C1C1C1C1E1C1E1C1C1E7CE9
:102BE00000000030006000040A04000000FFFFFF46
:102BF000001C1E1C1C1C1C1E1C1F1C1C1E0F070363
:102C000000FFFFFFFFFFFFFFFFFFFFFFFFFFFFFFD3
:102C1000FFFFFFFFFFFFFFFFFFFFFFFFFFFFFFFFC4
:102C2000FFFFFFFFFFFFFFFFFFFFFFFFFFFFFFFFB4
:102C3000FFFFFFFFFFFFFFFFFFFFFFFFFFFFFFFFA4
:102C4000FFFFFFFFFFFFFFFFFFFFFFFFFFFFFFFF94
:102C5000FFFFFFFFFFFFFFFFFFFFFFFFFFFFFFFF84
:102C6000FFFFFFFFFFFFFFFFFFFFFFFFFFFFFFFF74
:102C7000FFFFFFFFFFFFFFFFFFFFFFFFFFFFFFFF64
:102C8000FF1010000000C088D44A8A8A4AD408C0C5
:102C9000000000000000180D434A0B0B4A430D18BA
:102CA0000000000000008010A894141494A8108064
:102CB000000000000000011B171407175447030908
:102CC000000000000000C098AC36B6B636AC18C0A4
:102CD000000000000000180D434A0B0B4A430D187A
:102CE0000000000000008010A894141494A8108024
:102CF00000000000000009034744070714171B01E8
:102D00000000000000F0F8FCFEFFFFFFFFFEFCF8F3
:102D1000F000000000183D7FFFFFFFFFFFFF7F3D39
:102D20001800000000E0F0F8FCFEFEFEFEFCF8F0EB
:102D3000E000000000011F7F7F7F7FFFFFFFFF1F7C
:102D40001900000000F0F8FCFEFFFFFFFFFEFCF89A
:102D5000F000000000183D7FFFFFFFFFFFFF7F3DF9
:102D60001800000000E0F0F8FCFEFEFEFEF8F8F0AF
:102D7000E000000000191FFFFFFFFF7F7F7F7F1F24
:102D80000100001010000000C0983C7E5E5E7E3C9A
:102D900098C0000000000000180C414A0A0A4A418D
:102DA0000C18000000000000803078FCBCBCFC78EF
:102DB0003080000000000000013912041414646225
:102DC0000D09000000000000C0983C7E5E5E7E3C65
:102DD00098C0000000000000180C414A0A0A4A414D
:102DE0000C18000000000000803078FCBCBCFC78AF
:102DF000308000000000000009096264141404120D
:102E000039010000000000C0F8FCFEFFFFFFFFFEDC
:102E1000FEFE0E00000000000101F9FFFFFFFFF3BE
:102E200001000000000000C0F8FCFEFFFFFFFEFCF8
:102E3000FCFE2600000000000161FBFFFFFFFFFF1A
:102E400073310000000000C0F8FCFEFFFFFFFFFE32
:102E5000FCFC2C00000000000101FBFFFFFFFFF362
:102E600001000000000000C0F8FCFEFFFFFFFEFCB8
:102E7000FCFC6C000000000001FBFFFFFFFFFFFFF8
:102E8000733100000010100000000018DCDE96EA2C
:102E9000EA94E404000000000000000000405959DA
:102EA000410100000000000000000018DCDE16D622
:102EB000D428C80400000000000000006049030B93
:102EC0005B5321000000000000000018DCDE96D6F5
:102ED000EA88E8080000000000000000004059599E
:102EE000410100000000000000000018DCDE16D6E2
:102EF000D428C808000000000000000058590B0347
:102F00004B43210000000000000EFEFEFEFFFFFF0D
:102F1000FFFEFCF8C000000000000001F3FFFFFF0F
:102F2000FFF90101000000000026FEFCFCFEFFFF8F
:102F3000FFFEFCF8C000000000003173FFFFFFFF40
:102F4000FFFB610100000000002CFCFCFEFFFFFF06
:102F5000FFFEFCF8C000000000000001F3FFFFFFCF
:102F6000FFFB010100000000006CFCFCFCFEFFFF09
:102F7000FFFEFCF8C000000000003173FFFFFFFF00
:102F8000FFFFFB01000000101000000004E494EAC1
:102F9000EA96DEDC1800000000000000000001419D
:102FA00059594000000000000000000004C828D467
:102FB000D616DEDC18000000000000000021535B84
:102FC0000B034960000000000000000008E888EAE8
:102FD000D696DEDC18000000000000000000014171
:102FE00059594000000000000000000008C828D423
:102FF000D616DEDC18000000000000000021434B64
:10300000030B59580000000000080B0002020200E8
:10301000000904000001020200000524001001055F
:10302000240101010424020605240600010705818C
:103030000310004009040100020A00000007050215
:103040000240000007058302400000040309041247
:10305000010002EF0201404123368000010102031A
:103060000141726475696E6F204C4C43004172647B
:1030700075626F79001010FC02010101010101016C
:1030800001010101010101FF00000000000000003A
:103090000000000000000001010101010101010127
:1030A000010101010102FC0000000000000000001D
:1030B000000000000000FFFF000000000000000012
:1030C000000000000000003F408080808080808001
:1030D0008080808080808000000000000000000070
:1030E000000000000000FF80808080808080808061
:1030F0008080808080403F000000000000000000D1
:10310000000000000000008080808080808080803F
:103110008080808080808001010101010101010126
:103120000101010101010100000000000000000098
:103130000000000000000000C12411241FBECFEFDA
:10314000DAE0DEBFCDBF13E0A0E0B1E0E4EFF7E6E8
:1031500002C005900D92A230B107D9F729E0A2E094
:10316000B3E001C01D92A73DB207E1F718E1CDE938
:10317000D8E104C02197FE010E94F233CC39D10777
:10318000C9F70E94A7250C94F8330C940000FF9215
:103190000F931F93CF93DF93F82E062FEA01122F80
:1031A00020E030E040E051E46091AE097091AF0959
:1031B0008091B0099091B1090E94BC310E942D32DA
:1031C0009B0177FF02C0215F3F4FC90134E0959515
:1031D00087953A95E1F7F816190691F56091B209CD
:1031E0007091B3098091B4099091B5090E942D3274
:1031F0009B0177FF02C0215F3F4FC90124E09595F5
:1032000087952A95E1F708171906D1F480910D01E9
:10321000811316C08091C309833091F480913E07D9
:1032200091E0892780933E0790939A0988EE93E076
:1032300090939F0980939E09D0939C09C0939B090A
:10324000DF91CF911F910F91FF90089520910E0172
:10325000269FF001279FF00D11248E0F9F1FE091F4
:10326000AC09F091AD09E80FF91F849190E0089541
:103270002F923F924F925F926F927F928F929F9286
:10328000AF92BF92CF92DF92EF92FF920F931F9374
:10329000CF93DF9300D01F92CDB7DEB740E250E06E
:1032A00038E0B32E66E7662E60E3762E70E8A72E30
:1032B000BA0183E0759567958A95E1F76983FB2CE0
:1032C000F61AE62ECB019695982F88279795879525
:1032D00030E020E04A83DC01A25CBC4F4D01022FAC
:1032E000211109C0BA81B032C1F084E0B03371F469
:1032F000A2E0AB8313C0203759F4AA81A03209F4AD
:1033000073C0B4E0A03309F070C083E08B8306C0C3
:1033100085E04032D9F3A4E0ECCF1B82E5E7F0E38F
:103320001491F301D490E12FF0E0CB8087E790E394
:10333000CC20E1F081E090E0AD2DA77011F490E099
:1033400080E0AD2DA695A695A6958A0F911D8E9F1E
:10335000D0018F9FB00D9E9FB00D1124CB80CA9ECF
:10336000C001CB9E900D112489589F4CE20FF31F92
:10337000309709F442C0009709F43FC04A2C401A24
:10338000E038F1050CF4412EF1E0ED2DE77009F481
:10339000F0E0D694D694D6945F2E5D0CFB01E50D3B
:1033A000F11D39970CF05F2CE12FE4198401020F15
:1033B000131F3E2CA42DAE0FBB27BB1F6D01E32DA9
:1033C000B981EB1BE515C8F4B0E0A0E0A41578F4D2
:1033D000FC01EA0FFB1F249037FC04C0F801EA0F40
:1033E000FB1F20821196F2CFB1E0BB8397CF8C0DEB
:1033F0009D1D00581F4F3394E2CF205F3F4F203870
:10340000310509F06CCF405F5F4F4034510509F042
:103410004FCF0F900F900F90DF91CF911F910F9191
:10342000FF90EF90DF90CF90BF90AF909F908F90E4
:103430007F906F905F904F903F902F900895EEE3B4
:10344000F3E0A0E0B8E000800EBC8111012C1197E0
:10345000A0FDFDCF0192B9F70DB40895FC01809154
:103460003D03882311F13FB7F89482E08093E9008F
:103470002091F200822F90E01816190614F481E0D2
:1034800090E0882339F0289844E640933C0340912B
:10349000F1004083222339F02091F200211103C072
:1034A0002BE62093E8003FBF08958FEF9FEF08952C
:1034B0002FB7F89483E08093E9009091E800892F7A
:1034C000807295FF04C09091F20080E4891B2FBFA9
:1034D00008958091340381110DC082E08093300300
:1034E00084E080933103109233031092320381E021
:1034F0008093340380E393E00895CF93DF931F928A
:10350000CDB7DEB76983DC01ED91FC910280F381D8
:10351000E02D41E050E0BE016F5F7F4F09950F90B5
:10352000DF91CF91089583E08093E9008091F200CC
:10353000882319F08AE38093E80008950E94581ABE
:1035400090E00895CF93DF931F92CDB7DEB7FC01D3
:103550008485958597FD08C02FEF3FEF3587248739
:103560000F90DF91CF910895CE0101960E942E1AFF
:10357000019719F4898190E0F3CF8FEF9FEFF0CF9F
:103580000F931F93CF93DF931F92CDB7DEB78C01BC
:10359000FC018485958597FF0BC0CE0101960E94A2
:1035A0002E1A019771F4898190E0F801958784873C
:1035B000F801848595850F90DF91CF911F910F9130
:1035C00008958FEF9FEFF1CFFC018485958597FDDE
:1035D0000BC09FB7F89482E08093E9008091F200DD
:1035E0009FBF90E0019608959FB7F89482E0809382
:1035F000E9008091F2009FBF90E0089540912A0376
:1036000050912B032091280330912903421753072F
:10361000B4F49091E8009570E1F39091E80092FD88
:1036200019C08093F10080912A0390912B03019699
:103630008F739927892B19F48EEF8093E80080917E
:103640002A0390912B03019690932B0380932A03D6
:1036500081E0089580E00895DF92EF92FF920F934A
:103660001F93CF93DF93D82E8A01EB017B01E40EE9
:10367000F51ECE15DF0559F0D7FE12C0FE0184916C
:103680000E94FE1A21968111F4CF0FEF1FEFC8019F
:10369000DF91CF911F910F91FF90EF90DF900895F0
:1036A0008881EECF0F931F93CF93DF931F92CDB7F7
:1036B000DEB782E0898342E450E069E070E380E8AD
:1036C0000E942C1B0E94691ADC0112960D911C911C
:1036D0000115110589F0D801ED91FC910280F3816B
:1036E000E02DBE016F5F7F4FC801099597FD04C0B3
:1036F000F80100851185ECCF89810F90DF91CF9182
:103700001F910F910895615030F02091F100FC015C
:1037100020830196F8CF289884E680933C0308958F
:10372000AF92BF92CF92DF92EF92FF920F931F93CF
:10373000CF93DF936C017B018B01040F151FEB010D
:103740005E01AE18BF08C017D10759F06991D601C4
:10375000ED91FC910190F081E02DC6010995892B36
:1037600079F7C501DF91CF911F910F91FF90EF90F5
:10377000DF90CF90BF90AF900895FC010E94541C41
:10378000319728F068517C4F8F4F9F4FF9CFAB0195
:10379000FC010E94541C641775078E079F07C8F32D
:1037A00008958F929F92AF92BF92CF92DF92EF9245
:1037B000FF920F931F93CF93DF936C017B018A01DC
:1037C00080910C01882309F45AC080913D0388231D
:1037D00009F455C080912F0380FF05C08091E0005F
:1037E00082608093E000E801B12C8AEFA82E93E07C
:1037F000892E2AE3922E209711F4BB20C9F10E9452
:10380000581A811108C0AA94AA20C9F181E090E059
:103810000E94BD1BF0CF8C171D0611F00CF08C2FF1
:103820009FB7F8948092E9002091E80025FD02C03E
:103830009FBFE1CF282F30E0C21BD30BF70181508F
:1038400020F041914093F100FACFE20EF31EBB202D
:1038500021F09092E800B12CEBCF8091E80085FD3B
:10386000E7CF9092E800BB24B394209709F3F3CFFD
:103870005D9884E680932E03101611063CF081E0DB
:1038800090E0F6019383828310E000E0C801DF91AD
:10389000CF911F910F91FF90EF90DF90CF90BF904D
:1038A000AF909F908F900895A2E1B3E02FB7F89466
:1038B0007D918D919C9166B52FBFA89B05C06F3FF0
:1038C00018F47F5F8F4F9F4F22E0660F771F881F8E
:1038D000991F2A95D1F708954F925F926F927F9228
:1038E0008F929F92AF92BF92CF92DF92EF92FF9210
:1038F0000F931F93CF93DF934C015901FC2DC02FE1
:10390000D0E0CE01880D991D181619060CF06CC078
:1039100020E8821691040CF067C09B012E0D311D2A
:10392000121613060CF060C0603471050CF05CC018
:103930004115510509F458C0E62FE770FE2EDB0152
:1039400077FD179633E0B595A7953A95E1F73A2FAD
:1039500077FF04C0FF2011F03FEF3A0F662777276B
:103960006819790997FC02C070E060E08038910521
:103970000CF44BC090E89819961BA32F032E000C53
:10398000BB0B1A2F10953F3F0CF010E021E08E2D5D
:10399000877009F420E0E694E694E694E20EAE0D1A
:1039A000B11D19971CF028E0E22EE31AE11A310F3D
:1039B00020E83203D0011124A80DB91DA60FB71FAE
:1039C000019F600D711D1124460F571F0F2D0F2CE5
:1039D000000C110BF33009F41CC1C8F4F13009F4E8
:1039E000D0C0F23009F47CC0DF91CF911F910F91CC
:1039F000FF90EF90DF90CF90BF90AF909F908F900F
:103A00007F906F905F904F900895902FB5CFFA3FC1
:103A1000B1F1232F2E0DFB3F39F7321729F3BD01EA
:103A2000625C7C4FD12CC12CC91608F0A4C0FA01ED
:103A3000EC0DFD1DE491F0E04F01002E02C0880C5A
:103A4000991C0A94E2F737FD06C0FB018081E82C3F
:103A5000E0948E218083FF2061F0373054F45B01C5
:103A6000F0E8AF0EB11CE92CE094F50180818E21C5
:103A70008083FFEFCF1ADF0A6F5F7F4FD5CF232FF1
:103A80002E0D321709F4B0CFBD01625C7C4FD12CF2
:103A9000C12CC91608F069C0FA01EC0DFD1DE491B6
:103AA000F0E04F01002E02C0880C991C0A94E2F746
:103AB00037FD04C0FB01808188298083FF2051F0FD
:103AC000373044F45B01F0E8AF0EB11CF5018081A2
:103AD00089298083FFEFCF1ADF0A6F5F7F4FD9CF2D
:103AE0006FEF70E00F2C02C0660F771F0A94E2F7A9
:103AF00060957095772E232F2E0D321709F474CF11
:103B0000FD01E25CFC4F6F01B12CA12CA91638F528
:103B1000FA01EA0DFB1DE491F0E02F01002E02C036
:103B2000440C551C0A94E2F737FD05C0F60180816C
:103B3000862384298083FF2059F037304CF44601D6
:103B4000F0E88F0E911CF401808187218529808304
:103B5000FFEFAF1ABF0A8FEFC81AD80AD7CF3F5F5F
:103B60004C0F5D1FA058BF4FC8CF3F5F4C0F5D1F6C
:103B7000A058BF4F86CF3F5F4C0F5D1FA058BF4F6F
:103B80004CCF6A0D7B1D232F2E0D321709F42CCF3D
:103B9000FD01E25CFC4F6F01B12CA12CA91688F548
:103BA000FB01EA0DFB1D8490912C002E02C0880CB5
:103BB000991C0A94E2F780949094FA01EA0DFB1D97
:103BC0006490712C002E02C0660C771C0A94E2F7F8
:103BD00037FD05C0F6018081882186298083FF207A
:103BE00049F037303CF4F601E058FF4F80818921DD
:103BF00087298083FFEFAF1ABF0A8FEFC81AD80A50
:103C0000CDCF3F5F4C0F5D1F6C0F7D1FA058BF4F86
:103C1000BCCFC92ED12CFA01E60FF71FA25CBC4F16
:103C200000E810E00C191D09CC19DD09BE01660F72
:103C3000771F41E050E06A010F2C01C0CC0C0A94C0
:103C4000EAF7592F2E2D792ECF93DF93ED01EF96C2
:103C5000EF9622968590A590FF2059F08C9C40010C
:103C6000AC9C500137302CF4E880B094EB20E9286C
:103C7000E99233233AF0EC90A094EA20E828ED9200
:103C80000C94431E11965A9529F72A9551F0572DF9
:103C900033951124E60FF11DA00FB11DC00FD11DEA
:103CA000D9CFDF91CF9111249FCECF92EF92FF9287
:103CB0000F931F93CF93DF93F22E98014115510577
:103CC00061F1FA0104913196E4914E5F5F4FF1107A
:103CD00002C0EE20F9F0A1E0B0E0FE2FF77011F481
:103CE000B0E0A0E0CE2FC695C695C695CA0FDB2FD3
:103CF000D11D0C9FD0010D9FB00D1124F3E0CF1208
:103D000014C0AA0FBB1FFA9EE001FB9ED00D112428
:103D10004C0F5D1FEE2E0E946C1CDF91CF911F9106
:103D20000F91FF90EF90CF9008952115310559F331
:103D3000EA9EE001EB9ED00D11242C0F3D1FE3CF36
:103D400090E00C94BD1B8FB18095807F669B88604E
:103D50001C9B846008955C988EBD00000DB407FE26
:103D6000FDCF5C9A089590E1282F81E061FD84E009
:103D700060FD880F62FD8295687F969FD0011124B7
:103D8000A20FA25CBC4F0C90082A40FF08260C92A0
:103D900008958F929F92AF92BF92CF92DF92EF924F
:103DA000FF920F931F93CF93DF936D3009F45FC0A1
:103DB0006A3009F44CC080910F03811140C0C0905B
:103DC0001A03D0901B03009118031091190385E08A
:103DD000689FE0011124C455DF4F5801F12CE5E044
:103DE000E12CFE1629F0CE010196FE01E490EC01D3
:103DF000912C812CF0E8AF16B10458F4B601680D8F
:103E0000791D6034710528F44E2D4170C5010E9462
:103E1000B31EE6948FEF881A980AE8E08E16910494
:103E200049F7F394FFEFAF1ABF0A86E0F812D7CF35
:103E30000A5F1F4F109319030093180318C0809155
:103E40001803909119038C3791050CF4B8CF109298
:103E500019031092180380911A0390911B0308967E
:103E600090931B0380931A036A3009F0A8CF81E076
:103E700090E0DF91CF911F910F91FF90EF90DF9035
:103E8000CF90BF90AF909F908F90089590911E0318
:103E9000982329F490911F03982381E009F480E08E
:103EA0000895CF93C82F0E94A31E982F9C2381E0D2
:103EB0009C1380E0CF91089580E00C941F1AE8E1F4
:103EC000F1E09191981731F091E0E034F907C9F7EA
:103ED00080E0089581E008954F925F926F927F9203
:103EE0008F929F92AF92BF92CF92DF92EF92FF920A
:103EF000CF93DF9300D000D01F92CDB7DEB74B0138
:103F00005C0129013A0120E030E040E051E4609199
:103F1000AE097091AF098091B0099091B1090E94EA
:103F2000BC310E942D327093B7096093B60920E02E
:103F300030E040E051E46091B2097091B3098091A2
:103F4000B4099091B5090E94BC310E942D32709342
:103F5000B9096093B80920E030E040E051E4C501C0
:103F6000B4010E94BC3120E030E040E850E40E94FF
:103F7000BB3120E030E040E85DE30E94583320E0B0
:103F800030E040E05FE30E94BC310E94343269833C
:103F90007A838B839C8320E030E040E051E4C301CE
:103FA000B2010E94BC3120E030E040E850E40E94C1
:103FB000BB3120E030E040E85DE30E94583320E070
:103FC00030E040E05FE30E94BC310E9434326B017C
:103FD00020E030E040E850E4C301B2010E94BC316F
:103FE00020E030E040E85DE30E9458330E94343224
:103FF0002B0120E030E040E850E4C501B4010E940C
:10400000BC3120E030E040E85DE30E9458330E947C
:1040100034324B01B201C4010E9426190E945F1F75
:10402000811121C081E08D83B201C4010E94261953
:104030000E945F1F811133C081E08D838D810F90BD
:104040000F900F900F900F90DF91CF91FF90EF9016
:10405000DF90CF90BF90AF909F908F907F906F90A8
:104060005F904F900895B20189819A810E9426192C
:104070000E945F1F8823B1F2B601C4010E94261975
:104080000E945F1F882371F2B60189819A810E9484
:1040900026190E945F1F91E098279D83C5CFB2012A
:1040A00089819A810E9426190E945F1F882321F22C
:1040B000B601C4010E9426190E945F1F882309F4DB
:1040C000BBCFB60189819A810E9426190E945F1F89
:1040D000882309F4B1CFB2CF089590E080E008952D
:1040E000FB0101900020E9F73197AF01461B570B08
:1040F0000C94901B8F929F92AF92BF92EF92FF927F
:104100000F931F93CF93DF93CDB7DEB7A1970FB671
:10411000F894DEBF0FBECDBF7C01FA01CB0119A21E
:10412000223008F42AE08E010F5D1F4F822E912C61
:10413000B12CA12CBF01A50194010E948A31F90183
:10414000CA016A300CF5605DD8016E938D01232B96
:10415000242B252B79F790E080E0109721F0BD010A
:10416000C7010E947020A1960FB6F894DEBF0FBE63
:10417000CDBFDF91CF911F910F91FF90EF90BF9036
:10418000AF909F908F900895695CDECF4F925F92C1
:104190006F927F928F929F92AF92BF92CF92DF9257
:1041A000EF92FF920F931F93CF93DF9320913E07DF
:1041B000222309F4B7C0FC0122813381232B09F4A7
:1041C000B1C0EC010E94381983E090E0909319038C
:1041D0008093180383E290E090931B0380931A036B
:1041E00010920F03AA81BB81FD0101900020E9F725
:1041F00031978F010A1B1B0B502E712C612C412C07
:10420000112723E0C22ED12C33E2A32EB12C45146A
:1042100008F078C0F2E0F61508F474C0711019C007
:1042200093E0E92EF12C83E2882E912C40E0B4013A
:10423000C7010E94B31E8FEF881A980AEBE38E160F
:104240009104A1F7FFEFEF1AFF0A8BE7E816F104DC
:1042500051F7E42CF12C97012C5E3F4F802F201753
:1042600031070CF4822F982E8150841550F0EA818A
:10427000FB81E80FF11D90819032B1F7992493945E
:10428000980EE914D8F4EA81FB81EE0DFF1D6081E0
:104290008981882371F08EEC99E00E94C91E82E327
:1042A00090E00E94BD1B0E945C1FEFEFEE1AFE0A19
:1042B000E8CF8EEC99E00E94C91EF7CF7394F3E02B
:1042C0007F1212C06394D0921903C0921803B09267
:1042D0001B03A0921A036F1621F08D819E810E940C
:1042E000BD1B712C492C93CF80911A0390911B0315
:1042F0000896D0921903C092180390931B038093E1
:104300001A03F0CF109219031092180310921B0396
:1043100010921A038981882329F0541003C019824E
:104320001E821D82DF91CF911F910F91FF90EF9020
:10433000DF90CF90BF90AF909F908F907F906F90C5
:104340005F904F9008951F920F920FB60F92112415
:104350008F939F938091E1009091E100937F9093E0
:10436000E10083FF0FC01092E90091E09093EB0011
:104370001092EC0092E39093ED0010923D0398E0D0
:104380009093F00082FF22C093E09093E900909117
:10439000F200992319F09AE39093E80090912E038C
:1043A000992341F090912E03915090932E039111F7
:1043B00001C05D9A90913C03992341F090913C0398
:1043C000915090933C03911101C0289A84FF18C02A
:1043D0008091E2008E7E81608093E2008091E10016
:1043E0008F7E8093E10080912F038E7E8061809389
:1043F0002F039F918F910F900FBE0F901F901895D4
:1044000080FFF7CF8091E2008E7E80618093E20092
:104410008091E1008E7E8093E10080912F038E7E5B
:104420008160E5CF1F920F920FB60F921124CF92A9
:10443000DF92EF92FF920F931F932F933F934F932F
:104440005F936F937F938F939F93AF93BF93EF93FC
:10445000FF93CF93DF93CDB7DEB76C97DEBFCDBFB1
:104460001092E9008091E80083FF25C068E0CE014A
:1044700045960E94831B82EF8093E8008D8987FF19
:1044800039C09091E80090FFFCCF982F907609F00A
:1044900034C19E894F89588D2F89F88C911131C074
:1044A000803861F580912D038093F1001092F10026
:1044B0008EEF8093E8006C960FB6F894DEBF0FBEC7
:1044C000CDBFDF91CF91FF91EF91BF91AF919F91C0
:1044D0008F917F916F915F914F913F912F911F919C
:1044E0000F91FF90EF90DF90CF900F900FBE0F9045
:1044F0001F9018959EEF9093E800C7CF1092F1009F
:10450000D5CF913059F48111D3CF4130510581F687
:1045100080912D038D7F80932D03CACF933049F472
:104520008111C6CF4130510519F680912D0382606B
:10453000F2CF953041F48091E80080FFFCCF2068F5
:104540002093E300B5CF963009F0A9C00B8D1C8DE8
:1045500022E01092E90010922B0310922A03F2122B
:104560002EC010922903109228030E94521B1F8212
:1045700099E09983FA8291E09E8390EA98879AEF76
:10458000998720912A0330912B03275F3F4F3C836B
:104590002B838D831092E90010922B0310922A0333
:1045A000109329030093280349E050E0BE016F5F98
:1045B0007F4F80E00E942C1B0E94521B79CF1093EA
:1045C0002903009328030E94691ADC0112960D91B9
:1045D0001C910115110509F451C1D801ED91FC910F
:1045E0000480F581E02DBE016B5E7F4FC801099507
:1045F000009709F03EC1F80100851185EACFF3E08C
:10460000FF120EC08F89882309F440C0823061F404
:1046100040E867E08DE690E30E948E24811148CF48
:1046200081E28093EB0047CF813029F440E86BE0D2
:1046300081E690E3F1CF833099F70E94691ADC019B
:104640001296ED90FC908E010F5F1F4F6801E114F0
:10465000F10479F0D701ED91FC910680F781E02D0E
:10466000B801C7010995080F111DF701E084F18415
:10467000EECFD8011C92F60101900020E9F73197A6
:10468000BF016C197D0940E0C601C6CF6BE470E341
:10469000FB01449150E080E80E942C1B09CF973029
:1046A00009F4BECF983021F481E08093F10000CF6F
:1046B000993009F0FDCE837009F0B2CFE5EFF1E05B
:1046C00081E031E096E32191222371F08093E900AB
:1046D0003093EB00DF0111972C912093EC00909325
:1046E000ED008F5F873079F78EE78093EA001092B4
:1046F000EA008F8980933D03DBCE8B8D9C8D1092D9
:10470000E90010922B0310922A03909329038093BF
:104710002803898D811192C08E899D89913A49F42F
:10472000813209F07DCF47E050E065E071E080E044
:10473000B3CF913209F074CF833269F48F89988DA9
:10474000B0E0A0E08093010190930201A0930301E7
:10475000B0930401ADCE803269F48091E80082FF0D
:10476000FCCF67E085E091E00E94831B8BEF809394
:10477000E8009ECE823209F09BCE8F8980930C0197
:10478000EEEFFFE7859194918B3F9C4D51F1E0E076
:10479000F8E08091050190910601A0910701B09188
:1047A0000801803B9440A105B105F1F480910C0112
:1047B00080FD1AC0EE3F8AE0F80789F587E797E7A2
:1047C000918380838091600080932C0388E19BE03B
:1047D0000FB6F894A895809360000FBE9093600088
:1047E00067CEEEEFFAE0D5CF80819181873797478A
:1047F00009F05ECEA895809160008861809360008A
:1048000080912C0380936000EE3F2AE0F20789F04C
:104810008091FE0A9091FF0A9183808349CE808126
:1048200091818737980751F29093FF0A8093FE0A8F
:10483000C5CF1092FF0A1092FE0A3ACE0E94691A62
:10484000DC0112960D911C910115110509F4E8CEB9
:10485000D801ED91FC910190F081E02DBE016B5EDD
:104860007F4FC8010995811123CEF801008511857C
:10487000EBCF181619060CF41BCED2CEF1E0FF12C6
:10488000BECE6FE470E304CF0F920FB68F939F9369
:10489000EF93FF93809111038D5F8D3708F08D5753
:1048A00080931103E0E2F3E080818E4F8083918159
:1048B0009F4F918382818F4F828383818F4F838328
:1048C000E2E1F3E080818F5F808381818F4F81837C
:1048D00082818F4F828383818F4F83838FB18F60DB
:1048E00066991C9B88278F3681F480911003981B52
:1048F000963068F0E0E0F8E087E78083818388E124
:1049000080936000F0936000FFCF90931003FF91BD
:10491000EF919F918F910FBE0F901895EF92FF929C
:104920000F931F93CF93DF93F82E192FE62E042FAA
:1049300081E0860F880F0E94FE1A83E00E94FE1A13
:10494000CF2DD12FEC0EFD2EF11CCE15DF05B9F0C9
:1049500007FF13C0FE0184910E94FE1A182F80E009
:104960000E94FE1A812321968111EFCFDF91CF9112
:104970001F910F91FF90EF9008958881EDCF81E016
:10498000F5CF8F929F92AF92BF92DF92EF92FF92FC
:104990000F931F93CF93DF9310924207109241071A
:1049A00088EE93E0A0E0B0E0809343079093440743
:1049B000A0934507B09346078FEF91E0909340078F
:1049C00080933F078FEF9FEF90934C0780934B07A7
:1049D0001092CD091092CC0981E192E09093CB091D
:1049E0008093CA0980E090E0A0E2B3E48093AE092E
:1049F0009093AF09A093B009B093B1091092B20996
:104A00001092B3091092B4091092B5091092BA0924
:104A10001092BB091092BC091092BD091092BE09F8
:104A20001092BF091092C0091092C10981E08093D1
:104A3000C2091092C3091092C9091092AD091092CF
:104A4000AC0988E08093A00984E08093A1091092CA
:104A5000A2091092A3091092A4091092A50910921C
:104A6000A6091092A7091092A8091092A90980938B
:104A7000AA0982E08093AB0910929A0988EE93E02C
:104A800090939F0980939E0910929C0710929D0716
:104A90001092960987E0E9E9F9E0A3E9B7E001900F
:104AA0000D928A95E1F7C3E9D7E009E719E084E1BF
:104AB000E82EF12C90E8D92E812C912C2AEFA22EF1
:104AC00023E4B22E0E948A30B7010E94DE338F5F4A
:104AD000DB868D869E86AF86B88A898B8A8B8C8B87
:104AE0008B8B62960C171D0769F780910F0120E1EF
:104AF000829FC00111249093920780939107809127
:104B00000E0120E1829FC0011124909390078093B1
:104B10008F071092D1091092D00981E192E0909311
:104B2000CF098093CE091092D5091092D4099093A1
:104B3000D3098093D209DF91CF911F910F91FF90FC
:104B4000EF90DF90BF90AF909F908F900895CDB77A
:104B5000DEB76497DEBFCDBF789483E084BD83E089
:104B600085BD81E080936E00E1E8F0E083E0808322
:104B7000E0E881E08083E1E983E08083E0E981E0AF
:104B80008083E1EC87E08083E3EC81E08083E0ECEC
:104B900082E08083E2EC81E08083EAE787E0808343
:104BA0008068808310923D0310922D0310922F0392
:104BB0008091D70081608093D70080EA8093D800ED
:104BC00089B5806189BD89B5826089BD09B400FE5F
:104BD000FDCF81E090E00E94BD1B8091D8008F7CCA
:104BE00080618093D8008091E000807F8093E00016
:104BF0008091E1008E7E8093E1008DE08093E20061
:104C0000559A209A81EC80937C0081EF85B987EEDC
:104C100084B982E38BB982EF8AB9769A6E9880EF75
:104C200081BB10BA80E58CBD81E08DBD85E00E941E
:104C3000A01E5F9A85E00E94A01E5C98ECE5F6E05D
:104C400085918EBD00000DB407FEFDCFE936C1F79A
:104C50005C9A81E88093640081E0809365000E9403
:104C60005C1F80E80E94511F882381F085EA0E9422
:104C7000AB1E2E982F982D988091640080628093AF
:104C8000640081E083BF889513BEFCCF84E00E945E
:104C9000511F8823B9F12D9884E80E94511F882361
:104CA000A1F02D9A88EC0E94A01E2F986FEF82E051
:104CB00090E00E94463184EF91E00E94BD1B2F9A44
:104CC00084E80E94511F8111FBCF84E10E94511F93
:104CD0008823A1F02D9A88EC0E94A01E2E9860E0F7
:104CE00082E090E00E94463184EF91E00E94BD1B7B
:104CF0002E9A84E10E94511F8111FBCF88EC0E9403
:104D0000A01EC4CF2D9A82E090E00E943E318823FD
:104D100009F473C03E9A3F9A81E090E00E943E31D0
:104D2000182F147081FF0EC011112E98B1EF8B2E29
:104D300099249A9480E40E94511F882309F460C04A
:104D40002E9A2F9A82E30E94A01E0E94A31E811118
:104D5000F9CF80E180930001809164008E7F809381
:104D6000640080917A00806480937A0080917A0058
:104D700086FDFCCF00917800109179000E94541CB0
:104D8000AB01BC01C801B0E0A0E0DC019927882795
:104D90008C019D01040F151F261F371FC901B80183
:104DA00020916400216020936400611571058105E4
:104DB000910511F00E9435312FB7F89480912003AE
:104DC00090912103A0912203B09123032FBF8093E0
:104DD000240390932503A0932603B0932703809187
:104DE0001603882309F4B0C01092160380E090E007
:104DF000892BA9F30E940000F2CF3E983F988CCFF8
:104E0000112331F004E08016910411F42E9A2F98AA
:104E100081E00E941F1A282D2770A22EA401F3E022
:104E200055954795FA95E1F79A013695322F222745
:104E300037952795225C3C4F70E060E04E3F8FEF46
:104E4000580761F190E080E0DB01A455BA4F790189
:104E5000E0E8EE0EF11CFD01E80FF91FE491F0E02F
:104E60003F010A2C02C0660C771C0A94E2F74F3F00
:104E7000540739F06901C80ED91EF601B488B62866
:104E8000B48AAA2039F06701C80ED91EF601048938
:104E90000729048B019688359105E9F64F5F5F4F2E
:104EA00020583F4F685A7F4F603B710539F60E948A
:104EB0005C1F8FE00E94A01EFFEF8F1A9F0A09E17E
:104EC0008016910409F036CF112311F02F9A2D98F6
:104ED00080E991E00E94BD1B2D9A81E090E00E9444
:104EE0003E3180FF2FCF8AE090E00E943E319FEF5D
:104EF000980F9E3F08F026CF22E330E0309319034D
:104F00002093180328E330E030931B0320931A0307
:104F10000AE010E01A830983682F8AEC99E00E9466
:104F2000C91E09811A810F5F1F4F1A830983C801A7
:104F30000E943E310031110579F70E945C1F88EE16
:104F400093E00E94BD1BFECE909120038091170339
:104F5000192F181B812F20910001121748F48F5F21
:104F6000821708F043CF81E083BF889513BE3ECF00
:104F700021E02093160390931703ECE1F3E0808186
:104F800091810196808391838FB7F894409120039B
:104F90005091210360912203709123038FBF809170
:104FA0002403142F181B2FB7F8948091200390919D
:104FB0002103A0912203B09123032FBF80932403E8
:104FC00090932503A0932603B093270380911F039A
:104FD00080931E030E94A31E80931F0380913E07AF
:104FE000811132C480919C0781112EC41092BA099C
:104FF0001092BB091092BC091092BD091092BE0913
:105000001092BF091092C0091092C10980E20E945B
:10501000511F882309F4BBC06091C20970E07195EB
:1050200061957109072E000C880B990B0E9465325F
:105030006093BA097093BB098093BC099093BD0932
:1050400031E03093C30987E89FE29093C6098093CB
:10505000C50987E09FE29093C8098093C70980E85B
:105060000E94511F882309F4B3C06091C20970E007
:10507000719561957109072E000C880B990B0E94A0
:1050800065326093BE097093BF098093C009909305
:10509000C10983E08093C30983E89DE29093C60928
:1050A0008093C50983E09DE29093C8098093C70966
:1050B0008090AE099090AF09A090B009B090B1096E
:1050C00020E030E0A901C501B4010E94283287FF29
:1050D00099C01092AE091092AF091092B0091092C7
:1050E000B1098090B2099090B309A090B409B09032
:1050F000B50920E030E040E85FEBC501B4010E9453
:10510000283281119DC080E090E0A0E8BFEB809341
:10511000B2099093B309A093B409B093B5098091F3
:10512000C309882309F4AAC08091C309833009F018
:10513000D9C02091BE093091BF094091C00950915A
:10514000C1096091B2097091B3098091B40990913D
:10515000B5090E94BC316B017C012091BA093091E4
:10516000BB094091BC095091BD096091AE09709195
:10517000AF098091B0099091B1090E94BC31A7019B
:1051800096010E946C1F882309F4A4C0ABC080E480
:105190000E94511F882309F462CF6091C20970E018
:1051A00090E080E00E9463326093BA097093BB097B
:1051B0008093BC099093BD0982E08093C30985E880
:1051C0009EE29093C6098093C50985E09EE243CF95
:1051D00080E10E94511F882309F46ACF6091C209BF
:1051E00070E090E080E00E9463326093BE097093AB
:1051F000BF098093C0099093C1091092C30981E847
:105200009CE24CCF60918F077091900760517109BB
:1052100090E080E00E9463326B017C01AC019B0155
:10522000C501B4010E94533318160CF05ACFC09236
:10523000AE09D092AF09E092B009F092B10951CF16
:1052400060919107709192076051710990E080E040
:105250000E9463326B017C01AC019B01C501B4016A
:105260000E94533318160CF05ACFC092B209D09254
:10527000B309E092B409F092B50951CF2091BE096B
:105280003091BF094091C0095091C1096091B209A4
:105290007091B3098091B4099091B5090E94BC3115
:1052A0006B017C012091BA093091BB094091BC0986
:1052B0005091BD096091AE097091AF098091B0091C
:1052C0009091B1090E94BC31A70196010E946C1F08
:1052D00081112ACF1092BA091092BB091092BC0911
:1052E0001092BD0980919C07882309F46BC08091BE
:1052F0009D07823018F082E080939D070091970906
:1053000009830023C1F080E10E94461F882339F001
:1053100080919D07823018F48F5F80939D0780E80D
:105320000E94461F882339F080919D07882319F039
:10533000815080939D0788E00E94461F882309F4CE
:1053400070C080919D07811190C280913E0791E0CD
:10535000892780933E079093940788EE93E090937B
:1053600099078093980789E192E09093960780933C
:1053700095070981011124C020919809A2E12A9F73
:10538000C00111248D56984F9A838983DC01519670
:105390006C9170E090E080E00E9465329B01AC016E
:1053A000E981FA8165857685878590890E94BB3180
:1053B000A981BA811D966D937D938D939C9350978F
:1053C0001092970988E00E94461F882351F121E03E
:1053D0004EE552E065E083E00E94C71821E04AE70D
:1053E00052E065E08BE00E94C71821E047E852E0F8
:1053F00069E087E00E94C71821E04EEA52E06DE0C4
:105400008DE00E94C71829EC46EC52E061E083E091
:105410000E94C71829EC46EC52E061E084E00E944B
:10542000C7181093D60920E030E040E85DE36091B2
:10543000B2097091B3098091B4099091B5090E94A5
:1054400058330E942D326B0120E030E040E85DE3EC
:105450006091AE097091AF098091B0099091B10946
:105460000E9458330E942D32CB01B6010E942619AA
:10547000859709F06EC02091BE093091BF09409117
:10548000C0095091C1096091BA097091BB0980911E
:10549000BC099091BD090E94BC3120E030E040E899
:1054A0005FE30E94533387FD54C080911C039091A9
:1054B0001D036EE170E00E94CA33892B09F049C0D8
:1054C00000919C070983011144C00E94E63029E045
:1054D00030E040E050E00E945831DC01CB01019601
:1054E000A11DB11D80939B07883099F586EA0E9423
:1054F000AB1E15E01D8311E009810127098387EAAE
:10550000011101C086EA0E94AB1E80E991E00E9471
:10551000BD1B0D8101500D830111EECF86EA0E9463
:10552000AB1E0E94E6302AE130E040E050E00E94ED
:10553000583160939A0781E080939C078093970984
:105540000E948A306AE170E00E94DE338F5F8093B0
:1055500098098091AE099091AF09A091B009B091DE
:10556000B10989839A83AB83BC834090B209509080
:10557000B3096090B4097090B50920E030E040E8CC
:105580005DE3C301B2010E9458336B017C0160915D
:10559000AB0970E090E080E00E9465329B01AC01B5
:1055A000C701B6010E94BB3120E030E040E05FE37C
:1055B0000E94BC316B017C0100910E010987202FF4
:1055C00030E03E872D878091A009B901681B7109E1
:1055D000072E000C880B990B0E9465324B015C0171
:1055E00020E030E040E85DE369817A818B819C8135
:1055F0000E9458336D837E838F8398876091AA09B8
:1056000070E090E080E00E9465329B01AC016D810A
:105610007E818F8198850E94BB3120E030E040E0A0
:105620005FE30E94BC31A50194010E94BF329B013F
:10563000AC0160E070E0CB010E94A0326093A2094F
:105640007093A3098093A4099093A50960910F0119
:105650008091A109681B770B072E000C880B990B12
:105660000E9465329B01AC01C701B6010E94BF32A6
:105670009B01AC0160E070E0CB010E94A03260931E
:10568000A6097093A7098093A8099093A90900918E
:105690000D010D83009399098091D6098093C40967
:1056A0008090BA099090BB09A090BC09B090BD0948
:1056B000C090BE09D090BF09E090C009F090C10928
:1056C0001091C309113009F41EC108F403C112304E
:1056D00009F42BC1133009F440C180911C0390914F
:1056E0001D036FE070E00E94CA33892BE9F420E0CB
:1056F00030E0A901C501B4010E942832811109C01E
:1057000020E030E0A901C701B6010E9428328823B9
:1057100029F08091C9098F5F8093C9098091C909D7
:10572000843010F01092C909A501940169817A8131
:105730008B819C810E94BC314B015C01A7019601C9
:10574000C301B2010E94BC316B017C01A301920133
:10575000C501B4010E946C1F811108C08092AE097E
:105760009092AF09A092B009B092B1096091AE09D0
:105770007091AF098091B0099091B109A70196018C
:105780000E946C1F811108C0C092B209D092B30967
:10579000E092B409F092B50920919C072223A9F068
:1057A000E091980912E1E19FF0011124ED56F84FC4
:1057B00083858150813308F4E2C0838780913E075E
:1057C000811103C081E08093970990E0EEE3F3E05C
:1057D00091119FEF8FEF91939193919391938150BA
:1057E000D0F710921B0310921A0310921903109213
:1057F00018032111E3C21091A0090091A109809022
:10580000A2099090A309A090A409B090A509409086
:10581000A6095090A7096090A8097090A9092D8148
:105820008FE595E1233009F4B6C008F0AAC087E9F6
:1058300099E1213009F4AFC087EC96E1223009F4F8
:10584000AAC090E080E0A7C01092BA091092BB09EC
:105850001092BC091092BD091092BE091092BF09A6
:105860001092C0091092C1093DCD8130A1F49091F0
:105870003E07982790933E078093940788EE93E025
:1058800090939907809398078DE292E09093960702
:105890008093950795CD823009F092CD80913E0797
:1058A00091E0892780933E079093940728EE33E098
:1058B000309399072093980725E432E030939607B8
:1058C0002093950781117CCD10929C0780E88093EE
:1058D0009E0776CD20E030E0A901C701B6010E9405
:1058E00028328111FACE83E09DE29093C80980931B
:1058F000C70981E89CE29093C6098093C50982E0BC
:105900008093C909EACE20E030E0A901C501B401C5
:105910000E9428328111E1CE87E09FE29093C8096E
:105920008093C70987E89FE2E6CF20E030E0A90135
:10593000C501B4010E9428328111CFCE85E09EE2DC
:105940009093C8098093C70985E89EE29093C609A1
:105950008093C5091093C909C0CE20E030E0A901A9
:10596000C701B6010E9428328111B7CE83E09DE2C3
:105970009093C8098093C70983E89DE2BCCF80E378
:105980001CCF3D818FE195E1383C29F08FED94E10A
:10599000393C09F056CF9093AD098093AC09C3010F
:1059A000B2010E94343269830F5F462F400F4D834E
:1059B000C501B4010E943432F62E1F5F160F098113
:1059C000202E312C3985309F900111243A83298370
:1059D0003D81231608F08CC08F2D90E09C8B8B8B23
:1059E000C101032C000CAA0BBB0B8F87988BA98BD2
:1059F000BA8B9B89911708F06FC0E091AC09F091C8
:105A0000AD09C980DA80AB89BC89CA0EDB1EEC0DFA
:105A1000FD1DE491CE2ED12C6F85788989899A89D4
:105A20000E946532A30192010E94BB3120E030E068
:105A300040E851E40E9458330E942D3269877A87EA
:105A40008B879C87EB89FC89BF01FF0F880B990B23
:105A50000E946532A50194010E94BB3120E030E034
:105A600040E851E40E9458330E942D32CB01EFEF01
:105A7000FAE10491E0E0FBE1E49041E05BE1C11474
:105A8000D104D9F021E030E04E2D477011F430E020
:105A900020E04E2D469546954695240F311D029FD8
:105AA000B001039F700D11246C9DA0016D9D500DE0
:105AB0007C9D500D11244F5F544E62E0C62E30E0A5
:105AC00020E069857A850E946C1C2B893C892F5FB8
:105AD0003F4F3C8B2B8B8DCF89819A81AD85BE85C5
