:020000040000FA
:100000000C942A200C9452200C9452200C945220D0
:100010000C9452200C9452200C9452200C94522098
:100020000C9452200C9452200C94FE270C946D28B2
:100030000C9452200C9452200C9452200C94522078
:100040000C9452200C9452200C9452200C94522068
:100050000C9452200C9452200C9452200C949F2A01
:100060000C9452200C9452200C9452200C94522048
:100070000C9452200C9452200C9452200C94522038
:100080000C9452200C9452200C9452200C94522028
:100090000C9452200C9452200C9452200C94522018
:1000A0000C9452200C9452200C945220000000001A
:1000B000003E5B4F5B3E3E6B4F6B3E1C3E7C3E1CEE
:1000C000183C7E3C181C577D571C1C5E7F5E1C0034
:1000D000183C1800FFE7C3E7FF0018241800FFE7EB
:1000E000DBE7FF30483A060E2629792926407F05AE
:1000F0000507407F05253F5A3CE73C5A7F3E1C1CC4
:1001000008081C1C3E7F14227F22145F5F005F5F83
:1001100006097F017F006689956A6060606060946F
:10012000A2FFA29408047E040810207E2010080874
:100130002A1C08081C2A08081E101010100C1E0C7F
:100140001E0C30383E3830060E3E0E060000000011
:100150000000005F00000007000700147F147F14F8
:10016000242A7F2A1223130864623649562050003D
:1001700008070300001C2241000041221C002A1C29
:100180007F1C2A08083E0808008070300008080814
:100190000808000060600020100804023E51494534
:1001A0003E00427F400072494949462141494D3352
:1001B0001814127F1027454545393C4A49493141B9
:1001C000211109073649494936464949291E000087
:1001D00014000000403400000008142241141414DC
:1001E0001414004122140802015909063E415D59C8
:1001F0004E7C1211127C7F494949363E41414122D1
:100200007F4141413E7F494949417F090909013EFA
:10021000414151737F0808087F00417F4100204021
:10022000413F017F081422417F404040407F021C33
:10023000027F7F0408107F3E4141413E7F0909094A
:10024000063E4151215E7F09192946264949493216
:1002500003017F01033F4040403F1F2040201F3FDC
:100260004038403F63140814630304780403615961
:10027000494D43007F4141410204081020004141A3
:10028000417F04020102044040404040000307084F
:100290000020545478407F2844443838444444284B
:1002A000384444287F385454541800087E090218F2
:1002B000A4A49C787F0804047800447D400020407A
:1002C000403D007F1028440000417F40007C0478BE
:1002D00004787C080404783844444438FC18242406
:1002E0001818242418FC7C08040408485454542486
:1002F00004043F44243C4040207C1C2040201C3C03
:100300004030403C44281028444C9090907C4464F9
:10031000544C44000836410000007700000041368C
:10032000080002010204023C2623263C1EA1A16112
:10033000123A4040207A3854545559215555794144
:100340002154547841215554784020545579400C1B
:100350001E527212395555555939545454593955FC
:100360005454580000457C410002457D420001453F
:100370007C40F0292429F0F0282528F07C545545AC
:10038000002054547C547C0A097F4932494949323F
:100390003248484832324A4848303A4141217A3A54
:1003A00042402078009DA0A07D39444444393D401E
:1003B00040403D3C24FF2424487E4943662B2FFCCB
:1003C0002F2BFF0929F620C0887E09032054547979
:1003D000410000447D413048484A32384040227A4A
:1003E000007A0A0A727D0D19317D2629292F2826C7
:1003F0002929292630484D402038080808080808CF
:100400000808382F10C8ACBA2F102834FA00007B27
:10041000000008142A142222142A1408950022002D
:1004200095AA005500AAAA55AA55AA000000FF00E7
:10043000101010FF00141414FF001010FF00FF1024
:1004400010F010F0141414FC001414F700FF000056
:10045000FF00FF1414F404FC141417101F10101FD5
:10046000101F1414141F00101010F0000000001FC3
:10047000101010101F10101010F010000000FF10CE
:100480001010101010101010FF10000000FF1400CA
:1004900000FF00FF00001F10170000FC04F41414FC
:1004A0001710171414F404F40000FF00F7141414C8
:1004B00014141414F700F7141414171410101F1048
:1004C0001F141414F4141010F010F000001F101F6B
:1004D0000000001F14000000FC140000F010F010D9
:1004E00010FF10FF141414FF141010101F00000050
:1004F00000F010FFFFFFFFFFF0F0F0F0F0FFFFFF54
:100500000000000000FFFF0F0F0F0F0F38444438AA
:10051000447C2A2A3E147E02020606027E027E02E5
:1005200063554941633844443C04407E201E200604
:10053000027E020299A5E7A5991C2A492A1C4C7241
:1005400001724C304A4D4D303048784830BC625AC8
:10055000463D3E494949007E0101017E2A2A2A2A58
:100560002A44445F444440514A444040444A514034
:100570000000FF0103E080FF000008086B6B0836F5
:1005800012362436060F090F060000181800000066
:100590001010003040FF0101001F01011E00191D55
:1005A0001712003C3C3C3C0000000000F0F89C8E20
:1005B0008783878E9CF8F00000FEFF03030303038C
:1005C000070EFCF80000FEFF0303030303070EFC05
:1005D000F80000FFFF00000000000000FFFF000027
:1005E000FEFF8383838383C7EE7C380000F8FC0E14
:1005F00007030303070EFCF800003F7FE0C0808084
:10060000C0E07F3FFFFF01010101010101FFFF0089
:1006100000FFFF0C0C0C0C1C3E77E3C100007FFFB9
:10062000C0C0C0C0C0E0703F1F00001F3F70E0C0EE
:10063000C0C0E0703F1F00007FFFC1C1C1C1C1E366
:10064000773E1C00001F3F70E0C0C0C0E0703F1F3D
:10065000000000000001FFFF01000000D5F08D1434
:10066000A1C881CFD9F1AF20001010000000C088D0
:10067000D44A8A8A4AD408C0000000000000180D3D
:10068000434A0B0B4A430D18000000000000801085
:10069000A894141494A81080000000000000011B0E
:1006A0001714071754470309000000000000C09802
:1006B000AC36B6B636AC18C0000000000000180D0D
:1006C000434A0B0B4A430D18000000000000801045
:1006D000A894141494A810800000000000000903DE
:1006E0004744070714171B010000000000F0F8FC46
:1006F000FEFFFFFFFFFEFCF8F000000000183D7F4A
:10070000FFFFFFFFFFFF7F3D1800000000E0F0F853
:10071000FCFEFEFEFEFCF8F0E000000000011F7F82
:100720007F7F7FFFFFFFFF1F1900000000F0F8FC34
:10073000FEFFFFFFFFFEFCF8F000000000183D7F09
:10074000FFFFFFFFFFFF7F3D1800000000E0F0F813
:10075000FCFEFEFEFEF8F8F0E000000000191FFFAE
:10076000FFFFFF7F7F7F7F1F010000101000000050
:10077000C0983C7E5E5E7E3C98C000000000000099
:10078000180C414A0A0A4A410C18000000000000F7
:10079000803078FCBCBCFC78308000000000000099
:1007A00001391204141464620D09000000000000F5
:1007B000C0983C7E5E5E7E3C98C000000000000059
:1007C000180C414A0A0A4A410C18000000000000B7
:1007D000803078FCBCBCFC78308000000000000059
:1007E000090962641414041239010000000000C0F9
:1007F000F8FCFEFFFFFFFFFEFEFE0E000000000003
:100800000101F9FFFFFFFFF301000000000000C03D
:10081000F8FCFEFFFFFFFEFCFCFE260000000000CF
:100820000161FBFFFFFFFFFF73310000000000C00C
:10083000F8FCFEFFFFFFFFFEFCFC2C0000000000A8
:100840000101FBFFFFFFFFF301000000000000C0FB
:10085000F8FCFEFFFFFFFEFCFCFC6C00000000004B
:1008600001FBFFFFFFFFFFFF7331000000101000CE
:1008700000000018DCDE96EAEA94E40400000000C0
:100880000000000000405959410100000000000034
:1008900000000018DCDE16D6D428C80400000000D2
:1008A000000000006049030B5B53210000000000C2
:1008B00000000018DCDE96D6EA88E8080000000098
:1008C00000000000004059594101000000000000F4
:1008D00000000018DCDE16D6D428C808000000008E
:1008E0000000000058590B034B432100000000009A
:1008F000000EFEFEFEFFFFFFFFFEFCF8C000000042
:1009000000000001F3FFFFFFFFF9010100000000FC
:100910000026FEFCFCFEFFFFFFFEFCF8C00000000E
:1009200000003173FFFFFFFFFFFB610100000000CB
:10093000002CFCFCFEFFFFFFFFFEFCF8C0000000E7
:1009400000000001F3FFFFFFFFFB010100000000BA
:10095000006CFCFCFCFEFFFFFFFEFCF8C00000008A
:1009600000003173FFFFFFFFFFFFFB0100000010DD
:100970001000000004E494EAEA96DEDC18000000AF
:100980000000000000000141595940000000000033
:100990000000000004C828D4D616DEDC18000000D1
:1009A000000000000021535B0B03496000000000C1
:1009B0000000000008E888EAD696DEDC1800000097
:1009C00000000000000001415959400000000000F3
:1009D0000000000008C828D4D616DEDC180000008D
:1009E000000000000021434B030B59580000000099
:1009F000001010FFFFFFFFFFFFFFFFFFFFFFFFFFE4
:100A0000FFFFFFFFFFFFFFFFFFFFFFFFFFFFFFFFF6
:100A1000FFFFFF00000000000000000000000000D9
:100A200000000000000000000000000000000000C6
:100A30000000000000223333333333333333333396
:100A4000333333000062737373737373737373732D
:100A50007373737373737373737373737373737366
:100A60007373733333333333333333333333333396
:100A70003333333333333333333333333333333346
:100A8000332200333333333333333333333333337A
:100A900033220000002233333333333333333333E1
:100AA00033220000002637373737373737373737A5
:100AB0003726008F8F8F8741273787C1E0E0F0F01E
:100AC000F9F8F8030381B87CFEFCFDFBF7F7E7CFEC
:100AD000BFBF3FF8F9FBF3F7E7EDC99B133333676B
:100AE0004FCF8F1F1F1F0F0F8FCFE3E1F0FE7C381A
:100AF0008001210000000000000000000000000054
:100B0000000000000000000000000000C0F0F8FC41
:100B1000FCFEFE00000000000000000000000000DD
:100B2000000000FEFEFCFCF8F0C000000000000029
:100B300000000000C0F0F8FCFCFEFEFEFEFCFCF82D
:100B4000F0C000FFFFFFFFFFFFFFFFFFFFFFFFFF02
:100B5000FFFFFF0000000000000000000000000098
:100B6000000000000000000000000000008870206D
:100B700020368C0000000000000000000000000093
:100B80000000008C1220207088000000000000008F
:100B9000000000C1F0781CCE6F5F0B0B0B0B0B0B32
:100BA0008B0B13FFE3001F60800000000F0E000F8F
:100BB000030000130B0B0B0B0B0B13130B0B0B0B8B
:100BC0000B0B1300000000000000000000000000FC
:100BD000000000131B1B1B1B1B1B1B1B5766DE1C73
:100BE00078F0C00000000000000000000080E01F5E
:100BF00000E3FFFFFFFFFFFFFFFFFFC78FFFC7E31C
:100C00003F9FFFFFFFE7C7FFE7F1FFFFFFFFFFFF8A
:100C1000FFFFFF00000000000000000000000000D7
:100C2000000000000000000000000000070E003C73
:100C30000E000000000000000000000000000000A6
:100C400000000000000E1C000E0F0000000000005D
:100C500000000000000000787000781C0000000018
:100C60000000000000000000000000000000000084
:100C70000000000000000000000000000000000074
:100C8000000000000000071E001C1E000000000005
:100C90000000000000181418000000000000000010
:100CA0000000000000000000000000060000112805
:100CB0001000000000000000000080C0E0E0F0F044
:100CC000F8F8F8000080B87CFEFCFDFFF7F7E7CFEE
:100CD000BFBF3FF8F8F9F1F0E1E1C1810101010185
:100CE0000101001F1F1F0F0F8FCFE3E1F0FE7C38C3
:100CF00080000000C0F0F8FCFDFFFFFFFFFFFFFFDA
:100D0000FFFFFFFFFFFFFFFFFFFFFFFFFFFFFFFFF3
:100D1000FFFFFFFFFFFFFFFFFFFFFFFEFEFCFCF8F2
:100D2000F0C000FFFFFFFFFFFFFFFFFFFFFFFFFF20
:100D3000FFFFFFFFFFFFFFFFFFFFFFFFFFFFFFFFC3
:100D4000FFFFFFFFFFFFFFFFFFFFFFFFFFFFFFFFB3
:100D5000FFFFFF00000000000000000000010E0483
:100D600004050F000000000000000000000000006B
:100D70000000000F0504040E010000000000000048
:100D80000000000000000000000000000000000063
:100D9000000000FF8F003CC20100000000000000C6
:100DA000000000FFC1001F61800000000000000083
:100DB00000000008F80C6E6C0C8C8E838E8C6C6EB0
:100DC0000C78880B16605FFF80E4E4E4E4E4FFDF66
:100DD0006077080000000000000000000003C23C33
:100DE0000087FF0000000000000000000080E01FFE
:100DF00000C3FF2018040200010080201804020034
:100E0000010080200804060001008020080406007C
:100E10000100800000000000000000000000000051
:100E20004000000000000000000000000000000082
:100E300000000000000000000000000000000004AE
:100E400000000000000000000000000000000000A2
:100E50000000000000000000000000000010000082
:100E60000000000000000000000000000000020080
:100E7000000000000000800000000004006000008E
:100E80000000000000000000000000000000000062
:100E900000000000000018000000C000000000007A
:100EA0000000000000000002000000000000000040
:100EB000000000000F1F3F3FFEFCF9FFF7F7F7E7C8
:100EC000CFCF8F000000000000080C0C0804383958
:100ED0003747E78F8F8F87C12777F7F1F070787CDE
:100EE0003F3F0043030301010000090D090000001A
:100EF000000000C060A01070B8087CBCFE0E0202AA
:100F0000020202FF7FFB007FFB007FFBFF0000006F
:100F100000000002020202020202020202020202B7
:100F200002020200000000000000000000000000BB
:100F3000000000020202020206FA0404181810104F
:100F40002020C0000000000000FF000000000000A2
:100F50000000FF1E1E1E1E1E1E1E1E1E1E1E1E1E0C
:100F60001EFE002F2F1FDFDF1F2F2F2F2F1FDFDF72
:100F70001F2F2F3E3E3E3E3E3E3E3E3E3E3E3E3ECE
:100F80003E7E002F2F3F7F7F3F2F2F2F27373709A0
:100F9000040000FF87003CC22100000000000000A8
:100FA000000000030F1E306142ECCCC2C99090904B
:100FB00090C8CC0000000000000101010101010106
:100FC000010101CCC8909090C8C89090C8C8D0903A
:100FD00090C8CC00001C78001C0E00000063C27C8E
:100FE0000087FFC4D890909090DBC6C4E442633081
:100FF0001E1F03001C1C3232321C1C000000381C57
:10100000C0E000001E1C00381C0000181824242416
:101010001818000018182424241818000000381C80
:10102000C0E000000E3C00383C00000C3C36363678
:101030003C0C0000000078F8F8F0F8F8F8F8F8E850
:101040000000000000000B2B2B0B0B010B2B2B0BBC
:1010500000000000FEFEFEFCFEFEFEFEFEFEF8FEB0
:10106000FEFEFE000B6B634B0B010B0B0B0B030B1C
:101070000B0B0BFEFEFEFEFCFEFEFEFEFEFEF8FE71
:10108000FEFE000B0B0B030B0B030B0B0B0B636B2D
:101090004B0B0000B6BEFEFEFEFEFEFEFEFEFEFE9A
:1010A000FCFEFE001BDBDB1BDBDB1BC3DB1BDBDB1C
:1010B0001BDBDBFEFEFEFEFEFEFEFEFEFEFEFEFE79
:1010C000FEFEFE0FCFCF0FCFCF0FCFCF0FCFCF0171
:1010D000CFCF0FFEFEFEFEFEFEFEFEFEFEFEFCFE7F
:1010E000BEB600CFCF0FCFCF0FCFC10FCFCF0FCF17
:1010F000CF0F00FF77BB0177BB01F7FBFFE1C0C15A
:1011000041C0C03F7F7B7C6F0F6F636D0D6D616D64
:101110000C6D61C040C0C0C040C0C0C040C0C0C0B5
:1011200040C0C06D0C6D616D0C6D616D0C6D616DBD
:101130000C6D61C040C0C0C060FFC08000000000F6
:101140000000FF7F1C7F637F1C7F637F1F7E6478AE
:1011500010603F00FE1E1E1E1E1E1E1E1E1E1E1E98
:101160001E1E1E000004191317273F3F3F1FDFDF1D
:101170001F3F3F00FE1E1E1E1E1E1E1E1E1E1E1E8A
:101180001E1E1E2F2F3F7F7F3F2F2F2F2F3F7F7F32
:101190003F2F2F0000C030E8F0F4F4F4F4F8FEFE26
:1011A000F8F4F40038C33CFFFFFFFF01FDFFFFFF31
:1011B000FFEF3FFCFCF9FAFBF9FDFDFCFDF9FBFB41
:1011C000F9FDFC1F1F1F1F1F1F1F1F1F1F1F1F1F9A
:1011D0001F1F1FFCFCF8FAFAF8FCFCFCFCF0E8D03E
:1011E0000000001EEEFEFEFEFEFC030F1FFFFF7C54
:1011F000C31800070707131307071307070713137D
:1012000007071300000000000000000000000000BD
:101210000000001105050511110505110505051151
:1012200011050500000000000000000000000000A3
:1012300000000005310505053131050531050505BD
:101240003131050000000000000000000000000037
:101250000000003105050531310505310505053171
:101260003105050000000000000000000000000043
:1012700000000000EEDBDD1DDBEE000000000000E2
:10128000000000007F7F7F1D7F7F000000000000C6
:10129000000000000000000000000000EE1BD7D797
:1012A000DBEE000000000000000000003F777F1F21
:1012B0007F3F00003CFEFEFEFEFEFEFEFEC23CE660
:1012C000DAE63C0000000000000000000000000022
:1012D0000000003CE6DEE63CC6EEEEFEEEFEEEFE74
:1012E000EE2C0000000000000000000000000000E4
:1012F0000000000000B6B6B400FC2424FC2424FC4A
:10130000002EAE00606D616163636363636363635A
:1013100063686BAA0222FA00FCFC00FCFC00F8F2F5
:101320000202AA6B00087302737302737102717375
:1013300000086BEA6A00FC6C6CFC6C6CFC00FCFE48
:10134000FE00006A6863636363636363636360638F
:101350006F600000000000000000000000000000BE
:101360000000000000C010F8F0F4F400FCFEFEFEE7
:10137000FEFE1E0000000000000000000000000053
:101380000000001EEEFEFEFEFEFC001434F0E8D06D
:101390000000000038C73CFFFFFFFF00FFFFFFFF1A
:1013A000FFFF000038C73CFFFFFFFF00FFFFFFFF0C
:1013B000FFFF00000041C0F1A101F9E80171310116
:1013C00001010000000C0B0D0D0E617F0201030FE7
:1013D0000E000000FFFFFFFFFFFF000000FFFF7C8B
:1013E000C3180000FFFFFFFFFFFF000000FFFF7CAE
:1013F000C318006062020200000060606202020026
:1014000000006020220202000000202022020200D0
:101410000000202000020202002020200002020220
:1014200000202020000202020020202000020202F0
:1014300000202000000006062620200000000606EE
:1014400026202000000006062620200000000606B8
:101450002620202000060606002020200006060682
:1014600000202020000202020020202000020202B0
:1014700000202000FCFEFEA8FEFC00000000000092
:10148000000000007FDBEBE9DB7F000000000000D4
:10149000000000000000000000000000FCEEFEF86C
:1014A000FEFC0000000000000000000077D8EBEB1D
:1014B000DB770000000000000000000000000000DA
:1014C000000000003CFEFEFAFEFAFEFAFAC23CE61C
:1014D000DAE63C0000000000000000000000000010
:1014E0000000003CE6DEE63CC6FEFEFEFEFEFEFE22
:1014F000EE2C00FFFFFF070707070787878787870F
:10150000878787FFFFFF000000007F000000F008D2
:1015100008C84807878787878787870787878787D8
:101520008787874849494941494949484949494183
:101530004949490F8F8F8F8F8F8F8F0F0FCFEF0FED
:10154000FFFFFF48C808E8F000FCFEFF00FFFF00B7
:10155000FFFFFF0F07C313FFFFFFFF00FEFEFEFEAE
:10156000FEFE000018C33CFFFFFFFF00FFFFFFFF70
:10157000FFFF0000FEFEFEFEFEFE000307FFFF135E
:10158000C3071F00FFFFFFFFFFFF000000FFFF3C3E
:10159000C318000018C73CFFFFFFFF800F1F1F1F6D
:1015A0001F1E1E002046C48FB7372F2F2F3F7F7F6F
:1015B0003F2F2F3E3E3E3E3E3E3E3E3E3E3E3E3E68
:1015C0003E3E3E2F2F3F7F7F3F2F2F2F2F3F7F7F8E
:1015D0003F2F2F1E1E1F1F1F1F0F0080C0FFFF3C2D
:1015E000C318006F6F1F5F5F1F6F6F6F1F9F8BCCE4
:1015F0004360000F8FFFFF7F9FCF9FC3EFCF1FFF81
:10160000FF8F8F48484B4B42474B4B4B4B47424316
:101610004B4848078787F7FF3F9FE3F3871FFFF794
:10162000878787D8D8D8DBC3C4DBDBDBDBC4C3C385
:10163000D8D8D80787F7FF1FDFE7C39FDF9F3FFF9B
:10164000F78787C8C8C9CFC6C5CFCFCFCFC5C6C754
:10165000C9C8C8078787F7FF3F87F7E18F3FFFF7C4
:10166000878787484848494744494F4F494447413D
:10167000484848003E70707070FE00000000000096
:10168000000000003F6E6E6E6E3F00000000000024
:10169000000000000000000000000000FE707070FC
:1016A000700E000000000000000000007F6E6E6EF3
:1016B0006E1100007C7E427C7E7E42407C7E7E42BB
:1016C0004242000000000000000000000000000096
:1016D00000000000C2C2C2FEFEFCC0C2FEFEFCC290
:1016E000FE3C0000000000000000000000000000C0
:1016F000000000FFFFFF00000000FF000000F700F7
:1017000000FF00FFFFFF000000007F000000F70067
:1017100000FF000000E0E0E000F8F8F800FEFEFE48
:10172000FE000000007F3F3F003F07070007010168
:101730007F000000FF00EFEF00FEFEFE00FFFF0055
:10174000FFFFFF00FF00EFEF00FFFFFF00FFFF00C4
:10175000FFFFFF0018C37CFFFFFFFF00FEFEFEFE41
:10176000FEFE000018C37CFFFFFFFF00FFFFFFFF2E
:10177000FFFF0000FEFEFEFEFEFE00FFFFFFFF3C3F
:10178000C3180000FFFFFFFFFFFF00FFFFFFFF3C4C
:10179000C318000020C2C49B97173F3F3F1FDFDFE5
:1017A0001F3F3F0020C6C48F97172F2F2F1FDFDF4B
:1017B0001F2F2F2F2F3F7F7F3F2F2F2F2F3F7F7FD9
:1017C0003F2F2F2F2F3F7F7F3F2F2F2F2F3F7F7FA9
:1017D0003F2F2F2F2F3F7F7F3F2F2F2F37B78BC4C8
:1017E0004220002F2F1F5F5F1F2F2F2F1F9F8BCD9A
:1017F00042200000FF000FCF60DEEEEEEC4F1F79BD
:101800007FFFFF00FF00E0E30CFBFFFF72F8FD1F0E
:10181000FFFFFF00FF000FCF609EDEDE989FFF708E
:101820007FFFFF00FF00E0E304FBFBFB1BFBFC1C56
:10183000FEFEFF00FF001FDF20DEFEFEDC1FBFF804
:10184000FFFFFF00FF00E0E304FBF7F737F2F81CAF
:10185000FEFFFF00FF000FCF209EDEDE989F3F308F
:10186000FFFFFF00FF00E0E704F9FFFF39F9FD0C7F
:10187000FEFFFF00EC76767676FC000000000000AC
:10188000000000007D0E0E0E0E7F00000000000024
:10189000000000000000000000000000FC7E7E7ED2
:1018A0007E88000000000000000000007F0E0E0E89
:1018B0000E710000000000000000000000000000A9
:1018C000000000007C7E427E7E7E42027E7E7E4262
:1018D0004242000000000000000000000000000084
:1018E00000000000C2C2C23E3E3E02C23E3E3EC2B8
:1018F0003E3C00FFFFFF00000000FF0080C0DFD083
:10190000D8DB1AFFFFFFE0E0E8ECECEDEDEDEDEDEC
:10191000EDEDECFEFEFEC6FEFEFE3EFEFEFEC6FE4B
:10192000FEFE3EEDEDEDEDEDEDEDECEDEDEDEDED75
:10193000EDEDECFBFBF9F7CFC1BF7FFF01FFFF012E
:10194000FFFFFFEDEDEDEDEDEDEDEDEDECEBEFE09F
:10195000FFFFFF0119C37DFFFFFFFF01FFFFFFFF37
:10196000FFFF010018C37CFFFFFFFF007F1F1F1F49
:101970001F7F0000FFFFFFFFFFFF00FFFFFFFF7C57
:10198000C31800007F1F1F1F1F7F00FFFFFFFF3CCA
:10199000C318000020C2C49B97173F3F3F1FDFDFE3
:1019A0001F3F3F000004191317273F3F3F1FDFDF92
:1019B0001F3F3F2F0F07C7D7D9D9D9D9D9D9D7C7F3
:1019C000070F2F37000036363636363024262026CD
:1019D0000000372F2F3F7F7F3F2F2F2F37B78FC428
:1019E0004620002F2F3F7F7F3F2F2F2F2737330990
:1019F000040000DADADADA42A2D2D2D2D2A242C2A9
:101A0000DADA1AEDEDEFFFFCF9F3F9C3EFF3F8FFC3
:101A1000EFEDECDADADADAC26292D2D29262C2C2C4
:101A2000DADA1AEFEFEFEFFFFCF387CFE3F8FFEF1F
:101A3000EFEFECDADADADA42A2D2D2D2D2A242C2A2
:101A4000DADA1AFFFFFFFFF8F3E7C3FBF3FBFCFF53
:101A5000FFFFFCDADADADAC22292D2D29222C2C2D2
:101A6000DADA1AEDEDEDEFFFF8E1CF87F1FCFFEFE9
:101A7000EDEDEC003E70707070FE00FEF8F000F8C6
:101A8000F0F0F000376E6E6E6E3F00274F4F4F4EF6
:101A90004D4D4DF0F0F0F0F0F0F8FE00FE7070707B
:101AA000700E004D4D4D4B0F4F4F2F003F6E6E6E21
:101AB0006E1100007C7E427C7E7E42407C7E7E42B7
:101AC00042420000FE0100FEFF1FEFFFFFFFFF1379
:101AD000010100004242427E7E7C40427E7E7C428A
:101AE0007E7C0000030303FFFFFFFFFF1FFFF600E4
:101AF00003F60000FE02FAFA1ADADADADADAC2DA01
:101B0000DADA1A00FF00FFFF00FFFFFF01FDFD1DF5
:101B1000FDFDFCDEDEDEC6DEDEDEDEDEDE1EFE0E11
:101B200006FE00EDEDED3D0D05017F000000F70024
:101B300000FF0000FE06AEAEAEAEAEAEAEAEAEAED6
:101B400006FE00007F43637B637B637B637B637B79
:101B5000437F0000FCFEFEFEFEEE1E1E1E1E1E1E2D
:101B60001E1E1E00FFFFFFFFFFFF000000FEFD1313
:101B7000C30F0F1E1E1E1E1E1E1E1E1EEEFEFEFE8E
:101B8000FEFC000F07C313FFFFFFFF00FFFFFFFF77
:101B9000FFFF0000000000000000001B03071717F4
:101BA00007031B0000000000000000000000000010
:101BB0000000001B0305151505031B3F3F1FDFDF5A
:101BC0001F3F3F00000000000000000F0705151533
:101BD00005070F2F2F3F7F7F3F2F0F4F673F7F7FDF
:101BE0003F2F2F2F2F7F7F3E41676D2E3F3F7F7FFF
:101BF0003F2F2FFFFF7F383C4CECEFECF820CF005D
:101C000000FF00FFFFFF1F3D38337F3F1B0CE30049
:101C100000FF00FFFF7F70F89898DFD89060CF003A
:101C200000FF00FFFEFE0C1C19197B1B090CE300D2
:101C300000FF00FFFFFFF8FC1C4CEFECD860CF006A
:101C400000FF00FFFFFE1C38323777371B04E3002C
:101C500000FF00FFFFFF30389898DFD89020DF00AA
:101C600000FF00FFFFFE1C1D1919FB1B1904E300F8
:101C700000FF0000ECF6F6F6F6FC0000E4F6F6F6DF
:101C8000F6B6B6007C0E0E0E0E7F00007F3F0F00F2
:101C90003F0F0FB6B6B6B6F6E0F6F6E40076767607
:101CA0007688000F0F0F0F0F0F0F3F7F000E0E0EE5
:101CB0000E7100006F80006FFFF8FFFFFFFFFFC095
:101CC000808000007C7F427E7F7F43037F7F7F4355
:101CD000434300008080C8EFEFEFEFFFF8FF7F0085
:101CE000807F00004242427E7E7E02427E7E7E42B5
:101CF0007E7C0000FF00FFFF00FEFEFE80BF9F987D
:101D000087878700FFC0DFDFC0DBDBD8D8D8D8C02B
:101D1000D8D8D80787878090A080FF000000F70000
:101D200000FF00C8C8C8C8C0C8C8C8C9CEC8CFC08E
:101D3000C0FF0000FEFEFEFCFEFEFEFEFEFEF8FE04
:101D4000FEFE00000F6F674F0F010F0F0F0F676F41
:101D50004F0F0000FFFFFFFFFFFF000000FFFF3CF1
:101D6000C33800004F9F9F9F9F9F9E9E9E9F9F9E58
:101D70009F9E9E0018C37DFFFFFFFF01FFFFFFFF37
:101D8000FFFF019E9E9E9E9E9E9E9E9E9E9F9F9F4B
:101D90009F8F400000808080800000000080808055
:101DA0008000003F3F1F5F5F1F3F3F3F3F1F5F5F60
:101DB0001F3F3F3F9F070303030303030303030383
:101DC000079F3F133CC0000000000000000000001F
:101DD000C03C132F8F0707E701F10101F101E7076D
:101DE000078F2F372C40010D013D01013D010D01F1
:101DF000402C3707070E34340E070707070E34341C
:101E00000E070703070E34340E070303070E34349E
:101E10000E070381830F0A0A0F838181830F0A0A49
:101E20000F838181830F0A0A0F838181830F0A0A3E
:101E30000F8381C0C1830D0D83C1C0C0C1830D0D4F
:101E400083C1C0C0C383070783C3C0C0C383070760
:101E500083C3C08383071A1A0783838383071A1AED
:101E60000783838383071A1A0783838383071A1AD6
:101E7000078383F0F8FC1E1F0707070707070707FC
:101E8000071F00FFFFFF000000000001000000002E
:101E900000000007070707070707070707070707E7
:101EA000070F00000000000000000000000000001C
:101EB000000000070707070707070707070F3EFC93
:101EC000F8F0000000000000000200000000007FA9
:101ED0007F7F000000E010080C028202020E0C1846
:101EE000F0E000000000010200007F7F000C020112
:101EF000000000EA1310F3EEDB787BF87B600F78CC
:101F00007B787BBA1010F7E7FF00037E7F03F3FBBB
:101F10001B1B58B83B38033E3B383BB8BBB883BEAD
:101F2000BBB83BDBDBDBC3DBDBDB18D9D9D9C1DDDD
:101F3000D9D918383938390E2138B93839D8EFF0AD
:101F40001110D5783F3FEFF7077D7E0100EFE7F7EF
:101F500030307500FFFFFFFFFFFF000000FFBFF004
:101F6000C7E0F0000F3F3F3F3F3F3E3E3E3F3F3F19
:101F70003F3F3FF0E0C3D0BFFFFFFF00FFFFFFFF89
:101F8000FFFF001F1F1F1F1F1F1F1F1E1F1F1F1FC1
:101F90001F0F000000000000000000000000000013
:101FA0000000009E9E9E9E9E9E9E9E9E9E9E9E9E2B
:101FB0009E9E9E1807020300434043404340030295
:101FC00003041B00E0FCFFFFFFFFFFFFFFFFFFFF1D
:101FD000FCE000180502233031303130313031322D
:101FE0002304190000263737373737373737373765
:101FF000372600810007000E008700810007000ED1
:10200000008700810007000E008700810007000E96
:1020100000870007003C0038000F0007003C003834
:10202000000F000E001C0038000E000E001C0038CF
:10203000000E0018007000E000780018007000E04A
:1020400000780018007000E000780018007000E0D0
:102050000078006000C3008300E0006000C30083DC
:1020600000E0006000C3008300E0006000C3008364
:1020700000E000FFFFFF0000000000000000000083
:10208000000000FFFFFF0000000000000000000053
:1020900000000000E0F018ACE626E6C6A6E4E81072
:1020A000E00000000000010604686808080406015A
:1020B000000000000000000000000000000000FF21
:1020C000FFFF000000000000000000000000007F93
:1020D000FF7F000000E010A8EC22E242A2EE6C18A4
:1020E000F1E00000000101030D080968690D02011B
:1020F000010100EA1010FFFFFF00017F7F00FFFFDA
:10210000007F00EA1010F7F7F7007F7F0010F7F765
:10211000007F00FFFFFFFFFF03F3F3F30303C3C3DD
:102120000303FFFFBFBFBFBF80BFBFBF8080BFBF74
:102130008080FF00FF00F7F700FFFF0100F7F7F7CF
:102140001010D500FF00F7F71000FFFF00F7F7F7BA
:102150001010D5000000000000000000000000800A
:10216000C1E67C000000000000000000000000014B
:10217000E7F4783C7808040201013E3C08080402B8
:1021800001013E000000000000000000000000000F
:10219000000000007E42427272F2F2F2F2F27252DB
:1021A000427E0000FF03FBFAFAFAEAEAFAFAFAFBC7
:1021B00003FF8000FE0202F2D2D2F2F2D2D2F27219
:1021C00002FE0000FF1BFBFBFAFABBBBFAFAFBFBAB
:1021D0001BFF0000DE8202F2B2B2D2D2B2B2F2F241
:1021E00082DE0000FF1DFBFBF9F8BBBBF8F9FBFB2F
:1021F0001DFF00070E1C1C1C0E0707070E1C1C1CD5
:102200000E070707070E34340E070707070E34348E
:102210000E070786860C0C0C06868686860C0C0C30
:102220000686868183070A0A0783818183070A0A53
:10223000078381C1C38C0C0C82C1C1C1C38C0C0C3F
:1022400082C1C1C1C1830D0D83C1C1C1C1830D0D47
:1022500083C1C1838E0C0C0C0E8383838E0C0C0CFB
:102260000E83838383070A0A0783838383070A0A0B
:10227000078383FFFFFF0000000000000000100044
:102280000000001F1F3FFEFCFC1C1C1C1C1C1C1C17
:102290001CFC000000000000000000000000000026
:1022A0000000001C1C1C1C1C1C1C1C1C1C1C1C1CC2
:1022B0001CFC00000000000000004000000000FFC7
:1022C000FFFF003C3C3C3C3C3C3C3C3C3C3C3E0F2F
:1022D00007070000E0F0380C060202820204083012
:1022E000E0000000010101020C007F7F00000201FC
:1022F000010000EA0808EFEFFF00807EFEC0CFDF9C
:10230000D8D81AEA08880FFF1B9C1C9D1C8C709C57
:102310001C9C1CDADADAC2DADADA189A9A9A82FAA9
:102320009A9A189F1C9C00FC1C9C1C9F1F9F03FFDB
:102330001F9F1C1AD8D8D7DFC0BEFE8000F7E7FF6A
:102340001818D79C1C9C1CF0049C1D9C1C9BF79F80
:102350001898D5FCE6C180000000000000000000D5
:1023600000000078F4E70100000000000000000019
:10237000000000000000000000000000000000005D
:10238000000000402020204080804020303020404D
:1023900080804000FF00FBFBFBFBEAEAFBFBFBFB52
:1023A00001FF0000030A0B0B0303030303030B0BE2
:1023B0000A030000FF00EEEEEEEEEAEAEEEEEEEECD
:1023C00000FF0000030A0A0A0202020202020A0ACD
:1023D0000A03000707070707070357000307070754
:1023E00007070700BFF3BFBFBFB2BFBEB2BFBFBFCB
:1023F000F3BF00B8B9B8C13E99D89FC2E5D811FE65
:10240000B9B839DFDFDFC7D6C5CF0FCFCFC5C6DF3D
:10241000DFDFD8B8B9B881FE398FE1F68538E1BE83
:10242000B9B8397F7F7F477744490F4F4944477F89
:102430007F7F78B8B9B8E13EC9E4C3BEC9B821FE10
:10244000B9B8395B5B5B43524D4B0B4B4B4D425B19
:102450005B5B58F8F9F881FE198CF3E18F78C1FEC7
:10246000F9F8795B5B5B43534C490B4B494C435B3D
:102470005B5B58000000000000000000000000004E
:1024800000000000000000000000000000000070DC
:10249000787C000000000000000000000000000048
:1024A000000000FCF8F00000000000000000000048
:1024B000000000000000000000000000000000001C
:1024C00000000000000000000000000000A800085C
:1024D00000080000000000000000000000000000F4
:1024E000000000080008000800080008002800009C
:1024F00000000000FE02FAFA1ADAD8DADADAC2DAF2
:10250000DADA1800FF00EFEF007F7F4101FDFDFDEB
:102510001D1D1C18DADADAC2DADADAD8DA1AFAFAAF
:1025200002FE001C1F1CFCFCFC00407F7F00EFEF44
:1025300000FE00F0F8FC9E1F07071F07031F871F00
:10254000071F00FFFFFF22000000071E00071338CF
:102550001000001F071F071F07031F071F03071F88
:10256000071F000000000C00060000000000C00073
:102570000000000F07070F070F070F07870F070F50
:10258000070F00000000060506000000010087009C
:102590000000000FE7CF0387CF070F03070F3FFCB3
:1025A000F8F00000010100031128100000000A7F6C
:1025B0007F7F00007A7A7AFADADADADADADA9A7A85
:1025C0007A7A0000FBDDDCDDDDDDDDDDDDDDDDDC9F
:1025D000DCF90000FC00ECECEC00DCDC9898DCDCC6
:1025E00000FC00001B1A1A02020202020202021A76
:1025F0001A1B0000FF0017C720DFFFFBF8DF1737AB
:10260000D090D700FF00F0F304FBF71712F8F5F7AE
:102610001111D500FF0017C7209FDFD19097B73762
:10262000D090D5007F00F0F704797F0F09F9F4F41A
:10263000363677007F0037C720FFEFE94837B7F716
:10264000B0B075007F00F0F3047B773737F2F9F50F
:10265000333175007F001FCF209FDFD1909F3F3F18
:102660005050DD007F00F0F30C797B0B09F9FDFC85
:1026700012115D00000000000000000000000003D7
:102680000F0F00000000000000000000000000002C
:102690000000000707030000000000000000000029
:1026A000000000000000000000000000000000002A
:1026B000000000000000000000000000001E1010DC
:1026C00010101000000000000000000000000000DA
:1026D0000000003030307F414141414141414141A2
:1026E000417F00000000000000000000000000002A
:1026F000000000007F00F7F700FFFF01003F3F3FB1
:102700003838B8007F405F5F585B1B5B5B5B435BA7
:102710005B5B1BF878787F7F7F0001FFFF00FFFF86
:10272000007F001B5B5B5B435B5B5B1B5B585F5F1E
:10273000407F00FFFFFF1400000000180070000041
:102740000000007F7F7F12000000000010000000EA
:1027500002000000000000000000C0E0F0E0D8BC73
:10276000BCFAF2000000C09CFEFFFEFDFBF3F1F39B
:10277000E7FFFFFE3C3C9880C0F0E0C00000000096
:10278000000000CFCFC7E7E071F9F8FC7E3E0CC037
:10279000000000000000008000000800000084FF2E
:1027A000FFFF000000000001000300000000237F85
:1027B0007F7F00007A7ABADADADADADADADADABAE3
:1027C0007A7A0000FBDCDDDDDDDDDDDDDDDDDDDD9C
:1027D000DCF900007A7A1ADAFAFAFAFAFAFADA1A6C
:1027E0007A7A0000FBDFDFDCDFDFDFDFDFDFDCDC6E
:1027F000DFFB00DADADAC25AA2D2D0D2D2A242DAAF
:10280000DADA1A9F1F9F03FC1B93FBC3279318FF61
:102810001F9F1CDADADAC2DA2292D0D29222C2DA0E
:10282000DADA1A9D1D9D01FF1CF187CF219807FD63
:102830001D9D1CFEFEFEC64EA6F6F0F6F6A646FE52
:10284000FEFE3EBD3DBD07F837A747F937B904FF87
:102850003DBD3CFBFAFBC2CB22B3F0F3B223C2FB7B
:10286000FAFB3A9D1D9D01FF18A14F8FF19C03FDBE
:102870001D9D1C01FCFFFEFFFEFF02FD03011089F0
:10288000C8C9C800FF7F7F7F7F7F00FF0000007FF7
:102890007F7F1FC8C808880808C8C8C8C808880833
:1028A00008C8C89F9F9E9F9C9E9F9F9F9F9E9F9C86
:1028B0009E9F9F00000080C030F8F8FC3C3C1C1834
:1028C00090E00000003FC307E6141818181812E142
:1028D000001F00C8C8C88808F0000006FEFEFEFE03
:1028E000FEFC003FFF7F7F00FF0000007F7F7F7FB7
:1028F0007FFF000000000000000000008080C0C0DA
:10290000C0C0C0000000000000F8FEFFFF3F070746
:10291000030303C0C0C0C0C08081010101000000EA
:102920000000000303030F0F1FFFFFFEF80000006D
:10293000000000FFFFFF1C000080000000100000EE
:102940000000007F7F7F6B00000300030000000099
:10295000000000000000031F1F3E3F3B78FBF3F721
:10296000FFFFFF0000000000000000003EA0A3A346
:10297000A3BBBBDFC7C7E3E1F01818383C1E1F0339
:10298000000000A7A7A7A1A1A03800000000000038
:10299000000000000038003000000000800034FF1C
:1029A000FFFF000000003028300000000000247FFE
:1029B0007F7F00F989898989898989F9F9F9F9F984
:1029C000F9F9F9FF8F3FFFC33BFBFBFBFB3B03CF59
:1029D0003F8FFF01DDFFFFFFFFFFFFFFFFFFFFFF57
:1029E000FFDD0100636F6F6F6F6F6F6F6F6F6F6FE2
:1029F0006F6300EA905077174FE8EBEFDF60C7177F
:102A0000007F00BA1313F7F7F81217777B04F3F07F
:102A1000007F00BA90D037B79790D3DF9F20C717B9
:102A200000FF00BB1212F4F4F9191BFBF904F3F0D8
:102A300000FF00AE9090F7B717C8E9EFDF20C71787
:102A400000FF00AE3136F4F8F63737777F04F7F041
:102A5000007F00EE70703737B7B0F1FFBF20C73787
:102A6000007F00AB3132F4F5F9090B7B7904F3F008
:102A7000007F0001FFFFFFFFFFFF00FF000001FFDD
:102A8000FFFF0000FFFFFFFFFFFF00FF000000FF50
:102A9000FFFF000000C0E0F0F8FC7C7C4C8C0810CC
:102AA000E0C00000001F60437F82828282827F43F9
:102AB000601F0000FEFEFE060606068606E606FE0F
:102AC00006020000FF1F1F04040606060607041F77
:102AD00010E00000FFFFFF00FF000000FFFFFFFF0E
:102AE000FFFF0000FFFFFF00FF000000FFFFFFFFF0
:102AF000FFFF000000000000003F7FFFFFF8E0E064
:102B0000C0C0C00000000000000000000101070775
:102B1000070707C0C0C0E0E0F8FFFF7F3F000000EC
:102B20000000000303030303010101000000000093
:102B3000000000FFFFFF5000000060000C0A0C00C6
:102B40000000000F1F7F7E7C7C1C1E1C1F1C1E1C97
:102B50001E1C0000000002000018000C00000040D5
:102B60000000001C1C1E1C1F1C1E1C1C1C1C1E1CF0
:102B70001C7C000020D020000080000018003000E5
:102B80000000001C1C1C1E1C1C1C1C1E1C1E1C1CD3
:102B90001EFC0000003000E000040E04000000FFF6
:102BA000FFFF003C3E3C3C3C3C3E3C3F3C3C3E0F3F
:102BB000070700070100FC040404FCFC040404FCF7
:102BC00000F1070000007F6060607F7F60606F71D0
:102BD000007F000000008070880C0C0C1CA8708026
:102BE00000000000000F197F6F5D595959090C0151
:102BF000010000EF010111100100010000001010A0
:102C0000000000000000101000000303000010107E
:102C1000000000BF03031B1C030083C00000181C3E
:102C2000000000000000181C000003030000181C36
:102C300000000000000000F3FFFFFFFFFFFFFF00A8
:102C4000000000000000009FFFFFFFFFFF1F870044
:102C500000000000000000FFFFFFFFFFFFFFFF007C
:102C600000000000000000FFFFFFFFFFFFFFFF006C
:102C700000000000FFFEFEFFFFFFF1EFFDC9C9C825
:102C8000C8C80800FF0F0F0F0F0F0F0F0F0F0F0F08
:102C90000FFF08C8C908880808C8C8C8C808880835
:102CA00008C9C80F0F0E0D0C0E0F0F0F0F0E0D0CD5
:102CB0000E0F0F08E8EE000010101010101010009A
:102CC000EEE80800FFFF00001313131313131300A3
:102CD000FFFF0018D8D8D8DBD8D8C4E0FEFEFEFE2F
:102CE000FEFF0018FF1F1F1F1F1F1F1F1F1F1F1F7B
:102CF0001FFF0084F4F4F4F4F4F4F4F4F4F4F4F4C2
:102D0000F4F4F4007800000000000000000000006F
:102D1000000000F4F4F4F4F4F4F4F4F4F4F4F4F44F
:102D2000F4F4F47901010101010101010101010142
:102D3000010101FCFCFCFCFCFCFCFCFCFCFCFCFCC4
:102D4000FCFCFC0101010101010101010101010182
:102D5000010179FCFCFCFCFCFCFCFCFCFCFCFCFC2C
:102D6000FCFCFC000000000000000000000000006F
:102D7000000000F4F4F4F4F4F4F4F4F4F4F4F4F4EF
:102D8000F4F48400000000000000000000000000D7
:102D900000F8000084F4F4F4F4F4F4F4F4F4F4F43B
:102DA000F4F48400000000000000000000000000B7
:102DB00000F80000E67F81818181818181818181AC
:102DC0007FFE00004F784747474747474046464702
:102DD000707F0000C0F038FC6CF67676F66CFC383C
:102DE000F0C00000030F1C3B3E6F6A6A6F3E3B1C45
:102DF0000F0300EF0101F1080D0C0D0C0C0C08F095
:102E0000000000000000030E0C0C0C0C0C0C020166
:102E1000000000EF0303436013001300101060C0B4
:102E20000000000000000718101010101010180704
:102E300000000000000000E3FFFFFFFFFFFFFF00B6
:102E400000000000000000FFFFFFFFFFFFFF870002
:102E500000000000000000A1F1FFFFFFFFEF850070
:102E600000000000000000EFFFFFFFFFFFFF8F00EA
:102E700000000000F8F1C1B1F9F9F9F9F9F9F9F92F
:102E8000F9F90000FFFFFFFFFFFFFFFFFFFFFBF768
:102E9000F7E300F9F9F9F98989898989898989F933
:102EA000F9F9F9FFFFFFFFFFFFFFFFFBFDFBFDFB54
:102EB000FDFBFF00FFFF00001111111111111100A6
:102EC000FFFF0000FFFF0000131313131313130081
:102ED000FFFF0000FBFBFBFBFBFBFBFBFBFBFBFB30
:102EE000FBFC0000FFFFFF9F9F9F9F989898F8F8BA
:102EF000F8FF0000FD0101010101010101010101D3
:102F0000010101003E2626262626262626262626DE
:102F1000262626FD01010101010101010101010136
:102F20000101012E262626262626262626262626A8
:102F30002626260101010101010101010101010112
:102F40000101FD22222222222222222222222222C8
:102F500022222B01010101010101010101010101F5
:102F60000101016262626262626262626262626264
:102F70006262620303030303030303030303030304
:102F800003FF002222222222222222222222222285
:102F9000223A0000030303030303030303030303B1
:102FA00003FF000022222222222222222222222287
:102FB000223A000000100808108000000000000005
:102FC0000000000000000000000000000000000001
:102FD00000000000FFFFFFFFFFFFFFFFFFFFFFFFFD
:102FE000FFFF0000FFFFFFAFFFAFFFA9F9A9F9F94D
:102FF000F9FF00000101010101E3FFFFFF010101F1
:10300000010100000000000000FFFFFF9F00000022
:10301000000000C08080008080C0C0C0C08040C070
:10302000C0C0C00303030303030303030300000042
:10303000030303F0F0F0F0F0F0F0F0F0F0F0E0E077
:10304000C0C0101F1F07071F1F1F1F1F1F1F1F1F8D
:1030500007071BF0F0F0F0F0F0F0F0F0F0F0E0E037
:10306000E0E0F00F070707070F0F0F0F0F0F0F0F0D
:103070000F0F0F0101F9F9F939393939393939396E
:103080003939390000A8F8AF000000FC808080804A
:103090008080FC3939393939393939393939F9F9CF
:1030A000F9F9F9FC808080808080FC00FC00FFFF43
:1030B000FF8F8FF9F9F9F9F919191919191919194E
:1030C0001919198F8F8F8F8F000000FC80808080EE
:1030D0008080FC1B1B1B1B1B1B1B1B1B1B1B1B1B95
:1030E0001B1B1BFC808080808080FCFC808080809B
:1030F0008080FC00031B1B1B1B1B1B1B1B1BFBFBE8
:10310000FBFB0300000080808080FC00FC00FFFFD0
:10311000FFFF003939393939393939393939F9F94C
:10312000F9F901FC808080808080FC00FC00FFFFBA
:10313000FFFF000101F9F98989898989898989F95C
:10314000F9F9010000FFFF8F8F8F8F8B8D8B8DFB27
:10315000FDFB0000F9797979F9F9F9F9F9F9F9F94B
:10316000F9FD0000FDFEFE8F8F8F8F898989F9F9A7
:10317000F9FF000303DBEBDBEBDBEBFBFBFBFBFB18
:10318000FBFBFB0000F8F8FFF8F8F8F8F8F8F8F89F
:10319000FFFFFFFBFBFBFB9B9B9B9B9B9B9B9BFB73
:1031A000FBFB03FFFFFFFF9F9F9F9F98989898F856
:1031B000F8F80000FFFFFFFFFFFFFF9F9F9F9F9F0B
:1031C0009FFF0000FFFFFFFFFFFFFFFFFFFFFFFF6D
:1031D000FFFF0000FFFFFFFFFFFFFFFFFFFFFF8F6D
:1031E0008FFF0000FFFFFFFFFFFFFFFFFFFFFFFF5D
:1031F000FFFF00000101010101FFFFFFCF010101FD
:10320000010100000000000000FFFFFFFF000000C0
:10321000000000C0C0C0C0C0C0C1C1C1C1C0C0C0EA
:10322000C0C0C00303030303030303030303030337
:10323000030303F0F0F0F0F0F0F0F0F0F0F0F0F055
:10324000F0F0F01F1F1F1F1F1F1F1F1F1F1F1F1F1B
:103250001F1F1FF0E0F0E0C0E0E0F0F0F0F0F0E061
:10326000E0E0F01F070107071F071F1F1F1F1F07B1
:103270001F1F1F0000FFFFFF000000FF80808080F5
:103280008080FF00007F7F676C4C4C4C4C4C4C4C5A
:103290004C4C4CFF808080808080FF00FF00FFF856
:1032A000F8F8F84D4D4D4D4D4D4D4D4C4D4C434F57
:1032B0007F7F7FFFFAFDFAFD000000FF80808080A5
:1032C0008080FF7F797979616C4C4C4D4D4D4D4D2F
:1032D0004D4D4DFF808080808080FFFF808080800A
:1032E0008080FF5C5C5C5C5C5C5C5C5C5C5C5C5C33
:1032F0005C5C5C00000080808080FF00FF00FFFFBE
:10330000FFFF00001CDCDCDCDCDCDCDCDFDCC3C75A
:10331000FFFF00FF808080808080FF00FF00FF9F14
:103320009F9F00CCCCCCCCCCCCCCCCCCCDCCC7C70C
:10333000FFFF000000FFFFFFFFFFFFFFFFFFFFFF9A
:10334000FFFF0000007F7F7F7F7F7F797979797928
:1033500079790000FF8F8F8FFFAFFFA8F8A8F8A83A
:10336000F8FF0000FFF1F1F1F1F1F1F1FFF1F1F1FE
:10337000F1FF000001EFDFEFD9E9D9E9F9F9F9F937
:10338000FFFFFF000078787F7F7F7F7F7F7F7F7FD9
:103390007F7F7FFFFFFFFFFFFFFFFFFFFFFFFFFFBD
:1033A000FFFF00FFFFFFFFFFFFFFFFF8F8F8F8F84F
:1033B000F8F80000FFFFFFFFFFFFFFF8F8F8F8F84C
:1033C000F8FF0000FF9F9F9E9D9EFDFEFDFEFFFFFC
:1033D000FFFF00FFFFFFFF8F8F8F8F8F8F8F8FFF7C
:1033E000FFFFFF7E7D7E7D7E7D7E7F7F7F7F7F7F77
:1033F0007F7F7F000000000000FFEFC78700000014
:1034000000000000000000000083EFFFFF0000004C
:10341000000000C0C0C0C0C0C0C1C1C1C1C0808068
:1034200080C0C00301010303030303030303030379
:103430000303030F130F0F0F13130F0F130F0F0FB0
:1034400013130F0000000018181A020218181800B1
:10345000000000BABAB8BA9ABABABABAA2BABA38B6
:10346000BABABAFAFAFAFAFAFAF8FAFAFAFAFAFA7E
:10347000FAFAE20511110505051105051111C5D569
:10348000D500000000000000000000000000F7FF71
:10349000FF00000000757545313105053105050552
:1034A0003131050000FFFFF70000000000000000C0
:1034B0000000000000010101000000000000000009
:1034C00000000000000000000000000000000000FC
:1034D00000000000000000000000000000000000EC
:1034E00000000000000000000000000000000000DC
:1034F000000000FFDFFFFBFFFFFF7FFFFFF7FFFF85
:10350000F7FFFFFFDEFFFFBFFFFBFFFFFFFBBFF784
:10351000FFDFFFFFFFFFFFFFFFFFFFFFFFFFFFFFDB
:10352000FFFFFFFFFFFFFFFFFFFFFFFFFFFFFFFFAB
:10353000FFFFFFFFFFFFFFFFFFFFFFFFFFFFFFFF9B
:10354000FFFFFFFFFFFFFFFFFFFFFFFFFFFFFFFF8B
:10355000FFFFFFFFFFFFFFFFFFFFFFFFFFFFFFFF7B
:10356000FFFFFFFFFFFFFFFFFFFFFFFFFFFFFFFF6B
:10357000FFFFFFFFFFFFFFFFFFFFFFFFFFFFFFFF5B
:10358000FFFFFFFFFFFFFFFFFFFFFFFFFFFFFFFF4B
:10359000FFFFFFFFFFFFFFFFFFFFFFFFFFFFFFFF3B
:1035A000FFFFFFFFFFFFFFFFFFFFFFFFFFFFFFFF2B
:1035B000FFFFFFFFFFFFFFFFFFFFFFFFFFFFFFFF1B
:1035C000FFFFFFFFFFFFFFFFFFFFFFFFFFFFFFFF0B
:1035D000FFFFFFFFFFFFFFFFFFFFFFFFFFFFFFFFFB
:1035E000FFFFFFFFFFFFFFFFFFFFFFFFFFFFFFFFEB
:1035F000FFFFFF080B0002020200000904000001A7
:103600000202000005240010010524010101042428
:103610000206052406000107058103100040090485
:103620000100020A00000007050202400000070531
:1036300083024000000403090412010002EF0201AA
:103640004041233680000101020301417264756923
:103650006E6F204C4C430041726475626F790010AC
:1036600010FF00FFF807FC03FE03FE03FE03FE034A
:10367000FE03FE03FE03FE03FE03FE03FE03FE0342
:10368000FEFF00FFFF00FF00FF00FF00FF00FF0044
:10369000FF00FF00FF00FF00FF00FF00FF00FF0032
:1036A000FF03FE03FE03FE03FE03FE03FE03FE0311
:1036B000FE03FE03FE03FE03FE03FE07FCFFF8FF0E
:1036C0000000FF00FF00FF00FF00FF00FF00FF0001
:1036D000FF00FF00FF00FF00FF00FF00FFFFFFFFF4
:1036E00000FF00FFFF00FF00FF00FF00FF00FF00E2
:1036F000FF00FF00FF00FF00FF00FF00FF00FF00D2
:10370000FFFF00FF1FE03FC07FC07FC07FC07FC0C2
:103710007FC07FC07FC07FC07FC07FC07FC07FC0B1
:103720007F00FF00FF00FF00FF00FF00FF00FF0021
:10373000FF00FF00FF00FF00FF00FF00FFFFFFFF93
:1037400000C07FC07FC07FC07FC07FC07FC07FC000
:103750007FC07FC07FC07FC07FC07FE03FFF1FFF73
:103760000000FF00FF00FF00FF00FF00FF00FF0060
:10377000FF00FF00FF00FF00FF00FF00FF00FF0051
:10378000FFC07FC07FC07FC07FC07FC07FC07FC0C1
:103790007FC07FC07FC07FC07FC07FC07FC07FC031
:1037A0007F03FE03FE03FE03FE03FE03FE03FE0390
:1037B000FE03FE03FE03FE03FE03FE03FE03FE0301
:1037C000FE00FF00FF00FF00FF00FF00FF00FF0002
:1037D000FF00FF00FF00FF00FF00FF00FF00FF00F1
:1037E000FF010001000100050101000100010001CD
:1037F0000005015801580105010100010001000107
:1038000000010001000501010001000100010005A7
:1038100001050105010501050105015801580105D2
:10382000010501050105010501050105010501016C
:10383000000100010001000501010001000100017B
:1038400000010058015801010001000100010001C0
:10385000001500150005010100010001000100052F
:10386000010100010001000100F6005801580101AA
:103870000001000100010001001500150005010113
:10388000000100010001000501010001000100012B
:1038900000F60058015801580158015801580158C4
:1038A0000158015801050101000100010001000556
:1038B000014000410042004300F600400041004248
:1038C00000430058015801580158015801050101F1
:1038D00000010001000100F60015001500150001AF
:1038E00000F6001000100010001000100010001072
:1038F0000010001000F6000100010001000100F6B8
:10390000000100010001000100F60010001000108D
:1039100000100010001000100010001000F6000150
:1039200000010001000100F600010001000100019A
:1039300000F6001000100010001000100010001021
:103940000010001000F6000100010001000100F667
:10395000004000410042004300F60010001000103B
:1039600000100010001000100010001000F6000100
:1039700000010001000100F6000100010015001522
:1039800000150001000100010058015801580158BC
:103990000158015801F6000100010001000100F684
:1039A000000100010001000100010001000100010F
:1039B00000580158015801580158015801F60001FA
:1039C00000010001000100F60001000100010001FA
:1039D0000001000100010001005801580110001011
:1039E0000010001000F6000100010001000100F6C7
:1039F00000F600F6004000410042004300F600F6E9
:103A000000F600F6001000100010001000F6000193
:103A10000001000100010005010100010001000199
:103A20000015001500150015005801580110001070
:103A30000010001000050101000100010001000557
:103A4000010100010001000100150015001500151D
:103A5000005801580110001000100010000501016D
:103A6000000100010001000501010001005801589A
:103A7000015801580158015801580158010100012D
:103A80000001000100050101000100010001000525
:103A9000010100010058015801580158015801580E
:103AA0000158015801010001000100010005010158
:103AB000000100010001000501010001005801584A
:103AC00001010001000100010001000100010001ED
:103AD00000010001000501010001000100010005D5
:103AE0000140000300420043000300410042004344
:103AF0000042004300400041004200430005010134
:103B000000010001000100050101000100580158F9
:103B100001580158015801580158015801580158DD
:103B200001580158010501010001000100010005D3
:103B3000010100010058015801580158015801586D
:103B40000158015801580158015801580105010157
:103B50000001000100010005010100010001000158
:103B60000001000100010001001000100010001011
:103B70000058015801050101000100010001000584
:103B800001F600F600F600F600F600F600F600F684
:103B9000001000100010001000400041000501015D
:103BA0000001000100010005010100010001000108
:103BB0000015001500150015001000100010001071
:103BC0000058015801050101000100010001000534
:103BD000010100010001000100150015001500158C
:103BE00000100010001000100058015801050101DC
:103BF0000001000100010005015801580158015859
:103C000001580158015801580158015801580158EC
:103C100001580158010501010001000100010005E2
:103C20000140004100580158015801320040004154
:103C300000420043004000410042004300050101F2
:103C400000010001000100F6000100010010001059
:103C50000010001000580158010100010010001070
:103C60000010001000F6000100010001000100F644
:103C70000001000100100010001000100058015851
:103C800001010001001000100010001000F60001FA
:103C900000010001000100F60010001000100010EB
:103CA00000150015005801580110001000100010F8
:103CB0000015001500F6000100010001000100F6EA
:103CC00000100010001000100015001500580158D9
:103CD00001100010001000100015001500F6000182
:103CE00000010001000100F60005010501050105C4
:103CF0000105010501100010000501050105010580
:103D00000105010501F6000100010001000100F6B6
:103D10000001000100010001000100050110001078
:103D200000050101000100010001000100F6000191
:103D300000010001000100F6000100010001000186
:103D40000001000501100010000501010001000143
:103D50000001000100F6000100010001000100F671
:103D60000001000100010001000100050110001028
:103D700000050101000100010001000100F6000141
:103D80000025002400250005012500210021002335
:103D9000002400050110001000050124002300216B
:103DA000002200250005012500050105010501058A
:103DB00001050105010501050105010501100010BE
:103DC00000050105010501050105010501050105C4
:103DD0000105012100A400A500A500A500A500A5DE
:103DE00000A500A50001000100A500A500A500A5F3
:103DF00000A500A6002300050105012500B400016F
:103E000000280029002A0001000100010001000132
:103E100000280029002A0001000100B60022000548
:103E20000105012500B4000100380039003A000105
:103E3000000100010001000100380039003A0016BD
:103E4000001700B6002400050105012400B400326B
:103E500000480049004A0001000100010001003251
:103E600000480049004A0026002700B6002500054A
:103E70000105012500B4000100010001000100015D
:103E8000000100010001000100010001000100012A
:103E9000000100B6002400050105012200B4000164
:103EA000000100010001000100010001000100010A
:103EB0000001000100010001000100B6002400051E
:103EC0000105012300B4000100010001000100010F
:103ED0000001000100280029002900290029002AEA
:103EE000000100B6002100050105012400B4000115
:103EF000004500450045003200010001003800394E
:103F0000003900390039003A000100B600250005EB
:103F10000105012100B40001001500150015001570
:103F2000000100010055015201420043000E0154FE
:103F3000010100B6002500050105012400B40001BF
:103F40000015001500150015000100010048005380
:103F5000014900530153014A000100B60025000544
:103F60000105012100B40001000100010001000170
:103F70000001000100010001000100010001000139
:103F8000000100B6002400050105012400C400C59D
:103F900000C500C500C50001000100010045004545
:103FA0000045009A00440044000100B600230005CB
:103FB0000105012200240024000D000E000F00B4B2
:103FC0000001000100150015001500150015001571
:103FD000000100B600240005010501220023002590
:103FE000001D0052001F00B4000100010015001563
:103FF0000015001500150015000100B6002400058D
:104000000105012300250022001D0053001F00C4EC
:1040100000C500C500C500C500C500C500C500C578
:1040200000C500C6002500050105010501050105C3
:10403000011D0052001F00050105010501050105D4
:104040000105010501050105010501050105010540
:1040500001001C2B11241FBECFEFDAE0DEBFCDBF65
:1040600011E0A0E0B1E0E8E5FAE602C005900D92AB
:10407000AA3FB107D9F726E0AAEFB1E001C01D922F
:10408000A83BB207E1F710E2CAE2D0E204C02197F0
:10409000FE010E942435C932D107C9F70E94772B4F
:1040A0000C942A350C940000AC0190919706913045
:1040B00039F0E1EEF7E3923029F08FEF9FEF0895AA
:1040C000E1E8FDE384E1869F9001879F300D112494
:1040D000C901840F951F880F991FE80FF91F85915B
:1040E00094910895E3E3F2E0A0E0B8E000800EBC14
:1040F0008111012C1197A0FDFDCF0192B9F70DB4EC
:104100000895E1E0F0E00E949620319728F0685190
:104110007C4F8F4F9F4FF9CFAB01FC010E9496203F
:10412000641775078E079F07C8F30895A4E1B2E0EE
:104130002FB7F8947D918D919C9166B52FBFA89B68
:1041400005C06F3F18F47F5F8F4F9F4F22E0660FCF
:10415000771F881F991F2A95D1F70895FC01809138
:104160002D02882311F13FB7F89482E08093E90093
:104170002091F200822F90E01816190614F481E0C5
:1041800090E0882339F0289844E640932C0240912F
:10419000F1004083222339F02091F200211103C065
:1041A0002BE62093E8003FBF08958FEF9FEF08951F
:1041B0002FB7F89483E08093E9009091E800892F6D
:1041C000807295FF04C09091F20080E4891B2FBF9C
:1041D00008958091240281110DC082E08093200215
:1041E00084E080932102109223021092220281E047
:1041F0008093240280E292E008958F929F92AF9282
:10420000BF92CF92DF92EF92FF920F931F93CF93C3
:10421000DF936C017B018A0180910D01882309F4F1
:1042200058C080912D02882309F453C080911F0249
:1042300080FF05C08091E00082608093E000E8018B
:10424000B12C8AEFA82E93E0892E2AE3922E209794
:1042500011F4BB20B9F10E94D820811106C0AA94A4
:10426000AA20B9F10E948120F2CF8C171D0611F00F
:104270000CF08C2F9FB7F8948092E9002091E80011
:1042800025FD02C09FBFE3CF282F30E0C21BD30B18
:10429000F701815020F041914093F100FACFE20EF6
:1042A000F31EBB2021F09092E800B12CEBCF80915F
:1042B000E80085FDE7CF9092E800BB24B3942097F7
:1042C00009F3F3CF5D9884E680931E021016110661
:1042D0003CF081E090E0F6019383828310E000E0FF
:1042E000C801DF91CF911F910F91FF90EF90DF9068
:1042F000CF90BF90AF909F908F900895CF93DF9312
:104300001F92CDB7DEB76983DC01ED91FC9102808D
:10431000F381E02D41E050E0BE016F5F7F4F0995D2
:104320000F90DF91CF91089583E08093E900809111
:10433000F200882319F08AE38093E80008950E9430
:10434000D82090E00895CF93DF931F92CDB7DEB7CA
:10435000FC018485958597FD08C02FEF3FEF3587D9
:1043600024870F90DF91CF910895CE0101960E948E
:10437000AE20019719F4898190E0F3CF8FEF9FEF82
:10438000F0CF0F931F93CF93DF931F92CDB7DEB77C
:104390008C01FC018485958597FF0BC0CE010196A9
:1043A0000E94AE20019771F4898190E0F801958711
:1043B0008487F801848595850F90DF91CF911F91B7
:1043C0000F9108958FEF9FEFF1CFFC0184859585C4
:1043D00097FD0BC09FB7F89482E08093E90080912D
:1043E000F2009FBF90E0019608959FB7F89482E095
:1043F0008093E9008091F2009FBF90E00895409182
:104400001A0250911B022091180230911902421792
:104410005307B4F49091E8009570E1F39091E800AF
:1044200092FD19C08093F10080911A0290911B02B5
:1044300001968F739927892B19F48EEF8093E800EA
:1044400080911A0290911B02019690931B02809317
:104450001A0281E0089580E00895DF92EF92FF92C2
:104460000F931F93CF93DF93D82E8A01EB017B012B
:10447000E40EF51ECE15DF0559F0D7FE12C0FE0181
:1044800084910E94FF2121968111F4CF0FEF1FEF3D
:10449000C801DF91CF911F910F91FF90EF90DF90B6
:1044A00008958881EECF0F931F93CF93DF931F92D0
:1044B000CDB7DEB782E0898342E450E063EF75E375
:1044C00080E80E942D220E94E920DC0112960D91C5
:1044D0001C910115110589F0D801ED91FC91028024
:1044E000F381E02DBE016F5F7F4FC801099597FDF5
:1044F00004C0F80100851185ECCF89810F90DF9110
:10450000CF911F910F910895615030F02091F100EB
:10451000FC0120830196F8CF289884E680932C0232
:104520000895AF92BF92CF92DF92EF92FF920F93D6
:104530001F93CF93DF936C017B018B01040F151F39
:10454000EB015E01AE18BF08C017D10759F06991A1
:10455000D601ED91FC910190F081E02DC601099505
:10456000892B79F7C501DF91CF911F910F91FF90B2
:10457000EF90DF90CF90BF90AF9008954F925F92F1
:104580006F927F928F929F92AF92BF92CF92DF9263
:10459000EF92FF920F931F93CF93DF934C0159013A
:1045A000FC2DC02FD0E0CE01880D991D18161906DC
:1045B0000CF06CC020E8821691040CF067C09B01DF
:1045C0002E0D311D121613060CF060C060347105FB
:1045D0000CF05CC04115510509F458C0E62FE77096
:1045E000FE2EDB0177FD179633E0B595A7953A953A
:1045F000E1F73A2F77FF04C0FF2011F03FEF3A0FA9
:10460000662777276819790997FC02C070E060E097
:10461000803891050CF44BC090E89819961BA32F95
:10462000032E000CBB0B1A2F10953F3F0CF010E02F
:1046300021E08E2D877009F420E0E694E694E6945C
:10464000E20EAE0DB11D19971CF028E0E22EE31A20
:10465000E11A310F20E83203D0011124A80DB91D51
:10466000A60FB71F019F600D711D1124460F571F24
:104670000F2D0F2C000C110BF33009F41CC1C8F4E2
:10468000F13009F4D0C0F23009F47CC0DF91CF9151
:104690001F910F91FF90EF90DF90CF90BF90AF9060
:1046A0009F908F907F906F905F904F900895902F84
:1046B000B5CFFA3FB1F1232F2E0DFB3F39F732175B
:1046C00029F3BD016D5C7D4FD12CC12CC91608F0BA
:1046D000A4C0FA01EC0DFD1DE491F0E04F01002EA5
:1046E00002C0880C991C0A94E2F737FD06C0FB0152
:1046F0008081E82CE0948E218083FF2061F03730A8
:1047000054F45B01F0E8AF0EB11CE92CE094F50124
:1047100080818E218083FFEFCF1ADF0A6F5F7F4F8A
:10472000D5CF232F2E0D321709F4B0CFBD016D5C0C
:104730007D4FD12CC12CC91608F069C0FA01EC0DCF
:10474000FD1DE491F0E04F01002E02C0880C991C81
:104750000A94E2F737FD04C0FB0180818829808339
:10476000FF2051F0373044F45B01F0E8AF0EB11C8C
:10477000F501808189298083FFEFCF1ADF0A6F5FFF
:104780007F4FD9CF6FEF70E00F2C02C0660F771FFD
:104790000A94E2F760957095772E232F2E0D32172D
:1047A00009F474CFFD01ED5CFD4F6F01B12CA12C1C
:1047B000A91638F5FA01EA0DFB1DE491F0E02F018E
:1047C000002E02C0440C551C0A94E2F737FD05C0C8
:1047D000F6018081862384298083FF2059F03730B9
:1047E0004CF44601F0E88F0E911CF4018081872182
:1047F00085298083FFEFAF1ABF0A8FEFC81AD80A46
:10480000D7CF3F5F4C0F5D1FA058BF4FC8CF3F5F52
:104810004C0F5D1FA058BF4F86CF3F5F4C0F5D1FF1
:10482000A058BF4F4CCF6A0D7B1D232F2E0D321782
:1048300009F42CCFFD01ED5CFD4F6F01B12CA12CD3
:10484000A91688F5FB01EA0DFB1D8490912C002E22
:1048500002C0880C991C0A94E2F780949094FA01A3
:10486000EA0DFB1D6490712C002E02C0660C771CB3
:104870000A94E2F737FD05C0F60180818821862978
:104880008083FF2049F037303CF4F601E058FF4FB9
:104890008081892187298083FFEFAF1ABF0A8FEFBC
:1048A000C81AD80ACDCF3F5F4C0F5D1F6C0F7D1F1C
:1048B000A058BF4FBCCFC92ED12CFA01E60FF71F6D
:1048C000AD5CBD4F00E810E00C191D09CC19DD09E5
:1048D000BE01660F771F41E050E06A010F2C01C056
:1048E000CC0C0A94EAF7592F2E2D792ECF93DF9313
:1048F000ED01EF96EF9622968590A590FF2059F056
:104900008C9C4001AC9C500137302CF4E880B09472
:10491000EB20E928E99233233AF0EC90A094EA20C6
:10492000E828ED920C94952411965A9529F72A952A
:1049300051F0572D33951124E60FF11DA00FB11D35
:10494000C00FD11DD9CFDF91CF9111249FCE2D9AC9
:104950000895BC0190E080E0AB01FC010E9496202C
:1049600041505109E109F10928F068517C4F8F4FFE
:104970009F4FF6CFAB01FC010E949620641775078C
:104980008E079F07C8F308958FB18095807F669B3F
:1049900088601C9B846008958F929F92AF92BF9213
:1049A000DF92EF92FF920F931F93CF93DF936D30BF
:1049B00009F46DC06A3009F45AC080912E02811149
:1049C0004EC080902F029090300240913102509161
:1049D000320285E0689FF0011124E455FF4F9A01EF
:1049E00060E080E1E82E70E0653021F0CF010196B3
:1049F0007491FC0110E000E0A72FA170DA2E20389E
:104A00003105D0F4C401800F911F80349105A0F4CA
:104A1000C1E081FDC4E080FDCC0F82FDC295887F9E
:104A2000E89ED0011124A20FFC2EAD5CBD4F8C91ED
:104A3000DD20D9F18C2B8C9376950F5F1F4F0830BA
:104A40001105D1F66F5F2F5F3F4F663009F0CBCF76
:104A50004A5F5F4F509332024093310218C08091F9
:104A60003102909132028C3791050CF4AACF10924A
:104A700032021092310280912F02909130020896FA
:104A80009093300280932F026A3009F09ACF81E030
:104A900090E0DF91CF911F910F91FF90EF90DF9009
:104AA000BF90AF909F908F900895F0948F21C3CFC7
:104AB000CF93C82F0E94C424982F9C2381E09C137D
:104AC00080E0CF91089580E00C947220E0E1F1E065
:104AD000219131912817390731F021E0E635F207AD
:104AE000B9F780E0089581E008954F925F926F9248
:104AF0007F928F929F92AF92BF92CF92DF92EF926E
:104B0000FF920F931F93CF93DF934B015C01290119
:104B10003A0120E030E040E051E40E94073320E019
:104B200030E040E850E40E94063320E030E040E806
:104B30005DE30E94A33420E030E040E05FE30E94A8
:104B400007330E947F33C62E20E030E040E051E47E
:104B5000C301B2010E94073320E030E040E850E496
:104B60000E94063320E030E040E85DE30E94A33479
:104B700020E030E040E05FE30E9407330E947F3393
:104B8000E62E20E030E040E850E4C301B2010E948C
:104B9000073320E030E040E85DE30E94A3340E9448
:104BA0007F33062F10E020E030E040E850E4C501FC
:104BB000B4010E94073320E030E040E85DE30E944A
:104BC000A3340E947F33C62FD0E0B801CE010E94EB
:104BD00054200E94662581111EC0FF24F394B80161
:104BE000CE010E9454200E946625811132C0FF240C
:104BF000F3948F2DDF91CF911F910F91FF90EF9044
:104C0000DF90CF90BF90AF909F908F907F906F90EC
:104C10005F904F900895AC2CB12CB801C5010E9453
:104C200054200E9466258823C1F28E2C912CB40159
:104C3000CE010E9454200E946625882371F2B4019F
:104C4000C5010E9454200E94662591E0F82EF926A5
:104C5000C6CFD12CB801C6010E9454200E946625FF
:104C6000882329F20E2D10E0B801CE010E945420B5
:104C70000E946625882309F4BACFB801C6010E94B4
:104C800054200E946625882309F4B1CFB2CF08953D
:104C900090E080E008952F923F924F925F926F9242
:104CA0007F928F929F92AF92BF92CF92DF92EF92BC
:104CB000FF920F931F93CF93DF9300D000D000D0CB
:104CC000CDB7DEB77C018B015C834B836091980686
:104CD0007091990680919A0690919B060E94783374
:104CE0009B0177FF02C0215F3F4FC90164E09595AA
:104CF00087956A95E1F78E159F0509F064C160916B
:104D00009C0670919D0680919E0690919F060E9440
:104D100078339B0177FF02C0215F3F4FC90154E008
:104D2000959587955A95E1F78017910709F04BC142
:104D300020E230E0D90193E0B595A7959A95E1F787
:104D40009A2E78E07A1B7D83BA2E6D01D694DC2CE6
:104D5000CC24D794C79450E040E04115510569F444
:104D600090E080E020323105B1F082E090E0203325
:104D7000310589F084E090E00EC04037510509F01C
:104D800088C081E090E02032310529F083E090E096
:104D90002033310579F7EFE5F6E36491E0E6F6E3D9
:104DA000A490E62FF0E0009709F47AC001E010E04B
:104DB0007A2D777011F410E000E0FA2CF694F69456
:104DC000F6940F0D111D0E9F70010F9FF00C1E9F8A
:104DD000F00C11248C01000F111FE09EC001E19E18
:104DE000900DF09E900D11248F59994CE40FF51FF2
:104DF000309709F460C0009709F45DC0862EE03852
:104E0000F1051CF0E0E88E2E841AF1E0EA2DE7703F
:104E100009F4F0E0A694A694A694AF0EFD01EA0D65
:104E2000F11D39970CF0AD808A010C0D1D1D68191C
:104E3000660F482C512C440C551C460E511C6B2DF2
:104E40009A8389833C01EFEF6E1A7E0AE62FE919F7
:104E5000EA1588F5F801ED5CFD4F7F01312C8314D4
:104E600011F1FC012490F301F491FE8367FD08C069
:104E7000F7017081EE81E095E7232E2AF701208269
:104E8000F2E06F0E711C029633947FEFE71AF70A77
:104E9000E6CF85E090E02032310509F06BCF7BCF83
:104EA00081E696E3A3CF00581F4F6F5F89819A81F7
:104EB000840D951DC5CF405F5F4F4038510509F007
:104EC0004CCF205F3F4F2034310509F033CF83E0D2
:104ED00090E0909332028093310283E290E09093CD
:104EE000300280932F0210922E02EB81FC81019000
:104EF0000020E9F731975F018B819C81A81AB90ADC
:104F000010E000E083E0C82ED12C0A151B050CF040
:104F100042C0780194E1E90EF11CAE14BF040CF418
:104F20007501970121503109EB81FC81EE0DFF1DC8
:104F3000201731076CF04291403219F021503109AD
:104F4000F7CF2F3F320721F07901FFEFEF1AFF0A69
:104F50002B813C81020F131FC801EB81FC818E1B4A
:104F60009F0B8E159F0544F4F80161918F0183E832
:104F700096E00E94CC24F0CF80912F0290913002D5
:104F80000896D0923202C092310290933002809300
:104F90002F028701BACF1092320210923102109282
:104FA000300210922F021092A0061092A1061092C9
:104FB000A2061092A3061092A4061092A5061092C3
:104FC000A6061092A70626960FB6F894DEBF0FBE6F
:104FD000CDBFDF91CF911F910F91FF90EF90DF90A8
:104FE000CF90BF90AF909F908F907F906F905F9089
:104FF0004F903F902F9008950C94F0321F920F9293
:105000000FB60F9211248F939F938091E10090919E
:10501000E100937F9093E10083FF0FC01092E900BD
:1050200091E09093EB001092EC0092E39093ED00EE
:1050300010922D0298E09093F00082FF22C093E03E
:105040009093E9009091F200992319F09AE39093DC
:10505000E80090911E02992341F090911E02915018
:1050600090931E02911101C05D9A90912C02992398
:1050700041F090912C02915090932C02911101C01B
:10508000289A84FF18C08091E2008E7E8160809310
:10509000E2008091E1008F7E8093E10080911F0209
:1050A0008E7E806180931F029F918F910F900FBE23
:1050B0000F901F90189580FFF7CF8091E2008E7EB1
:1050C00080618093E2008091E1008E7E8093E10018
:1050D00080911F028E7E8160E5CF1F920F920FB6E6
:1050E0000F921124CF92DF92EF92FF920F931F93B2
:1050F0002F933F934F935F936F937F938F939F93E0
:10510000AF93BF93EF93FF93CF93DF93CDB7DEB70A
:105110006C97DEBFCDBF1092E9008091E80083FF5D
:1051200025C068E0CE0145960E94842282EF8093DC
:10513000E8008D8987FF39C09091E80090FFFCCF8F
:10514000982F907609F034C19E894F89588D2F8908
:10515000F88C911131C0803861F580911D028093E7
:10516000F1001092F1008EEF8093E8006C960FB67C
:10517000F894DEBF0FBECDBFDF91CF91FF91EF91CD
:10518000BF91AF919F918F917F916F915F914F915F
:105190003F912F911F910F91FF90EF90DF90CF9053
:1051A0000F900FBE0F901F9018959EEF9093E80000
:1051B000C7CF1092F100D5CF913059F48111D3CFE0
:1051C0004130510581F680911D028D7F80931D0233
:1051D000CACF933049F48111C6CF4130510519F639
:1051E00080911D028260F2CF953041F48091E800F9
:1051F00080FFFCCF20682093E300B5CF963009F004
:10520000A9C00B8D1C8D22E01092E90010921B02A8
:1052100010921A02F2122EC0109219021092180265
:105220000E9453221F8299E09983FA8291E09E8323
:1052300090EA98879AEF998720911A0230911B0281
:10524000275F3F4F3C832B838D831092E9001092A0
:105250001B0210921A02109319020093180249E0DF
:1052600050E0BE016F5F7F4F80E00E942D220E94C0
:10527000532279CF10931902009318020E94E9205B
:10528000DC0112960D911C910115110509F451C113
:10529000D801ED91FC910480F581E02DBE016B5E9B
:1052A0007F4FC8010995009709F03EC1F8010085BC
:1052B0001185EACFF3E0FF120EC08F89882309F42D
:1052C00040C0823061F440E867E087E596E30E94E1
:1052D000E92A811148CF81E28093EB0047CF8130EA
:1052E00029F440E86BE08BE496E3F1CF833099F743
:1052F0000E94E920DC011296ED90FC908E010F5F78
:105300001F4F6801E114F10479F0D701ED91FC9190
:105310000680F781E02DB801C7010995080F111D1E
:10532000F701E084F184EECFD8011C92F6010190E0
:105330000020E9F73197BF016C197D0940E0C601F3
:10534000C6CF65E376E3FB01449150E080E80E941C
:105350002D2209CF973009F4BECF983021F481E097
:105360008093F10000CF993009F0FDCE837009F0F1
:10537000B2CFE7E5F1E081E031E096E3219122232D
:1053800071F08093E9003093EB00DF0111972C91CD
:105390002093EC009093ED008F5F873079F78EE7D4
:1053A0008093EA001092EA008F8980932D02DBCE71
:1053B0008B8D9C8D1092E90010921B0210921A02A4
:1053C0009093190280931802898D811192C08E8961
:1053D0009D89913A49F4813209F07DCF47E050E050
:1053E00066E071E080E0B3CF913209F074CF833290
:1053F00069F48F89988DB0E0A0E0809302019093CA
:105400000301A0930401B0930501ADCE803269F48D
:105410008091E80082FFFCCF67E086E091E00E9487
:1054200084228BEF8093E8009ECE823209F09BCEDF
:105430008F8980930D01EEEFFFE7859194918B3F6B
:105440009C4D51F1E0E0F8E0809106019091070158
:10545000A0910801B0910901803B9440A105B105DC
:10546000F1F480910D0180FD1AC0EE3F8AE0F8074B
:1054700089F587E797E79183808380916000809327
:105480001C0288E19BE00FB6F894A8958093600019
:105490000FBE9093600067CEEEEFFAE0D5CF80812B
:1054A00091818737974709F05ECEA895809160007B
:1054B00088618093600080911C0280936000EE3FC1
:1054C0002AE0F20789F08091FE0A9091FF0A918309
:1054D000808349CE808191818737980751F29093DC
:1054E000FF0A8093FE0AC5CF1092FF0A1092FE0AAF
:1054F0003ACE0E94E920DC0112960D911C91011513
:10550000110509F4E8CED801ED91FC910190F081EC
:10551000E02DBE016B5E7F4FC8010995811123CE3E
:10552000F80100851185EBCF181619060CF41BCE77
:10553000D2CEF1E0FF12BECE69E376E304CF0F9244
:105540000FB68F939F93EF93FF9380910F028D5F20
:105550008D3708F08D5780930F02E0E1F2E08081F3
:105560008E4F808391819F4F918382818F4F828361
:1055700083818F4F8383E4E1F2E080818F5F8083BA
:1055800081818F4F818382818F4F828383818F4F6F
:1055900083838FB18F6066991C9B88278F3681F437
:1055A00080910E02981B963068F0E0E0F8E087E703
:1055B0008083818388E180936000F0936000FFCF57
:1055C00090930E02FF91EF919F918F910FBE0F90DC
:1055D0001895EF92FF920F931F93CF93DF93F82EBE
:1055E000192FE62E042F81E0860F880F0E94FF21DD
:1055F00083E00E94FF21CF2DD12FEC0EFD2EF11C58
:10560000CE15DF05B9F007FF13C0FE0184910E949B
:10561000FF21182F80E00E94FF2181232196811114
:10562000EFCFDF91CF911F910F91FF90EF900895F1
:105630008881EDCF81E0F5CFE3E3F6E013821282BB
:1056400088EE93E0A0E0B0E084839583A683B783DF
:1056500081E691E0918380838FEF9FEF9587848728
:10566000E3E8F6E01382128283E791E0918380837E
:1056700020E431E030938A062093890620E231E06D
:105680003093880620938706E0EBF6E013821282BF
:1056900091838083E8E9F6E080E090E0A0E2B3E463
:1056A00080839183A283B38314821582168217822A
:1056B000108611861286138614861586168617861E
:1056C00081E0808B118A178AEBE8F6E0148215825C
:1056D00016821782108611861286138688E090E063
:1056E0009183808384E090E0938382830895CDB793
:1056F000DEB76397DEBFCDBF789483E084BD83E0DF
:1057000085BD81E080936E00E1E8F0E083E0808376
:10571000E0E881E08083E1E983E08083E0E981E003
:105720008083E1EC87E08083E3EC81E08083E0EC40
:1057300082E08083E2EC81E08083EAE787E0808397
:105740008068808310922D0210921D0210921F0219
:105750008091D70081608093D70080EA8093D80041
:1057600089B5806189BD89B5826089BD09B400FEB3
:10577000FDCF0E9481208091D8008F7C8061809332
:10578000D8008091E000807F8093E0008091E1006C
:105790008E7E8093E1008DE08093E200559A209AFE
:1057A00081EC80937C0085B1806F85B984B1877E60
:1057B00084B984B1876E84B95E9A5F988AB1806D2E
:1057C0008AB9769A6E9881B3806F81BB899880B3CD
:1057D0008D7080BB80E58CBD81E08DBD85E090E063
:1057E0000E94A9245F9A85E090E00E94A9245E9817
:1057F0005C98ECE5F6E089E696E024912EBD000089
:105800000DB407FEFDCF31968E179F07B1F75C9A56
:1058100081E88093640080916500816080936500D9
:105820000E94632580E80E945825882381F05C98B7
:1058300085EA8EBD00000DB407FEFDCF5C9A2E9860
:105840002F982D9881E083BF889513BEFCCF84E00C
:105850000E945825882309F448C02D9884E80E94A6
:1058600058258823E1F00E94A72488EC90E00E944C
:10587000A9242F9882E090E00E94F0328F3F29F017
:105880006FEF82E090E00E94F83284EF91E00E9496
:10589000A9242F9A84E80E9458258111FBCF84E126
:1058A0000E9458258823E1F00E94A72488EC90E00C
:1058B0000E94A9242E9882E090E00E94F032882372
:1058C00029F060E082E090E00E94F83284EF91E0FD
:1058D0000E94A9242E9A84E10E9458258111FBCFB1
:1058E00088EC90E00E94A924B2CF0E94A72482E015
:1058F00090E00E94FC27882309F457C03E9A3F9A03
:1059000081E090E00E94FC27282F2470722E81FFF6
:1059100015C021112E9871EF272E33243A9408E0F8
:1059200010E0ECE6EE2EF12C80E40E94582588234E
:1059300009F43EC02E9A2F9A0E94A72482E390E099
:105940000E94A9240E94C4248111F8CF80E1809391
:1059500000012FB7F8948091100290911102A0914C
:105960001202B09113022FBF80930A0290930B0290
:10597000A0930C02B0930D028FB7F89440911002DF
:105980005091110260911202709113028FBF8091A9
:105990000502882309F4DEC01092050280E090E041
:1059A000892B51F30E940000E7CF3E983F98A8CF83
:1059B000772031F034E02316310411F42E9A2F9819
:1059C00081E00E947220910137FE04C02227332714
:1059D0002219330927703327C10137FC079663E08A
:1059E000959587956A95E1F737FE05C00197A8015F
:1059F000421B530B9A01BC017695762F662777954B
:105A000067956D5C7D4FB0E0A0E02801421A530A13
:105A10008E3F5FEF950709F446C048E550E0FD0171
:105A2000EC5FF94F5F014B01F0E88F0E911C8F3F47
:105A30009807C9F0F501E41BF50B64906701C41ADF
:105A4000D50AC60ED71EE62DF0E0022E02C0EE0FDC
:105A5000FF1F0A94E2F7FD83EC83F6016080FC816E
:105A60006F2AF601608221153105C9F0F501E41BAA
:105A7000F50B64906701C41AD50AC80CD91CE62D31
:105A8000F0E0042C02C0F595E7950A94E2F7FD8357
:105A9000EC83F6016080FC816F2AF6016082415040
:105AA000510909F0C4CF0196A85ABF4F60587F4FE3
:105AB000A03BB10509F0ACCF0E9463258FE090E0D8
:105AC0000E94A924FFEF2F1A3F0A29E12216310470
:105AD00009F02ACF772011F02F9A2D9880E991E0D4
