:020000040000FA
:100000000C94C5190C94ED190C94ED190C94ED1980
:100010000C94ED190C94ED190C94ED190C94ED1948
:100020000C94ED190C94ED190C9473240C94E224A7
:100030000C94ED190C94ED190C94ED190C94ED1928
:100040000C94ED190C94ED190C94ED190C94ED1918
:100050000C94ED190C94ED190C94ED190C941427D3
:100060000C94ED190C94ED190C94ED190C94ED19F8
:100070000C94ED190C94ED190C94ED190C94ED19E8
:100080000C94ED190C94ED190C94ED190C94ED19D8
:100090000C94ED190C94ED190C94ED190C94ED19C8
:1000A0000C94ED190C94ED190C94ED19000000005E
:1000B000003E5B4F5B3E3E6B4F6B3E1C3E7C3E1CEE
:1000C000183C7E3C181C577D571C1C5E7F5E1C0034
:1000D000183C1800FFE7C3E7FF0018241800FFE7EB
:1000E000DBE7FF30483A060E2629792926407F05AE
:1000F0000507407F05253F5A3CE73C5A7F3E1C1CC4
:1001000008081C1C3E7F14227F22145F5F005F5F83
:1001100006097F017F006689956A6060606060946F
:10012000A2FFA29408047E040810207E2010080874
:100130002A1C08081C2A08081E101010100C1E0C7F
:100140001E0C30383E3830060E3E0E060000000011
:100150000000005F00000007000700147F147F14F8
:10016000242A7F2A1223130864623649562050003D
:1001700008070300001C2241000041221C002A1C29
:100180007F1C2A08083E0808008070300008080814
:100190000808000060600020100804023E51494534
:1001A0003E00427F400072494949462141494D3352
:1001B0001814127F1027454545393C4A49493141B9
:1001C000211109073649494936464949291E000087
:1001D00014000000403400000008142241141414DC
:1001E0001414004122140802015909063E415D59C8
:1001F0004E7C1211127C7F494949363E41414122D1
:100200007F4141413E7F494949417F090909013EFA
:10021000414151737F0808087F00417F4100204021
:10022000413F017F081422417F404040407F021C33
:10023000027F7F0408107F3E4141413E7F0909094A
:10024000063E4151215E7F09192946264949493216
:1002500003017F01033F4040403F1F2040201F3FDC
:100260004038403F63140814630304780403615961
:10027000494D43007F4141410204081020004141A3
:10028000417F04020102044040404040000307084F
:100290000020545478407F2844443838444444284B
:1002A000384444287F385454541800087E090218F2
:1002B000A4A49C787F0804047800447D400020407A
:1002C000403D007F1028440000417F40007C0478BE
:1002D00004787C080404783844444438FC18242406
:1002E0001818242418FC7C08040408485454542486
:1002F00004043F44243C4040207C1C2040201C3C03
:100300004030403C44281028444C9090907C4464F9
:10031000544C44000836410000007700000041368C
:10032000080002010204023C2623263C1EA1A16112
:10033000123A4040207A3854545559215555794144
:100340002154547841215554784020545579400C1B
:100350001E527212395555555939545454593955FC
:100360005454580000457C410002457D420001453F
:100370007C40F0292429F0F0282528F07C545545AC
:10038000002054547C547C0A097F4932494949323F
:100390003248484832324A4848303A4141217A3A54
:1003A00042402078009DA0A07D39444444393D401E
:1003B00040403D3C24FF2424487E4943662B2FFCCB
:1003C0002F2BFF0929F620C0887E09032054547979
:1003D000410000447D413048484A32384040227A4A
:1003E000007A0A0A727D0D19317D2629292F2826C7
:1003F0002929292630484D402038080808080808CF
:100400000808382F10C8ACBA2F102834FA00007B27
:10041000000008142A142222142A1408950022002D
:1004200095AA005500AAAA55AA55AA000000FF00E7
:10043000101010FF00141414FF001010FF00FF1024
:1004400010F010F0141414FC001414F700FF000056
:10045000FF00FF1414F404FC141417101F10101FD5
:10046000101F1414141F00101010F0000000001FC3
:10047000101010101F10101010F010000000FF10CE
:100480001010101010101010FF10000000FF1400CA
:1004900000FF00FF00001F10170000FC04F41414FC
:1004A0001710171414F404F40000FF00F7141414C8
:1004B00014141414F700F7141414171410101F1048
:1004C0001F141414F4141010F010F000001F101F6B
:1004D0000000001F14000000FC140000F010F010D9
:1004E00010FF10FF141414FF141010101F00000050
:1004F00000F010FFFFFFFFFFF0F0F0F0F0FFFFFF54
:100500000000000000FFFF0F0F0F0F0F38444438AA
:10051000447C2A2A3E147E02020606027E027E02E5
:1005200063554941633844443C04407E201E200604
:10053000027E020299A5E7A5991C2A492A1C4C7241
:1005400001724C304A4D4D303048784830BC625AC8
:10055000463D3E494949007E0101017E2A2A2A2A58
:100560002A44445F444440514A444040444A514034
:100570000000FF0103E080FF000008086B6B0836F5
:1005800012362436060F090F060000181800000066
:100590001010003040FF0101001F01011E00191D55
:1005A0001712003C3C3C3C0000000000F0F89C8E20
:1005B0008783878E9CF8F00000FEFF03030303038C
:1005C000070EFCF80000FEFF0303030303070EFC05
:1005D000F80000FFFF00000000000000FFFF000027
:1005E000FEFF8383838383C7EE7C380000F8FC0E14
:1005F00007030303070EFCF800003F7FE0C0808084
:10060000C0E07F3FFFFF01010101010101FFFF0089
:1006100000FFFF0C0C0C0C1C3E77E3C100007FFFB9
:10062000C0C0C0C0C0E0703F1F00001F3F70E0C0EE
:10063000C0C0E0703F1F00007FFFC1C1C1C1C1E366
:10064000773E1C00001F3F70E0C0C0C0E0703F1F3D
:10065000000000000001FFFF01000000D5F08D1434
:10066000A1C881CFD9F1AF20000100010001002411
:1006700000010001000100010024002600260024E2
:10068000000100010001000100010001002400013F
:1006900000010001000100240024002400240024A3
:1006A0000024002600260024002400240024002426
:1006B00000240024002400010001000100010024A6
:1006C00000010001000100010001002600260001D8
:1006D00000010001000100010013001300240001CB
:1006E00000010001000100240001000100010001DF
:1006F00000080026002600010001000100010001A1
:100700000013001300240001000100010001002477
:10071000000100010001000100080026002600265B
:1007200000260026002600260026002600240001C0
:100730000001000100010024003800380039003AAF
:100740000008003800380039003A0026002600264C
:10075000002600260024000100010001000100081D
:1007600000130013001300010008002500250025D8
:100770000025002500250025002500250008000192
:10078000000100010001000800010001000100015A
:10079000000800250025002500250025002500254E
:1007A00000250025000800010001000100010008EB
:1007B00000010001000100010008002500250025BE
:1007C0000025002500250025002500250008000142
:1007D000000100010001000800380039003A003A29
:1007E00000080025002500250025002500250025FE
:1007F000002500250008000100010001000100089B
:1008000000010001001300130013000100010001AA
:1008100000260026002600260026002600080001EB
:1008200000010001000100080001000100010001B9
:10083000000100010001000100260026002600261C
:100840000026002600080001000100010001000848
:100850000001000100010001000100010001000190
:10086000002600260025002500250025000800019F
:1008700000010001000100080008000800380038ED
:100880000039003A0008000800080008002500258B
:1008900000250025000800010001000100010024DE
:1008A00000010001000100010013001300130013F8
:1008B0000026002600250025002500250024000133
:1008C00000010001000100240001000100010001FD
:1008D0000013001300130013002600260025002536
:1008E0000025002500240001000100010001002472
:1008F0000001000100260026002600260026002612
:100900000026002600010001000100010024000172
:100910000001000100010024000100010026002662
:1009200000260026002600260026002600010001E1
:100930000001000100240001000100010001002469
:100940000001000100260026000100010001000155
:10095000000100010001000100010001002400016C
:100960000001000100010024003900050039003AAF
:10097000000500380039003A003900380039003AE3
:100980000039003A002400010001000100010024A8
:100990000001000100260026002600260026002671
:1009A000002600260026002600260026002400013E
:1009B00000010001000100240001000100260026C2
:1009C00000260026002600260026002600260026F7
:1009D000002600260024000100010001000100247F
:1009E00000010001000100010001000100010001FF
:1009F00000250025002500250026002600240001F2
:100A0000000100010001002400080008000800089F
:100A10000008000800080008002500250025002522
:100A20000039003A00240001000100010001002407
:100A30000001000100010001001300130013001366
:100A400000250025002500250026002600240001A1
:100A5000000100010001002400010001000100016B
:100A600000130013001300130025002500250025A6
:100A700000260026002400010001000100010024DE
:100A80000026002600260026002600260026002636
:100A9000002600260026002600260026002400014D
:100AA00000010001000100240039003A0026002660
:100AB0000026002C00380039003A00380039003890
:100AC0000039003A00240001000100010001000883
:100AD0000001000100250025002500250026002634
:100AE0000001000100250025002500250008000167
:100AF000000100010001000800010001002500259F
:100B00000025002500260026000100010025002503
:100B10000025002500080001000100010001000877
:100B200000250025002500250013001300260026BF
:100B300000250025002500250013001300080001F2
:100B40000001000100010008002500250025002506
:100B5000001300130026002600250025002500258F
:100B6000001300130008000100010001000100084B
:100B70000024002400240024002400240025002553
:100B80000024002400240024002400240008000184
:100B90000001000100010008000100010001000146
:100BA00000010024002500250024000100010001AF
:100BB000000100010008000100010001000100081F
:100BC00000010001000100010001002400250025B2
:100BD00000240001000100010001000100080001E3
:100BE00000010001000100080001000100010001F6
:100BF000000100240025002500240001000100015F
:100C00000001000100080001001E00210020002456
:100C1000001F0021001F0021001E002400250025C8
:100C20000024001D0021001D0021001E0024001FC3
:100C30000024002400240024002400240024002494
:100C40000024002400250025002400240024002482
:100C500000240024002400240024001E0054005519
:100C60000055005500550055005500550001000184
:100C70000055005500550055005500560021002430
:100C80000024002000620001005E005F006000019F
:100C90000001000100010001005E005F0060000132
:100CA00000010064001D00240024001D00620001FA
:100CB000006C006D006E00010001000100010001E8
:100CC000006C006D006E001400150064001F00240D
:100CD000002400200062002C007A007B007D0001CF
:100CE000000100010001002C007A007B007D002241
:100CF00000230064001D00240024001E0062000187
:100D000000010001000100010001000100010001DB
:100D1000000100010001000100010064001D002429
:100D20000024002100620001000100010001000117
:100D300000010001000100010001000100010001AB
:100D40000001006400200024002400120062000161
:100D5000000100010001000100010001005E005FD0
:100D6000005F005F005F006000010064001E00245F
:100D70000024002000620001003B003B003B002CEF
:100D800000010001006C006D006D006D006D006ED3
:100D900000010064001D00240024001F0062000107
:100DA000002A002B002A002B000100010061006FC7
:100DB000003900390039005300010064001E00248E
:100DC0000024002100620001002A002B002A002BD1
:100DD00000010001007A007C007B007C007C007D2B
:100DE00000010064001E00240024001E00620001B7
:100DF00000010001000100010001000100010001EB
:100E00000001000100010001000100640020002435
:100E10000024001200700071007100710071000167
:100E200000010001003B003B003B0030003B003B69
:100E300000010064001D00240024001F0020001F8A
:100E40000057005800590062000100010013001310
:100E5000001300130013001300010064002000249D
:100E60000024001F00200021006500470067006289
:100E700000010001001300130013001300130013FE
:100E800000010064001F00240024001E0020001E3A
:100E9000006500460067007000710071007100710C
:100EA000007100710071007100710072001F002458
:100EB000002400240024002400650047006700246B
:100EC0000024002400240024002400240024002402
:100ED0000024002400240024001010FFFFFFFFFF67
:100EE000FFFFFFFFFFFFFFFFFFFFFFFFFFFFFFFF12
:100EF000FFFFFFFFFFFFFFFFFFFFFF0000000000FD
:100F000000000000000000000000000000000000E1
:100F10000000000000000000000000000022333349
:100F20003333333333333333333333000022333308
:100F30003333333333333333333333333333333381
:100F40003333333333333333333333333333333371
:100F50003333333333333333333333333333333361
:100F60003333333333333333332200333333333395
:100F700033333333333333333322000000223333FC
:100F800033333333333333333322000000223333EC
:100F900033333333333333333322008F8F8F8741EF
:100FA000231383C1E0E0F0F0F9F8F8030381B87C83
:100FB000FEFCFDFBF7F7E7CF9F9F1FF8F9FBF3F768
:100FC000E6ECC99B133333674FCF8F1F1F1F0F07EB
:100FD00087C7E3E1F0FE7C388000210000008040FC
:100FE0003078787C3C3C1C1890E00000003F4307C0
:100FF0006614080808081261001F00810007000E2F
:10100000008300810007000E008300810007000EAE
:10101000008300810007000E008300007A7A1ADA4C
:10102000BABABABABABADA1A7A7A0000BBDDDDDC2B
:10103000DDDDDDDDDDDDDCDCDDB9000000C010E87C
:10104000F0F4F4F4F4F8FAFAF8F4F40018C33CFFFE
:10105000FFFFFF01FCFEFEFEFEEE1EF4F4F8FAFABE
:10106000F8F4F4F4F4F8FAFAF8F4F41E1E1E1E1E56
:101070001E1E1E1E1E1E1E1E1E1E1EF4F4F8FAFA52
:10108000F8F4F4F4F4F0E8D00000001EEEFEFEFEEA
:10109000FEFC010F1FFFFF3CC31800000000000012
:1010A000000000387000381CC0600000001C3800D0
:1010B0001C0E000000000000000000000000000006
:1010C0000000000000000000000000000000000020
:1010D00000000000070E001C0E00000000000000D1
:1010E000000000000000000000000000000E1C00D6
:1010F0000E070000000000000000000000000038A3
:101100007000381C0000000000000000000000001B
:1011100000000000000000000000000000000000CF
:101120000000000000000000000000000000070EAA
:10113000001C0E0000000000000000000008140861
:10114000000000000000000000000000000000009F
:101150000000000200001128100000000000000044
:10116000000080C0E0E0F0F0F8F8F8000080B87C03
:10117000FEFCFDFBF7F7E7CF9F9F1FF8F8F8F0F0B4
:10118000E0E0C080000000000000001F1F1F0F07EC
:1011900087C7E3E1F0FE7C3880000000FEFEFE061B
:1011A0000606068606E606FE060200007F1F0F04FE
:1011B000040606060607040F106000070E1C1C1C20
:1011C0000E0707070E1C1C1C0E070703070E14143E
:1011D0000E070303070E14140E070300DDFFFFFFC5
:1011E000FFFFFFFFFFFFFFFFFFDD00006367272713
:1011F00027272727272727276763000018C33CFFD7
:10120000FFFFFF00FFFFFFFFFFFF000018C33CFFD1
:10121000FFFFFF00FFFFFFFFFFFF00000040C0D007
:10122000A000F8E80050300000000000000C0A0C9C
:101230000C06617F0201030706000000FFFFFFFFAD
:10124000FFFF000000FFFF3CC3180000FFFFFFFF8F
:10125000FFFF000000FFFF3CC3180020080402004D
:101260000100802008040200010080200804020020
:10127000010080200804020001008000000000003E
:10128000000000000000000040000000000000001E
:10129000000000000000000000000000000000004E
:1012A000000000000000000400000000000000003A
:1012B000000000000000000000000000000000002E
:1012C000000000000010000000000000000000000E
:1012D000000000000000020000000000000080008C
:1012E00000000004002000000000000000000000DA
:1012F00000000000000000000000000000000800E6
:10130000000040000000000000000000000000029B
:101310000000000000000000000000000F1F3F3F21
:101320007EFCF9FBF373F3E7CFCF8F0000000000E2
:1013300000080C0C080418391343E38F8F8F87C102
:101340002373F3F1F070787C3F1F00430303010027
:101350000000080C080000000000000000C0E0F0E1
:10136000F8FC7C3C44840810A0C00000001F204111
:101370007F82828282827F41201F00FFFFFFFFFF6A
:10138000FFFFFFC78FFFC7E33F9FFFFFFFE3C7FFDD
:10139000E3F1FFFFFFFFFFFFFFFFFFFFDDFFFBBFED
:1013A000FDEF7DFFFFB7FDBFF7FFFFFFDEFFFDBFD6
:1013B000EFFBFFEFFFFBBFF7FFDDFF0018C33CFFB4
:1013C000FFFFFF800F1F1F1F1F1E1E002042C48B28
:1013D00097172F2F2F1F5F5F1F2F2F1E1E1E1E1EE2
:1013E0001E1E1E1E1E1E1E1E1E1E1E2F2F1F5F5F78
:1013F0001F2F2F2F2F1F5F5F1F2F2F1E1E1F1F1F1F
:101400001F0F0080C0FFFF3CC318002F2F1F5F5F1E
:101410001F2F2F2F17978BC4422000000C1C323235
:10142000321C0C000000381CC06000000E1C00388C
:101430001C0000181824242418180000181824244C
:10144000241818000000381CC06000000E1C003872
:101450001C00000C1C3232321C0C0000000078F81A
:10146000F8F0F8F8F8F8F8E80000000000000B2B9E
:101470002B0B0B010B2B2B0B00000000FEFEFEFCC8
:10148000FEFEFEFEFEFEF8FEFEFEFE000B6B634B54
:101490000B010B0B0B0B030B0B0B0BFEFEFEFEFCF1
:1014A000FEFEFEFEFEFEF8FEFEFE000B0B0B030B27
:1014B0000B010B0B0B0B636B4B0B0000B6BEFEFE60
:1014C000FEFEFEFEFEFEFEFEFCFEFE000BCBCB0B88
:1014D000CBCB0BC1CB0BCBCB0BCBCB00FEFEFEFCA7
:1014E000FEFEFEFEFEFEF8FEFEFE00000B6B634BF2
:1014F0000B010B0B0B0B636B4B0B00FEFEFEFEFE9A
:10150000FEFEFEFEFEFEFCFEBEB600CBCB0BCBCB42
:101510000BCBC10BCBCB0BCBCB0B00FFFFFF0707DC
:101520000707078787878787878787FFFFFF000071
:1015300000007F000000F00808C8480787878787F9
:1015400087878707878787878787874848484840EE
:101550004848484848484840484848078787878758
:101560008787870707C7E707FFFFFF48C808E8F036
:1015700000FCFEFF00FFFF00FFFFFF002042C48BC6
:1015800097172F2F2F1F5F5F1F2F2F002042C48B15
:1015900097172F2F2F1F5F5F1F2F2F2F2F1F5F5F7B
:1015A0001F2F2F2F2F1F5F5F1F2F2F2F2F1F5F5FCB
:1015B0001F2F2F2F2F1F5F5F1F2F2F2F2F1F5F5FBB
:1015C0001F2F2F2F17978BC44220002F2F1F5F5FD5
:1015D0001F2F2F2F17978BC44220000505051111CF
:1015E0000505110505051111050511000000000094
:1015F00000000000000000000000001105050511BA
:101600001105051105050511110505000000000073
:1016100000000000000000000000000511050505A5
:101620001111050511050505111105000000000047
:10163000000000000000000000000000EEDBD515F7
:10164000DBEE0000EEDBD515DBEE00003F7F7F1503
:101650007F3F00003F7F7F157F3F0000EEDBD51509
:10166000DBEE000000000000000000003F7F7F155F
:101670007F3F0000000000000000000000000000AC
:1016800000000000EE1BD5D5DBEE000000000000DE
:10169000000000003F757F1F7F3F00002C6E7E6EB4
:1016A0007E6E7E6E6E423C665A663C000000000014
:1016B00000000000000000000000003C665A663C8C
:1016C000426E6E7E6E7E6E7E6E2C0000000000000C
:1016D0000000000000000000000000FFFFFF00000D
:1016E00000007F000000F70000FF00FFFFFF000088
:1016F00000007F000000F70000FF000000E0E0E0D5
:1017000000F8F8F800FEFEFEFE000000007F1F1F3C
:10171000001F0707000701017F000000FF00EFEF37
:1017200000FEFEFE00FFFF00FFFFFF00FF00EFEFE7
:1017300000FEFEFE00FFFF00FFFFFF002042C48B03
:1017400097172F2F2F1F5F5F1F2F2F0000040913E4
:1017500017272F2F2F1F5F5F1F2F2F2F0F07C3D389
:10176000D9D9D9D9D9D9D3C3070F2F130000363609
:1017700036363630242620220000132F2F1F5F5FBD
:101780001F2F2F2F17978BC44220002F2F1F5F5F13
:101790001F2F2F2F271713090400002022020200F9
:1017A000000020202202020000002020220202006D
:1017B000000020202202020000002020000202027D
:1017C000002020200002020200202020000202024D
:1017D000002020200002020200202000000002025F
:1017E000222020000000020222202000000002022D
:1017F000222020000000020222202000FCFEFEA881
:10180000FEFC0000FCFEFEA8FEFC000077DBABA89F
:10181000DB77000077DBABA8DB770000FCFEFEA8DF
:10182000FEFC0000000000000000000077DBABA819
:10183000DB77000000000000000000000000000056
:1018400000000000FCAEFEF8FEFC000000000000FE
:101850000000000077D8ABABDB7700000000000091
:101860000000000000000000000000002C6E7E7AE6
:101870007E7A7E7A7A423C665A663C00000000001E
:1018800000000000000000000000003C665A663CBA
:10189000427A7A7E7A7E7A7E6E2C00FFFFFF00000D
:1018A0000000FF0080C0CFD0D8DB1AFFFFFFE0E0D0
:1018B000E8ECECEDEDEDEDEDEDEDECDADADAC2DAD7
:1018C000DADA1ADADADAC2DADADA1AEDEDEDEDEDB1
:1018D000EDEDECEDEDEDEDEDEDEDECDADBD8D7CFA8
:1018E000C0BE7EFE00FFFF00FFFFFFEDEDEDEDED62
:1018F000EDEDEDECECEBE7E0FFFFFF180502030078
:10190000414041404140010203041900E0ECEDED8B
:10191000EDEDEDEDEDEDEDEDECE000180502233021
:101920003130313031303132230419000022333369
:101930003333333333333333332200051111050589
:101940000511050511114555550000000000000066
:10195000000000000000D3DBDB0000F0F8FC1E0FED
:101960000707070707070707070F007F7F7F0000AC
:101970000000000100000000000000070707070743
:101980000707070707070707070F00000000000009
:101990000000000000000000000000070707070724
:1019A00007070707070F1EFCF8F000000000000003
:1019B000000200000000007F7F7F00C0F0781CCE96
:1019C00066570B0B0B0B0B0B8B0B13FFE3001F600E
:1019D00080000000070E0007030000130B0B0B0B29
:1019E0000B0B13130B0B0B0B0B0B13000000000066
:1019F0000000000000000000000000130B0B0B0BA8
:101A00000B0B0B0B5766CE1C78F0C00000000000DB
:101A1000000000000080600F00E3FFF0F8FC9E0F64
:101A200007070F07030F870F070F007F7F7F220035
:101A30000000070E000713281000000F070F070F04
:101A400007030F070F03070F070F000000000C002C
:101A500006000000000040000000000F03070F0711
:101A60000F070F07830F070F070F00000000020585
:101A700002000000010083000000000FE7CF038791
:101A8000CF070F03070F1EFCF8F000000001000352
:101A90001128100000000A7F7F7F00C060A0107036
:101AA000B8087CB4FE060202020202FF77BB007790
:101AB000BB0077BBFF000000000000020202020230
:101AC0000202020202020202020202000000000000
:101AD00000000000000000000000000202020202FC
:101AE00006FA0404080810102020C00000000000BE
:101AF00000FF0000000000000000FF0000555545F9
:101B000011110505110505051111050000DBDBD3D9
:101B10000000000000000000000000FFFFFF0000C8
:101B200000000000000000000000007F7F7F000038
:101B3000000000000000000000000000E0F018AC11
:101B4000E622E242A2E46810E00000000000010288
:101B5000046868080804020100000000000000009A
:101B600000000000000000FFFFFF00000000000078
:101B7000000000000000007FFF7F00FF87003CC2E4
:101B80000100000000000000000000FFC1001F6015
:101B9000800000000000000000000008F80C6664EF
:101BA0000C8C8683868C64660C78880916605FBF0F
:101BB00080A4A4A4A4A4BFDF203708000000000074
:101BC000000000000001C23C0087FF000000000090
:101BD000000000000080601F00C1FFFFFFFF140035
:101BE00000000018003000000000007F7F7F12001E
:101BF00000000000100000000200000000000000D3
:101C00000000C0E0F0E0D8BCBC7A72000000C09CCC
:101C10007EFFFEFDFBF3F1F3E7EFEF7A3C3C9880AB
:101C2000C0F0E04000000000000000CFCFC7E3E0BC
:101C300071F9F8FC7E3E0CC000000000000000803E
:101C400000000800000084FFFFFF0000000000010A
:101C5000000300000000227F7F7F00FF77BB00773A
:101C6000BB00F7FBFFE0C0C040C0C03F777B7C6F8C
:101C70000F6F636D0C6D616D0C6D61C040C0C0C0B5
:101C800040C0C0C040C0C0C040C0C06D0C6D616DE0
:101C90000C6D616D0C6D616D0C6D61C040C0C0C09C
:101CA00060FFC080000000000000FF6D0C6D616DE2
:101CB0000C6D616D0D6E646810603F0511050505C2
:101CC0001111050511050505111105000000000899
:101CD000080A020208080800000000FFFFFF0000D9
:101CE00000000000000010000000000F1F3F7E7C7D
:101CF0007C1C1C1C1C1C1C1C1C7C0000000000000C
:101D000000000000000000000000001C1C1C1C1C47
:101D10001C1C1C1C1C1C1C1C1C7C0000000000004B
:101D200000004000000000FFFFFF001C1C1C1C1CEA
:101D30001C1C1C1C1C1C1E0F070300FF87003CC240
:101D40002100000000000000000000030F1E3061B1
:101D500042E4C4C2C990909090C8C4000000000042
:101D60000000000000000000000000C4C890909037
:101D7000C8C89090C8C8D09090C8C400001C380053
:101D80001C0E00000021C23C0087FFC4C890909048
:101D900090C9C6C4E44261301E0F03FFFFFF140068
:101DA00000800000001000000000007F7F7F2900FD
:101DB0000001000300000000000000000000030F0D
:101DC0001F3E3D3978F9F3F7EFEFEF000000000018
:101DD000000000003EA0A1A1A3ABABCFC7C7E3E1C9
:101DE000F00818383C1E0F03000000A3A3A3A1A114
:101DF000A0380000000000000000000000180030C3
:101E000000000000800014FFFFFF00000000102809
:101E1000100000000000247F7F7F000000B6B6B4F1
:101E200000FC2424FC2424FC002AAA00606D6160CC
:101E3000636363636363636363686AAA0222FA008D
:101E4000FCFC00FCFC00F8F20202AA6A0008320264
:101E5000323202323002303200086AAAAAA8AA8AB4
:101E6000AAAAAAAAA2AAAA28AAAAAA6A6A6A6A6A9C
:101E70006A686A6A6A6A6A6A6A6A62AA2A00FC24EA
:101E800024FC2424FC00B4B6B600006A68636363D3
:101E900063636363636360616D6000FFFFFFFFFF67
:101EA000FFFFFFFFFFFFFFFFFFFFFFFFFFFFFFFF42
:101EB000FFFFFFFFFFFFFFFFFFFFFFFFFFFFFFFF32
:101EC000FFFFFFFFFFFFFFFFFFFFFFFFFFFFFFFF22
:101ED000FFFFFFFFFFFFFFFFFFFFFFFFFFFFFFFF12
:101EE000FFFFFFFFFFFFFFFFFFFFFFFFFFFFFFFF02
:101EF000FFFFFFFFFFFFFFFFFFFFFFFFFFFFFFFFF2
:101F0000FFFFFFFFFFFFFFFFFFFFFFFFFFFFFFFFE1
:101F1000FFFFFFFFFFFFFFFFFFFFFFFFFFFFFFFFD1
:101F2000FFFFFFFFFFFFFFFFFFFFFFFFFFFFFFFFC1
:101F3000FFFFFFFFFFFFFFFFFFFFFFFFFFFFFFFFB1
:101F4000FFFFFFFFFFFFFFFFFFFFFFFFFFFFFFFFA1
:101F5000FFFFFFFFFFFFFFFFFFFFFFFFFFFF50003F
:101F600000002000040A04000000000F1F3F7E7CD8
:101F70007C1C1E1C1F1C1E1C1E1C000000000200DE
:101F80000018000C000000400000001C1C1E1C1F5C
:101F90001C1E1C1C1C1C1E1C1C7C00002050200035
:101FA00000800000180030000000001C1C1C1E1CDB
:101FB0001C1C1C1E1C1E1C1C1E7C00000030006013
:101FC00000040A04000000FFFFFF001C1E1C1C1C74
:101FD0001C1E1C1F1C1C1E0F070300FFFFFFFFFF22
:101FE000FFFFFFFFFFFFFFFFFFFFFFFFFFFFFFFF01
:101FF000FFFFFFFFFFFFFFFFFFFFFFFFFFFFFFFFF1
:10200000FFFFFFFFFFFFFFFFFFFFFFFFFFFFFFFFE0
:10201000FFFFFFFFFFFFFFFFFFFFFFFFFFFFFFFFD0
:10202000FFFFFFFFFFFFFFFFFFFFFFFFFFFFFFFFC0
:10203000FFFFFFFFFFFFFFFFFFFFFFFFFFFFFFFFB0
:10204000FFFFFFFFFFFFFFFFFFFFFFFFFFFFFFFFA0
:10205000FFFFFFFFFFFFFFFFFFFFFF10100000006B
:10206000C088D44A8A8A4AD408C000000000000010
:10207000180D434A0B0B4A430D18000000000000E6
:102080008010A894141494A8108000000000000090
:10209000011B171407175447030900000000000034
:1020A000C098AC36B6B636AC18C0000000000000D0
:1020B000180D434A0B0B4A430D18000000000000A6
:1020C0008010A894141494A8108000000000000050
:1020D00009034744070714171B010000000000F024
:1020E000F8FCFEFFFFFFFFFEFCF8F0000000001808
:1020F0003D7FFFFFFFFFFFFF7F3D1800000000E076
:10210000F0F8FCFEFEFEFEFCF8F0E000000000012E
:102110001F7F7F7F7FFFFFFFFF1F1900000000F080
:10212000F8FCFEFFFFFFFFFEFCF8F00000000018C7
:102130003D7FFFFFFFFFFFFF7F3D1800000000E035
:10214000F0F8FCFEFEFEFEF8F8F0E00000000019DA
:102150001FFFFFFFFF7F7F7F7F1F01000010100028
:102160000000C0983C7E5E5E7E3C98C0000000008F
:102170000000180C414A0A0A4A410C1800000000ED
:102180000000803078FCBCBCFC783080000000008F
:10219000000001391204141464620D0900000000EB
:1021A0000000C0983C7E5E5E7E3C98C0000000004F
:1021B0000000180C414A0A0A4A410C1800000000AD
:1021C0000000803078FCBCBCFC783080000000004F
:1021D00000000909626414140412390100000000AF
:1021E00000C0F8FCFEFFFFFFFFFEFEFE0E00000039
:1021F00000000101F9FFFFFFFFF3010000000000F4
:1022000000C0F8FCFEFFFFFFFEFCFCFE2600000005
:1022100000000161FBFFFFFFFFFF733100000000C2
:1022200000C0F8FCFEFFFFFFFFFEFCFC2C000000DE
:1022300000000101FBFFFFFFFFF3010000000000B1
:1022400000C0F8FCFEFFFFFFFEFCFCFC6C00000081
:10225000000001FBFFFFFFFFFFFF733100000010D4
:10226000100000000018DCDE96EAEA94E4040000A6
:10227000000000000000004059594101000000002A
:10228000000000000018DCDE16D6D428C8040000C8
:102290000000000000006049030B5B5321000000B8
:1022A000000000000018DCDE96D6EA88E80800008E
:1022B00000000000000000405959410100000000EA
:1022C000000000000018DCDE16D6D428C808000084
:1022D00000000000000058590B034B432100000090
:1022E0000000000EFEFEFEFFFFFFFFFEFCF8C00038
:1022F000000000000001F3FFFFFFFFF901010000F3
:1023000000000026FEFCFCFEFFFFFFFEFCF8C00004
:10231000000000003173FFFFFFFFFFFB61010000C1
:102320000000002CFCFCFEFFFFFFFFFEFCF8C000DD
:10233000000000000001F3FFFFFFFFFB01010000B0
:102340000000006CFCFCFCFEFFFFFFFEFCF8C00080
:10235000000000003173FFFFFFFFFFFFFB010000E3
:1023600000101000000004E494EAEA96DEDC180095
:102370000000000000000000014159594000000029
:1023800000000000000004C828D4D616DEDC1800C7
:102390000000000000000021535B0B0349600000B7
:1023A00000000000000008E888EAD696DEDC18008D
:1023B00000000000000000000141595940000000E9
:1023C00000000000000008C828D4D616DEDC180083
:1023D0000000000000000021434B030B595800008F
:1023E000000000080B0002020200000904000001C6
:1023F000020200000524001001052401010104244B
:1024000002060524060001070581031000400904A7
:102410000100020A00000007050202400000070553
:1024200083024000000403090412010002EF0201CC
:102430004041233680000101020301417264756945
:102440006E6F204C4C430041726475626F790008D6
:1024500008000000007F7F3E3E1C1C0808000000B2
:1024600000381CFF0101010101010101010101010D
:10247000010101010101010101010101010101014C
:10248000010101010101010101010101010101013C
:1024900001010101010101010101FFFF0000000034
:1024A000000000000000000000000000000000002C
:1024B000000000000000000000000000000000001C
:1024C000000000000000000000000000000000000C
:1024D0000000FFFF000000000000000000000000FE
:1024E00000000000000000000000000000000000EC
:1024F00000000000000000000000000000000000DC
:1025000000000000000000000000FF0F080808089D
:10251000080808080808080808080808080808083B
:10252000080808080808080808080808080808082B
:10253000080808080808080808080808080808081B
:1025400008080F202000000000DCF2E1E1C1810258
:1025500002040808048060F8F4FAE868D870703063
:1025600000000000000080F87F1F3FFFFFFFFFFF1B
:10257000FEFE1EAF16E4F275F3FB6573DAC9800048
:1025800000000000000E01F80C06070601071F3FBF
:1025900007FFFC3A34DBD7F7120F1F332A17070760
:1025A0000300000000000000000000000000000028
:1025B0000020331F0000010303060C380000000058
:1025C00000000000000000C0E038C4FCECE87CFC27
:1025D0003C7C1EBE4EDC3800060577EB8F0A0400FB
:1025E00060B0B070E0000F7FFB9E73EDEDDE80E128
:1025F00000801F2010B87CFE0EF3FDFFFFFFFEFEE3
:102600007FFBF0E18100008080C1772E0D5DFDBB76
:10261000B7777637FADD3EFF702F1F3F7F7FFFF3DE
:102620008C7FFFFF7F000609420040202070793D2B
:102630000F07234048574E4060603030181C8E4DC5
:10264000E3FF7CF10000000985CF42212111110E2A
:1026500000008040B8C0E0E0C0A040C08000040896
:102660001030E0C000007CFFE3C0C0E0F0F8FCF2F6
:10267000CCBFBFB87777776B9BFDFDDC1D8D18D481
:10268000EC1E0F070000000103073FF1CFB761C345
:10269000E3EFFFFFF9F7EFDFB2AA66FDF3CFFF4FDD
:1026A00031E0C6040000060F0700303003074D8AF2
:1026B0001A95157565E5C31B270F1C306060E0C0D7
:1026C000000C4F060000C0F0FCFEFEFFFFFFFF1FE6
:1026D000E3FD9EEE3EDE7EBCFCF890E09050B00044
:1026E000C0400000000081FFF8671FBF7F7F7FFEB2
:1026F000F1EF9F7FFEFFFEEF5FDFBF7FFFE7FFFE93
:102700000000000000001F7FC1003FFF01708F002C
:10271000C6FE3EC0FF3F0F30FFFFC38080C7E331DE
:1027200018884810E0000000314F000807001C2303
:10273000494020030F1C30206041414129241800EA
:10274000000102020100000000C0F00CC26110088C
:10275000040200000001010101020204186080026D
:10276000020418E0000000F8FF7FBFA761A0A0B03E
:10277000B8F8F86C94F8ACFC5CFCE8F8F078FFF082
:102780006020180700000E7FFAE5DAB7BF7F7F7F71
:10279000BFBFDFFEF97736050703030303060F0308
:1027A0000100000000000000000001834FF14343DE
:1027B00083030529102060002000000000000000B5
:1027C00000000000000000E0789CEEFEFEFEFEFC33
:1027D000FCFCF8F870E0C088040804080488209025
:1027E0002090201020000F7FF0FFFFCFF79F6FAFEA
:1027F000AFDFBF7FFFFCE33F9EA800C0E1F0F9B868
:1028000079B0E1C0001088D0C993070F8FDFDDFADF
:10281000DA7ABADB5D5FDFBF72ACDFFFFFDFEAA011
:10282000A044820100153F7F3C785E793E3F7F7F68
:102830003C7F172F577F7E394F300F336973656B9D
:102840007F3F380F0000000000000000000000C0C3
:10285000E0D028ECFC8E0E1E3E6A9EFABA741C086C
:10286000F000000000000000B870E0C00070FE85BD
:10287000FFFFF8E0C1830306060603030302BEC799
:102880000300000000804060EF40BCBEDDDA36F699
:10289000CEAE6DEBC73FC1CFFDFDF1FF85FFFFF071
:1028A000C89CA27D000707133C1F2E313D1E1F2030
:1028B0004FEFF6F9FBFCFDFA768ECEDEDD536D1A96
:1028C0001A1616160C0000000080E0703038188CC4
:1028D0000C0E8E8E8682A62606060E0E1E141C3840
:1028E000306080000080F8DC1F0300000C1E0280B6
:1028F000DCE07F071F7FCF9FBCFAF8FEBE9E48FC3E
:10290000700204BFFC1F70834080000000E0FEFFE7
:102910000701000000000001030301010381401FC3
:102920000004000301000001070E383850717D5B80
:102930006F6E6C5C1C1818080C0408040200000080
:1029400000000000000000F0FCFEFECF37F7EEDED6
:10295000BE7CFCF8F0E0C0000080708C621985C27B
:10296000C2E0E0E0C0000001070F0F1E1D9AD5EB8A
:102970006B3776F5F3F77F9FEC33C8FDDECFD75B7F
:10298000AD56281F070000000080808040474F8E12
:102990009C5858390F87423D7E6763713F0D010196
:1029A000000000000000020101E01804020101C063
:1029B000300C02710E010000000000000000000059
:1029C0000000000000000083C7FEFC38000000008B
:1029D0000080C04080F0088498E0C0C0C0C0C02023
:1029E00020A06000000000071F3FDCF8F0F0C0BC32
:1029F00076ADB1CA9F3FFFBFD7F7F56878BA68F5E3
:102A000076B9C000000000000087FFFFFF3F7FFF96
:102A1000F8F7F5F6C7B9AEB5BD437B4BBB3B051E1A
:102A2000131E0D00000000701E0703011E27030087
:102A300000010101071F7FC380000101010B0E008F
:102A4000000000000000000000082000008280E07C
:102A500038FC7E3E7E1EFE7EBCFCF0E0E0E4C0C0A2
:102A600080000040000080C0E1B8FC2E9F1F3F8F17
:102A7000E3F8FEFCF09E64F8FBC1E7E3C7BF03CFB9
:102A80001F0600800016FB87E1F89970FFFFFC2706
:102A9000F8FFFFFFFFCF37EEF71FFFFEFDFFFE0F32
:102AA00080808440207C7F7F7F5F0700213E3ECE78
:102AB000F1FFFFFFFF8F2060C1C3E6756D2B4B68F0
:102AC000080404420041838EF6F8FC7C7CBCB8D834
:102AD000D8DCE6C1C0E07098040000000080C0F0BF
:102AE0001C000000000000C0F3FDFF7FBFDFDF6FB0
:102AF0006F77F7F7FFFFFAFBFBFAF8FAF7372FC00B
:102B00000080808040040405EF737F7F3FBFBF3C9F
:102B100018FA188FCFE7F7F7F3F33337F7E54CBF21
:102B20000F7801000000503C3E0639DE6F1F3F1F4A
:102B30004040163F3F7F7E7C3D3B7F7F7FFCDEAB8E
:102B4000E06307061019C53B06021B1719482C94B1
:102B500018545454B4246DC912C0E0C000C0781C8D
:102B600038E0000000000000C070180C0C06A692AF
:102B7000DBDBDBD6C6C68CD8870001070701004027
:102B800020D83F1CE000000087F8F000FC860626F5
:102B9000460DF30FFFFFFF83FC87A3927C003030CC
:102BA0003021E0600100303E3763616120B593530E
:102BB000333767A7A52F4F4D470301022030100878
:102BC0003C07784000000000060F35B5EBDBF77DD1
:102BD000FA0EF29CE6FAFFFF9F6F6F9FFEFE7C3CB1
:102BE000F8000000000C0F8FCE48E0EF6BF776BDC9
:102BF000DFFCF7DAAFDFBFBFDFEFFFF3F163201CCD
:102C000001C0E0E08080C0C3C6CB8D0E33FCFFFF67
:102C1000FF875BE1FEE2C08006CE6CB0D8DCEC2919
:102C20000181810101202020202020A020A081837B
:102C3000838786858B079FBFB7070D1A3A3776685B
:102C4000298181818100000038444040C08080009B
:102C500000000000000000F806F9FDFAF20CFAF797
:102C6000CE3CF8C0000000C0E0B0F0503030391F5A
:102C70000E0000008080FF80BFC7FB7DFEFFEF7766
:102C80009B7D8DFD06000F3F7E3DDCEC6CECDCBED9
:102C9000E6E6FFF3F33FDFEFEC7CBFCFFEFDFD7315
:102CA0009F0E03000030083C4E1723010203010071
:102CB00001014123F01F7F91102000030703000052
:102CC00001030501020000000E1E9FBFA36B637E7F
:102CD0007EFCFC78766F53333EC0E070B8BEDBD923
:102CE000B9B4D2A2020000001E232B231FCFF7FB92
:102CF000FDFEFE33FDFFFFFF78E75F3CBB635E3602
:102D00002F6F6E2E0DFC021925221C00FEFFBFBF87
:102D1000DFDFEFEEE9E7CF3FFEC1800F3FFCC08071
:102D20000000000000030E3830606060713F1F0F2C
:102D3000CFE7FBDFAFB7A926A187FFFEF00043472F
:102D40007F7C00000000000040E0F0A8FC7CF8F66A
:102D5000F6F37171381C0C06010000007CE0801055
:102D600020E0C0800000000003041B3BBD79B1C01F
:102D7000D828F4F4F4C4DCECECC8106000073F7E03
:102D8000F870F779DE0000C010985C4C03673A1ABF
:102D9000263F3F3F3FBF7FBF9FCFD7189A21C30237
:102DA00001030303012018010600102000031C404A
:102DB000800000000000210E00000001611B0204E1
:102DC00018C00000000000F0E818B0E040B8DEDBFA
:102DD000E2EC30D4FF71F6F8F0E2E6EACAB6FC980D
:102DE000583CEE860218CCF1F5FAFBFAF7EFDFB7A4
:102DF0006F807F43ADEE37E3C7010E3F438731C19C
:102E00000103030300FEFFFFFFF7371717170F1F1C
:102E10003C63CFE73318EDF63A1B038680C0C080D1
:102E20000000000000030F1F3F3F7E7870F0E0E0DD
:102E3000E0C0C1C0C0CCCFC54643612130100804FA
:102E4000000000000000202042C286048CD8F06000
:102E5000D0D8B07660C04000C1E6F8F0D0E0F1FE16
:102E6000F0C0A01800001010202061C3FF7FE79E73
:102E700079E79F7FF3CEBFFFFFEF030407070C1A2C
:102E800079FFC3000000100808044420270E7DFBD2
:102E9000DFDF6F0F03011F31000003041800000083
:102EA00000011F1C103C7EE6D6DCC0E161737C3F54
:102EB0001E0E0300000000000000000000000000E3
:102EC0000000000000000000000001414286848CE8
:102ED0001428C88808101020C1820EFCF8F0C00029
:102EE00000408000004060A1E1F1EAFADADEBE7D38
:102EF000FF3FCEFFFFFEFCFCF89F3EFDFBE73F1EC1
:102F00000000011EE0FCFEFFFBE71F3F7F7F7FC04C
:102F1000CF80BF03534D808001030307070F0C00D0
:102F20000000807807030F1F3F3F7F7C78F0F0E0C0
:102F3000E0E1E3C7C0C0C0C3CFE0606060303018DC
:102F40000C06010000000000000002060E0E1A121E
:102F50001224244444488891234EBC7800081C085D
:102F600000004287420000000000E01008080888C6
:102F7000D0E0F0F038D86CFEFFDEBF393B1E7E1C7F
:102F80000080611801C020100834D867D8A04081A3
:102F9000070F1F3F3E7977380F11E20F1C30601882
:102FA0000601040E04010608102040418385874A6B
:102FB0002D150A02040404040402010000000000AC
:102FC00000000000004018F174C082047C98322098
:102FD000A412D088D1AEC6AC48A8D4478C10503CBF
:102FE000F000000000041081F6F8FC79FFFCFEFF01
:102FF000CABF7FFFF7CF7F1F0F0F77FFFF95F41B2F
:10300000141010101000A0FFCF3F3F7E7DFBC7378C
:10301000F70B0007070F18F3022438008707070093
:103020007050680000070F0F1FB8700000000F38C5
:10303000310101E7A6D001010000070576506800C4
:103040000018141A0000C0F0F838ECFCFE3ECEF771
:1030500033DBE9E8D080ACF9FEDC3ABC78800000D4
:1030600000000000007ECB3FFFE11FBF7FF08D7BA3
:10307000F7AE6DADEA49B279BC7BE7C6CEC3EEE0F0
:10308000C00000000000038C814346C1E7DEB5BEEE
:10309000FB9D1B2D337C0F7BF70BFEDDEE3D5BB7FD
:1030A000FB977CF08000070506738D723D1E0306BA
:1030B0000E0D1B367C00000001000003070C000110
:1030C00003070C1001F008003CFE7E9EEEF4F4783D
:1030D000B0A0DC801EFBDBD6B8C000000000070CEF
:1030E00038F0F0380F619688101122272F899EDF63
:1030F000DFEFEFEF9660BBBB75FD7EAC52DEDCE828
:10310000F03F0F000000000001C179BE5F3BDD6FA2
:10311000AEDBE5D6AC639F3F3F1B263936174B5DD0
:103120008E000000008040300C028160190E0142C8
:1031300023131309060000070C1020004080000034
:103140000003061020F80414024A02E2FAFEF6FA1E
:10315000FBBB3F7BFF061E7CF830E08000C0F038F0
:103160000C04020202010E304081000D7BEAF7F7E9
:10317000F7F7F8C001F608060001010100071F3C3F
:10318000F0E0C0000000C0E0E0F071B2D4E167EF11
:10319000DF3FFFFFFFFEFCD874CC3CBC78F8B0C02A
:1031A00000C77DFFFC0F1F1E3F310E3F7F7F7FFE5C
:1031B000FED9F7EFEBDF5F5F184F706F3F3C1F07E3
:1031C000080F070700000080C000000010A07AC4AC
:1031D000ECF87DBF5A1F1BF63CFE701800040CF87B
:1031E00030C0800000F80FE758A040C28EB5844C74
:1031F0006F7FFCFBF4E89069DB2BD0D0B0D8E67988
:10320000BAC6F986F8030C3F620D1B26440A1E332A
:1032100023430203CFFFFFFEF10FFC00100C071148
:103220000C0300211F003C4242819DA222414D52CD
:103230005294AEAFAFAFAFA78857524D4122A29D77
:103240008142423C000000000080E0781E07000040
:10325000000000000000008082446877F03E10000B
:103260000000000000C8D0B83E6701C020100884EC
:10327000442422129149A9D80CE41EE0011EE0006A
:10328000000000000000010100003FC000F80780BE
:10329000609866190601F00FF00F80F1184C860651
:1032A00006864C1CF0000000202020119297944BC1
:1032B0004C2F1C181C1B141310001F7160CCC8CCA1
:1032C000C864301E031010FC02010101010101015C
:1032D00001010101010101FF0000000000000000E8
:1032E00000000000000000010101010101010101D5
:1032F000010101010102FC000000000000000000CB
:10330000000000000000FFFF0000000000000000BF
:10331000000000000000003F4080808080808080AE
:10332000808080808080800000000000000000001D
:10333000000000000000FF8080808080808080800E
:103340008080808080403F0000000000000000007E
:1033500000000000000000808080808080808080ED
:1033600080808080808080010101010101010101D4
:103370000101010101010100000000000000000046
:103380000000000000000000912711241FBECFEFB5
:10339000DAE0DEBFCDBF12E0A0E0B1E0E4EFF9E695
:1033A00002C005900D92AE36B107D9F729E0AEE61E
:1033B000B2E001C01D92AE34B207E1F719E1C5ECED
:1033C000D9E104C02197FE010E94F234C43CD10728
:1033D000C9F70E948F280C94F8340C940000EDEA91
:1033E000F2E0A0E0B8E000800EBC8111012C119742
:1033F000A0FDFDCF0192B9F70DB408952F923F9231
:103400004F925F926F927F928F929F92AF92BF92F4
:10341000CF92DF92EF92FF920F931F93CF93DF93A0
:1034200000D01F92CDB7DEB740E250E038E0B32EB7
:1034300060E8A62EBA0183E0759567958A95E1F755
:103440006983FB2CF61AE62ECB019695982F8827D8
:103450009795879530E020E04A83DC01A355BD4F66
:103460004D01022F211109C0BA81B032C1F084E0B0
:10347000B03371F4A2E0AB8313C0203759F4AA81B2
:10348000A03209F479C0B4E0A03309F076C083E03B
:103490008B8306C085E04032D9F3A4E0ECCF1B82D9
:1034A000E5ECF2E31491E6ECF2E3D490E12FF0E0E6
:1034B000CB8087EC92E3CC20E1F081E090E0AD2D71
:1034C000A77011F490E080E0AD2DA695A695A69585
:1034D0008A0F911D8E9FD0018F9FB00D9E9FB00DC2
:1034E0001124CB80CA9EC001CB9E900D112489531C
:1034F0009D4CE20FF31F309709F447C0009709F481
:1035000044C06A2C601AE038F1050CF4612EF1E039
:10351000ED2DE77009F4F0E0D694D694D6947F2E82
:103520007D0CFB01E70DF11D39970CF07F2CE12F8D
:10353000E6198401020F131F5E2CA62DAE0FBB27C8
:10354000BB1F6D01E52DB981EB1BE715F0F4B0E071
:10355000A0E0A615A0F4FC01EA0FFB1F44903490F4
:1035600057FC08C0F801EA0FFB1F2080309432207E
:10357000432840821196EDCFB1E0BB8391CF8C0DF3
:103580009D1D00581F4F5394DDCF205F3F4F2038C3
:10359000310509F066CF405F5F4F4034510509F0B7
:1035A00049CF0F900F900F90DF91CF911F910F9106
:1035B000FF90EF90DF90CF90BF90AF909F908F9053
:1035C0007F906F905F904F903F902F90089524E1EF
:1035D000269FF001279FF00D11248E0F9F1F880F4B
:1035E000991FE0911C09F0911D09E80FF91F8591C1
:1035F00094910895FC018091A502882311F13FB7B1
:10360000F89482E08093E9002091F200822F90E00C
:103610001816190614F481E090E0882339F02898F0
:1036200044E64093A4024091F1004083222339F004
:103630002091F200211103C02BE62093E8003FBF48
:1036400008958FEF9FEF08952FB7F89483E080934C
:10365000E9009091E800892F807295FF04C0909155
:10366000F20080E4891B2FBF089580919C02811194
:103670000DC082E08093980284E0809399021092BA
:103680009B0210929A0281E080939C0288E992E06A
:103690000895CF93DF931F92CDB7DEB76983DC0126
:1036A000ED91FC910280F381E02D41E050E0BE01FC
:1036B0006F5F7F4F09950F90DF91CF91089583E061
:1036C0008093E9008091F200882319F08AE38093C7
:1036D000E80008950E94241B90E00895CF93DF93A3
:1036E0001F92CDB7DEB7FC018485958597FD08C094
:1036F0002FEF3FEF358724870F90DF91CF9108950B
:10370000CE0101960E94FA1A019719F4898190E07E
:10371000F3CF8FEF9FEFF0CF0F931F93CF93DF93F4
:103720001F92CDB7DEB78C01FC018485958597FF8C
:103730000BC0CE0101960E94FA1A019771F489819B
:1037400090E0F80195878487F801848595850F902E
:10375000DF91CF911F910F9108958FEF9FEFF1CFE0
:10376000FC018485958597FD0BC09FB7F89482E096
:103770008093E9008091F2009FBF90E00196089548
:103780009FB7F89482E08093E9008091F2009FBF98
:1037900090E00895409192025091930220919002FE
:1037A0003091910242175307B4F49091E80095705C
:1037B000E1F39091E80092FD19C08093F1008091AF
:1037C00092029091930201968F739927892B19F495
:1037D0008EEF8093E800809192029091930201967F
:1037E000909393028093920281E0089580E008957F
:1037F000DF92EF92FF920F931F93CF93DF93D82E18
:103800008A01EB017B01E40EF51ECE15DF0559F0B0
:10381000D7FE12C0FE0184910E94CA1B219681111D
:10382000F4CF0FEF1FEFC801DF91CF911F910F91E0
:10383000FF90EF90DF9008958881EECF0F931F9354
:10384000CF93DF931F92CDB7DEB782E0898342E446
:1038500050E063EE73E280E80E94F81B0E94351B83
:10386000DC0112960D911C910115110589F0D8010A
:10387000ED91FC910280F381E02DBE016F5F7F4FDF
:10388000C801099597FD04C0F80100851185ECCFAA
:1038900089810F90DF91CF911F910F910895615011
:1038A00030F02091F100FC0120830196F8CF289898
:1038B00084E68093A4020895AF92BF92CF92DF92E4
:1038C000EF92FF920F931F93CF93DF936C017B01D5
:1038D0008B01040F151FEB015E01AE18BF08C01766
:1038E000D10759F06991D601ED91FC910190F081D9
:1038F000E02DC6010995892B79F7C501DF91CF919C
:103900001F910F91FF90EF90DF90CF90BF90AF90FD
:103910000895FC010E94201D319728F068517C4FCA
:103920008F4F9F4FF9CFAB01FC010E94201D641700
:1039300075078E079F07C8F308958F929F92AF92E5
:10394000BF92CF92DF92EF92FF920F931F93CF938C
:10395000DF936C017B018A0180910D01882309F4BA
:103960005AC08091A502882309F455C0809197021E
:1039700080FF05C08091E00082608093E000E80154
:10398000B12C8AEFA82E93E0892E2AE3922E20975D
:1039900011F4BB20C9F10E94241B811108C0AA9414
:1039A000AA20C9F181E090E00E94891CF0CF8C1719
:1039B0001D0611F00CF08C2F9FB7F8948092E9004F
:1039C0002091E80025FD02C09FBFE1CF282F30E005
:1039D000C21BD30BF701815020F041914093F100BD
:1039E000FACFE20EF31EBB2021F09092E800B12C3A
:1039F000EBCF8091E80085FDE7CF9092E800BB24F3
:103A0000B394209709F3F3CF5D9884E680939602F0
:103A1000101611063CF081E090E0F601938382835A
:103A200010E000E0C801DF91CF911F910F91FF904E
:103A3000EF90DF90CF90BF90AF909F908F900895C0
:103A4000A0E8B2E02FB7F8947D918D919C9166B576
:103A50002FBFA89B05C06F3F18F47F5F8F4F9F4F0C
:103A600022E0660F771F881F991F2A95D1F70895C6
:103A70004F925F926F927F928F929F92AF92BF927E
:103A8000CF92DF92EF92FF920F931F93CF93DF932A
:103A90004C015901FC2DC02FD0E0CE01880D991D9D
:103AA000181619060CF06CC020E8821691040CF070
:103AB00067C09B012E0D311D121613060CF060C05D
:103AC000603471050CF05CC04115510509F458C013
:103AD000E62FE770FE2EDB0177FD179633E0B595F4
:103AE000A7953A95E1F73A2F77FF04C0FF2011F030
:103AF0003FEF3A0F662777276819790997FC02C0CC
:103B000070E060E0803891050CF44BC090E89819A3
:103B1000961BA32F032E000CBB0B1A2F10953F3FB3
:103B20000CF010E021E08E2D877009F420E0E6947F
:103B3000E694E694E20EAE0DB11D19971CF028E054
:103B4000E22EE31AE11A310F20E83203D0011124EA
:103B5000A80DB91DA60FB71F019F600D711D11247F
:103B6000460F571F0F2D0F2C000C110BF33009F4CB
:103B70001CC1C8F4F13009F4D0C0F23009F47CC0A3
:103B8000DF91CF911F910F91FF90EF90DF90CF9039
:103B9000BF90AF909F908F907F906F905F904F906D
:103BA0000895902FB5CFFA3FB1F1232F2E0DFB3F93
:103BB00039F7321729F3BD0163557D4FD12CC12C44
:103BC000C91608F0A4C0FA01EC0DFD1DE491F0E067
:103BD0004F01002E02C0880C991C0A94E2F737FDB1
:103BE00006C0FB018081E82CE0948E218083FF20B9
:103BF00061F0373054F45B01F0E8AF0EB11CE92CF2
:103C0000E094F50180818E218083FFEFCF1ADF0AD7
:103C10006F5F7F4FD5CF232F2E0D321709F4B0CF12
:103C2000BD0163557D4FD12CC12CC91608F069C068
:103C3000FA01EC0DFD1DE491F0E04F01002E02C0F1
:103C4000880C991C0A94E2F737FD04C0FB018081BF
:103C500088298083FF2051F0373044F45B01F0E87D
:103C6000AF0EB11CF501808189298083FFEFCF1A47
:103C7000DF0A6F5F7F4FD9CF6FEF70E00F2C02C06C
:103C8000660F771F0A94E2F760957095772E232FC1
:103C90002E0D321709F474CFFD01E355FD4F6F016E
:103CA000B12CA12CA91638F5FA01EA0DFB1DE491FF
:103CB000F0E02F01002E02C0440C551C0A94E2F7DC
:103CC00037FD05C0F6018081862384298083FF208B
:103CD00059F037304CF44601F0E88F0E911CF40196
:103CE0008081872185298083FFEFAF1ABF0A8FEF7C
:103CF000C81AD80AD7CF3F5F4C0F5D1FA058BF4FDF
:103D0000C8CF3F5F4C0F5D1FA058BF4F86CF3F5FAE
:103D10004C0F5D1FA058BF4F4CCF6A0D7B1D232F4A
:103D20002E0D321709F42CCFFD01E355FD4F6F0125
:103D3000B12CA12CA91688F5FB01EA0DFB1D84907E
:103D4000912C002E02C0880C991C0A94E2F78094F2
:103D50009094FA01EA0DFB1D6490712C002E02C0B4
:103D6000660C771C0A94E2F737FD05C0F6018081E6
:103D7000882186298083FF2049F037303CF4F60102
:103D8000E058FF4F8081892187298083FFEFAF1A98
:103D9000BF0A8FEFC81AD80ACDCF3F5F4C0F5D1F07
:103DA0006C0F7D1FA058BF4FBCCFC92ED12CFA017C
:103DB000E60FF71FA355BD4F00E810E00C191D09D1
:103DC000CC19DD09BE01660F771F41E050E06A01A2
:103DD0000F2C01C0CC0C0A94EAF7592F2E2D792E06
:103DE000CF93DF93ED01EF96EF9622968590A59005
:103DF000FF2059F08C9C4001AC9C500137302CF4D2
:103E0000E880B094EB20E928E99233233AF0EC9073
:103E1000A094EA20E828ED920C940F1F11965A9571
:103E200029F72A9551F0572D33951124E60FF11DEE
:103E3000A00FB11DC00FD11DD9CFDF91CF9111249B
:103E40009FCECF92EF92FF920F931F93CF93DF936A
:103E5000F22E98014115510561F1FA010491319654
:103E6000E4914E5F5F4FF11002C0EE20F9F0A1E047
:103E7000B0E0FE2FF77011F4B0E0A0E0CE2FC695B1
:103E8000C695C695CA0FDB2FD11D0C9FD0010D9F83
:103E9000B00D1124F3E0CF1214C0AA0FBB1FFA9E7D
:103EA000E001FB9ED00D11244C0F5D1FEE2E0E94F1
:103EB000381DDF91CF911F910F91FF90EF90CF9020
:103EC00008952115310559F3EA9EE001EB9ED00DCE
:103ED00011242C0F3D1FE3CF90E00C94891C8FB16F
:103EE0008095807F669B88601C9B846008955C98A9
:103EF0008EBD00000DB407FEFDCF5C9A0895AF9211
:103F0000BF92CF92DF92EF92FF920F931F93CF93C6
:103F1000DF9300D01F92CDB7DEB76D3009F46AC0D1
:103F20006A3009F457C080917D0281114BC0F09036
:103F3000A602D090A702A090A802B090A90245E0E6
:103F4000649FF0011124E455FF4F950150E070E1AA
:103F500088E0E82EEF0C60E0553021F0CF010196AB
:103F60006491FC018F2D9D2D20383105D0F48034D3
:103F70009105B8F48C01462F4170C42E41E001FD3B
:103F800044E000FD440F02FD4295087F709FD00180
:103F90001124A20FA355BD4F0C90042AC0FE042685
:103FA0000C9266950196E812DFCF5F5F2F5F3F4F5F
:103FB000563009F0D0CFC50106969093A9028093A0
:103FC000A80218C08091A8029091A9028C3791058F
:103FD0000CF4ADCF1092A9021092A8028091A60213
:103FE0009091A70208969093A7028093A6026A3048
:103FF00009F09DCF81E090E00F900F900F90DF913E
:10400000CF911F910F91FF90EF90DF90CF90BF90D5
:10401000AF90089590917C02982329F490917B02AF
:10402000982381E009F480E0089580917B028093D9
:104030007C020E946F1F80937B020895CF93C82F4C
:104040000E946F1F982F9C2381E09C1380E0CF91EA
:10405000089580E00C94EF19E7E1F1E021913191AE
:104060002817390731F021E0ED35F207B9F780E084
:10407000089581E008954F925F926F927F928F92A0
:104080009F92AF92BF92CF92DF92EF92FF92CF9327
:10409000DF9300D000D01F92CDB7DEB74B015C019B
:1040A00029013A0120E030E040E051E40E944A3228
:1040B00020E030E040E850E40E94493220E030E067
:1040C00040E85DE30E94583420E030E040E05FE3E8
:1040D0000E944A320E94343369837A838B839C83A3
:1040E00020E030E040E051E4C301B2010E944A32D6
:1040F00020E030E040E850E40E94493220E030E027
:1041000040E85DE30E94583420E030E040E05FE3A7
:104110000E944A320E9434336B0120E030E040E8D4
:1041200050E4C301B2010E944A3220E030E040E88E
:104130005DE30E9458340E9434332B0120E030E0CC
:1041400040E850E4C501B4010E944A3220E030E06A
:1041500040E85DE30E9458340E9434334B01B201C1
:10416000C4010E94E71A0E942C20811121C081E025
:104170008D83B201C4010E94E71A0E942C20811194
:1041800033C081E08D838D810F900F900F900F9041
:104190000F90DF91CF91FF90EF90DF90CF90BF9085
:1041A000AF909F908F907F906F905F904F90089509
:1041B000B20189819A810E94E71A0E942C208823EB
:1041C000B1F2B601C4010E94E71A0E942C20882394
:1041D00071F2B60189819A810E94E71A0E942C200F
:1041E00091E098279D83C5CFB20189819A810E9471
:1041F000E71A0E942C20882321F2B601C4010E94F4
:10420000E71A0E942C20882309F4BBCFB6018981CC
:104210009A810E94E71A0E942C20882309F4B1CFCA
:10422000B2CF089590E080E00895FC010190002055
:10423000E9F73197AF01481B590BBC0186E499E0BF
:104240000C945C1C8F929F92AF92BF920F931F931E
:10425000CF93DF93CDB7DEB7A1970FB6F894DEBF4B
:104260000FBECDBF19A2423008F44AE08E010F5DA7
:104270001F4F842E912CB12CA12CA50194010E94DA
:104280001832E62FB901CA01EA30F4F4E05DD80132
:10429000EE938D01232B242B252B79F790E080E0E2
:1042A000109719F0CD010E941521A1960FB6F89430
:1042B000DEBF0FBECDBFDF91CF911F910F91BF9099
:1042C000AF909F908F900895E95CE1CF6F927F92BD
:1042D0008F929F92AF92BF92CF92DF92EF92FF9216
:1042E0000F931F93CF93DF938C017B010E94FE19E4
:1042F00083E090E09093A9028093A80283E290E08B
:104300009093A7028093A60210927D02E701099084
:104310000020E9F72197CE19DF097C2EB12CDD278B
:104320006624639483E0C82ED12CB71408F043C0F0
:104330008B2C912C94012C5E3F4F8C2F2C173D071A
:104340000CF4822FA82E81508B1548F0F701E80F4E
:10435000F11D90819032B9F7AA24A394A80E8E0C77
:104360009F1CF8018481BA14B8F4F40161914F01E3
:10437000882359F082E499E00E947F1F82E30E9423
:104380006C1F0E942920B394ECCF82E499E00E9434
:104390007F1FF8016082F7CF8091A6029091A7025B
:1043A0000896D092A902C092A8029093A702809387
:1043B000A602BA2CBACFF8018481882319F0B7106D
:1043C00001C014821092A9021092A8021092A702B2
:1043D0001092A602DF91CF911F910F91FF90EF9065
:1043E000DF90CF90BF90AF909F908F907F906F9015
:1043F00008950F931F93CF93DF93082F162FEA0191
:1044000020E030E040E051E460911E0970911F0906
:1044100080912009909121090E944A320E942D33F7
:104420009B0177FF02C0215F3F4FC90134E09595A2
:1044300087953A95E1F70817190609F044C060918D
:1044400022097091230980912409909125090E94E5
:104450002D339B0177FF02C0215F3F4FC90124E04C
:10446000959587952A95E1F71817190661F58091BA
:10447000AC0281112DC01091AB0288E00E941E2079
:10448000882331F181E018271093AB0280930E0945
:104490008093AC028091AB028823A9F0BE018AE030
:1044A00099E00E94662110922E0910922F09109215
:1044B000300910923109109232091092330910928A
:1044C000340910923509DF91CF911F910F91089512
:1044D00088E00E941E208111DDCF1092AC02DACF5D
:1044E0004F925F926F927F928F929F92AF92BF9204
:1044F000CF92DF92EF92FF920F931F93CF936B01B6
:104500007C01742EAC019B010E94C534882399F074
:104510008EE891E0CF911F910F91FF90EF90DF9087
:10452000CF90BF90AF909F908F907F906F905F9053
:104530004F900C94152146015701E894B7F82FEFDE
:104540003FEF4FE75FE7C501B4010E94C534811119
:104550000DC02FEF3FEF4FE75FE7C501B4010E94A9
:10456000B63218161CF482E991E0D4CF2FEF3FEF5A
:104570004FE75FE4C701B6010E94533418161CF4DC
:1045800086E991E0C7CF2FEF3FEF4FE75FECC70120
:10459000B6010E94B63287FDF3CF20E030E0A901DA
:1045A000C701B6010E94B63210E000E087FF0AC0E2
:1045B0006DE286E499E00E947F1F8C01F7FAF09487
:1045C000F7F8F094C0E060E070E080E09FE37C16D4
:1045D00041F020E030E040E251E40E94BB32CF5F86
:1045E000F6CFA70196010E944A322B013C010E949E
:1045F00034334B015C014AE00E9422217C01E00E31
:10460000F11ECC23C1F1C501B4010E9463339B01AB
:10461000AC01C301B2010E9449324B015C016EE260
:1046200086E499E00E947F1FE80EF91EC15018F140
:1046300020E030E040E251E4C501B4010E9458346A
:104640002B013C010E9434334B01B12CA12C4AE0D8
:10465000C501B4010E942221E80EF91EC501B40172
:104660000E9463339B01AC01C301B2010E94493235
:104670004B015C01DBCFC701CF911F910F91FF90E0
:10468000EF90DF90CF90BF90AF909F908F907F90F2
:104690006F905F904F900895CF92EF920F931F937A
:1046A000CF93DF938091AB0281110CC080910607FC
:1046B000882341F0809109078150813308F4EFC0CD
:1046C000809309070E94FE198091090732E0C32EEA
:1046D000E12C10E000E02091040743E455E270E093
:1046E00060E090E00E94211F88E590E09093A9028D
:1046F0008093A8021092A7021092A60260910B0765
:1047000070910C0780910D0790910E0742E00E9476
:1047100070228091AA02882309F471C09AEFC92EF1
:1047200020E041E654E262E270E086E490E00E941C
:10473000211FE091070784E0E89FF0011124EC5964
:10474000FE4F6281738123E0C22E20E04FE454E2E9
:10475000808191810E94211FE091070784E0E89FFA
:10476000F0011124EC59FE4F8081918108969093BD
:10477000A9028093A80284E290E09093A70280931C
:10478000A6028AE991E00E941521E091070784E0E2
:10479000E89FF0011124EC59FE4F80819181089629
:1047A0009093A9028093A8028CE290E09093A702D4
:1047B0008093A60280EA91E00E941521E09107070C
:1047C00084E0E89FF0011124EC59FE4F8081918133
:1047D00008969093A9028093A80284E390E09093B6
:1047E000A7028093A60286EA91E00E94152110920A
:1047F000A9021092A8021092A7021092A60280911C
:10480000AA02811169C088E590E09093A902809383
:10481000A8021092A7021092A60260910B07709155
:104820000C0780910D0790910E0742E00E947022C4
:104830009091AB0221E092279093AB028091030705
:10484000822780930307C4E1D0E0E0910109F0E002
:10485000EE0FFF1FEE5FF64F608171818FEF96E0E4
:104860000E946621219789F7D1E0C0E88091FF0678
:104870008823B9F00E94152088E00E940A20811147
:104880001092FF06D093AA0280910109833071F73C
:10489000109206071092AB02C0930907E7CF80E39E
:1048A0000FCF60910F0770E090E080E00E946533C9
:1048B0009B01AC0160910B0770910C0780910D0773
:1048C00090910E070E94493260930B0770930C077A
:1048D00080930D0790930E07DF91CF911F910F9159
:1048E000EF90CF9008951F920F920FB60F92112460
:1048F0008F939F938091E1009091E100937F90933B
:10490000E10083FF0FC01092E90091E09093EB006B
:104910001092EC0092E39093ED001092A50298E0C3
:104920009093F00082FF22C093E09093E900909171
:10493000F200992319F09AE39093E800909196027F
:10494000992341F090919602915090939602911183
:1049500001C05D9A9091A402992341F09091A40224
:1049600091509093A402911101C0289A84FF18C01D
:104970008091E2008E7E81608093E2008091E10070
:104980008F7E8093E100809197028E7E806180937C
:1049900097029F918F910F900FBE0F901F901895C7
:1049A00080FFF7CF8091E2008E7E80618093E200ED
:1049B0008091E1008E7E8093E100809197028E7E4F
:1049C0008160E5CF1F920F920FB60F921124CF9204
:1049D000DF92EF92FF920F931F932F933F934F938A
:1049E0005F936F937F938F939F93AF93BF93EF9357
:1049F000FF93CF93DF93CDB7DEB76C97DEBFCDBF0C
:104A00001092E9008091E80083FF25C068E0CE01A4
:104A100045960E944F1C82EF8093E8008D8987FFA6
:104A200039C09091E80090FFFCCF982F907609F064
:104A300034C19E894F89588D2F89F88C911131C0CE
:104A4000803861F5809195028093F1001092F10019
:104A50008EEF8093E8006C960FB6F894DEBF0FBE21
:104A6000CDBFDF91CF91FF91EF91BF91AF919F911A
:104A70008F917F916F915F914F913F912F911F91F6
:104A80000F91FF90EF90DF90CF900F900FBE0F909F
:104A90001F9018959EEF9093E800C7CF1092F100F9
:104AA000D5CF913059F48111D3CF4130510581F6E2
:104AB000809195028D7F80939502CACF933049F4FF
:104AC0008111C6CF4130510519F68091950282605F
:104AD000F2CF953041F48091E80080FFFCCF206850
:104AE0002093E300B5CF963009F0A9C00B8D1C8D43
:104AF00022E01092E9001092930210929202F212B8
:104B00002EC010929102109290020E941E1C1F82D1
:104B100099E09983FA8291E09E8390EA98879AEFD0
:104B200099872091920230919302275F3F4F3C83F7
:104B30002B838D831092E9001092930210929202BF
:104B4000109391020093900249E050E0BE016F5F24
:104B50007F4F80E00E94F81B0E941E1C79CF1093AB
:104B60009102009390020E94351BDC0112960D9178
:104B70001C910115110509F451C1D801ED91FC9169
:104B80000480F581E02DBE016B5E7F4FC801099561
:104B9000009709F03EC1F80100851185EACFF3E0E6
:104BA000FF120EC08F89882309F440C0823061F45F
:104BB00040E867E087E494E20E945E27811148CFD5
:104BC00081E28093EB0047CF813029F440E86BE02D
:104BD0008BE394E2F1CF833099F70E94351BDC011F
:104BE0001296ED90FC908E010F5F1F4F6801E1144B
:104BF000F10479F0D701ED91FC910680F781E02D69
:104C0000B801C7010995080F111DF701E084F1846F
:104C1000EECFD8011C92F60101900020E9F7319700
:104C2000BF016C197D0940E0C601C6CF65E274E2A0
:104C3000FB01449150E080E80E94F81B09CF9730B7
:104C400009F4BECF983021F481E08093F10000CFC9
:104C5000993009F0FDCE837009F0B2CFEEE5F1E0B6
:104C600081E031E096E32191222371F08093E90005
:104C70003093EB00DF0111972C912093EC0090937F
:104C8000ED008F5F873079F78EE78093EA0010920E
:104C9000EA008F898093A502DBCE8B8D9C8D1092CC
:104CA000E9001092930210929202909391028093E5
:104CB0009002898D811192C08E899D89913A49F423
:104CC000813209F07DCF47E050E066E071E080E09E
:104CD000B3CF913209F074CF833269F48F89988D04
:104CE000B0E0A0E08093020190930301A09304013F
:104CF000B0930501ADCE803269F48091E80082FF67
:104D0000FCCF67E086E091E00E944F1C8BEF809320
:104D1000E8009ECE823209F09BCE8F8980930D01F0
:104D2000EEEFFFE7859194918B3F9C4D51F1E0E0D0
:104D3000F8E08091060190910701A0910801B091DF
:104D40000901803B9440A105B105F1F480910D016A
:104D500080FD1AC0EE3F8AE0F80789F587E797E7FC
:104D600091838083809160008093940288E19BE02E
:104D70000FB6F894A895809360000FBE90936000E2
:104D800067CEEEEFFAE0D5CF8081918187379747E4
:104D900009F05ECEA89580916000886180936000E4
:104DA0008091940280936000EE3F2AE0F20789F040
:104DB0008091FE0A9091FF0A9183808349CE808181
:104DC00091818737980751F29093FF0A8093FE0AEA
:104DD000C5CF1092FF0A1092FE0A3ACE0E94351BF0
:104DE000DC0112960D911C910115110509F4E8CE14
:104DF000D801ED91FC910190F081E02DBE016B5E38
:104E00007F4FC8010995811123CEF80100851185D6
:104E1000EBCF181619060CF41BCED2CEF1E0FF1220
:104E2000BECE69E274E204CF0F920FB68F939F93C8
:104E3000EF93FF9380917F028D5F8D3708F08D5740
:104E400080937F02E8E8F2E080818E4F8083918139
:104E50009F4F918382818F4F828383818F4F838382
:104E6000E0E8F2E080818F5F808381818F4F8183D2
:104E700082818F4F828383818F4F83838FB18F6035
:104E800066991C9B88278F3681F480917E02981B3F
:104E9000963068F0E0E0F8E087E78083818388E17E
:104EA00080936000F0936000FFCF90937E02FF91AB
:104EB000EF919F918F910FBE0F901895EF92FF92F7
:104EC0000F931F93CF93DF93F82E192FE62E042F05
:104ED00081E0860F880F0E94CA1B83E00E94CA1BD4
:104EE000CF2DD12FEC0EFD2EF11CCE15DF05B9F024
:104EF00007FF13C0FE0184910E94CA1B182F80E097
:104F00000E94CA1B812321968111EFCFDF91CF919F
:104F10001F910F91FF90EF9008958881EDCF81E070
:104F2000F5CF8F929F92AF92BF92DF92EF92FF9256
:104F30000F931F93CF93DF931092B0061092AF069A
:104F400088EE93E0A0E0B0E08093B1069093B206C3
:104F5000A093B306B093B40684E791E09093AE06B5
:104F60008093AD068FEF9FEF9093BA068093B906BA
:104F7000109241091092400986E891E090933F0910
:104F800080933E0980E090E0A0E2B3E480931E09A4
:104F900090931F09A0932009B09321091092220930
:104FA0001092230910922409109225098093260952
:104FB00090932709A0932809B093290910922A09F0
:104FC00010922B0910922C0910922D0910922E0983
:104FD00010922F0910923009109231091092320963
:104FE00010923309109234091092350981E08093B0
:104FF00036091092370910923D0910921D0910923E
:105000001C0988E080930F0984E0809310091092B6
:10501000110910921209109213091092140910929A
:105020001509109216091092170910921809809309
:10503000190982E080931A0910920A0910920E0948
:105040001092FF06109203071092060710920707AE
:1050500010920807109201098AEA91E090930309DF
:105060008093020980910F0790E090930509809347
:1050700004098BEB91E090930709809306098EEC6D
:1050800091E09093090980930809CFEFD6E005EEEF
:1050900018E084E1E82EF12C90E8D92E812C912C97
:1050A0002AEFA22E23E4B22E0E941831B7010E94EB
:1050B000DE348F5FDA868C869D86AE86BF86888BCF
:1050C000898B8B8B8A8B62960C171D0769F78091F1
:1050D0000E0120E1829FC00111249093FE0680936F
:1050E000FD06109245091092440986E891E09093DC
:1050F00043098093420910924909109248099093FC
:10510000470980934609DF91CF911F910F91FF903E
:10511000EF90DF90BF90AF909F908F900895CDB7A4
:10512000DEB76597DEBFCDBF789483E084BD83E0B2
:1051300085BD81E080936E00E1E8F0E083E080834C
:10514000E0E881E08083E1E983E08083E0E981E0D9
:105150008083E1EC87E08083E3EC81E08083E0EC16
:1051600082E08083E2EC81E08083EAE787E080836D
:10517000806880831092A502109295021092970287
:105180008091D70081608093D70080EA8093D80017
:1051900089B5806189BD89B5826089BD09B400FE89
:1051A000FDCF81E090E00E94891C8091D8008F7C27
:1051B00080618093D8008091E000807F8093E00040
:1051C0008091E1008E7E8093E1008DE08093E2008B
:1051D000559A209A81EC80937C0081EF85B987EE07
:1051E00084B982E38BB982EF8AB9769A6E9880EFA0
:1051F00081BB10BA80E58CBD81E08DBD85E00E9449
:105200006C1F5F9A85E00E946C1F5C98ECE5F6E0ED
:1052100085918EBD00000DB407FEFDCFE936C1F7C4
:105220005C9A81E88093640081E0809365000E942D
:10523000292080E80E941E20882381F085EA0E94B0
:10524000771F2E982F982D9880916400806280930C
:10525000640081E083BF889513BEFCCF84E00E9488
:105260001E208823B9F12D9884E80E941E208823EF
:10527000A1F02D9A88EC0E946C1F2F986FEF82E0AE
:1052800090E00E94D43184EF91E00E94891C2F9A13
:1052900084E80E941E208111FBCF84E10E941E2021
:1052A0008823A1F02D9A88EC0E946C1F2E9860E054
:1052B00082E090E00E94D43184EF91E00E94891C4A
:1052C0002E9A84E10E941E208111FBCF88EC0E945F
:1052D0006C1FC4CF2D9A82E090E00E94CC318823CD
:1052E00009F473C03E9A3F9A81E090E00E94CC316D
:1052F000182F147081FF0EC011112E98B1EF8B2E54
:1053000099249A9480E40E941E20882309F460C0A6
:105310002E9A2F9A82E30E946C1F0E946F1F8111A8
:10532000F9CF80E180930001809164008E7F8093AB
:10533000640080917A00806480937A0080917A0082
:1053400086FDFCCF00917800109179000E94201D0D
:10535000AB01BC01C801B0E0A0E0DC0199278827BF
:105360008C019D01040F151F261F371FC901B801AD
:10537000209164002160209364006115710581050E
:10538000910511F00E94C3312FB7F89480918802E3
:1053900090918902A0918A02B0918B022FBF8093D5
:1053A0008C0290938D02A0938E02B0938F02109185
:1053B0008402112309F4B4C01092840280E090E0CA
:1053C000892BA9F30E940000F2CF3E983F988CCF22
:1053D000112331F004E08016910411F42E9A2F98D5
:1053E00081E00E94EF19282D2770722E9401F3E0BE
:1053F00035952795FA95E1F7A9015695542F44273D
:105400005795479570E060E02E3F8FEF380789F1A0
:10541000DA01A355BD4F90E080E0FB01E455FA4F5F
:105420007F01FA01E35DFC4F6F01F701E80FF91FFF
:10543000E491F0E02F01072C02C0440C551C0A94A3
:10544000E2F72F3F320739F05496BC905497B428B6
:105450005496BC925497772039F05601A80EB91E85
:10546000F50104890529048B01961196883591056B
:10547000E1F62F5F3F4F685A7F4F40585F4F603BC8
:10548000710509F0C1CF0E9429208FE00E946C1F96
:10549000FFEF8F1A9F0A09E18016910409F032CFBD
:1054A000112311F02F9A2D9880E991E00E94891C18
:1054B0002D9A81E090E00E94CC3180FF2BCF8AE0D2
:1054C00090E00E94CC319FEF980F9E3F08F022CFD2
:1054D00022E330E03093A9022093A80228E330E0D1
:1054E0003093A7022093A6020AE010E01A830983F2
:1054F000682F8EE399E00E947F1F09811A810F5F58
:105500001F4F1A830983C8010E94CC310031110555
:1055100079F70E94292088EE93E00E94891CFACE38
:105520009091880280918502292F281B822F20913B
:105530000001821748F48F5F821708F03FCF81E0A7
:1055400083BF889513BE3ACF31E0309384029093A5
:105550008502E6E8F2E08081918101968083918363
:105560000E9415208FB7F8944091880250918902CB
:1055700060918A0270918B028FBF80918C02042F00
:10558000081B09832FB7F8948091880290918902B3
:10559000A0918A02B0918B022FBF80938C029093CE
:1055A0008D02A0938E02B0938F02EDEAF2E011110A
:1055B0001FEF8FEF11931193119311938150D0F737
:1055C0001092A7021092A6021092A9021092A802AD
:1055D0008091AB028111F7C3809106078111F3C35B
:1055E0000E94152010922E0910922F091092300956
:1055F0001092310910923209109233091092340935
:105600001092350980E20E941E20882309F4B6C05A
:105610006091360970E0719561957109072E000C53
:10562000880B990B0E94653360932E0970932F09A4
:10563000809330099093310911E01093370981E686
:1056400093E290933A098093390981EE92E2909324
:105650003C0980933B0980E80E941E20882309F4BE
:10566000AEC06091360970E0719561957109072EA1
:10567000000C880B990B0E9465336093320970937C
:105680003309809334099093350983E08093370977
:105690008DE591E290933A09809339098DED90E27E
:1056A00090933C0980933B09C0901E09D0901F093C
:1056B000E0902009F090210920E030E0A901C70125
:1056C000B6010E94B63287FF94C010921E09109254
:1056D0001F091092200910922109809022099090B0
:1056E0002309A0902409B090250920E030E0A90109
:1056F000C501B4010E94B63287FF93C010922209FF
:1057000010922309109224091092250980913709DB
:10571000882309F4A4C080913709833009F0D3C0ED
:105720002091320930913309409134095091350963
:105730006091220970912309809124099091250993
:105740000E944A326B017C0120912E0930912F0971
:10575000409130095091310960911E0970911F09E3
:1057600080912009909121090E944A32A701960157
:105770000E943B20882309F49EC0A5C080E40E94BB
:105780001E20882309F467CF6091360970E090E00D
:1057900080E00E94633360932E0970932F098093F9
:1057A00030099093310982E0809337098FE592E2C6
:1057B00090933A09809339098FED91E248CF80E1C7
:1057C0000E941E20882309F46FCF6091360970E093
:1057D00090E080E00E946333609332097093330954
:1057E0008093340990933509109237098BE590E244
:1057F00051CF20E030E048E953E4C701B6010E94F0
:10580000533418160CF069CF80E090E0A8E9B3E4B7
:1058100080931E0990931F09A0932009B09321093A
:105820005CCF6091FD067091FE066051710990E0B9
:1058300080E00E9463336B017C01AC019B01C501D8
:10584000B4010E94533418160CF060CFC0922209A4
:10585000D0922309E0922409F092250957CF209194
:1058600032093091330940913409509135096091E2
:1058700022097091230980912409909125090E94A1
:105880004A326B017C0120912E0930912F09409101
:1058900030095091310960911E0970911F09809162
:1058A0002009909121090E944A32A70196010E9485
:1058B0003B20811130CF10922E0910922F091092A7
:1058C00030091092310980910707823018F082E088
:1058D0008093070780910607882309F458C08091B8
:1058E000AA028823C1F080E10E940A20882339F0AF
:1058F00080910707823018F48F5F8093070780E854
:105900000E940A20882339F080910707882339F004
:1059100081508093070780910707811169C288E051
:105920000E940A20882399F1109201091092AA027C
:1059300083E090E09093A9028093A8028CE290E02B
:105940009093A7028093A60280910F0790E0880FA2
:10595000991F20911007821B91096C01092E000CE0
:10596000EE08FF0897FF40C26DE286E499E00E94CE
:105970007F1F66277727CB016C197D098E099F0948
:105980004AE00E94222186EE91E00E9415214FEE0E
:1059900051E065E083E00E94F92145E152E065E0D5
:1059A0008BE00E94F9214EE252E069E087E00E941C
:1059B000F92145E552E06DE08DE00E94F921098171
:1059C000802F90E0B0E0A0E080934A0990934B09CB
:1059D000A0934C09B0934D0980910101813009F0E9
:1059E00020C220E030E0A9016091220970912309D2
:1059F00080912409909125090E94B63281110FC02F
:105A000080913709833059F482E0809301018091BD
:105A10000101813009F41EC2823009F433C2809141
:105A20000E0110E1819FC00111249093FE06809326
:105A3000FD0620E030E040E85DE3609122097091CE
:105A4000230980912409909125090E9458340E94CD
:105A50002D336B0120E030E040E85DE360911E09EA
:105A600070911F0980912009909121090E9458345A
:105A70000E942D33CB01B6010E94E71A859709F0E9
:105A800060C020913209309133094091340950911E
:105A9000350960912E0970912F09809130099091FC
:105AA00031090E944A3220E030E040E85FE30E9482
:105AB000533487FD46C080918602909187026EE143
:105AC00070E00E94CA34892BE1F500910607098332
:105AD000011137C00E94183168E070E00E94DE3486
