:100000000C94EE180C9416190C9416190C941619DD
:100010000C9416190C9416190C9416190C941619A4
:100020000C9416190C9416190C94C2210C943122BC
:100030000C9416190C9416190C9416190C94161984
:100040000C9416190C9416190C9416190C94161974
:100050000C9416190C9416190C9416190C9463240C
:100060000C9416190C9416190C9416190C94161954
:100070000C9416190C9416190C9416190C94161944
:100080000C9416190C9416190C9416190C94161934
:100090000C9416190C9416190C9416190C94161924
:1000A0000C9416190C9416190C9416197C7C7C7CF3
:1000B0007C7C7C7C7E7E7E2D2E7E7E7E7E417E7E46
:1000C0007E7E7E7E7E7E7E7E7E7E7E7E7E7E7E7E50
:1000D0007E7E7E7E7E7E7E7E7E7E7E7E0A7E7E7EB4
:1000E0007E7E7E7E18167E7E7E7E7E7E7C7C7C7C06
:1000F0007C7C7C7C7E7E7E7E627E7E7E7E7E7E7E44
:10010000627E417E7E7E7E7E627E7E7E7E7E7E7E84
:10011000707E71717E7E7E7E7E7E7E7E7E7E7E7E27
:100120007E7E7E7E7E0203047E7E7E7E1E212024D5
:100130001F211F211E242525241D211D211E241FB2
:10014000242424242424242424242525242424246D
:1001500024242424241E5455555555555555000026
:100160005555555555562124242062005E5F600088
:10017000000000005E5F600000641D24241D62001A
:100180006C6D6E00000000006C6D6E1415641F2411
:100190002420622C7A7B7D000000002C7A7B7D225B
:1001A00023641D24241E62000000000000000000E3
:1001B0000000000000641D242421620000000000F3
:1001C00000000000000000000064202424126200EF
:1001D0000000000000005E5F5F5F5F6000641E243F
:1001E000242062003B3B3B2C00006C6D6D6D6D6EFE
:1001F00000641D24241F62002A2B2A2B0000616F3B
:100200003939395300641E24242162002A2B2A2BF9
:1002100000007A7C7B7C7C7D00641E24241E6200AE
:100220000000000000000000000000000064202426
:10023000241270717171710000003B3B3B303B3BFD
:1002400000641D24241F201F5758596200001313F7
:100250001313131300642024241F202165476762B1
:10026000000013131313131300641F24241E201EF5
:1002700065466770717171717171717171721F244E
:100280002424242465476724242424242424242487
:10029000242424240101012401010101242626240F
:1002A000010101010101240101010124242424246C
:1002B0002426262424242424242424010101012486
:1002C000010101010126260101010101131324018D
:1002D000010101240101010108262601010101019A
:1002E000131324010101012401010101082626261E
:1002F0002626262626262401010101243838393AEB
:10030000083838393A262626262624010101010814
:1003100013131301087F7F7F7F7F7F7F7F7F08011B
:100320000101010801010101087F7F7F7F7F7F7F3D
:100330007F7F08010101010801010101087F7F7F22
:100340007F7F7F7F7F7F08010101010838393A3ABA
:10035000087F7F7F7F7F7F7F7F7F0801010101080A
:100360000101131313010101262626262626080162
:1003700001010108010101010101010126262626D2
:100380002626080101010108010101010101010105
:1003900026267F7F7F7F0801010101080808383881
:1003A000393A080808087F7F7F7F0801010101248E
:1003B000010101011313131326267F7F7F7F240180
:1003C00001010124010101011313131326267F7F6C
:1003D0007F7F2401010101240101262626262626ED
:1003E0002626010101012401010101240101262623
:1003F00026262626262601010101240101010124C9
:10040000010126260101010101010101010124016F
:10041000010101243905393A0538393A3938393A70
:10042000393A240101010124010126262626262627
:10043000262626262626240101010124010126263E
:1004400026262626262626262626240101010124E4
:1004500001010101010101017F7F7F7F2626240127
:100460000101012408080808080808087F7F7F7F29
:10047000393A24010101012401010101131313136D
:100480007F7F7F7F262624010101012401010101D4
:10049000131313137F7F7F7F26262401010101247C
:1004A0002626262626262626262626262626240113
:1004B00001010124393A2626262C38393A383938B0
:1004C000393A24010101010801017F7F7F7F26263F
:1004D00001017F7F7F7F08010101010801017F7F0A
:1004E0007F7F262601017F7F7F7F080101010108B0
:1004F0007F7F7F7F131326267F7F7F7F1313080163
:10050000010101087F7F7F7F131326267F7F7F7F76
:1005100013130801010101082424242424247F7FCB
:1005200024242424242408010101010801010101DB
:1005300001247F7F2401010101010801010101085B
:100540000101010101247F7F240101010101080152
:10055000010101080101010101247F7F2401010142
:10056000010108011E2120241F211F211E247F7F3D
:10057000241D211D211E241F24242424242424245A
:1005800024247F7F2424242424242424241E54551A
:100590005555555555550101555555555556212417
:1005A000242062015E5F6001010101015E5F600164
:1005B00001641D24241D62016C6D6E0101010101A5
:1005C0006C6D6E1415641F242420622C7A7B7D01CF
:1005D0000101012C7A7B7D2223641D24241E6201EB
:1005E00001010101010101010101010101641D2459
:1005F0002421620101010101010101010101010147
:1006000001642024241262010101010101015E5FE5
:100610005F5F5F6001641E24242062013B3B3B2C32
:1006200001016C6D6D6D6D6E01641D24241F6201EE
:100630002A2B2A2B0101616F3939395301641E2499
:10064000242162012A2B2A2B01017A7C7B7C7C7D70
:1006500001641E24241E6201010101010101010146
:100660000101010101642024241270717171710172
:1006700001013B3B3B303B3B01641D24241F201FF9
:1006800057585962010113131313131301642024E3
:10069000241F2021654767620101131313131313ED
:1006A00001641F24241E201E6546677071717171DC
:1006B0007171717171721F24242424246547672489
:1006C000242424242424242424242424000000007A
:1006D000003E5B4F5B3E3E6B4F6B3E1C3E7C3E1CC8
:1006E000183C7E3C181C577D571C1C5E7F5E1C000E
:1006F000183C1800FFE7C3E7FF0018241800FFE7C5
:10070000DBE7FF30483A060E2629792926407F0587
:100710000507407F05253F5A3CE73C5A7F3E1C1C9D
:1007200008081C1C3E7F14227F22145F5F005F5F5D
:1007300006097F017F006689956A60606060609449
:10074000A2FFA29408047E040810207E201008084E
:100750002A1C08081C2A08081E101010100C1E0C59
:100760001E0C30383E3830060E3E0E0600000000EB
:100770000000005F00000007000700147F147F14D2
:10078000242A7F2A12231308646236495620500017
:1007900008070300001C2241000041221C002A1C03
:1007A0007F1C2A08083E08080080703000080808EE
:1007B0000808000060600020100804023E5149450E
:1007C0003E00427F400072494949462141494D332C
:1007D0001814127F1027454545393C4A4949314193
:1007E000211109073649494936464949291E000061
:1007F00014000000403400000008142241141414B6
:100800001414004122140802015909063E415D59A1
:100810004E7C1211127C7F494949363E41414122AA
:100820007F4141413E7F494949417F090909013ED4
:10083000414151737F0808087F00417F41002040FB
:10084000413F017F081422417F404040407F021C0D
:10085000027F7F0408107F3E4141413E7F09090924
:10086000063E4151215E7F091929462649494932F0
:1008700003017F01033F4040403F1F2040201F3FB6
:100880004038403F6314081463030478040361593B
:10089000494D43007F41414102040810200041417D
:1008A000417F040201020440404040400003070829
:1008B0000020545478407F28444438384444442825
:1008C000384444287F385454541800087E090218CC
:1008D000A4A49C787F0804047800447D4000204054
:1008E000403D007F1028440000417F40007C047898
:1008F00004787C080404783844444438FC182424E0
:100900001818242418FC7C0804040848545454245F
:1009100004043F44243C4040207C1C2040201C3CDC
:100920004030403C44281028444C9090907C4464D3
:10093000544C440008364100000077000000413666
:10094000080002010204023C2623263C1EA1A161EC
:10095000123A4040207A385454555921555579411E
:100960002154547841215554784020545579400CF5
:100970001E527212395555555939545454593955D6
:100980005454580000457C410002457D4200014519
:100990007C40F0292429F0F0282528F07C54554586
:1009A000002054547C547C0A097F49324949493219
:1009B0003248484832324A4848303A4141217A3A2E
:1009C00042402078009DA0A07D39444444393D40F8
:1009D00040403D3C24FF2424487E4943662B2FFCA5
:1009E0002F2BFF0929F620C0887E09032054547953
:1009F000410000447D413048484A32384040227A24
:100A0000007A0A0A727D0D19317D2629292F2826A0
:100A10002929292630484D402038080808080808A8
:100A20000808382F10C8ACBA2F102834FA00007B01
:100A3000000008142A142222142A14089500220007
:100A400095AA005500AAAA55AA55AA000000FF00C1
:100A5000101010FF00141414FF001010FF00FF10FE
:100A600010F010F0141414FC001414F700FF000030
:100A7000FF00FF1414F404FC141417101F10101FAF
:100A8000101F1414141F00101010F0000000001F9D
:100A9000101010101F10101010F010000000FF10A8
:100AA0001010101010101010FF10000000FF1400A4
:100AB00000FF00FF00001F10170000FC04F41414D6
:100AC0001710171414F404F40000FF00F7141414A2
:100AD00014141414F700F7141414171410101F1022
:100AE0001F141414F4141010F010F000001F101F45
:100AF0000000001F14000000FC140000F010F010B3
:100B000010FF10FF141414FF141010101F00000029
:100B100000F010FFFFFFFFFFF0F0F0F0F0FFFFFF2D
:100B20000000000000FFFF0F0F0F0F0F3844443884
:100B3000447C2A2A3E147E02020606027E027E02BF
:100B400063554941633844443C04407E201E2006DE
:100B5000027E020299A5E7A5991C2A492A1C4C721B
:100B600001724C304A4D4D303048784830BC625AA2
:100B7000463D3E494949007E0101017E2A2A2A2A32
:100B80002A44445F444440514A444040444A51400E
:100B90000000FF0103E080FF000008086B6B0836CF
:100BA00012362436060F090F060000181800000040
:100BB0001010003040FF0101001F01011E00191D2F
:100BC0001712003C3C3C3C0000000000F0F89C8EFA
:100BD0008783878E9CF8F00000FEFF030303030366
:100BE000070EFCF80000FEFF0303030303070EFCDF
:100BF000F80000FFFF00000000000000FFFF000001
:100C0000FEFF8383838383C7EE7C380000F8FC0EED
:100C100007030303070EFCF800003F7FE0C080805D
:100C2000C0E07F3FFFFF01010101010101FFFF0063
:100C300000FFFF0C0C0C0C1C3E77E3C100007FFF93
:100C4000C0C0C0C0C0E0703F1F00001F3F70E0C0C8
:100C5000C0C0E0703F1F00007FFFC1C1C1C1C1E340
:100C6000773E1C00001F3F70E0C0C0C0E0703F1F17
:100C7000000000000001FFFF01000000D5F08D140E
:100C8000A1C881CFD9F1AF200010100000000000F2
:100C9000F0C0F898FC3CFE7EFF5EFF5EFF7EFF3CEE
:100CA000FE98FCC0F800F00000000000000000000A
:100CB00018183D0C7F41FF4AFF0AFF0AFF4AFF4117
:100CC000FF0C7F183D00180000000000000000002D
:100CD000E080F030F878FCFCFEBCFEBCFEFCFE7848
:100CE000FC30F880F000E000000000000000000090
:100CF00001013B397F12FF04FF14FF14FF64FF6200
:100D0000FF0DFF091F001900000000000000000097
:100D1000F0C0F898FC3CFE7EFF5EFF5EFF7EFF3C6D
:100D2000FE98FCC0F800F000000000000000000089
:100D300018183D0C7F41FF4AFF0AFF0AFF4AFF4196
:100D4000FF0C7F183D0018000000000000000000AC
:100D5000E080F030F878FCFCFEBCFEBCFEFCFE78C7
:100D6000FC30F880F000E00000000000000000000F
:100D700019091F09FF62FF64FF14FF14FF04FF122B
:100D8000FF397F013B00010000000010100000004F
:100D90000000C000F818FCDCFEDEFF96FFEAFFEA68
:100DA000FF94FEE4FE04FE000E00000000000000C0
:100DB0000000000001000100F940FF59FF59FF4108
:100DC000FF01F3000100000000000000000000002F
:100DD0000000C000F818FCDCFEDEFF16FFD6FFD4D2
:100DE000FE28FCC8FC04FE002600000000000000F5
:100DF0000000000001006160FB49FF03FF0BFF5B87
:100E0000FF53FF21730031000000000000000000CC
:100E10000000C000F818FCDCFEDEFF96FFD6FFEAFB
:100E2000FF88FEE8FC08FC002C0000000000000029
:100E30000000000001000100FB40FF59FF59FF4185
:100E4000FF01F300010000000000000000000000AE
:100E50000000C000F818FCDCFEDEFF16FFD6FFD451
:100E6000FE28FCC8FC08FC006C000000000000002C
:100E7000000000000100FB58FF59FF0BFF03FF4B70
:100E8000FF43FF217300310000000000001010003C
:100E9000000000000E04FEE4FE94FEEAFFEAFF9666
:100EA000FFDEFFDCFE18FC00F800C00000000000C0
:100EB00000000000000000000101F341FF59FF594C
:100EC000FF40FF00F90001000100000000000000E9
:100ED000000000002604FEC8FC28FCD4FED6FF1645
:100EE000FFDEFFDCFE18FC00F800C0000000000080
:100EF00000000000000031217353FF5BFF0BFF0374
:100F0000FF49FF60FB0061000100000000000000DD
:100F1000000000002C08FCE8FC88FEEAFFD6FF96E3
:100F2000FFDEFFDCFE18FC00F800C000000000003F
:100F300000000000000000000101F341FF59FF59CB
:100F4000FF40FF00FB000100010000000000000066
:100F5000000000006C08FCC8FC28FCD4FED6FF167C
:100F6000FFDEFFDCFE18FC00F800C00000000000FF
:100F700000000000000031217343FF4BFF03FF0B13
:100F8000FF59FF58FF00FB000100000000000010A7
:100F9000100000000000F0C0F888FCD4FE4AFF8A70
:100FA000FF8AFF4AFFD4FE08FCC0F800F0000000F2
:100FB00000000000000018183D0D7F43FF4AFF0BA2
:100FC000FF0BFF4AFF43FF0D7F183D001800000094
:100FD000000000000000E080F010F8A8FC94FE146F
:100FE000FE14FE94FEA8FC10F880F000E000000063
:100FF00000000000000001011F1B7F177F147F0706
:101000007F17FF54FF47FF03FF091F00190000006F
:10101000000000000000F0C0F898FCACFE36FFB6FF
:10102000FFB6FF36FFACFE18FCC0F800F000000071
:1010300000000000000018183D0D7F43FF4AFF0B21
:10104000FF0BFF4AFF43FF0D7F183D001800000013
:10105000000000000000E080F010F8A8FC94FE14EE
:10106000FE14FE94FEA8F810F880F000E0000000E6
:1010700000000000000019091F03FF47FF44FF079D
:10108000FF077F147F177F1B7F011F0001000000F7
:10109000000808000000007F7F3E3E1C1C0808007E
:1010A000000000381CFF01010101010101010101E3
:1010B0000101010101010101010101010101010120
:1010C0000101010101010101010101010101010110
:1010D000010101010101010101010101FFFF000006
:1010E0000000000000000000000000000000000000
:1010F00000000000000000000000000000000000F0
:1011000000000000000000000000000000000000DF
:1011100000000000FFFF00000000000000000000D1
:1011200000000000000000000000000000000000BF
:1011300000000000000000000000000000000000AF
:10114000000000000000000000000000FF0F080881
:10115000080808080808080808080808080808080F
:1011600008080808080808080808080808080808FF
:1011700008080808080808080808080808080808EF
:10118000080808080F202000000000DCF2E1E1C19F
:10119000810202040808048060F8F4FAE868D87054
:1011A000703000000000000080F87F1F3FFFFFFF4D
:1011B000FFFFFEFE1EAF16E4F275F3FB6573DAC99E
:1011C000800000000000000E01F80C060706010771
:1011D0001F3F07FFFC3A34DBD7F7120F1F332A17E4
:1011E00007070300000000000000000000000000EE
:1011F00000000020331F0000010303060C3800002C
:10120000000000000000000000C0E038C4FCECE872
:101210007CFC3C7C1EBE4EDC3800060577EB8F0A5A
:10122000040060B0B070E0000F7FFB9E73EDEDDE58
:1012300080E100801F2010B87CFE0EF3FDFFFFFF51
:10124000FEFE7FFBF0E18100008080C1772E0D5D06
:10125000FDBBB7777637FADD3EFF702F1F3F7F7FEC
:10126000FFF38C7FFFFF7F000609420040202070C3
:10127000793D0F07234048574E4060603030181CBE
:101280008E4DE3FF7CF10000000985CF4221211142
:10129000110E00008040B8C0E0E0C0A040C0800057
:1012A00004081030E0C000007CFFE3C0C0E0F0F8AC
:1012B000FCF2CCBFBFB87777776B9BFDFDDC1D8D53
:1012C00018D4EC1E0F070000000103073FF1CFB751
:1012D00061C3E3EFFFFFF9F7EFDFB2AA66FDF3CFDB
:1012E000FF4F31E0C6040000060F0700303003074F
:1012F0004D8A1A95157565E5C31B270F1C30606074
:10130000E0C0000C4F060000C0F0FCFEFEFFFFFF37
:10131000FF1FE3FD9EEE3EDE7EBCFCF890E09050A9
:10132000B000C0400000000081FFF8671FBF7F7F52
:101330007FFEF1EF9F7FFEFFFEEF5FDFBF7FFFE7E6
:10134000FFFE0000000000001F7FC1003FFF017092
:101350008F00C6FE3EC0FF3F0F30FFFFC38080C737
:10136000E33118884810E0000000314F0008070002
:101370001C23494020030F1C302060414141292497
:101380001800000102020100000000C0F00CC26160
:1013900010080402000000010101010202041860AB
:1013A0008002020418E0000000F8FF7FBFA761A0E0
:1013B000A0B0B8F8F86C94F8ACFC5CFCE8F8F078F5
:1013C000FFF06020180700000E7FFAE5DAB7BF7F54
:1013D0007F7FBFBFDFFEF9773605070303030306F0
:1013E0000F030100000000000000000001834FF126
:1013F0004343830305291020600020000000000003
:10140000000000000000000000E0789CEEFEFEFE00
:10141000FEFCFCFCF8F870E0C088040804080488AE
:1014200020902090201020000F7FF0FFFFCFF79F2B
:101430006FAFAFDFBF7FFFFCE33F9EA800C0E1F0CE
:10144000F9B879B0E1C0001088D0C993070F8FDFD9
:10145000DDFADA7ABADB5D5FDFBF72ACDFFFFFDF98
:10146000EAA0A044820100153F7F3C785E793E3FB0
:101470007F7F3C7F172F577F7E394F300F33697343
:10148000656B7F3F380F0000000000000000000087
:1014900000C0E0D028ECFC8E0E1E3E6A9EFABA74A4
:1014A0001C08F000000000000000B870E0C00070F0
:1014B000FE85FFFFF8E0C18303060606030303026F
:1014C000BEC70300000000804060EF40BCBEDDDA14
:1014D00036F6CEAE6DEBC73FC1CFFDFDF1FF85FF08
:1014E000FFF0C89CA27D000707133C1F2E313D1E54
:1014F0001F204FEFF6F9FBFCFDFA768ECEDEDD53B2
:101500006D1A1A1616160C0000000080E0703038B4
:10151000188C0C0E8E8E8682A62606060E0E1E14C3
:101520001C38306080000080F8DC1F0300000C1EB7
:101530000280DCE07F071F7FCF9FBCFAF8FEBE9ED3
:1015400048FC700204BFFC1F70834080000000E074
:10155000FEFF0701000000000001030301010381F9
:10156000401F0004000301000001070E38385071CD
:101570007D5B6F6E6C5C1C1818080C04080402007C
:10158000000000000000000000F0FCFEFECF37F776
:10159000EEDEBE7CFCF8F0E0C0000080708C6219CA
:1015A00085C2C2E0E0E0C0000001070F0F1E1D9AD7
:1015B000D5EB6B3776F5F3F77F9FEC33C8FDDECFC5
:1015C000D75BAD56281F0700000000808080404791
:1015D0004F8E9C5858390F87423D7E6763713F0D8F
:1015E0000101000000000000020101E018040201F6
:1015F00001C0300C02710E0100000000000000006C
:1016000000000000000000000083C7FEFC3800005E
:1016100000000080C04080F0088498E0C0C0C0C0D6
:10162000C02020A06000000000071F3FDCF8F0F0A1
:10163000C0BC76ADB1CA9F3FFFBFD7F7F56878BA97
:1016400068F576B9C000000000000087FFFFFF3F8B
:101650007FFFF8F7F5F6C7B9AEB5BD437B4BBB3B93
:10166000051E131E0D00000000701E0703011E273B
:10167000030000010101071F7FC380000101010B6E
:101680000E000000000000000000000820000082A2
:1016900080E038FC7E3E7E1EFE7EBCFCF0E0E0E496
:1016A000C0C080000040000080C0E1B8FC2E9F1F39
:1016B0003F8FE3F8FEFCF09E64F8FBC1E7E3C7BF91
:1016C00003CF1F0600800016FB87E1F89970FFFF2B
:1016D000FC27F8FFFFFFFFCF37EEF71FFFFEFDFFF0
:1016E000FE0F80808440207C7F7F7F5F0700213E4B
:1016F0003ECEF1FFFFFFFF8F2060C1C3E6756D2B6B
:101700004B68080404420041838EF6F8FC7C7CBCE4
:10171000B8D8D8DCE6C1C0E07098040000000080B2
:10172000C0F01C000000000000C0F3FDFF7FBFDF21
:10173000DF6F6F77F7F7FFFFFAFBFBFAF8FAF7377F
:101740002FC00080808040040405EF737F7F3FBF7F
:10175000BF3C18FA188FCFE7F7F7F3F33337F7E505
:101760004CBF0F7801000000503C3E0639DE6F1F71
:101770003F1F4040163F3F7F7E7C3D3B7F7F7FFC8D
:10178000DEABE06307061019C53B06021B171948BC
:101790002C9418545454B4246DC912C0E0C000C035
:1017A000781C38E0000000000000C070180C0C0627
:1017B000A692DBDBDBD6C6C68CD887000107070103
:1017C000004020D83F1CE000000087F8F000FC86B5
:1017D0000626460DF30FFFFFFF83FC87A3927C00D4
:1017E00030303021E0600100303E3763616120B568
:1017F0009353333767A7A52F4F4D4703010220307E
:1018000010083C07784000000000060F35B5EBDB00
:10181000F77DFA0EF29CE6FAFFFF9F6F6F9FFEFEC8
:101820007C3CF8000000000C0F8FCE48E0EF6BF717
:1018300076BDDFFCF7DAAFDFBFBFDFEFFFF3F163A9
:10184000201C01C0E0E08080C0C3C6CB8D0E33FCFD
:10185000FFFFFF875BE1FEE2C08006CE6CB0D8DC04
:10186000EC290181810101202020202020A020A03E
:101870008183838786858B079FBFB7070D1A3A3709
:101880007668298181818100000038444040C08011
:10189000800000000000000000F806F9FDFAF20CDC
:1018A000FAF7CE3CF8C0000000C0E0B0F050303095
:1018B000391F0E0000008080FF80BFC7FB7DFEFF48
:1018C000EF779B7D8DFD06000F3F7E3DDCEC6CECE1
:1018D000DCBEE6E6FFF3F33FDFEFEC7CBFCFFEFDBF
:1018E000FD739F0E03000030083C4E1723010203D6
:1018F000010001014123F01F7F9110200003070325
:10190000000001030501020000000E1E9FBFA36B33
:10191000637E7EFCFC78766F53333EC0E070B8BEC9
:10192000DBD9B9B4D2A2020000001E232B231FCFA3
:10193000F7FBFDFEFE33FDFFFFFF78E75F3CBB6377
:101940005E362F6F6E2E0DFC021925221C00FEFF45
:10195000BFBFDFDFEFEEE9E7CF3FFEC1800F3FFC07
:10196000C0800000000000030E3830606060713FEE
:101970001F0FCFE7FBDFAFB7A926A187FFFEF0005F
:1019800043477F7C00000000000040E0F0A8FC7CA2
:10199000F8F6F6F37171381C0C06010000007CE0CB
:1019A000801020E0C0800000000003041B3BBD79D4
:1019B000B1C0D828F4F4F4C4DCECECC81060000723
:1019C0003F7EF870F779DE0000C010985C4C03672A
:1019D0003A1A263F3F3F3FBF7FBF9FCFD7189A217C
:1019E000C3020103030301201801060010200003B5
:1019F0001C40800000000000210E00000001611B5F
:101A0000020418C00000000000F0E818B0E040B880
:101A1000DEDBE2EC30D4FF71F6F8F0E2E6EACAB6BB
:101A2000FC98583CEE860218CCF1F5FAFBFAF7EF79
:101A3000DFB76F807F43ADEE37E3C7010E3F4387CB
:101A400031C10103030300FEFFFFFFF7371717172C
:101A50000F1F3C63CFE73318EDF63A1B038680C0B7
:101A6000C0800000000000030F1F3F3F7E7870F031
:101A7000E0E0E0C0C1C0C0CCCFC54643612130101A
:101A80000804000000000000202042C286048CD818
:101A9000F060D0D8B07660C04000C1E6F8F0D0E089
:101AA000F1FEF0C0A01800001010202061C3FF7FDD
:101AB000E79E79E79F7FF3CEBFFFFFEF03040707A1
:101AC0000C1A79FFC3000000100808044420270EF8
:101AD0007DFBDFDF6F0F03011F31000003041800DF
:101AE000000000011F1C103C7EE6D6DCC0E16173E3
:101AF0007C3F1E0E030000000000000000000000FC
:101B000000000000000000000000000001414286CB
:101B1000848C1428C88808101020C1820EFCF8F0AC
:101B2000C00000408000004060A1E1F1EAFADADE86
:101B3000BE7DFF3FCEFFFFFEFCFCF89F3EFDFBE7B6
:101B40003F1E0000011EE0FCFEFFFBE71F3F7F7F02
:101B50007FC0CF80BF03534D808001030307070F71
:101B60000C000000807807030F1F3F3F7F7C78F058
:101B7000F0E0E0E1E3C7C0C0C0C3CFE06060603028
:101B800030180C06010000000000000002060E0ED6
:101B90001A121224244444488891234EBC78000829
:101BA0001C0800004287420000000000E010080806
:101BB0000888D0E0F0F038D86CFEFFDEBF393B1E5D
:101BC0007E1C0080611801C020100834D867D8A09E
:101BD0004081070F1F3F3E7977380F11E20F1C300D
:101BE00060180601040E0401060810204041838598
:101BF000874A2D150A0204040404040201000000AF
:101C0000000000000000004018F174C082047C98BD
:101C10003220A412D088D1AEC6AC48A8D4478C10CC
:101C2000503CF000000000041081F6F8FC79FFFC45
:101C3000FEFFCABF7FFFF7CF7F1F0F0F77FFFF9514
:101C4000F41B141010101000A0FFCF3F3F7E7DFB4F
:101C5000C737F70B0007070F18F302243800870770
:101C600007007050680000070F0F1FB870000000D9
:101C70000F38310101E7A6D00101000007057650B9
:101C800068000018141A0000C0F0F838ECFCFE3EA2
:101C9000CEF733DBE9E8D080ACF9FEDC3ABC7880E3
:101CA000000000000000007ECB3FFFE11FBF7FF07F
:101CB0008D7BF7AE6DADEA49B279BC7BE7C6CEC38A
:101CC000EEE0C00000000000038C814346C1E7DE67
:101CD000B5BEFB9D1B2D337C0F7BF70BFEDDEE3D70
:101CE0005BB7FB977CF08000070506738D723D1E85
:101CF00003060E0D1B367C00000001000003070CDC
:101D0000000103070C1001F008003CFE7E9EEEF47B
:101D1000F478B0A0DC801EFBDBD6B8C00000000069
:101D2000070C38F0F0380F619688101122272F89A0
:101D30009EDFDFEFEFEF9660BBBB75FD7EAC52DE42
:101D4000DCE8F03F0F000000000001C179BE5F3BFE
:101D5000DD6FAEDBE5D6AC639F3F3F1B2639361700
:101D60004B5D8E000000008040300C028160190E37
:101D7000014223131309060000070C1020004080C5
:101D800000000003061020F80414024A02E2FAFEE2
:101D9000F6FAFBBB3F7BFF061E7CF830E08000C0FC
:101DA000F0380C04020202010E304081000D7BEA83
:101DB000F7F7F7F7F8C001F6080600010101000780
:101DC0001F3CF0E0C0000000C0E0E0F071B2D4E1E0
:101DD00067EFDF3FFFFFFFFEFCD874CC3CBC78F818
:101DE000B0C000C77DFFFC0F1F1E3F310E3F7F7F3D
:101DF0007FFEFED9F7EFEBDF5F5F184F706F3F3C60
:101E00001F07080F070700000080C000000010A097
:101E10007AC4ECF87DBF5A1F1BF63CFE7018000414
:101E20000CF830C0800000F80FE758A040C28EB513
:101E3000844C6F7FFCFBF4E89069DB2BD0D0B0D8EA
:101E4000E679BAC6F986F8030C3F620D1B26440AF0
:101E50001E3323430203CFFFFFFEF10FFC00100CE3
:101E600007110C0300211F003C4242819DA2224128
:101E70004D525294AEAFAFAFAFA78857524D4122EB
:101E8000A29D8142423C000000000080E0781E07D5
:101E90000000000000000000008082446877F03EEF
:101EA00010000000000000C8D0B83E6701C020103C
:101EB0000884442422129149A9D80CE41EE0011E92
:101EC000E000000000000000010100003FC000F839
:101ED0000780609866190601F00FF00F80F1184C2A
:101EE000860606864C1CF0000000202020119297E8
:101EF000944B4C2F1C181C1B141310001F7160CC2A
:101F0000C8CCC864301E031010FFFFFFFFFFFFFFA7
:101F1000FFFFFFFFFFFFFFFFFFFFFFFFFFFFFFFFD1
:101F2000FFFFFFFFFFFFFFFFFF00000000000000BA
:101F300000000000000000000000000000000000A1
:101F400000000000000000000000002233333333A3
:101F500033333333333333333300002233333333C8
:101F60003333333333333333333333333333333341
:101F70003333333333333333333333333333333331
:101F80003333333333333333333333333333333321
:101F90003333333333333322003333333333333355
:101FA00033333333333333220000002233333333BC
:101FB00033333333333333220000002233333333AC
:101FC0003333333333333322008F8F8F87412313DF
:101FD00083C1E0E0F0F0F9F8F8030381B87CFEFC7F
:101FE000FDFBF7F7E7CF9F9F1FF8F9FBF3F7E6EC50
:101FF000C99B133333674FCF8F1F1F1F0F0787C72F
:10200000E3E1F0FE7C388000210000008040307861
:10201000787C3C3C1C1890E00000003F43076614AD
:10202000080808081261001F00810007000E0083E5
:1020300000810007000E008300810007000E00836E
:1020400000810007000E008300007A7A1ADABABA1B
:10205000BABABABADA1A7A7A0000BBDDDDDCDDDDA5
:10206000DDDDDDDDDCDCDDB9000000C010E8F0F412
:10207000F4F4F4F8FAFAF8F4F40018C33CFFFFFFA4
:10208000FF01FCFEFEFEFEEE1EF4F4F8FAFAF8F490
:10209000F4F4F4F8FAFAF8F4F41E1E1E1E1E1E1EC6
:1020A0001E1E1E1E1E1E1E1E1EF4F4F8FAFAF8F462
:1020B000F4F4F4F0E8D00000001EEEFEFEFEFEFC9C
:1020C000010F1FFFFF3CC3180000000000000000CC
:1020D00000387000381CC0600000001C38001C0E66
:1020E00000000000000000000000000000000000F0
:1020F00000000000000000000000000000000000E0
:102100000000070E001C0E00000000000000000090
:1021100000000000000000000000000E1C000E0780
:102120000000000000000000000000000038700007
:10213000381C00000000000000000000000000004B
:10214000000000000000000000000000000000008F
:10215000000000000000000000000000070E001C4E
:102160000E0000000000000000000008140800003D
:10217000000000000000000000000000000000005F
:102180000002000011281000000000000000000004
:1021900080C0E0E0F0F0F8F8F8000080B87CFEFCC9
:1021A000FDFBF7F7E7CF9F9F1FF8F8F8F0F0E0E0AE
:1021B000C080000000000000001F1F1F0F0787C71E
:1021C000E3E1F0FE7C3880000000FEFEFE0606061D
:1021D000068606E606FE060200007F1F0F040406C0
:1021E00006060607040F106000070E1C1C1C0E07D5
:1021F00007070E1C1C1C0E070703070E14140E07FE
:102200000303070E14140E070300DDFFFFFFFFFF9B
:10221000FFFFFFFFFFFFFFDD000063672727272782
:102220002727272727276763000018C33CFFFFFFE6
:10223000FF00FFFFFFFFFFFF000018C33CFFFFFF91
:10224000FF00FFFFFFFFFFFF00000040C0D0A00025
:10225000F8E80050300000000000000C0A0C0C06EA
:10226000617F0201030706000000FFFFFFFFFFFF81
:10227000000000FFFF3CC3180000FFFFFFFFFFFF4F
:10228000000000FFFF3CC31800200804020001000A
:1022900080200804020001008020080402000100E0
:1022A00080200804020001008000000000000000FF
:1022B00000000000000040000000000000000000DE
:1022C000000000000000000000000000000000000E
:1022D00000000000000400000000000000000000FA
:1022E00000000000000000000000000000000000EE
:1022F00000000010000000000000000000000000CE
:10230000000000000200000000000000800000004B
:102310000004002000000000000000000000000099
:1023200000000000000000000000000008000000A5
:10233000400000000000000000000000000200005B
:10234000000000000000000000000F1F3F3F7EFC67
:10235000F9FBF373F3E7CFCF8F0000000000000814
:102360000C0C080418391343E38F8F8F87C1237334
:10237000F3F1F070787C3F1F00430303010000007D
:10238000080C080000000000000000C0E0F0F8FCAD
:102390007C3C44840810A0C00000001F20417F82C4
:1023A000828282827F41201F00FFFFFFFFFFFFFF2D
:1023B000FFC78FFFC7E33F9FFFFFFFE3C7FFE3F1C7
:1023C000FFFFFFFFFFFFFFFFFF80110084000220DF
:1023D00000080000240000440004100040080240EF
:1023E0001081100084200210800018C33CFFFFFF02
:1023F000FF800F1F1F1F1F1E1E002042C48B971738
:102400002F2F2F1F5F5F1F2F2F1E1E1E1E1E1E1E13
:102410001E1E1E1E1E1E1E1E1E2F2F1F5F5F1F2F25
:102420002F2F2F1F5F5F1F2F2F1E1E1F1F1F1F0FFE
:102430000080C0FFFF3CC318002F2F1F5F5F1F2FBE
:102440002F2F17978BC4422000000C1C3232321CF5
:102450000C000000381CC06000000E1C00381C007E
:1024600000181824242418180000181824242418EC
:1024700018000000381CC06000000E1C00381C0052
:10248000000C1C3232321C0C0000000078F8F8F00E
:10249000F8F8F8F8F8E80000000000000B2B2B0B10
:1024A0000B010B2B2B0B00000000FEFEFEFCFEFEC2
:1024B000FEFEFEFEF8FEFEFEFE000B6B634B0B0104
:1024C0000B0B0B0B030B0B0B0BFEFEFEFEFCFEFEC1
:1024D000FEFEFEFEF8FEFEFE000B0B0B030B0B01D7
:1024E0000B0B0B0B636B4B0B0000B6BEFEFEFEFE30
:1024F000FEFEFEFEFEFEFCFEFE000BCBCB0BCBCBAE
:102500000BC1CB0BCBCB0BCBCB00FEFEFEFCFEFE00
:10251000FEFEFEFEF8FEFEFE00000B6B634B0B01A1
:102520000B0B0B0B636B4B0B00FEFEFEFEFEFEFE69
:10253000FEFEFEFEFCFEBEB600CBCB0BCBCB0BCB28
:10254000C10BCBCB0BCBCB0B00FFFFFF0707070764
:10255000078787878787878787FFFFFF000000003F
:102560007F000000F00808C84807878787878787AB
:10257000870787878787878787484848484048482C
:10258000484848484840484848078787878787879A
:10259000870707C7E707FFFFFF48C808E8F000FC08
:1025A000FEFF00FFFF00FFFFFF002042C48B9717D4
:1025B0002F2F2F1F5F5F1F2F2F002042C48B9717D5
:1025C0002F2F2F1F5F5F1F2F2F2F2F1F5F5F1F2F9B
:1025D0002F2F2F1F5F5F1F2F2F2F2F1F5F5F1F2F8B
:1025E0002F2F2F1F5F5F1F2F2F2F2F1F5F5F1F2F7B
:1025F0002F2F17978BC44220002F2F1F5F5F1F2F95
:102600002F2F17978BC442200005050511110505D2
:10261000110505051111050511000000000000005D
:102620000000000000000000001105050511110563
:102630000511050505111105050000000000000049
:102640000000000000000000000511050505111143
:102650000505110505051111050000000000000029
:1026600000000000000000000000EEDBD515DBEEEE
:102670000000EEDBD515DBEE00003F7F7F157F3FCE
:1026800000003F7F7F157F3F0000EEDBD515DBEEBE
:10269000000000000000000000003F7F7F157F3F2A
:1026A000000000000000000000000000000000002A
:1026B0000000EE1BD5D5DBEE00000000000000009E
:1026C00000003F757F1F7F3F00002C6E7E6E7E6E88
:1026D0007E6E6E423C665A663C00000000000000C0
:1026E0000000000000000000003C665A663C426E9C
:1026F0006E7E6E7E6E7E6E2C00000000000000007C
:10270000000000000000000000FFFFFF00000000CC
:102710007F000000F70000FF00FFFFFF0000000047
:102720007F000000F70000FF000000E0E0E000F89C
:10273000F8F800FEFEFEFE000000007F1F1F001FD5
:102740000707000701017F000000FF00EFEF00FE18
:10275000FEFE00FFFF00FFFFFF00FF00EFEF00FEA7
:10276000FEFE00FFFF00FFFFFF002042C48B971713
:102770002F2F2F1F5F5F1F2F2F0000040913172714
:102780002F2F2F1F5F5F1F2F2F2F0F07C3D3D9D9D5
:10279000D9D9D9D9D3C3070F2F130000363636360F
:1027A0003630242620220000132F2F1F5F5F1F2F9B
:1027B0002F2F17978BC44220002F2F1F5F5F1F2FD3
:1027C0002F2F271713090400002022020200000007
:1027D000202022020200000020202202020000002D
:1027E000202022020200000020200002020200201D
:1027F000202000020202002020200002020200200D
:1028000020200002020200202000000002022220FC
:1028100020000000020222202000000002022220EC
:1028200020000000020222202000FCFEFEA8FEFC88
:102830000000FCFEFEA8FEFC000077DBABA8DB7707
:10284000000077DBABA8DB770000FCFEFEA8FEFCF7
:102850000000000000000000000077DBABA8DB7781
:102860000000000000000000000000000000000068
:102870000000FCAEFEF8FEFC0000000000000000BE
:10288000000077D8ABABDB77000000000000000051
:10289000000000000000000000002C6E7E7A7E7AAE
:1028A0007E7A7A423C665A663C00000000000000D6
:1028B0000000000000000000003C665A663C427ABE
:1028C0007A7E7A7E7A7E6E2C00FFFFFF0000000089
:1028D000FF0080C0CFD0D8DB1AFFFFFFE0E0E8ECBC
:1028E000ECEDEDEDEDEDEDEDECDADADAC2DADADAB7
:1028F0001ADADADAC2DADADA1AEDEDEDEDEDEDED4B
:10290000ECEDEDEDEDEDEDEDECDADBD8D7CFC0BEC3
:102910007EFE00FFFF00FFFFFFEDEDEDEDEDEDEDC5
:10292000EDECECEBE7E0FFFFFF1805020300414090
:1029300041404140010203041900E0ECEDEDEDEDF2
:10294000EDEDEDEDEDEDECE000180502233031305A
:102950003130313031322304190000223333333324
:102960003333333333333322000511110505051199
:10297000050511114555550000000000000000003C
:1029800000000000D3DBDB0000F0F8FC1E0F07079F
:10299000070707070707070F00FFFFFF00000000FA
:1029A00000010000000000000007070707070707F5
:1029B000070707070707070F0000000000000000D7
:1029C000000000000000000000000F0707070707D5
:1029D000070707070F1EFCF8F000000000000000CA
:1029E000020000000000FFFFFFC0F0781CCE665719
:1029F0000B0B0B0B0B0B8B0B13FFE3001F6080000B
:102A00000000070E0007030000130B0B0B0B0B0B52
:102A100013130B0B0B0B0B0B13000000000000003B
:102A2000000000000000000000130B0B0B0B0B0B51
:102A30000B0B5766CE1C78F0C000000000000000B1
:102A400000000080600F00E3FFF0F8FC9E0F070716
:102A50000F07030F870F070F007F7F7F2200000003
:102A6000070E000713281000000F070F070F0703BA
:102A70000F070F03070F070F000000000C000600F0
:102A80000000000040000000000F03070F070F07C1
:102A90000F07830F070F070F000000000205020059
:102AA0000000010083000000000FE7CF0387CF077D
:102AB0000F03070F1EFCF8F00000000100031128AF
:102AC000100000000A7F7F7F00C060A01070B8086F
:102AD0007CB4FE060202020202FF77BB0077BB0055
:102AE00077BBFF00000000000002020202020202A7
:102AF00002020202020202020200000000000000C4
:102B0000000000000000000000020202020206FABB
:102B10000404080810102020C0000000000000FF7E
:102B20000000000000000000FF0000555545111195
:102B30000505110505051111050000DBDBD30000BB
:102B4000000000000000000000FEFEFE000000008B
:102B50000000000000000000007F7F7F00000000F8
:102B600000000000000000000000E0F018ACE622C9
:102B7000E242A2E46810E0000000000001020468E4
:102B800068080804020100000000000000000000C6
:102B9000000000000000FEFEFE000000000000003B
:102BA0000000000000007F7F7FFF87003CC2010023
:102BB000000000000000000000FFC1001F60800056
:102BC00000000000000000000008F80C66640C8C97
:102BD0008683868C64660C78880916605FBF80A443
:102BE000A4A4A4A4BFDF2037080000000000000058
:102BF00000000001C23C0087FF0000000000000050
:102C000000000080601F00C1FFFFFFFF14000000F4
:102C10000018003000000000007F7F7F12000000DD
:102C20000000100000000200000000000000000092
:102C3000C0E0F0E0D8BCBC7A72000000C09C7EFF0F
:102C4000FEFDFBF3F1F3E7EFEF7A3C3C9880C0F038
:102C5000E04000000000000000CFCFC7E3E071F9C2
:102C6000F8FC7E3E0CC00000000000000080000068
:102C70000800000084FFFFFF0000000000010003C7
:102C800000000000227F7F7F00FF77BB0077BB0042
:102C9000F7FBFFE0C0C040C0C03F777B7C6F0F6F89
:102CA000636D0C6D616D0C6D61C040C0C0C040C0F3
:102CB000C0C040C0C0C040C0C06D0C6D616D0C6D27
:102CC000616D0C6D616D0C6D61C040C0C0C060FF76
:102CD000C080000000000000FF6D0C6D616D0C6D88
:102CE000616D0D6E646810603F05110505051111D9
:102CF0000505110505051111050000000008080A69
:102D0000020208080800000000FFFFFF00000000AA
:102D10000000000010000000000F1F3F7E7C7C1CA4
:102D20001C1C1C1C1C1C1C7C000000000000000063
:102D30000000000000000000001C1C1C1C1C1C1CCF
:102D40001C1C1C1C1C1C1C7C000000000010000033
:102D5000000000000000FFFFFF007C1C1C1C1C1C6E
:102D60001C1C1C7C7C7E3F1F0FFFC700F00601006F
:102D7000000000000000000000030F1E387366EA28
:102D8000D0D0D0D0D0D0D0D0C800000000000000FB
:102D9000000000000000000000C8D0D0D0D0D0D08B
:102DA000C8C8D0D0D0D0D0D0C800001C38001C0E6D
:102DB00000000021C23C0087FFC4C890909090C9D9
:102DC000C6C4E44261301E0F03FFFFFF1400008001
:102DD0000000001000000000007F7F7F290000013C
:102DE000000300000000000000000000030F1F3E71
:102DF0003D3978F9F3F7EFEFEF0000000000000035
:102E000000003EA0A1A1A3ABABCFC7C7E3E1F00890
:102E100018383C1E0F03000000A3A3A3A1A1A038F3
:102E2000000000000000000000000018003000005A
:102E30000000800014FFFFFF0000000010281000B9
:102E400000000000247F7F7F000000B6B6B400FCC5
:102E50002424FC2424FC002AAA00606D61606363C2
:102E600063636363636363686AAA0222FA00FCFC1B
:102E700000FCFC00F8F20202AA6A000832023232B8
:102E800002323002303200086AAAAAA8AA8AAAAA84
:102E9000AAAAA2AAAA28AAAAAA6A6A6A6A6A6A68DE
:102EA0006A6A6A6A6A6A6A6A62AA2A00FC2424FC5C
:102EB0002424FC00B4B6B600006A686363636363ED
:102EC0006363636360616D6000804020101824427A
:102ED0008180402010182442818040201018244214
:102EE000818040201018244281000078E000703C6E
:102EF000801E3880DC0EE0C0000000F260067138F1
:102F00000307003B7100381D00FFFFFFFFFFFFFFBD
:102F1000FFFFFFFF0000000000FFFFFFFFFFFFFFBC
:102F2000FFFFFFFF000000000000000000000000A5
:102F30000000000000000000000000000000000091
:102F40000000000000000000000000000000000081
:102F500000000000FFFFFFFFFF0000000000000076
:102F600000000000FFFFFFFFFFFFFFFFFFFFFFFF6D
:102F7000FFFFFFFFFFFFFFFFFFFFFFFFFFFFFFFF61
:102F8000FFFFFFFFFFFFFFFFFFFFFFFF50000000FD
:102F90002000040A04000000000F1F3F7E7C7C1C00
:102FA0001E1C1F1C1E1C1E1C00000000020000181E
:102FB000000C000000400000001C1C1E1C1F1C1EFA
:102FC0001C1C1C1C1E1C1C7C0000205020000080AF
:102FD0000000180030000000001C1C1C1E1C1C1CE3
:102FE0001C1E1C1E1C1C1E7C000000300060000407
:102FF0000A04000000FFFFFF001C1E1C1C1C1C1EFE
:103000001C1F1C1C1E0F070300FFFFFFFFFFFFFF1D
:10301000FFFFFFFFFFFFFFFFFFFFFFFFFFFFFFFFC0
:10302000FFFFFFFFFFFFFFFFFFFFFFFFFFFFFFFFB0
:10303000FFFFFFFFFFFFFFFFFFFFFFFFFFFFFFFFA0
:10304000FFFFFFFFFFFFFFFFFFFFFFFFFFFFFFFF90
:10305000FFFFFFFFFFFFFFFFFFFFFFFFFFFFFFFF80
:10306000FFFFFFFFFFFFFFFFFFFFFFFFFFFFFFFF70
:10307000FFFFFFFFFFFFFFFFFFFFFFFFFFFFFFFF60
:10308000FFFFFFFFFFFFFFFFFF101000C0E00EDC9F
:1030900080381E803C7000E0780000001D38007110
:1030A0003B00070338710660F20000080B000202C3
:1030B00002000009040000010202000005240010C3
:1030C000010524010101042402060524060001076C
:1030D00005810310004009040100020A00000007F6
:1030E00005020240000007058302400000040309B6
:1030F0000412010002EF0201404123368000010169
:1031000002030141726475696E6F204C4C430041AB
:10311000726475626F79001010FC020101010101F7
:10312000010101010101010101FF00000000000097
:103130000000000000000000000101010101010188
:103140000101010101010102FC000000000000007A
:103150000000000000000000FFFF00000000000071
:103160000000000000000000003F40808080808060
:1031700080808080808080808000000000000000CF
:103180000000000000000000FF80808080808080C0
:1031900080808080808080403F0000000000000030
:1031A000000000000000000000808080808080809F
:1031B0008080808080808080800101010101010188
:1031C00001010101010101010100000000000000F6
:1031D00000000000000000000000E02411241FBED9
:1031E000CFEFDAE0DEBFCDBF13E0A0E0B1E0E4E373
:1031F000F8E602C005900D92A635B107D9F72AE08E
:10320000A6E5B3E001C01D92A233B207E1F718E1D1
:10321000CEEED8E104C02197FE010E941234CD3ECB
:10322000D107C9F70E94E0250C9418340C940000D3
:10323000FF920F931F93CF93DF93F82E062FEA018F
:10324000122F20E030E040E051E46091040A7091D8
:10325000050A8091060A9091070A0E94E1310E94B6
:1032600052329B0177FF02C0215F3F4FC90134E01A
:10327000959587953A95E1F7F8161906A1F56091AD
:10328000080A7091090A80910A0A90910B0A0E941B
:1032900052329B0177FF02C0215F3F4FC90124E0FA
:1032A000959587952A95E1F708171906E1F480911D
:1032B0000D01811318C080910C0A8076803699F434
:1032C0009091F309892F8E7F90FF816082608093B7
:1032D000F30988EE93E09093F2098093F109D0937B
:1032E000F509C093F409DF91CF911F910F91FF90E1
:1032F000089520910E01269FF001279FF00D1124C3
:103300008E0F9F1FE091020AF091030AE80FF91F48
:10331000849190E008952F923F924F925F926F9226
:103320007F928F929F92AF92BF92CF92DF92EF9255
:10333000FF920F931F93CF93DF9300D01F92CDB7CF
:10334000DEB740E250E038E0B32E68E1662E61E37C
:10335000762E70E8A72EBA0183E0759567958A9559
:10336000E1F76983FB2CF61AE62ECB019695982F90
:1033700088279795879530E020E04A83DC01AC569A
:10338000BC4F4D01022F211109C0BA81B032C1F0EA
:1033900084E0B03371F4A2E0AB8313C0203759F45A
:1033A000AA81A03209F473C0B4E0A03309F070C060
:1033B00083E08B8306C085E04032D9F3A4E0ECCFF4
:1033C0001B82E7E1F1E31491F301D490E12FF0E0E7
:1033D000CB8089E191E3CC20E1F081E090E0AD2D5C
:1033E000A77011F490E080E0AD2DA695A695A69566
:1033F0008A0F911D8E9FD0018F9FB00D9E9FB00DA3
:103400001124CB80CA9EC001CB9E900D1124875EF3
:103410009E4CE20FF31F309709F442C0009709F465
:103420003FC04A2C401AE038F1050CF4412EF1E07F
:10343000ED2DE77009F4F0E0D694D694D6945F2E83
:103440005D0CFB01E50DF11D39970CF05F2CE12FB0
:10345000E4198401020F131F3E2CA42DAE0FBB27CD
:10346000BB1F6D01E32DB981EB1BE515C8F4B0E07E
:10347000A0E0A41578F4FC01EA0FFB1F249037FCB0
:1034800004C0F801EA0FFB1F20821196F2CFB1E0D1
:10349000BB8397CF8C0D9D1D00581F4F3394E2CFF7
:1034A000205F3F4F2038310509F06CCF405F5F4F00
:1034B0004034510509F04FCF0F900F900F90DF91DE
:1034C000CF911F910F91FF90EF90DF90CF90BF9021
:1034D000AF909F908F907F906F905F904F903F90B4
:1034E0002F900895E4E9F3E0A0E0B8E000800EBC7E
:1034F0008111012C1197A0FDFDCF0192B9F70DB4F8
:103500000895FC0180919303882311F13FB7F8944B
:1035100082E08093E9002091F200822F90E018165B
:10352000190614F481E090E0882339F0289844E6E5
:10353000409392034091F1004083222339F020917F
:10354000F200211103C02BE62093E8003FBF08954D
:103550008FEF9FEF08952FB7F89483E08093E900F1
:103560009091E800892F807295FF04C09091F2003D
:1035700080E4891B2FBF089580918A0381110DC0BB
:1035800082E08093860384E080938703109289030E
:103590001092880381E080938A0386E893E008957F
:1035A000CF93DF931F92CDB7DEB76983DC01ED9136
:1035B000FC910280F381E02D41E050E0BE016F5F9D
:1035C0007F4F09950F90DF91CF91089583E080930D
:1035D000E9008091F200882319F08AE38093E800E3
:1035E00008950E94AB1A90E00895CF93DF931F9245
:1035F000CDB7DEB7FC018485958597FD08C02FEF18
:103600003FEF358724870F90DF91CF910895CE014A
:1036100001960E94811A019719F4898190E0F3CFF5
:103620008FEF9FEFF0CF0F931F93CF93DF931F92F6
:10363000CDB7DEB78C01FC018485958597FF0BC063
:10364000CE0101960E94811A019771F4898190E060
:10365000F80195878487F801848595850F90DF911F
:10366000CF911F910F9108958FEF9FEFF1CFFC0144
:103670008485958597FD0BC09FB7F89482E0809371
:10368000E9008091F2009FBF90E0019608959FB7F6
:10369000F89482E08093E9008091F2009FBF90E06F
:1036A0000895409180035091810320917E033091D1
:1036B0007F0342175307B4F49091E8009570E1F34B
:1036C0009091E80092FD19C08093F10080918003F1
:1036D0009091810301968F739927892B19F48EEFAE
:1036E0008093E800809180039091810301969093EC
:1036F00081038093800381E0089580E00895DF9244
:10370000EF92FF920F931F93CF93DF93D82E8A01EE
:10371000EB017B01E40EF51ECE15DF0559F0D7FE57
:1037200012C0FE0184910E94511B21968111F4CF99
:103730000FEF1FEFC801DF91CF911F910F91FF9005
:10374000EF90DF9008958881EECF0F931F93CF9372
:10375000DF931F92CDB7DEB782E0898342E450E069
:103760006BEA70E380E80E947F1B0E94BC1ADC01B8
:1037700012960D911C910115110589F0D801ED915A
:10378000FC910280F381E02DBE016F5F7F4FC80185
:10379000099597FD04C0F80100851185ECCF89815A
:1037A0000F90DF91CF911F910F910895615030F0EC
:1037B0002091F100FC0120830196F8CF289884E63F
:1037C000809392030895AF92BF92CF92DF92EF92CF
:1037D000FF920F931F93CF93DF936C017B018B01BB
:1037E000040F151FEB015E01AE18BF08C017D1070B
:1037F00059F06991D601ED91FC910190F081E02D95
:10380000C6010995892B79F7C501DF91CF911F91E9
:103810000F91FF90EF90DF90CF90BF90AF90089501
:10382000FC010E94A71C319728F068517C4F8F4FF4
:103830009F4FF9CFAB01FC010E94A71C64177507CD
:103840008E079F07C8F308958F929F92AF92BF9201
:10385000CF92DF92EF92FF920F931F93CF93DF935C
:103860006C017B018A0180910C01882309F45AC004
:1038700080919303882309F455C08091850380FFCC
:1038800005C08091E00082608093E000E801B12CE7
:103890008AEFA82E93E0892E2AE3922E209711F426
:1038A000BB20C9F10E94AB1A811108C0AA94AA20BA
:1038B000C9F181E090E00E94101CF0CF8C171D062A
:1038C00011F00CF08C2F9FB7F8948092E9002091B2
:1038D000E80025FD02C09FBFE1CF282F30E0C21BCA
:1038E000D30BF701815020F041914093F100FACFC2
:1038F000E20EF31EBB2021F09092E800B12CEBCF3A
:103900008091E80085FDE7CF9092E800BB24B39456
:10391000209709F3F3CF5D9884E680938403101613
:1039200011063CF081E090E0F6019383828310E081
:1039300000E0C801DF91CF911F910F91FF90EF90B0
:10394000DF90CF90BF90AF909F908F900895A8E6A2
:10395000B3E02FB7F8947D918D919C9166B52FBF00
:10396000A89B05C06F3F18F47F5F8F4F9F4F22E0E9
:10397000660F771F881F991F2A95D1F708954F92D8
:103980005F926F927F928F929F92AF92BF92CF92EF
:10399000DF92EF92FF920F931F93CF93DF934C012F
:1039A0005901FC2DC02FD0E0CE01880D991D1816AD
:1039B00019060CF06CC020E8821691040CF067C068
:1039C0009B012E0D311D121613060CF060C06034E1
:1039D00071050CF05CC04115510509F458C0E62F83
:1039E000E770FE2EDB0177FD179633E0B595A795BE
:1039F0003A95E1F73A2F77FF04C0FF2011F03FEF2F
:103A00003A0F662777276819790997FC02C070E09A
:103A100060E0803891050CF44BC090E89819961B33
:103A2000A32F032E000CBB0B1A2F10953F3F0CF059
:103A300010E021E08E2D877009F420E0E694E694F2
:103A4000E694E20EAE0DB11D19971CF028E0E22EAF
:103A5000E31AE11A310F20E83203D0011124A80D36
:103A6000B91DA60FB71F019F600D711D1124460FD0
:103A7000571F0F2D0F2C000C110BF33009F41CC134
:103A8000C8F4F13009F4D0C0F23009F47CC0DF9101
:103A9000CF911F910F91FF90EF90DF90CF90BF904B
:103AA000AF909F908F907F906F905F904F90089510
:103AB000902FB5CFFA3FB1F1232F2E0DFB3F39F7F1
:103AC000321729F3BD016C567C4FD12CC12CC9167D
:103AD00008F0A4C0FA01EC0DFD1DE491F0E04F01E7
:103AE000002E02C0880C991C0A94E2F737FD06C02C
:103AF000FB018081E82CE0948E218083FF2061F01F
:103B0000373054F45B01F0E8AF0EB11CE92CE094BF
:103B1000F50180818E218083FFEFCF1ADF0A6F5F6E
:103B20007F4FD5CF232F2E0D321709F4B0CFBD0113
:103B30006C567C4FD12CC12CC91608F069C0FA0113
:103B4000EC0DFD1DE491F0E04F01002E02C0880C49
:103B5000991C0A94E2F737FD04C0FB018081882993
:103B60008083FF2051F0373044F45B01F0E8AF0E62
:103B7000B11CF501808189298083FFEFCF1ADF0A0C
:103B80006F5F7F4FD9CF6FEF70E00F2C02C0660FD1
:103B9000771F0A94E2F760957095772E232F2E0DEC
:103BA000321709F474CFFD01EC56FC4F6F01B12CB4
:103BB000A12CA91638F5FA01EA0DFB1DE491F0E0FD
:103BC0002F01002E02C0440C551C0A94E2F737FD69
:103BD00005C0F6018081862384298083FF2059F067
:103BE00037304CF44601F0E88F0E911CF4018081CF
:103BF000872185298083FFEFAF1ABF0A8FEFC81A8C
:103C0000D80AD7CF3F5F4C0F5D1FA058BF4FC8CF1A
:103C10003F5F4C0F5D1FA058BF4F86CF3F5F4C0FDB
:103C20005D1FA058BF4F4CCF6A0D7B1D232F2E0D5B
:103C3000321709F42CCFFD01EC56FC4F6F01B12C6B
:103C4000A12CA91688F5FB01EA0DFB1D8490912C8F
:103C5000002E02C0880C991C0A94E2F7809490947C
:103C6000FA01EA0DFB1D6490712C002E02C0660C57
:103C7000771C0A94E2F737FD05C0F60180818821A0
:103C800086298083FF2049F037303CF4F601E05864
:103C9000FF4F8081892187298083FFEFAF1ABF0AF8
:103CA0008FEFC81AD80ACDCF3F5F4C0F5D1F6C0F46
:103CB0007D1FA058BF4FBCCFC92ED12CFA01E60FF3
:103CC000F71FAC56BC4F00E810E00C191D09CC19C9
:103CD000DD09BE01660F771F41E050E06A010F2C3D
:103CE00001C0CC0C0A94EAF7592F2E2D792ECF93D0
:103CF000DF93ED01EF96EF9622968590A590FF2039
:103D000059F08C9C4001AC9C500137302CF4E88079
:103D1000B094EB20E928E99233233AF0EC90A09498
:103D2000EA20E828ED920C94961E11965A9529F7F0
:103D30002A9551F0572D33951124E60FF11DA00F50
:103D4000B11DC00FD11DD9CFDF91CF9111249FCECE
:103D5000CF92EF920F93CF934115510561F1FA0184
:103D6000C4913196E4904E5F5F4F2223F1F0E1E081
:103D7000F0E03E2D377011F4F0E0E0E0AE2DA695B6
:103D8000A695A695AE0FBF2FB11DCA9FF001CB9F80
:103D9000F00D1124033011F4EE0FFF1F2E9FD00100
:103DA0002F9FB00D11244A0F5B1FC02E0C2F30E047
:103DB00020E00E94BF1CCF910F91EF90CF9008950B
:103DC00090E00C94101C8FB18095807F669B88607A
:103DD0001C9B846008955C988EBD00000DB407FEA6
:103DE000FDCF5C9A089590E1282F81E061FD84E089
:103DF00060FD880F62FD8295687F969FD001112437
:103E0000A20FAC56BC4F0C90082A40FF08260C921B
:103E100008958F929F92AF92BF92CF92DF92EF92CE
:103E2000FF920F931F93CF93DF936D3009F45FC020
:103E30006A3009F44CC080916503811140C0C09084
:103E40007003D090710300916E0310916F0385E0B1
:103E5000689FE0011124C453D94F5801F12CE5E0CB
:103E6000E12CFE1629F0CE010196FE01E490EC0152
:103E7000912C812CF0E8AF16B10458F4B601680D0E
:103E8000791D6034710528F44E2D4170C5010E94E2
:103E9000F31EE6948FEF881A980AE8E08E169104D4
:103EA00049F7F394FFEFAF1ABF0A86E0F812D7CFB5
:103EB0000A5F1F4F10936F0300936E0318C0809129
:103EC0006E0390916F038C3791050CF4B8CF10926C
:103ED0006F0310926E0380917003909171030896A6
:103EE00090937103809370036A3009F0A8CF81E04A
:103EF00090E0DF91CF911F910F91FF90EF90DF90B5
:103F0000CF90BF90AF909F908F9008959091740341
:103F1000982329F490917503982381E009F480E0B7
:103F20000895CF93C82F0E94E31E982F9C2381E011
:103F30009C1380E0CF91089580E00C94721AE8E120
:103F4000F1E09191981731F091E0E234F907C9F767
:103F500080E0089581E008954F925F926F927F9282
:103F60008F929F92AF92BF92CF92DF92EF92FF9289
:103F7000CF93DF9300D000D01F92CDB7DEB74B01B7
:103F80005C0129013A0120E030E040E051E40E9468
:103F9000E13120E030E040E850E40E94E03120E0F0
:103FA00030E040E85DE30E947D3320E030E040E017
:103FB0005FE30E94E1310E94593269837A838B83E7
:103FC0009C8320E030E040E051E4C301B2010E9454
:103FD000E13120E030E040E850E40E94E03120E0B0
:103FE00030E040E85DE30E947D3320E030E040E0D7
:103FF0005FE30E94E1310E9459326B0120E030E022
:1040000040E850E4C301B2010E94E13120E030E019
:1040100040E85DE30E947D330E9459322B0120E08D
:1040200030E040E850E4C501B4010E94E13120E0F5
:1040300030E040E85DE30E947D330E9459324B013D
:10404000B201C4010E9479190E949F1F811121C0F1
:1040500081E08D83B201C4010E9479190E949F1FE3
:10406000811133C081E08D838D810F900F900F906F
:104070000F900F90DF91CF91FF90EF90DF90CF9056
:10408000BF90AF909F908F907F906F905F904F9078
:104090000895B20189819A810E9479190E949F1F17
:1040A0008823B1F2B601C4010E9479190E949F1FB2
:1040B000882371F2B60189819A810E9479190E9440
:1040C0009F1F91E098279D83C5CFB20189819A8176
:1040D0000E9479190E949F1F882321F2B601C40112
:1040E0000E9479190E949F1F882309F4BBCFB60153
:1040F00089819A810E9479190E949F1F882309F45F
:10410000B1CFB2CF089590E080E00895FB01019017
:104110000020E9F73197AF01461B570B0C94E31BC6
:104120008F929F92AF92BF92EF92FF920F931F9345
:10413000CF93DF93CDB7DEB7A1970FB6F894DEBF6C
:104140000FBECDBF7C01FA01CB0119A2223008F4C9
:104150002AE08E010F5D1F4F822E912CB12CA12CD5
:10416000BF01A50194010E94AF31F901CA016A3073
:104170000CF5605DD8016E938D01232B242B252B2C
:1041800079F790E080E0109721F0BD01C7010E940F
:104190008620A1960FB6F894DEBF0FBECDBFDF918B
:1041A000CF911F910F91FF90EF90BF90AF909F9094
:1041B0008F900895695CDECF4F925F926F927F92ED
:1041C0008F929F92AF92BF92CF92DF92EF92FF9227
:1041D0000F931F93CF93DF938C010E948B1983E081
:1041E00090E090936F0380936E0383E290E090934E
:1041F00071038093700310926503D8011396ED91BB
:10420000FC91EF0109900020E9F72197CE1BDF0B0D
:104210005C2E712C612C412CDD2723E0C22ED12C89
:1042200033E2A32EB12C451408F07FC0B2E0B615DE
:1042300008F47BC0711019C093E0E92EF12C83E2E1
:10424000882E912C40E0B401C7010E94F31EEFEFCD
:104250008E1A9E0AFBE38F169104A1F78FEFE81ADE
:10426000F80AABE7EA16F10451F7E42CF12C9701B8
:104270002C5E3F4F8C2F2C173D070CF4822F982E6D
:104280008150841560F0D8011396ED91FC91E80FF0
:10429000F11D90819032A1F799249394980EE9141E
:1042A000F8F4D8011396ED91FC911497EE0DFF1DD3
:1042B000608112968C9181FF0EC08DE19AE00E9480
:1042C000091F82E390E00E94101C0E949C1FBFEF18
:1042D000EB1AFB0AE4CF8DE19AE00E94091FF7CFA9
:1042E0007394E3E07E1213C06394D0926F03C09284
:1042F0006E03B0927103A09270036E1629F0D8017C
:104300008D919C910E94101C712C492C8CCF809116
:104310007003909171030896D0926F03C0926E0360
:104320009093710380937003F0CF10926F031092FB
:104330006E031092710310927003F801828181FF65
:1043400006C0541004C08D7F828311821082DF91D9
:10435000CF911F910F91FF90EF90DF90CF90BF9082
:10436000AF909F908F907F906F905F904F90089547
:104370000E940B312AE130E040E050E00E947D31A4
:10438000862F08951F920F920FB60F9211248F93CC
:104390009F938091E1009091E100937F9093E100E1
:1043A00083FF0FC01092E90091E09093EB00109210
:1043B000EC0092E39093ED001092930398E09093B9
:1043C000F00082FF22C093E09093E9009091F20008
:1043D000992319F09AE39093E8009091840399232C
:1043E00041F090918403915090938403911101C006
:1043F0005D9A90919203992341F09091920391508C
:1044000090939203911101C0289A84FF18C0809163
:10441000E2008E7E81608093E2008091E1008F7ED9
:104420008093E100809185038E7E80618093850377
:104430009F918F910F900FBE0F901F90189580FF46
:10444000F7CF8091E2008E7E80618093E2008091C0
:10445000E1008E7E8093E100809185038E7E8160F5
:10446000E5CF1F920F920FB60F921124CF92DF92D9
:10447000EF92FF920F931F932F933F934F935F936E
:104480006F937F938F939F93AF93BF93EF93FF931C
:10449000CF93DF93CDB7DEB76C97DEBFCDBF109261
:1044A000E9008091E80083FF25C068E0CE014596D1
:1044B0000E94D61B82EF8093E8008D8987FF39C068
:1044C0009091E80090FFFCCF982F907609F034C1CE
:1044D0009E894F89588D2F89F88C911131C0803871
:1044E00061F5809183038093F1001092F1008EEFCB
:1044F0008093E8006C960FB6F894DEBF0FBECDBF78
:10450000DF91CF91FF91EF91BF91AF919F918F91EB
:104510007F916F915F914F913F912F911F910F91DB
:10452000FF90EF90DF90CF900F900FBE0F901F90F5
:1045300018959EEF9093E800C7CF1092F100D5CF69
:10454000913059F48111D3CF4130510581F68091DA
:1045500083038D7F80938303CACF933049F4811105
:10456000C6CF4130510519F6809183038260F2CFA6
:10457000953041F48091E80080FFFCCF20682093C3
:10458000E300B5CF963009F0A9C00B8D1C8D22E059
:104590001092E9001092810310928003F2122EC053
:1045A00010927F0310927E030E94A51B1F8299E048
:1045B0009983FA8291E09E8390EA98879AEF99878F
:1045C0002091800330918103275F3F4F3C832B83F1
:1045D0008D831092E9001092810310928003109352
:1045E0007F0300937E0349E050E0BE016F5F7F4F81
:1045F00080E00E947F1B0E94A51B79CF10937F0350
:1046000000937E030E94BC1ADC0112960D911C914E
:104610000115110509F451C1D801ED91FC910480F7
:10462000F581E02DBE016B5E7F4FC80109950097B3
:1046300009F03EC1F80100851185EACFF3E0FF12D1
:104640000EC08F89882309F440C0823061F440E8AD
:1046500067E08FE091E30E94AD24811148CF81E2B1
:104660008093EB0047CF813029F440E86BE083E092
:1046700091E3F1CF833099F70E94BC1ADC011296C6
:10468000ED90FC908E010F5F1F4F6801E114F10463
:1046900079F0D701ED91FC910680F781E02DB8010A
:1046A000C7010995080F111DF701E084F184EECFD1
:1046B000D8011C92F60101900020E9F73197BF0163
:1046C0006C197D0940E0C601C6CF6DEE70E3FB01B9
:1046D000449150E080E80E947F1B09CF973009F495
:1046E000BECF983021F481E08093F10000CF993063
:1046F00009F0FDCE837009F0B2CFE1E2F2E081E093
:1047000031E096E32191222371F08093E900309308
:10471000EB00DF0111972C912093EC009093ED00BA
:104720008F5F873079F78EE78093EA001092EA0076
:104730008F8980939303DBCE8B8D9C8D1092E90043
:10474000109281031092800390937F0380937E03E5
:10475000898D811192C08E899D89913A49F4813267
:1047600009F07DCF47E050E065E071E080E0B3CF35
:10477000913209F074CF833269F48F89988DB0E05B
:10478000A0E08093010190930201A0930301B093F4
:104790000401ADCE803269F48091E80082FFFCCF45
:1047A00067E085E091E00E94D61B8BEF8093E800E4
:1047B0009ECE823209F09BCE8F8980930C01EEEF62
:1047C000FFE7859194918B3F9C4D51F1E0E0F8E03B
:1047D0008091050190910601A0910701B091080117
:1047E000803B9440A105B105F1F480910C0180FD5E
:1047F0001AC0EE3F8AE0F80789F587E797E79183CB
:104800008083809160008093820388E19BE00FB6F3
:10481000F894A895809360000FBE9093600067CED7
:10482000EEEFFAE0D5CF808191818737974709F085
:104830005ECEA89580916000886180936000809131
:10484000820380936000EE3F2AE0F20789F08091B6
:10485000FE0A9091FF0A9183808349CE80819181E5
:104860008737980751F29093FF0A8093FE0AC5CFCD
:104870001092FF0A1092FE0A3ACE0E94BC1ADC0186
:1048800012960D911C910115110509F4E8CED8017D
:10489000ED91FC910190F081E02DBE016B5E7F4FA8
:1048A000C8010995811123CEF80100851185EBCF50
:1048B000181619060CF41BCED2CEF1E0FF12BECEB4
:1048C00061EF70E304CF0F920FB68F939F93EF9336
:1048D000FF93809167038D5F8D3708F08D5780932C
:1048E0006703E6E7F3E080818E4F808391819F4FDD
:1048F000918382818F4F828383818F4F8383E8E608
:10490000F3E080818F5F808381818F4F81838281FB
:104910008F4F828383818F4F83838FB18F6066999E
:104920001C9B88278F3681F480916603981B9630F4
:1049300068F0E0E0F8E087E78083818388E1809396
:104940006000F0936000FFCF90936603FF91EF91BA
:104950009F918F910FBE0F901895EF92FF920F933A
:104960001F93CF93DF93F82E192FE62E042F81E0AB
:10497000860F880F0E94511B83E00E94511BCF2D90
:10498000D12FEC0EFD2EF11CCE15DF05B9F007FF7F
:1049900013C0FE0184910E94511B182F80E00E94D9
:1049A000511B812321968111EFCFDF91CF911F9170
:1049B0000F91FF90EF9008958881EDCF81E0F5CFC2
:1049C0008F929F92AF92BF92DF92EF92FF920F93DE
:1049D0001F93CF93DF93109297071092960788EE5C
:1049E00093E0A0E0B0E08093980790939907A0939C
:1049F0009A07B0939B078BE292E090939507809380
:104A000094078FEF9FEF9093A1078093A0071092D8
:104A1000E7071092E6078DE392E09093E507809315
:104A2000E40710921C0A10921B0A90931A0A8093B2
:104A3000190A85E492E090930E0A80930D0A109271
:104A4000040A1092050A1092060A1092070A1092A0
:104A5000080A1092090A10920A0A10920B0A809111
:104A60000C0A8061807F80930C0A1092170A1092C2
:104A7000030A1092020A88E08093FE0984E0809382
:104A8000FF098093000A82E08093010A1092F609E0
:104A90001092F7091092F8091092F9091092FA0988
:104AA0001092FB091092FC091092FD0988EE93E028
:104AB0009093F2098093F1098091F3098D7F80939F
:104AC000F3091092F3071092F4071092ED0985E0B4
:104AD000E1EFF9E0ACEEB7E001900D928A95E1F7D5
:104AE00080E88093F009CCEED7E002ED19E084E194
:104AF000E82EF12C90E8D92E812C912C2AEFA22EB1
:104B000023E4B22E0E94AF30B7010E94FE338F5FC4
:104B1000D9868B869C86AD86BE868F87888B8A8B4E
:104B2000898B62960C171D0769F780910F0120E1B0
:104B3000829FC00111249093EB078093EA07809134
:104B40000E0120E1829FC00111249093E907809318
:104B5000E8071092200A10921F0A8DE392E09093CA
:104B60001E0A80931D0A10922F0A10922E0A90930B
:104B70002D0A80932C0A8AE492E09093230A809372
:104B8000220A1092240A1092250A1092260A1092E4
:104B9000270A1092280A1092290A10922A0A1092C3
:104BA0002B0A8CE38093310ADF91CF911F910F91F3
:104BB000FF90EF90DF90BF90AF909F908F900895FF
:104BC000CDB7DEB72E97DEBFCDBF789483E084BD2E
:104BD00083E085BD81E080936E00E1E8F0E083E052
:104BE0008083E0E881E08083E1E983E08083E0E99D
:104BF00081E08083E1EC87E08083E3EC81E08083E7
:104C0000E0EC82E08083E2EC81E08083EAE787E009
:104C100080838068808310929303109283031092A4
:104C200085038091D70081608093D70080EA8093CC
:104C3000D80089B5806189BD89B5826089BD09B414
:104C400000FEFDCF81E090E00E94101C8091D80012
:104C50008F7C80618093D8008091E000807F80937A
:104C6000E0008091E1008E7E8093E1008DE08093F2
:104C7000E200559A209A81EC80937C0081EF85B9FF
:104C800087EE84B982E38BB982EF8AB9769A6E98FF
:104C900080EF81BB10BA80E58CBD81E08DBD85E0E1
:104CA0000E94E01E5F9A85E00E94E01E5C98ECE79F
:104CB000FCE085918EBD00000DB407FEFDCFE93804
:104CC000C1F75C9A81E88093640081E0809365007D
:104CD0000E949C1F80E80E94911F882381F085EA32
:104CE0000E94EB1E2E982F982D9880916400806270
:104CF0008093640081E083BF889513BEFCCF84E07D
:104D00000E94911F8823B9F12D9884E80E94911F79
:104D10008823A1F02D9A88EC0E94E01E2F986FEF57
:104D200082E090E00E946B3184EF91E00E94101CC1
:104D30002F9A84E80E94911F8111FBCF84E10E9489
:104D4000911F8823A1F02D9A88EC0E94E01E2E98D6
:104D500060E082E090E00E946B3184EF91E00E947D
:104D6000101C2E9A84E10E94911F8111FBCF88ECC8
:104D70000E94E01EC4CF2D9A82E090E00E94633131
:104D8000882309F4A5C03E9A3F9A81E090E00E94F2
:104D90006331182F147081FF0EC011112E98B1EFDE
:104DA0008B2E99249A9480E40E94911F882309F401
:104DB00092C02E9A2F9A82E30E94E01E0E94E31E68
:104DC0008111F9CF6091310A70E088EE93E00E9482
:104DD000FE3360930001809164008E7F80936400B5
:104DE00080917A00806480937A0080917A0086FDB9
:104DF000FCCF00917800109179000E94A71CAB01B4
:104E0000BC01C801B0E0A0E0DC01992788278C0133
:104E10009D01040F151F261F371FC901B8012091DE
:104E2000640021602093640061157105810591057E
:104E300011F00E945A318FE89FE09093100A8093FE
:104E40000F0A8DE89EE09093120A8093110A8BE876
:104E50009DE09093140A8093130A89E89CE0909354
:104E6000160A8093150A80E090E0A0E2B3E48093F4
:104E7000040A9093050AA093060AB093070A1092B9
:104E8000080A1092090A10920A0A10920B0A2FB708
:104E9000F8948091760390917703A0917803B09174
:104EA00079032FBF80937A0390937B03A0937C03B5
:104EB000B0937D0380916C03882309F4B0C01092F5
:104EC0006C0380E090E0892BA9F30E940000F2CFF0
:104ED0003E983F985ACF112331F004E08016910498
:104EE00011F42E9A2F9881E00E94721A282D2770B3
:104EF000A22EA401F3E055954795FA95E1F79A01A2
:104F00003695322F2227379527952C563C4F70E047
:104F100060E04E3F8FEF580761F190E080E0DB01E9
:104F2000A453B44F7901E0E8EE0EF11CFD01E80F47
:104F3000F91FE491F0E03F010A2C02C0660C771CD7
:104F40000A94E2F74F3F540739F06901C80ED91EA1
:104F5000F601B488B628B48AAA2039F06701C80ED1
:104F6000D91EF60104890729048B0196883591051D
:104F7000E9F64F5F5F4F20583F4F685A7F4F603BC5
:104F8000710539F60E949C1F8FE00E94E01EFFEF22
:104F90008F1A9F0A09E18016910409F004CF1123AA
:104FA00011F02F9A2D9880E991E00E94101C2D9A03
:104FB00081E090E00E94633180FFFDCE8AE090E0C6
:104FC0000E9463319FEF980F9E3F08F0F4CE22E3DA
:104FD00030E030936F0320936E0328E330E030938A
:104FE0007103209370030AE010E01A830983682F8D
:104FF00089E19AE00E94091F09811A810F5F1F4F02
:105000001A830983C8010E9463310031110579F7C1
:105010000E949C1F88EE93E00E94101CCCCE9091C1
:10502000760380916D03192F181B812F20910001A9
:10503000121748F48F5F821708F043CF81E083BFD7
:10504000889513BE3ECF81E080936C0390936D03EF
:10505000E2E7F3E0808191810196808391838FB7AD
:10506000F8944091760350917703609178037091A2
:1050700079038FBF80917A03042F081B09832FB710
:10508000F8948091760390917703A0917803B09182
:1050900079032FBF80937A0390937B03A0937C03C3
:1050A000B0937D0380917503809374030E94E31E87
:1050B000809375039091F30980910C0A807F90FD95
:1050C000CEC39091F3079111CAC380930C0A80E27A
:1050D0000E94911F882309F42AC380910C0A84FB43
:1050E000992790F9919593708C79892B80628093A0
:1050F0000C0A80E80E94911F882309F427C380913D
:105100000C0A84FB992790F991959C70837F892BD9
:10511000806680930C0A8090040A9090050AA09003
:10512000060AB090070A20E030E0A901C501B401E9
:105130000E944D3287FF1AC31092040A1092050A8A
:105140001092060A1092070A8090080A9090090AA5
:10515000A0900A0AB0900B0A20E030E040E85FEB34
:10516000C501B4010E944D3281111EC380E090E060
:10517000A0E8BFEB8093080A9093090AA0930A0A5B
:10518000B0930B0A10910C0A1D83812F807609F4CD
:1051900029C300910C0A0D83802F80768036D9F5C3
:1051A0006D816295607F66FB660F660B60F9062E67
:1051B000000C770B880B990B0E948A322091080A09
:1051C0003091090A40910A0A50910B0A0E94E1317C
:1051D0006B017C016D816295660F660F607C66FBDA
:1051E000660F660B60F9062E000C770B880B990B87
:1051F0000E948A322091040A3091050A4091060AE1
:105200005091070A0E94E131A70196010E94AC1F4C
:10521000882309F421C38091F307882309F46CC023
:105220008091F407823018F082E08093F4071091A7
:10523000EE091D831123C1F080E10E94861F88239F
:1052400039F08091F407823018F48F5F8093F4076F
:1052500080E80E94861F882339F08091F407882314
:1052600019F081508093F40788E00E94861F8823FC
:1052700009F471C08091F4078111FDC29091EE078D
:10528000892F8E7F90FF816082608093EE0788EE89
:1052900093E09093ED078093EC0782E592E0909382
:1052A000F0078093EF070D81011124C06091240A5B
:1052B00070E090E080E00E948A329B01AC01609136
:1052C000280A7091290A80912A0A90912B0A0E943B
:1052D000E0316B017C0120E030E0A9010E944D32F9
:1052E00087FDC0C2C092280AD092290AE0922A0AF9
:1052F000F0922B0A1092EE0988E00E94861F882304
:1053000051F121E047E952E065E083E00E9418197D
:1053100021E043EB52E065E08BE00E94181921E0A8
:1053200040EC52E069E087E00E94181921E047EE66
:1053300052E06DE08DE00E94181925E14FEF52E038
:1053400061E083E00E94181925E14FEF52E061E02F
:1053500084E00E94181919811093300A20E030E08F
:1053600040E85DE36091080A7091090A80910A0A99
:1053700090910B0A0E947D330E9452326B0120E013
:1053800030E040E85DE36091040A7091050A809185
:10539000060A9091070A0E947D330E945232CB0187
:1053A000B6010E9479198F37910509F0A2C080914A
:1053B0000C0A282F2295220F220F207C26FB220F79
:1053C000220B20F98295807F86FB880F880B80F95D
:1053D000082E000C990B820F911D27FD9A95181627
:1053E00019060CF086C080917203909173036EE1F0
:1053F00070E00E94EA33892B09F07BC00091F3072B
:10540000098301117BC00E940B3129E030E040E0AC
:1054100050E00E947D31DC01CB010196A11DB11D40
:105420008093F207883009F064C086EA0E94EB1E80
:1054300015E01D8311E009810127098387EA011125
:1054400001C086EA0E94EB1E80E991E00E94101CD8
:105450000D8101500D830111EECF86EA0E94EB1EF3
:105460000E940B312AE130E040E050E00E947D31A3
:105470006093F10781E08093F3078093EE090E9427
:10548000AF306AE170E00E94FE338F5F8093EF09D6
:105490000E94B821F82E0E94B821082F0E94B8213E
:1054A000182F0E94B8218D830E94B82189830E9401
:1054B000B821F092210A2EE233E03093230A2093A0
:1054C000220A0093240A1093250A1D811093260AAC
:1054D00009810093270A682F70E090E080E00E9425
:1054E00088326093280A7093290A80932A0A90933D
:1054F0002B0A8091F307882309F4F8C18091F00901
:105500008150813308F4F0C18093F0098091EE0757
:10551000182F1170198380FD03C081E08093EE097C
:105520006091280A7091290A80912A0A90912B0A89
:105530000E945932611123C091E009819027809126
:10554000EE0790FB80F982608093EE0728EE33E04F
:105550003093ED072093EC072CE133E03093F00714
:105560002093EF0791110BC088EB9BE00E94101C69
:105570001092F30780E88093F0091092EE0990E012
:10558000E4E9F3E091119FEF8FEF91939193919361
:1055900091938150D0F71092710310927003109282
:1055A0006F0310926E038091F3078111BBC440908A
:1055B000F6095090F7096090F8097090F909809009
:1055C000FA099090FB09A090FC09B090FD090091A8
:1055D000FE0909831091FF09E0910D01E15090E06F
:1055E00080E0E53138F4F0E0EE0FFF1FE25BFE4FA4
:1055F000808191819093030A8093020AC501B401CE
:105600000E9459326D83160F1F5FC301B2010E94C1
:105610005932F62E0981060F0F5F09833D81232F32
:1056200030E03E872D878D85811708F0A1C32F2C90
:10563000312C8D859E85092E000CAA0BBB0B89870A
:105640009A87AB87BC879981291608F08CC3809113
:105650000E01AD85BE858A9F60018B9FD00C112401
:10566000C20CD31CE091020AF091030AEC0DFD1D5F
:10567000E491CE2ED12C69857A858B859C850E94FC
:105680008A32A50194010E94E03120E030E040E838
:1056900051E40E947D330E9452326D837E838F835A
:1056A0009887B101032C000C880B990B0E948A3259
:1056B000A30192010E94E03120E030E040E851E493
:1056C0000E947D330E945232CB01E7E0FFE104915A
:1056D000E8E0FFE1E49049E05FE1C114D104D9F0D2
:1056E00021E030E04E2D477011F430E020E04E2DE7
:1056F000469546954695240F311D029FB001039FA4
:10570000700D11246C9DA0016D9D500D7C9D500D60
:105710001124475F504E22E0C22E30E020E06D8120
:105720007E810E94BF1CFFEF2F1A3F0A8CCF80E4BE
:105730000E94911F882309F4DCCC80910C0A84FB21
:10574000992790F98C79892B8064D1CC80E10E94D3
:10575000911F882309F4DFCC80910C0A84FB9927E0
:1057600090F9990F990F8379892BD3CC6091E80731
:105770007091E9076051710990E080E00E948832E1
:105780006B017C01AC019B01C501B4010E9478331F
:1057900018160CF0D9CCC092040AD092050AE092F7
:1057A000060AF092070AD0CC6091EA077091EB07E5
:1057B0006051710990E080E00E9488326B017C01A9
:1057C000AC019B01C501B4010E94783318160CF09E
:1057D000D9CCC092080AD092090AE0920A0AF09243
:1057E0000B0AD0CC6D816295607F66FB660F660BFD
:1057F00060F9062E000C770B880B990B0E948A32F9
:105800002091080A3091090A40910A0A50910B0A26
:105810000E94E1316B017C016D816295660F660F1C
:10582000607C66FB660F660B60F9062E000C770B3A
:10583000880B990B0E948A322091040A3091050A44
:105840004091060A5091070A0E94E131A701960192
:105850000E94AC1F81119DCC80910C0A8C7F80939B
:105860000C0AD9CC1092280A1092290A10922A0AFE
:1058700010922B0A3FCD8130B1F49091EE07892729
:1058800080FB90F9892F82608093EE0788EE93E089
:105890009093ED078093EC0786E692E09093F007F3
:1058A0008093EF0727CD823009F024CD8091EE0759
:1058B000982F909591708E7F892B82608093EE0750
:1058C00028EE33E03093ED072093EC072EE732E02B
:1058D0003093F0072093EF0791110CCD1092F3074E
:1058E00080E88093F00906CD80E30ECE20E030E022
:1058F00040E85DE36091080A7091090A80910A0A04
:1059000090910B0A0E947D336B017C016091010A2A
:10591000062E000C770B880B990B0E948A329B0194
:10592000AC01C701B6010E94E03120E030E040E068
:105930005FE30E94E1316B017C0160910E0170E038
:105940008091FE09681B710987FD7395072E000C75
:10595000880B990B0E948A324B015C0120E030E0F9
:1059600040E85DE36091040A7091050A8091060A9F
:105970009091070A0E947D332B013C016091000A3F
:10598000062E000C770B880B990B0E948A329B0124
:10599000AC01C301B2010E94E03120E030E040E000
:1059A0005FE30E94E131A50194010E94E4329B0172
:1059B000AC0160E070E0CB010E94C5326093F60953
:1059C0007093F7098093F8099093F90960910F019A
:1059D00070E08091FF09681B710987FD7395072EA0
:1059E000000C880B990B0E948A329B01AC01C70105
:1059F000B6010E94E4329B01AC0160E070E0CB0193
:105A00000E94C5326093FA097093FB098093FC09E8
:105A10009093FD0920910C0A2F7080917203909150
:105A200073036FE070E00E94EA33892B69F422234C
:105A300029F08091170A8F5F8093170A8091170AC7
:105A4000843010F01092170A211103C082E0809375
:105A5000170A65E273E084EE97E00E9486206CE20C
:105A600073E084EE97E00E9486204091170A50E090
:105A700070E060E02AE084EE97E00E9490201091B0
:105A80000C0A612F6295660F660F607C66FB660FDD
:105A9000660B60F9062E000C770B880B990B0E94A1
:105AA0008A322091040A3091050A4091060A5091E9
:105AB000070A0E94E1314B015C014090080A5090B6
:105AC000090A60900A0A70900B0A612F6295607F44
:105AD00066FB660F660B60F9062E000C770B880BD1
