:100000000C9413070C943B070C943B070C943B0790
:100010000C943B070C943B070C943B070C943B0758
:100020000C943B070C943B070C94810D0C94F00D41
:100030000C943B070C943B070C943B070C943B0738
:100040000C943B070C943B070C943B070C943B0728
:100050000C943B070C943B070C943B070C94221028
:100060000C943B070C943B070C943B070C943B0708
:100070000C943B070C943B070C943B070C943B07F8
:100080000C943B070C943B070C943B070C943B07E8
:100090000C943B070C943B070C943B070C943B07D8
:1000A0000C943B070C943B070C943B0700000000AA
:1000B000003E5B4F5B3E3E6B4F6B3E1C3E7C3E1CEE
:1000C000183C7E3C181C577D571C1C5E7F5E1C0034
:1000D000183C1800FFE7C3E7FF0018241800FFE7EB
:1000E000DBE7FF30483A060E2629792926407F05AE
:1000F0000507407F05253F5A3CE73C5A7F3E1C1CC4
:1001000008081C1C3E7F14227F22145F5F005F5F83
:1001100006097F017F006689956A6060606060946F
:10012000A2FFA29408047E040810207E2010080874
:100130002A1C08081C2A08081E101010100C1E0C7F
:100140001E0C30383E3830060E3E0E060000000011
:100150000000005F00000007000700147F147F14F8
:10016000242A7F2A1223130864623649562050003D
:1001700008070300001C2241000041221C002A1C29
:100180007F1C2A08083E0808008070300008080814
:100190000808000060600020100804023E51494534
:1001A0003E00427F400072494949462141494D3352
:1001B0001814127F1027454545393C4A49493141B9
:1001C000211109073649494936464949291E000087
:1001D00014000000403400000008142241141414DC
:1001E0001414004122140802015909063E415D59C8
:1001F0004E7C1211127C7F494949363E41414122D1
:100200007F4141413E7F494949417F090909013EFA
:10021000414151737F0808087F00417F4100204021
:10022000413F017F081422417F404040407F021C33
:10023000027F7F0408107F3E4141413E7F0909094A
:10024000063E4151215E7F09192946264949493216
:1002500003017F01033F4040403F1F2040201F3FDC
:100260004038403F63140814630304780403615961
:10027000494D43007F4141410204081020004141A3
:10028000417F04020102044040404040000307084F
:100290000020545478407F2844443838444444284B
:1002A000384444287F385454541800087E090218F2
:1002B000A4A49C787F0804047800447D400020407A
:1002C000403D007F1028440000417F40007C0478BE
:1002D00004787C080404783844444438FC18242406
:1002E0001818242418FC7C08040408485454542486
:1002F00004043F44243C4040207C1C2040201C3C03
:100300004030403C44281028444C9090907C4464F9
:10031000544C44000836410000007700000041368C
:10032000080002010204023C2623263C1EA1A16112
:10033000123A4040207A3854545559215555794144
:100340002154547841215554784020545579400C1B
:100350001E527212395555555939545454593955FC
:100360005454580000457C410002457D420001453F
:100370007C40F0292429F0F0282528F07C545545AC
:10038000002054547C547C0A097F4932494949323F
:100390003248484832324A4848303A4141217A3A54
:1003A00042402078009DA0A07D39444444393D401E
:1003B00040403D3C24FF2424487E4943662B2FFCCB
:1003C0002F2BFF0929F620C0887E09032054547979
:1003D000410000447D413048484A32384040227A4A
:1003E000007A0A0A727D0D19317D2629292F2826C7
:1003F0002929292630484D402038080808080808CF
:100400000808382F10C8ACBA2F102834FA00007B27
:10041000000008142A142222142A1408950022002D
:1004200095AA005500AAAA55AA55AA000000FF00E7
:10043000101010FF00141414FF001010FF00FF1024
:1004400010F010F0141414FC001414F700FF000056
:10045000FF00FF1414F404FC141417101F10101FD5
:10046000101F1414141F00101010F0000000001FC3
:10047000101010101F10101010F010000000FF10CE
:100480001010101010101010FF10000000FF1400CA
:1004900000FF00FF00001F10170000FC04F41414FC
:1004A0001710171414F404F40000FF00F7141414C8
:1004B00014141414F700F7141414171410101F1048
:1004C0001F141414F4141010F010F000001F101F6B
:1004D0000000001F14000000FC140000F010F010D9
:1004E00010FF10FF141414FF141010101F00000050
:1004F00000F010FFFFFFFFFFF0F0F0F0F0FFFFFF54
:100500000000000000FFFF0F0F0F0F0F38444438AA
:10051000447C2A2A3E147E02020606027E027E02E5
:1005200063554941633844443C04407E201E200604
:10053000027E020299A5E7A5991C2A492A1C4C7241
:1005400001724C304A4D4D303048784830BC625AC8
:10055000463D3E494949007E0101017E2A2A2A2A58
:100560002A44445F444440514A444040444A514034
:100570000000FF0103E080FF000008086B6B0836F5
:1005800012362436060F090F060000181800000066
:100590001010003040FF0101001F01011E00191D55
:1005A0001712003C3C3C3C0000000000F0F89C8E20
:1005B0008783878E9CF8F00000FEFF03030303038C
:1005C000070EFCF80000FEFF0303030303070EFC05
:1005D000F80000FFFF00000000000000FFFF000027
:1005E000FEFF8383838383C7EE7C380000F8FC0E14
:1005F00007030303070EFCF800003F7FE0C0808084
:10060000C0E07F3FFFFF01010101010101FFFF0089
:1006100000FFFF0C0C0C0C1C3E77E3C100007FFFB9
:10062000C0C0C0C0C0E0703F1F00001F3F70E0C0EE
:10063000C0C0E0703F1F00007FFFC1C1C1C1C1E366
:10064000773E1C00001F3F70E0C0C0C0E0703F1F3D
:10065000000000000001FFFF01000000D5F08D1434
:10066000A1C881CFD9F1AF20001010FF070301010D
:100670000101010101010101010101FF0000000070
:100680000000000000000000000000FEFEFEFEFE74
:10069000FEFEFEFEFEFEFEFEFCF800FFFFFFFFFF7B
:1006A000FFFFFFFFFFFFFFFFFFFF0000FFFFFFFF58
:1006B000FFFFFFFFFFFFFFFFFFFFFF001F3F7F7FE9
:1006C0007F7F7F7F7F7F7F7F7F7F7FFFFFFFFFFFBA
:1006D000FFFFFFFFFFFFFFFFFFFF007F7F7F7F7FA9
:1006E0007F7F7F7F7F7F7F7F3F1F001010FF07FB93
:1006F000FDFDFDFDFDFDFDFDFDFDFDFDFDFF00FF23
:10070000FFFFFFFFFFFFFFFFFFFFFFFFFFFDFDFDFF
:10071000FDFDFDFDFDFDFDFDFDFDFB07FFFFFFFFF9
:10072000FFFFFFFFFFFFFFFFFFFFFF00FFFF00FFD7
:10073000FFFFFFFFFFFFFFFFFFFFFFFFFFFFE0DF08
:10074000BFBFBFBFBFBFBFBFBFBFBFBFBFFFFFFFF9
:10075000FFFFFFFFFFFFFFFFFFFFFF00FFBFBFBF68
:10076000BFBFBFBFBFBFBFBFBFBFDFE0FF1010FF36
:10077000FFDFEFDFFFFFFFF7FFFFFFFFFFBFFFFF21
:10078000DFFFFFFFFFFFFFFBFDFDBBFFFFFFFFFFE5
:10079000FFFFBFDFBFDFEFFFFFFF7FBF7FFFFFFF79
:1007A000FFFFF7EBF7FFFFFFFFFFFFFEFFFFFFFF7E
:1007B000FFF7EBF7FFFFFFF9F3F9BF5FBFEFF7BFFD
:1007C000DFFCF9E7F3F9FFEFF7FFFFD7EBFFFF3FA0
:1007D0005FAF53AD5DAEFEFE5EAEFEFDFBF70FF00C
:1007E000E1E2C5CA858B978AC5E3E5EBE5F2F8013E
:1007F00001010101010101020202020202020202E0
:1008000001010101010101010002010201020102D5
:1008100002020202020202020002010201020101BE
:1008200002000201020101010102020202020202AF
:10083000020001020101020101020102010303039E
:100840000303030303030303030201020102020182
:100850000200020002030101010101010101010185
:100860000102000200020201020101010103010074
:100870000000000000000000000101010101020170
:10088000020102010203010002020202020202024C
:100890000201000201010201010101010101010245
:1008A0000202020202020202010101010101010130
:1008B000010101010101010202020202020202021F
:1008C0000101010101010101000201020102010215
:1008D00002020202020202020002010201020101FE
:1008E00002000201020101010102020202020202EF
:1008F00002000102010102010102010201030303DE
:1009000003030303030303030302010201020201C1
:1009100002000200020301010101010101010101C4
:1009200001020002000202010201010101030100B3
:1009300000000000000000000001010101010201AF
:10094000020102010203010002020202020202028B
:100950000201000201010201010101010101010284
:10096000020202020202020201010101010101016F
:10097000010101010101010202020202020202025E
:100980000101010101010101000201020102010254
:10099000020202020202020200020102010201013D
:1009A000020002010201010101020202020202022E
:1009B000020001020101020101020102010303031D
:1009C0000303030303030303030201020102020101
:1009D0000200020002030101010101010101010104
:1009E00001020002000202010201010101030100F3
:1009F00000000000000000000001010101010201EF
:100A000002010201020301000202020202020202CA
:100A100002010002010102010101010101010102C3
:100A2000020202020202020201010101010101109F
:100A300010000000C088D44A8A8A4AD408C0000046
:100A400000000000180D434A0B0B4A430D1800002C
:100A5000000000008010A894141494A810800000D6
:100A600000000000011B171407175447030900007A
:100A700000000000C098AC36B6B636AC18C0000016
:100A800000000000180D434A0B0B4A430D180000EC
:100A9000000000008010A894141494A81080000096
:100AA0000000000009034744070714171B0100005A
:100AB000000000F0F8FCFEFFFFFFFFFEFCF8F00076
:100AC000000000183D7FFFFFFFFFFFFF7F3D180084
:100AD000000000E0F0F8FCFEFEFEFEFCF8F0E00096
:100AE000000000011F7F7F7F7FFFFFFFFF1F1900B6
:100AF000000000F0F8FCFEFFFFFFFFFEFCF8F00036
:100B0000000000183D7FFFFFFFFFFFFF7F3D180043
:100B1000000000E0F0F8FCFEFEFEFEF8F8F0E00059
:100B2000000000191FFFFFFFFF7F7F7F7F1F010075
:100B3000001010000000C0983C7E5E5E7E3C98C0B5
:100B4000000000000000180C414A0A0A4A410C1833
:100B5000000000000000803078FCBCBCFC783080D5
:100B600000000000000001391204141464620D0931
:100B7000000000000000C0983C7E5E5E7E3C98C095
:100B8000000000000000180C414A0A0A4A410C18F3
:100B9000000000000000803078FCBCBCFC78308095
:100BA00000000000000009096264141404123901F5
:100BB0000000000000C0F8FCFEFFFFFFFFFEFEFE8D
:100BC0000E00000000000101F9FFFFFFFFF301002C
:100BD0000000000000C0F8FCFEFFFFFFFEFCFCFE72
:100BE0002600000000000161FBFFFFFFFFFF7331E3
:100BF0000000000000C0F8FCFEFFFFFFFFFEFCFC51
:100C00002C00000000000101FBFFFFFFFFF30100CB
:100C10000000000000C0F8FCFEFFFFFFFEFCFCFC33
:100C20006C000000000001FBFFFFFFFFFFFF7331BE
:100C300000000010100000000018DCDE96EAEA94C4
:100C4000E404000000000000000000405959410188
:100C500000000000000000000018DCDE16D6D428DA
:100C6000C80400000000000000006049030B5B5353
:100C700021000000000000000018DCDE96D6EA88A3
:100C8000E808000000000000000000405959410140
:100C900000000000000000000018DCDE16D6D4289A
:100CA000C808000000000000000058590B034B4327
:100CB000210000000000000EFEFEFEFFFFFFFFFE11
:100CC000FCF8C000000000000001F3FFFFFFFFF987
:100CD0000101000000000026FEFCFCFEFFFFFFFEFD
:100CE000FCF8C000000000003173FFFFFFFFFFFBB6
:100CF000610100000000002CFCFCFEFFFFFFFFFE76
:100D0000FCF8C000000000000001F3FFFFFFFFFB44
:100D1000010100000000006CFCFCFCFEFFFFFFFE78
:100D2000FCF8C000000000003173FFFFFFFFFFFF71
:100D3000FB01000000101000000004E494EAEA96B1
:100D4000DEDC1800000000000000000001415959DD
:100D50004000000000000000000004C828D4D6169F
:100D6000DEDC18000000000000000021535B0B03D4
:100D70004960000000000000000008E888EAD696FC
:100D8000DEDC18000000000000000000014159599D
:100D90004000000000000000000008C828D4D6165B
:100DA000DEDC18000000000000000021434B030BB4
:100DB00059580000000000080B0002020200000960
:100DC00004000001020200000524001001052401B6
:100DD0000101042402060524060001070581031011
:100DE000004009040100020A000000070502024059
:100DF00000000705830240000004030904120100FB
:100E000002EF02014041233680000101020301414B
:100E1000726475696E6F204C4C4300417264756258
:100E20006F7900009F1011241FBECFEFDAE0DEBF04
:100E3000CDBF11E0A0E0B1E0E0E8F5E302C005902D
:100E40000D92A633B107D9F725E0A6E3B1E001C0C2
:100E50001D92AE3EB207E1F717E0C3E1D7E004C050
:100E60002197FE010E94B81AC231D107C9F70E942A
:100E7000F8100C94BE1A0C940000E2E6F1E0A0E039
:100E8000B8E000800EBC8111012C1197A0FDFDCFB0
:100E90000192B9F70DB40895FC0180916101882396
:100EA00011F13FB7F89482E08093E9002091F200BD
:100EB000822F90E01816190614F481E090E0882340
:100EC00039F0289844E6409360014091F100408356
:100ED000222339F02091F200211103C02BE6209348
:100EE000E8003FBF08958FEF9FEF08952FB7F89464
:100EF00083E08093E9009091E800892F807295FF4C
:100F000004C09091F20080E4891B2FBF0895809166
:100F1000580181110DC082E08093540184E08093D8
:100F20005501109257011092560181E080935801AB
:100F300084E591E00895CF93DF931F92CDB7DEB79C
:100F40006983DC01ED91FC910280F381E02D41E0A9
:100F500050E0BE016F5F7F4F09950F90DF91CF91F9
:100F6000089583E08093E9008091F200882319F0CE
:100F70008AE38093E80008950E94760790E0089540
:100F8000CF93DF931F92CDB7DEB7FC0184859585A3
:100F900097FD08C02FEF3FEF358724870F90DF9133
:100FA000CF910895CE0101960E944C07019719F444
:100FB000898190E0F3CF8FEF9FEFF0CF0F931F93D6
:100FC000CF93DF931F92CDB7DEB78C01FC018485F0
:100FD000958597FF0BC0CE0101960E944C070197A3
:100FE00071F4898190E0F80195878487F801848500
:100FF00095850F90DF91CF911F910F9108958FEFFD
:101000009FEFF1CFFC018485958597FD0BC09FB7BD
:10101000F89482E08093E9008091F2009FBF90E015
:10102000019608959FB7F89482E08093E90080913B
:10103000F2009FBF90E0089540914E0150914F0102
:1010400020914C0130914D0142175307B4F4909117
:10105000E8009570E1F39091E80092FD19C080934B
:10106000F10080914E0190914F0101968F73992765
:10107000892B19F48EEF8093E80080914E019091B6
:101080004F01019690934F0180934E0181E00895A6
:1010900080E00895DF92EF92FF920F931F93CF931A
:1010A000DF93D82E8A01EB017B01E40EF51ECE15ED
:1010B000DF0559F0D7FE12C0FE0184910E941C0882
:1010C00021968111F4CF0FEF1FEFC801DF91CF916F
:1010D0001F910F91FF90EF90DF9008958881EECFE0
:1010E0000F931F93CF93DF931F92CDB7DEB782E0AC
:1010F000898342E450E067EB7DE080E80E944A0883
:101100000E948707DC0112960D911C9101151105B3
:1011100089F0D801ED91FC910280F381E02DBE01B0
:101120006F5F7F4FC801099597FD04C0F8010085E6
:101130001185ECCF89810F90DF91CF911F910F9195
:101140000895615030F02091F100FC012083019658
:10115000F8CF289884E68093600108953FB7F8940B
:101160008091480190914901A0914A01B0914B01B1
:1011700026B5A89B05C02F3F19F00196A11DB11DF2
:101180003FBFBA2FA92F982F8827BC01CD01620F2E
:10119000711D811D911D42E0660F771F881F991FE9
:1011A0004A95D1F708958F929F92AF92BF92CF92B6
:1011B000DF92EF92FF926B017C010E94AE084B011F
:1011C0005C01C114D104E104F104B9F00E94AE083D
:1011D000681979098A099B09683E73408105910560
:1011E00080F321E0C21AD108E108F10888EE880EE8
:1011F00083E0981EA11CB11CE4CFFF90EF90DF901C
:10120000CF90BF90AF909F908F9008958F929F92B4
:10121000AF92BF92CF92DF92EF92FF920F931F9304
:10122000CF93DF936C017B018A0180910C018823AD
:1012300009F45CC080916101882309F457C0809152
:10124000530180FF05C08091E00082608093E00040
:10125000E801B12C8AEFA82E93E0892E2AE3922E82
:10126000209711F4BB20D9F10E94760781110AC0A2
:10127000AA94AA20D9F161E070E080E090E00E9499
:10128000D308EECF8C171D0611F00CF08C2F9FB7F2
:10129000F8948092E9002091E80025FD02C09FBFEC
:1012A000DFCF282F30E0C21BD30BF701815020F095
:1012B00041914093F100FACFE20EF31EBB2021F0E2
:1012C0009092E800B12CEBCF8091E80085FDE7CF4C
:1012D0009092E800BB24B394209709F3F3CF5D9874
:1012E00084E680935201101611063CF081E090E0F4
:1012F000F6019383828310E000E0C801DF91CF9173
:101300001F910F91FF90EF90DF90CF90BF90AF9023
:101310009F908F900895AF92BF92CF92DF92EF92FD
:10132000FF920F931F93CF93DF936C017B018B018F
:10133000040F151FEB015E01AE18BF08C017D107DF
:1013400059F06991D601ED91FC910190F081E02D69
:10135000C6010995892B79F7C501DF91CF911F91BE
:101360000F91FF90EF90DF90CF90BF90AF900895D6
:101370004F925F926F927F928F929F92AF92BF92A5
:10138000CF92DF92EF92FF920F931F93CF93DF9351
:101390004C015901FC2DC02FD0E0CE01880D991DC4
:1013A000181619060CF06CC020E8821691040CF097
:1013B00067C09B012E0D311D121613060CF060C084
:1013C000603471050CF05CC04115510509F458C03A
:1013D000E62FE770FE2EDB0177FD179633E0B5951B
:1013E000A7953A95E1F73A2F77FF04C0FF2011F057
:1013F0003FEF3A0F662777276819790997FC02C0F3
:1014000070E060E0803891050CF44BC090E89819CA
:10141000961BA32F032E000CBB0B1A2F10953F3FDA
:101420000CF010E021E08E2D877009F420E0E694A6
:10143000E694E694E20EAE0DB11D19971CF028E07B
:10144000E22EE31AE11A310F20E83203D001112411
:10145000A80DB91DA60FB71F019F600D711D1124A6
:10146000460F571F0F2D0F2C000C110BF33009F4F2
:101470001CC1C8F4F13009F4D0C0F23009F47CC0CA
:10148000DF91CF911F910F91FF90EF90DF90CF9060
:10149000BF90AF909F908F907F906F905F904F9094
:1014A0000895902FB5CFFA3FB1F1232F2E0DFB3FBA
:1014B00039F7321729F3BD016E597E4FD12CC12C5B
:1014C000C91608F0A4C0FA01EC0DFD1DE491F0E08E
:1014D0004F01002E02C0880C991C0A94E2F737FDD8
:1014E00006C0FB018081E82CE0948E218083FF20E0
:1014F00061F0373054F45B01F0E8AF0EB11CE92C19
:10150000E094F50180818E218083FFEFCF1ADF0AFE
:101510006F5F7F4FD5CF232F2E0D321709F4B0CF39
:10152000BD016E597E4FD12CC12CC91608F069C07F
:10153000FA01EC0DFD1DE491F0E04F01002E02C018
:10154000880C991C0A94E2F737FD04C0FB018081E6
:1015500088298083FF2051F0373044F45B01F0E8A4
:10156000AF0EB11CF501808189298083FFEFCF1A6E
:10157000DF0A6F5F7F4FD9CF6FEF70E00F2C02C093
:10158000660F771F0A94E2F760957095772E232FE8
:101590002E0D321709F474CFFD01EE59FE4F6F0185
:1015A000B12CA12CA91638F5FA01EA0DFB1DE49126
:1015B000F0E02F01002E02C0440C551C0A94E2F703
:1015C00037FD05C0F6018081862384298083FF20B2
:1015D00059F037304CF44601F0E88F0E911CF401BD
:1015E0008081872185298083FFEFAF1ABF0A8FEFA3
:1015F000C81AD80AD7CF3F5F4C0F5D1FA058BF4F06
:10160000C8CF3F5F4C0F5D1FA058BF4F86CF3F5FD5
:101610004C0F5D1FA058BF4F4CCF6A0D7B1D232F71
:101620002E0D321709F42CCFFD01EE59FE4F6F013C
:10163000B12CA12CA91688F5FB01EA0DFB1D8490A5
:10164000912C002E02C0880C991C0A94E2F7809419
:101650009094FA01EA0DFB1D6490712C002E02C0DB
:10166000660C771C0A94E2F737FD05C0F60180810D
:10167000882186298083FF2049F037303CF4F60129
:10168000E058FF4F8081892187298083FFEFAF1ABF
:10169000BF0A8FEFC81AD80ACDCF3F5F4C0F5D1F2E
:1016A0006C0F7D1FA058BF4FBCCFC92ED12CFA01A3
:1016B000E60FF71FAE59BE4F00E810E00C191D09E8
:1016C000CC19DD09BE01660F771F41E050E06A01C9
:1016D0000F2C01C0CC0C0A94EAF7592F2E2D792E2D
:1016E000CF93DF93ED01EF96EF9622968590A5902C
:1016F000FF2059F08C9C4001AC9C500137302CF4F9
:10170000E880B094EB20E928E99233233AF0EC909A
:10171000A094EA20E828ED920C948F0B11965A952C
:1017200029F72A9551F0572D33951124E60FF11D15
:10173000A00FB11DC00FD11DD9CFDF91CF911124C2
:101740009FCE2D9A0895BC0190E080E00C94D308C0
:101750008FB18095807F669B88601C9B8460089514
:10176000AF92BF92CF92DF92EF92FF920F931F93AF
:10177000CF93DF936D3079F0C0913A01D0913B0166
:101780006A30B1F410923901109238012896D09342
:101790003B01C0933A0181E090E0DF91CF911F912E
:1017A0000F91FF90EF90DF90CF90BF90AF90089592
:1017B000409138015091390185E0689FF001112472
:1017C000E455FF4F9A01C12C80E1E82EA5E070E0BE
:1017D000CA1621F0CF0101967491FC0110E000E0DF
:1017E000B72FB170DB2E20383105D0F4CE01800F39
:1017F000911F80349105A0F461E081FD64E080FDDB
:10180000660F82FD6295887FE89ED0011124A20FA9
:10181000F62EAE59BE4F8C91DD20A9F0862B8C930D
:1018200076950F5F1F4F08301105D1F6C3942F5FD7
:101830003F4F86E0C812CACF4A5F5F4F50933901CD
:1018400040933801A8CFF0948F21E9CFCF93C82FD0
:101850000E94A80B982F9C2381E09C1380E0CF91DD
:10186000089580E00C943D074F925F926F927F92B3
:101870008F929F92AF92BF92CF92DF92EF92FF92A0
:10188000CF93DF9300D000D0CDB7DEB74B015C0122
:1018900029013A0120E030E040E851E40E949B1821
:1018A00020E030E040E85FE30E949A1820E030E05A
:1018B00040E85DE30E94371A0E940C196B0120E09A
:1018C00030E040E851E4C301B2010E949B1820E0DF
:1018D00030E040E85FE30E949A1820E030E040E802
:1018E0005DE30E94371A0E940C1969837A838B8307
:1018F0009C8320E030E040E85DE3C301B2010E9438
:10190000371A0E940C1928E1269F3001279F700C7E
:10191000112420E030E040E85DE3C501B4010E94FD
:10192000371A0E940C199301260F371F2151384F87
:10193000F9014491433009F45DC0F301EC0DFD1D44
:10194000E151F84FE491E33009F454C0A8E1E98192
:10195000FA81AE9FA001AF9F500D1124FA01E60F4E
:10196000F71FE151F84FE491E33009F443C0FA0165
:10197000EC0DFD1DE151F84FE49151E0E33009F029
:1019800050E0F9012491233001F1F301EC0DFD1D2C
:10199000E151F84FE491E330C1F048E1E981FA8187
:1019A0004E9F90014F9F300D1124F901E60FF71F54
:1019B000E151F84FE491E33041F0F901EC0DFD1DE8
:1019C000E151F84FE491E33009F451E0852F0F9095
:1019D0000F900F900F90DF91CF91FF90EF90DF90DD
:1019E000CF90BF90AF909F908F907F906F905F90BF
:1019F0004F90089551E0C5CF089590E080E008959C
:101A00008F929F92AF92BF92EF92FF920F931F938C
:101A1000CF93DF93CDB7DEB7A1970FB6F894DEBFB3
:101A20000FBECDBF7C01FA01CB0119A2223008F410
:101A30002AE08E010F5D1F4F822E912CB12CA12C1C
:101A4000BF01A50194010E947818F901CA016A300A
:101A50004CF5605DD8016E938D01232B242B252B33
:101A600079F790E080E0109761F0FD01019000208F
:101A7000E9F73197AF014A1B5B0BBD01C7010E941B
:101A80008B09A1960FB6F894DEBF0FBECDBFDF91D4
:101A9000CF911F910F91FF90EF90BF90AF909F90CB
:101AA0008F900895695CD6CFCF92DF92EF92FF922C
:101AB0000F931F93CF93DF93EC016A017B016DE2DB
:101AC0000E94B00B8C0144275527BA014C195D09BF
:101AD0006E097F092AE0CE010E94000D800F911F40
:101AE000DF91CF911F910F91FF90EF90DF90CF90FA
:101AF000089542E050E062E371E00C948B090C948D
:101B000062181F920F920FB60F9211248F939F931A
:101B10008091E1009091E100937F9093E10083FF39
:101B20000FC01092E90091E09093EB001092EC004E
:101B300092E39093ED001092610198E09093F00091
:101B400082FF22C093E09093E9009091F2009923E4
:101B500019F09AE39093E80090915201992341F093
:101B600090915201915090935201911101C05D9A50
:101B700090916001992341F0909160019150909370
:101B80006001911101C0289A84FF18C08091E20081
:101B90008E7E81608093E2008091E1008F7E809351
:101BA000E100809153018E7E8061809353019F916B
:101BB0008F910F900FBE0F901F90189580FFF7CF59
:101BC0008091E2008E7E80618093E2008091E1004E
:101BD0008E7E8093E100809153018E7E8160E5CFFF
:101BE0001F920F920FB60F921124CF92DF92EF92B5
:101BF000FF920F931F932F933F934F935F936F9396
:101C00007F938F939F93AF93BF93EF93FF93CF9364
:101C1000DF93CDB7DEB76C97DEBFCDBF1092E90082
:101C20008091E80083FF25C068E0CE0145960E94C0
:101C3000A10882EF8093E8008D8987FF39C09091D9
:101C4000E80090FFFCCF982F907609F034C19E8970
:101C50004F89588D2F89F88C911131C0803861F5EA
:101C6000809151018093F1001092F1008EEF8093EA
:101C7000E8006C960FB6F894DEBF0FBECDBFDF91C3
:101C8000CF91FF91EF91BF91AF919F918F917F91F4
:101C90006F915F914F913F912F911F910F91FF9005
:101CA000EF90DF90CF900F900FBE0F901F90189580
:101CB0009EEF9093E800C7CF1092F100D5CF9130FE
:101CC00059F48111D3CF4130510581F680915101F2
:101CD0008D7F80935101CACF933049F48111C6CFD3
:101CE0004130510519F6809151018260F2CF953053
:101CF00041F48091E80080FFFCCF20682093E3004E
:101D0000B5CF963009F0A9C00B8D1C8D22E0109242
:101D1000E90010924F0110924E01F2122EC0109263
:101D20004D0110924C010E9470081F8299E0998326
:101D3000FA8291E09E8390EA98879AEF99872091A2
:101D40004E0130914F01275F3F4F3C832B838D83A2
:101D50001092E90010924F0110924E0110934D0124
:101D600000934C0149E050E0BE016F5F7F4F80E07F
:101D70000E944A080E94700879CF10934D01009389
:101D80004C010E948707DC0112960D911C910115F0
:101D9000110509F451C1D801ED91FC910480F58140
:101DA000E02DBE016B5E7F4FC8010995009709F0D9
:101DB0003EC1F80100851185EACFF3E0FF120EC0A5
:101DC0008F89882309F440C0823061F440E867E0DD
:101DD0008BE19EE00E946C10811148CF81E28093DC
:101DE000EB0047CF813029F440E86BE08FE09EE0C4
:101DF000F1CF833099F70E948707DC011296ED90AE
:101E0000FC908E010F5F1F4F6801E114F10479F01F
:101E1000D701ED91FC910680F781E02DB801C70153
:101E20000995080F111DF701E084F184EECFD80168
:101E30001C92F60101900020E9F73197BF016C195F
:101E40007D0940E0C601C6CF69EF7DE0FB0144910A
:101E500050E080E80E944A0809CF973009F4BECFCD
:101E6000983021F481E08093F10000CF993009F09F
:101E7000FDCE837009F0B2CFEEE0F1E081E031E019
:101E800096E32191222371F08093E9003093EB00D7
:101E9000DF0111972C912093EC009093ED008F5F60
:101EA000873079F78EE78093EA001092EA008F89F5
:101EB00080936101DBCE8B8D9C8D1092E900109296
:101EC0004F0110924E0190934D0180934C01898DEA
:101ED000811192C08E899D89913A49F4813209F02D
:101EE0007DCF47E050E065E071E080E0B3CF913214
:101EF00009F074CF833269F48F89988DB0E0A0E047
:101F00008093010190930201A0930301B093040117
:101F1000ADCE803269F48091E80082FFFCCF67E0AB
:101F200085E091E00E94A1088BEF8093E8009ECEAF
:101F3000823209F09BCE8F8980930C01EEEFFFE790
:101F4000859194918B3F9C4D51F1E0E0F8E08091B8
:101F5000050190910601A0910701B0910801803B15
:101F60009440A105B105F1F480910C0180FD1AC0E7
:101F7000EE3F8AE0F80789F587E797E7918380834A
:101F8000809160008093500188E19BE00FB6F89447
:101F9000A895809360000FBE9093600067CEEEEF2F
:101FA000FAE0D5CF808191818737974709F05ECEDF
:101FB000A8958091600088618093600080915001B5
:101FC00080936000EE3F2AE0F20789F08091FE0ADC
:101FD0009091FF0A9183808349CE808191818737D8
:101FE000980751F29093FF0A8093FE0AC5CF109292
:101FF000FF0A1092FE0A3ACE0E948707DC01129671
:102000000D911C910115110509F4E8CED801ED914F
:10201000FC910190F081E02DBE016B5E7F4FC80105
:102020000995811123CEF80100851185EBCF181693
:1020300019060CF41BCED2CEF1E0FF12BECE6DEF2E
:102040007DE004CF1F920F920FB60F9211242F93B1
:102050003F938F939F93AF93BF938091440190914F
:102060004501A0914601B09147013091430123E021
:10207000230F2D3758F50196A11DB11D2093430163
:102080008093440190934501A0934601B09347018A
:102090008091480190914901A0914A01B0914B0172
:1020A0000196A11DB11D8093480190934901A09311
:1020B0004A01B0934B01BF91AF919F918F913F9196
:1020C0002F910F900FBE0F901F90189526E8230FA9
:1020D0000296A11DB11DD2CFEF92FF920F931F93D5
:1020E000CF93DF93F82E192FE62E042F81E0860F71
:1020F000880F0E941C0883E00E941C08CF2DD12F5E
:10210000EC0EFD2EF11CCE15DF05B9F007FF13C054
:10211000FE0184910E941C08182F80E00E941C0878
:10212000812321968111EFCFDF91CF911F910F91E4
:10213000FF90EF9008958881EDCF81E0F5CFE2E642
:10214000F5E01382128288EE93E0A0E0B0E0848391
:102150009583A683B78388E191E0918380838FEF95
:102160009FEF95878487E6EBF5E0138212828AE27F
:1021700091E091838083EAEEF5E0138212829183ED
:102180008083EEECF5E080E090E0A0E8B1E48083AD
:102190009183A283B38384839583A683B7831086B8
:1021A000118612861386148615861686178681E098
:1021B00090E0918B808B128A138EEAEBF5E014820B
:1021C000158216821782108611861286138614864F
:1021D000158616861786108A118A128A138A88E055
:1021E00090E09183808384E090E0938382830895DC
:1021F000CF93DF93CDB7DEB764970FB6F894DEBF09
:102200000FBECDBF789484B5826084BD84B58160F3
:1022100084BD85B5826085BD85B5816085BD8091B1
:102220006E00816080936E00109281008091810029
:102230008260809381008091810081608093810021
:102240008091800081608093800080919100826005
:1022500080939100809191008160809391008091A2
:1022600090008160809390008091C1008460809391
:10227000C1008091C10082608093C1008091C10043
:1022800081608093C1008091C30081608093C3000E
:102290008091C00082608093C0008091C200816004
:1022A0008093C20080917A00846080937A0080914C
:1022B0007A00826080937A0080917A0081608093B6
:1022C0007A0080917A00806880937A001092610190
:1022D00010925101109253018091D7008160809338
:1022E000D70080EA8093D80089B5806189BD89B51F
:1022F000826089BD09B400FEFDCF61E070E080E03E
:1023000090E00E94D3088091D8008F7C80618093F8
:10231000D8008091E000807F8093E0008091E10010
:102320008E7E8093E1008DE08093E200559A209AA2
:1023300081EC80937C0085B1806F85B984B1877E04
:1023400084B984B1876E84B95E9A5F988AB1806DD2
:102350008AB9769A6E9881B3806F81BB899880B371
:102360008D7080BB80E58CBD81E08DBD85E090E007
:102370000E94A30B5F9A85E090E00E94A30B5E98F9
:102380005C98ECE5F6E084918EBD00000DB407FE8C
:10239000FDCF319626E0E936F207A9F75C9A81E88D
:1023A00080936400809165008160809365000E9445
:1023B000310C80E80E94260C8823A9F05C9885EAFD
:1023C0008EBD00000DB407FEFDCF5C9A2E982F98AD
:1023D0002D988091640080628093640081E083BFC7
:1023E000889513BEFCCF84E00E94260C882309F454
:1023F00048C02D9884E80E94260C8823E1F00E94B2
:10240000A10B88EC90E00E94A30B2F9882E090E053
:102410000E9462188F3F29F06FEF82E090E00E94E7
:102420006A1884EF91E00E94A30B2F9A84E80E941F
:10243000260C8111FBCF84E10E94260C8823E1F059
:102440000E94A10B88EC90E00E94A30B2E9882E0E2
:1024500090E00E946218882329F060E082E090E01A
:102460000E946A1884EF91E00E94A30B2E9A84E1E7
:102470000E94260C8111FBCF88EC90E00E94A30BF8
:10248000B2CF0E94A10B82E090E00E947F0D8823D2
:1024900009F454C03E9A3F9A81E090E00E947F0D7B
:1024A000382F3470932E81FF12C031112E98E1EF36
:1024B0004E2E55245A9408E010E080E40E94260C29
:1024C000882309F43EC02E9A2F9A0E94A10B82E322
:1024D00090E00E94A30B0E94A80B8111F8CF80E12D
:1024E000809300012FB7F8948091440190914501A9
:1024F000A0914601B09147012FBF80933F01909377
:102500004001A0934101B09342018FB7F8944091EC
:1025100044015091450160914601709147018FBF80
:1025200080913601882309F4D3C01092360180E0EF
:1025300090E0892B51F30E940000E7CF3E983F982E
:10254000ABCF992031F044E04416510411F42E9A97
:102550002F9881E00E943D07920157FE04C0222778
:1025600033272419350927703327C20157FC0796F2
:1025700073E0959587957A95E1F757FE05C0019729
:10258000D801A21BB30B9D01AC015695542F4427D3
:10259000579547954E595E4FB0E0A0E03801621A5A
:1025A000730A8E3FEFEF9E0709F43BC06A01F4E91E
:1025B000CF0ED11C7A0170E060E0FD01E455FA4FC6
:1025C0005F018F3F980779F0F501E60FF71FE4915F
:1025D000F0E01F01022E01C0220C0A94EAF7F70175
:1025E00084882828248A2115310581F0F501E60F19
:1025F000F71FE491F0E01F01062C02C035942794E8
:102600000A94E2F7F6018080282820826F5F7F4FCE
:10261000FFEFCF1ADF0AEFEFEE1AFE0A68357105F9
:1026200081F60196A85ABF4F40585F4FA03BB105B5
:1026300009F0B7CF0E94310C8FE090E00E94A30B0D
:10264000FFEF4F1A5F0A29E14216510409F035CF16
:10265000992011F02F9A2D9880E991E00E94A30B08
:102660000E94A10B81E090E00E947F0D80FF2FCFA0
:102670008AE090E00E947F0D9FEF980F9E3F08F048
:1026800026CF22E330E0309339012093380128E34C
:1026900030E030933B0120933A014BE050E05A8305
:1026A0004983682F8AEE95E00E94B00B89819A8158
:1026B0000E947F0DA981BA811196BA83A98351978F
:1026C00081F70E94310C88EE93E00E94A30BFFCEAD
:1026D00080913701B42FB81B8B2F90910001B9174F
:1026E00048F48F5F891708F022CF81E083BF889577
:1026F00013BE1DCFE1E0E093360140933701809196
:102700003C0190913D01019690933D0180933C01E5
:102710002FB7F8948091440190914501A091460112
:10272000B09147012FBF40913F015091400160910E
:102730004101709142016C017D01C41AD50AE60A7B
:10274000F70A80933F0190934001A0934101B09319
:1027500042010E94A80B0E94A80B80933E01109298
:10276000D6051092D7051092D8051092D90510926F
:10277000DA051092DB051092DC051092DD0580E28F
:102780000E94260C882309F4B8C06091DE05709180
:10279000DF05719561957109072E000C880B990B67
:1027A0000E9444196093D6057093D7058093D8058D
:1027B0009093D905F1E0F093E00585E39DE09093D7
:1027C000E6058093E50585EB9CE09093E805809312
:1027D000E70580E80E94260C882309F4B2C06091C6
:1027E000DE057091DF05719561957109072E000C6A
:1027F000880B990B0E9444196093DA057093DB05EE
:102800008093DC059093DD0583E08093E00581E310
:102810009BE09093E6058093E50581EB9AE0909329
:10282000E8058093E7058090CE059090CF05A090B5
:10283000D005B090D10520E030E0A901C501B40178
:102840000E94071987FF9AC01092CE051092CF05FB
:102850001092D0051092D1058090D2059090D305AA
:10286000A090D405B090D50520E030E0A901C501C5
:10287000B4010E94071987FF99C01092D2051092E7
:10288000D3051092D4051092D5058091E0058823D8
:1028900009F4A4C08091E005833009F0D3C02091F1
:1028A000D2053091D3054091D4055091D505609162
:1028B000DA057091DB058091DC059091DD050E94C1
:1028C0009B184B015C012091D6053091D7054091B2
:1028D000D8055091D9056091CE057091CF058091B2
:1028E000D0059091D1050E949B18A50194010E94EA
:1028F000340C882309F49EC0A5C080E40E94260CF5
:10290000882309F466CF6091DE057091DF05072EFC
:10291000000C880B990B0E9444196093D6057093A4
:10292000D7058093D8059093D90582E08093E00580
:1029300083E39CE09093E6058093E50583EB9BE0C1
:1029400044CF80E10E94260C882309F46CCF60916B
:10295000DE057091DF05072E000C880B990B0E9495
:1029600044196093DA057093DB058093DC0590933E
:10297000DD051092E0058FE29AE04BCF20E030E0D9
:1029800048EB53E4C501B4010E94321A18160CF04A
:1029900063CF80E090E0A8EBB3E48093CE05909302
:1029A000CF05A093D005B093D10556CF20E030E0FD
:1029B00048EB53E4C501B4010E94321A18160CF01A
:1029C00064CF80E090E0A8EBB3E48093D2059093CD
:1029D000D305A093D405B093D50557CF2091D20548
:1029E0003091D3054091D4055091D5056091DA0519
:1029F0007091DB058091DC059091DD050E949B18AC
:102A00004B015C012091D6053091D7054091D80546
:102A10005091D9056091CE057091CF058091D00578
:102A20009091D1050E949B18A50194010E94340C3D
:102A3000811130CF1092D6051092D7051092D8058B
:102A40001092D905C092B205D092B305E092B405B8
:102A5000F092B505C092E105D092E205E092E3055F
:102A6000F092E4058090D6059090D705A090D80507
:102A7000B090D905C090DA05D090DB05E090DC0578
:102A8000F090DD052091E0052983213009F4F6C19D
:102A900008F4DBC1223009F403C2233009F419C25F
:102AA00080913C0190913D016FE070E00E94A41A7A
:102AB000892BE9F420E030E0A901C501B4010E94AE
:102AC0000719811109C020E030E0A901C701B60152
:102AD0000E940719882329F08091E9058F5F809370
:102AE000E9058091E905843010F01092E905209104
:102AF000CE053091CF054091D0055091D105C5014B
:102B0000B4010E949B184B015C014090D20550908B
:102B1000D3056090D4057090D505A3019201C7013B
:102B2000B6010E949B186B017C01A3019201C501B3
:102B3000B4010E94340C89836091CE057091CF0559
:102B40008091D0059091D105A70196010E94340C87
:102B50004981411108C08092CE059092CF05A09284
:102B6000D005B092D105811108C0C092D205D09293
:102B7000D305E092D405F092D5058090CE059090D3
:102B8000CF05A090D005B090D105C090D205D090CF
:102B9000D305E090D405F090D5058092BE059092C3
:102BA000BF05A092C005B092C105C092C205D092E7
:102BB000C305E092C405F092C5050091BA051091D5
:102BC000BB058091BC059091BD059C838B8338E14A
:102BD000232E312CB101601B710B072E000C880BCA
:102BE000990B0E9444192B013C0120E030E040E8A1
:102BF0005DE3C501B4010E94371A4B015C01B801C5
:102C0000012E000C880B990B0E94441920E030E043
:102C100040E05FE30E94371A9B01AC01C501B4019B
:102C20000E949A1820E030E040E05FE30E949B1889
:102C3000A30192010E949E199B01AC0160E070E02B
:102C4000CB010E947F192B013C014092C605509296
:102C5000C7056092C8057092C905B101AB81BC81FE
:102C60006A1B7B0B072E000C880B990B0E944419E2
:102C70004B015C0120E030E040E85DE3C701B601B4
:102C80000E94371A6B017C01EB81FC81BF01FF0FB1
:102C9000880B990B0E94441920E030E040E05FE38C
:102CA0000E94371A9B01AC01C701B6010E949A1815
:102CB00020E030E040E05FE30E949B18A501940112
:102CC0000E949E199B01AC0160E070E0CB010E9464
:102CD0007F194B015C018092CA059092CB05A092AE
:102CE000CC05B092CD0580E0E2E6F1E081118FEFF6
:102CF000002481938193819381930394D1F710925F
:102D00003B0110923A011092390110923801C5012D
:102D1000B4010E940C196B017A8369832B813C8179
:102D2000260F371F3C832B83C301B2010E940C196D
:102D3000698B7A8BA801460F571F5E834D8388E10C
:102D40008C9DD0018D9DB00D1124BC8BAB8BEB8184
:102D5000FC8129813A81E217F3070CF4D9C0298854
:102D60003A884B895C894151584F5C874B87C90130
:102D7000092E000CAA0BBB0B8D879E87AF87B88BE3
:102D8000AD81BE81A215B3050CF4B5C0EB85FC8501
:102D9000E20DF31D14916D857E858F8598890E94C3
:102DA0004419A50194010E949A1820E030E040E8FF
:102DB00051E40E94371A0E940C196F837887898723
:102DC0009A87B101032C000C880B990B0E944419BF
:102DD000A30192010E949A1820E030E040E851E4FB
:102DE0000E94371A0E940C19CB01EDE6F7E004911E
:102DF000EEE6F7E0E4904FE657E01123D1F021E052
:102E000030E04E2D477011F430E020E04E2D469515
:102E100046954695420F532F511D049F9001059FE3
:102E2000300D1124129FA001139F500D1124415900
:102E3000584F22E0C22E30E020E06F8178850E945A
:102E4000B809FFEF2F1A3F0A9BCF20E030E0A9011D
:102E5000C701B6010E940719811122CE81EB9AE0C9
:102E60009093E8058093E7058FE29AE09093E6055A
:102E70008093E50582E08093E90512CE20E030E002
:102E8000A901C501B4010E940719811109CE85EB82
:102E90009CE09093E8058093E70585E39DE0E6CF0D
:102EA00020E030E0A901C501B4010E940719811199
:102EB000F7CD83EB9BE09093E8058093E70583E3F0
:102EC0009CE09093E6058093E50539813093E90510
:102ED000E7CD20E030E0A901C701B6010E94071943
:102EE0008111DECD81EB9AE09093E8058093E705B0
:102EF00081E39BE0BBCF29813A812F5F3F4F3A832B
:102F000029834B895C89485E5F4F5C8B4B8B1FCF5D
:102F10004090CA055090CB056090CC057090CD05CF
:102F2000C090C605D090C705E090C805F090C905CF
:102F30002091D2053091D3054091D4055091D5050B
:102F40006091CE057091CF058091D0059091D1050B
:102F50000E94340C482F50E070E060E02AE086EBDD
:102F600095E00E94000D86EB95E00E94790D80911E
:102F7000E5059091E6059A838983009709F46AC074
:102F80004091E905A090E705B090E805FC010491A7
:102F9000319614919C012E5F3F4F3A83298344233D
:102FA00011F181E090E0212F277011F490E080E092
:102FB000212F269526952695820F911D089F900119
:102FC000099F300D1124429FC001439F900D112491
:102FD000A114B10411F0A80EB91E49815A81480FFD
:102FE000591F5A83498320E030E040E851E4C3018F
:102FF000B2010E94371A9B01AC016091D205709119
:10300000D3058091D4059091D5050E949A180E940D
:103010000C192B0120E030E040E851E4C701B60173
:103020000E94371A9B01AC016091CE057091CF05CB
:103030008091D0059091D1050E949A180E940C1998
:10304000CB01CC24C394E12E950149815A81B20170
:103050000E94B809EBEEF6E00491ECEEF6E0E490A5
:103060008E2D877021E030E011F430E020E08E2DCD
:10307000869586958695820F932F911D089FA001B6
:10308000099F500D11249A012759394F4351594F27
:10309000CC24C39460E170E080E190E00E94B80924
:1030A000E9EEF8E0449150E070E060E02AE08AEE5A
:1030B00095E00E94000D8AEE95E00E94790D0E9435
:1030C000310C35CAF999FECF92BD81BDF89A992786
:1030D00080B50895262FF999FECF1FBA92BD81BD04
:1030E00020BD0FB6F894FA9AF99A0FBE019608958A
:1030F000A1E21A2EAA1BBB1BFD010DC0AA1FBB1FFC
:10310000EE1FFF1FA217B307E407F50720F0A21B6D
:10311000B30BE40BF50B661F771F881F991F1A94DA
:1031200069F760957095809590959B01AC01BD0104
:10313000CF0108955058BB27AA270E94B2180C94BB
:10314000F8190E94EA1938F00E94F11920F039F4B8
:103150009F3F19F426F40C94E7190EF4E095E7FB71
:103160000C94E119E92F0E94091A58F3BA17620763
:1031700073078407950720F079F4A6F50C942B1AB1
:103180000EF4E0950B2EBA2FA02D0B01B901900182
:103190000C01CA01A0011124FF27591B99F0593FC6
:1031A00050F4503E68F11A16F040A22F232F342F0E
:1031B0004427585FF3CF469537952795A795F0405C
:1031C0005395C9F77EF41F16BA0B620B730B840B71
:1031D000BAF09150A1F0FF0FBB1F661F771F881F29
:1031E000C2F70EC0BA0F621F731F841F48F4879581
:1031F00077956795B795F7959E3F08F0B0CF939573
:10320000880F08F09927EE0F9795879508950E94EB
:10321000BD1908F481E008950E9413196894B11152
:103220000C942C1A08950E94111A88F09F5798F058
:10323000B92F9927B751B0F0E1F0660F771F881FBB
:10324000991F1AF0BA95C9F714C0B13091F00E94D5
:103250002B1AB1E008950C942B1A672F782F88272A
:10326000B85F39F0B93FCCF3869577956795B395FC
:10327000D9F73EF490958095709561957F4F8F4F6B
:103280009F4F0895E89409C097FB3EF49095809570
:10329000709561957F4F8F4F9F4F9923A9F0F92F1C
:1032A00096E9BB279395F695879577956795B7959A
:1032B000F111F8CFFAF4BB0F11F460FF1BC06F5F80
:1032C0007F4F8F4F9F4F16C0882311F096E911C092
:1032D000772321F09EE8872F762F05C0662371F0B3
:1032E00096E8862F70E060E02AF09A95660F771FC7
:1032F000881FDAF7880F9695879597F90895990FA3
:10330000BB0B550FAA0BE0E8FEEF16161706E807F1
:10331000F90770F012161306E407F50760F0BA1704
:103320003CF049F46217730784079507A7951BF4CF
:10333000B901CA01BA2FB69597950895990FBB0B9D
:10334000550FAA0BE0E8FEEF16161706E807F90777
:1033500070F012161306E407F50760F0BA1754F080
:1033600031F42617370748075907A7951BF4B90109
:10337000CA01BA2FB69597950895990F0008550F71
:10338000AA0BE0E8FEEF16161706E807F907C0F0EB
:1033900012161306E407F50798F0621B730B840BF3
:1033A000950B39F40A2661F0232B242B252B21F4CD
:1033B00008950A2609F4A140A6958FEF811D811D6D
:1033C000089597F99F6780E870E060E008959FEFA7
:1033D00080EC089500240A941616170618060906AC
:1033E000089500240A94121613061406050608957B
:1033F000092E0394000C11F4882352F0BB0F40F403
:10340000BF2B11F460FF04C06F5F7F4F8F4F9F4F42
:10341000089557FD9058440F551F59F05F3F71F0C4
:103420004795880F97FB991F61F09F3F79F087952B
:103430000895121613061406551FF2CF4695F1DFB4
:1034400008C0161617061806991FF1CF8695710544
:10345000610508940895E894BB2766277727CB0178
:1034600097F908950E94BD1908F48FEF08950E94FE
:103470004A1A0C94F8190E94EA1938F00E94F119BE
:1034800020F0952311F00C94E1190C94E719112404
:103490000C942C1A0E94091A70F3959FC1F3950F92
:1034A00050E0551F629FF001729FBB27F00DB11DC8
:1034B000639FAA27F00DB11DAA1F649F6627B00D58
:1034C000A11D661F829F2227B00DA11D621F739F41
:1034D000B00DA11D621F839FA00D611D221F749F4F
:1034E0003327A00D611D231F849F600D211D822F96
:1034F000762F6A2F11249F5750409AF0F1F08823BD
:103500004AF0EE0FFF1FBB1F661F771F881F9150E9
:103510005040A9F79E3F510580F00C94E1190C949E
:103520002C1A5F3FE4F3983ED4F386957795679520
:10353000B795F795E7959F5FC1F7FE2B880F911D13
:103540009695879597F90895AA1BBB1B51E107C073
:10355000AA1FBB1FA617B70710F0A61BB70B881F23
:10356000991F5A95A9F780959095BC01CD010895B2
:10357000EE0FFF1F0590F491E02D0994F894FFCF12
:1035800010FFFFFFFF00E100000000000000C1800D
:1035900081000000000000009B070609BC07B1077E
:1035A0000208C007DE0700000000B00B8B09FD0C0D
:0635B000FC0C0D0A0000F6
:00000001FF
